:100000000C949D000C94C5000C94C5000C94BD1676
:100010000C9498160C9473160C94C5000C94C5009F
:100020000C94C5000C94C5000C94C5000C94C5003C
:100030000C94C5000C94C5000C94C5000C94C5002C
:100040000C94781B0C94C5000C94C2100C949C105A
:100050000C94C5000C94C5000C94C5000C94C5000C
:100060000C94C5000C94C500BE11CE11D511DB1146
:10007000E211E811EF11F211FD11B113B4133413B1
:100080005713CA136B1373135F149013B1136B13CD
:10009000B41334135713CA13F51308141D140000B6
:1000A0000000250028002B0000000000230026008F
:1000B000290000000000240027002A000102040893
:1000C00010204080010204081020010204081020C2
:1000D00004040404040404040202020202020303EE
:1000E000030303035A44410056544700524D430052
:1000F000475356004753540047534100474C4C0068
:10010000474741000001FC00F800F400F000EC005B
:10011000E800E4007C3C3E5E2B3D3F2F5B5D3B2CCA
:100120002A225C000000000800020100000304070E
:1001300000000000000000002F2011241FBECFEFA0
:10014000D8E0DEBFCDBF25E0AAE9B1E001C01D9235
:10015000A039B207E1F711E0A0E0B1E0E4E0FCE48F
:1001600002C005900D92AA39B107D9F710E0CDE988
:10017000D0E004C02197FE010E94CE23CC39D107E4
:10018000C9F70E94C21B0C9400260C940000DC01ED
:100190005996ED91FC915A973097B9F083899489DB
:1001A000A589B6894285538564857585841B950B21
:1001B000A60BB70B811520E89207A105B10538F011
:1001C0008FEF9FE7A0E0B0E0089580E090E0089511
:1001D000CF93DF931F92CDB7DEB76983DC01ED913A
:1001E000FC910280F381E02D41E050E0BE016F5FA1
:1001F0007F4F09950F90DF91CF910895089580E08A
:1002000090E00895CF93DF93EC018D81882379F1FD
:100210008C8187FF28C06E857F858889998941E018
:100220000E941D17882319F1EA8980E2E89FF001F6
:100230001124E855FE4F3097D1F08D81823040F483
:100240008B899C89AD89BE89848F958FA68FB78F46
:100250008F89988DA98DBA8D938F828FB58BA48B42
:100260008C818F778C83DF91CF910C94E21680E0A4
:10027000DF91CF910895FC01818D928D009711F04F
:100280000C94020108958F929F92AF92BF92CF92E9
:10029000DF92EF92FF920F931F93CF93DF93EC01C6
:1002A0008D81811102C080E078C00B891C892D8965
:1002B0003E890417150726073707A8F36A017B0153
:1002C000823029F4CA86DB86EC86FD860DC0C11417
:1002D000D104E104F10451F41E821F8218861986AC
:1002E0001A861B861C861D8681E057C08A849B84E3
:1002F000AC84BD84EB8DFC8D258530E0275F3F4FBE
:10030000B501A4014150510961097109022E04C0CF
:1003100076956795579547950A94D2F7D701C60108
:100320000197A109B10904C0B695A795979587953E
:100330002A95D2F784179507A607B70720F08928D2
:100340008A288B2871F44F89588D698D7A8D4E8358
:100350005F83688779874C015D018E010A5F1F4FBB
:1003600016C0841B950BA60BB70BF5CF4E815F8192
:100370006885798598018B8D9C8D0E94071891E086
:10038000891A9108A108B108882309F48CCF811437
:100390009104A104B10451F795CFDF91CF911F9142
:1003A0000F91FF90EF90DF90CF90BF90AF909F9014
:1003B0008F9008958F929F92AF92BF92CF92DF92CB
:1003C000EF92FF920F931F93CF93DF9300D000D053
:1003D000CDB7DEB77C0180E2689FF0011124E855BB
:1003E000FE4F9385917121F0842F827409F08FC0A4
:1003F000142FD70152966C9352974091020150915D
:10040000030160910401709105011E964D935D9367
:100410006D937C9351974489558960E070E0BA01EF
:1004200055274427828D938DA0E0B0E0482B592BAF
:100430006A2B7B2BD70157964D935D936D937C93DD
:100440005A978385887159F4848D958DA68DB78DC3
:10045000F701838B948BA58BB68B81E012C0803122
:1004600009F055C097012D5E3F4FD7015B968D91E6
:100470009C915C970E94680C882309F448C084E032
:10048000F7018583812F8F70D70114968C93149771
:10049000F70116821782108611861A961D921D92F8
:1004A0001D921C921D9716FF34C015968C918130B9
:1004B00071F511FF2CC0F70143895489658976894C
:1004C000452B462B472B09F461C040E050E0BA01B0
:1004D000C7010E9443018823D1F0F7018788908CDF
:1004E000A18CB28CC38CD48C82E090E0A0E0B0E010
:1004F000F60180839183A283B3839E012F5F3F4FD8
:10050000B501A401C6010E940718811104C080E052
:100510003DC081E03BC000E010E09801B501A401BE
:10052000C6010E946617882391F389809A80AB8068
:10053000BC80D60157968C91803129F088EF9FEFCF
:10054000AFEFBFE004C088EF9FEFA0E0B0E08816F7
:100550009906AA06BB0688F2D70157961D921D92EE
:100560001D921C925A97F701138A148A158A168ACB
:10057000848180688483C7010E940201882339F244
:1005800040E050E0BA01C7010E9443010F900F9074
:100590000F900F90DF91CF911F910F91FF90EF90EF
:1005A000DF90CF90BF90AF909F908F900895CF93A2
:1005B000DF93EC010E940201882311F01D8281E08B
:1005C000DF91CF9108953F924F925F926F927F9209
:1005D0008F929F92AF92BF92CF92DF92EF92FF9253
:1005E0000F931F93CF93DF93CDB7DEB72C970FB642
:1005F000F894DEBF0FBECDBF5C01DC015B968D9031
:100600009C905C971696CD90DD90ED90FC9019979C
:10061000C114D104E104F10439F0BFEFCB1ADB0AB5
:10062000EB0AFB0A312C07C0F401C080D180E280C4
:10063000F38033243394F40181859285A385B485B6
:100640009C01AD012F5F3F4F4F4F5F4F29873A8786
:100650004B875C87260137011D821E821F82188608
:10066000F40181859285A385B4852D813E814F81DA
:100670005885281739074A075B0708F063C0898542
:100680009A85AB85BC858C159D05AE05BF0550F4DC
:1006900082E0C82ED12CE12CF12C92E0492E512C75
:1006A000612C712C9E012F5F3F4FB701A601C40141
:1006B0000E940718882309F445C089819A81AB817B
:1006C000BC81892B8A2B8B2B41F0260137019FEFB0
:1006D000491A590A690A790A05C0C414D504E604FE
:1006E000F70491F02D813E814F8158852F5F3F4F58
:1006F0004F4F5F4F2D833E834F8358873FEFC31A81
:10070000D30AE30AF30AACCF0FEF1FEF2FEF3FE05E
:10071000B301A201C4010E946617882399F0D50194
:1007200016964D915D916D917C91199741155105EA
:100730006105710549F093018201C4010E946617A9
:10074000811102C080E02AC0D50116964D925D92BB
:100750006D927C921997332051F0D301C20101961A
:10076000A11DB11DF40180839183A283B383F501A0
:100770008789908DA18DB28D892B8A2B8B2B69F463
:10078000D50157964D925D926D927C925A97149630
:100790008C911497806814968C9381E02C960FB6F8
:1007A000F894DEBF0FBECDBFDF91CF911F910F91A7
:1007B000FF90EF90DF90CF90BF90AF909F908F9081
:1007C0007F906F905F904F903F9008958FB7F8940F
:1007D00080919B018FBF089561E0FC0184810E949C
:1007E000A91A80919A01811110929A0108958EBDE3
:1007F00000000DB407FEFDCF8EB508958FEF0C9469
:10080000F7030F931F93CF93DF93EB010E946C1BB1
:100810008B010E94FE038F3F49F00E946C1B601BFE
:10082000710B6C177D07A8F380E001C081E0DF91B8
:10083000CF911F910F910895CF93DF93EC018E819B
:10084000882389F08F8198859C012F5F3F4F3887DF
:100850002F838230924018F40E94FE03F3CFCE0122
:100860000E94EC031E82DF91CF9108958CBD9DBD47
:100870000895CF93DF93EC0180919A01811109C013
:1008800081E080939A0180914E0490914F040E94E0
:10089000360460E08C81DF91CF910C94A91A8F927D
:1008A0009F92AF92BF92FF920F931F93CF93DF93CC
:1008B000EC01F62E49015A010E941C04CE010E944F
:1008C00039046CE271E0CE010E9401048F2D806436
:1008D0000E94F70308E110E0D501C401002E04C016
:1008E000B695A795979587950A94D2F70E94F70336
:1008F00008501109083F8FEF180771F7FF2029F002
:1009000088E0F81204C087E803C085E901C08FEFD2
:100910000E94F70310E00E94FE038A8787FF04C04D
:100920001F3F11F01F5FF7CFDF91CF911F910F9104
:10093000FF90BF90AF909F908F900895AF92BF921D
:10094000CF92DF92EF92FF920F931F93CF93DF939B
:10095000EC016901C801820F931F8130924008F0B9
:1009600070C08E81882371F088819981AA81BB81B2
:1009700084179507A607B70729F48F819885C816AD
:10098000D906B0F5488359836A837B838B8583308E
:1009900039F089E0440F551F661F771F8A95D1F7FC
:1009A0009A01AB0161E1CE010E944F04882319F046
:1009B00083E08D8346C00E946C1B5B010E94FE0396
:1009C0008A878F3F49F40E946C1B6A197B096D323C
:1009D0007140A0F38FE003C08E3F31F08DE08D8336
:1009E000CE010E94EC032DC018861F8281E08E8309
:1009F0008F8198858C159D0540F40E94FE038F81A0
:100A00009885019698878F83F3CF6701E00EF11EDA
:100A1000EC14FD0431F00E94FE03F60181936F0196
:100A2000F7CF8F819885080F191F18870F83898545
:100A3000882319F00115124048F0CE010E941C04D1
:100A400005C0CE010E94EC0380E001C081E0DF918F
:100A5000CF911F910F91FF90EF90DF90CF90BF90BB
:100A6000AF900895EF92FF920F931F93CF93DF9370
:100A7000EC017901411551056105710511F482E11F
:100A80003CC08B85833039F089E0440F551F661FC9
:100A9000771F8A95D1F79A01AB0168E1CE010E94D8
:100AA0004F04882311F084E028C08EEF0E94F703E2
:100AB00087018EEFF81AF80181918F010E94F703E8
:100AC000E016F106C1F78FEF0E94F7038FEF0E9447
:100AD000F7030E94FE038A878F71853031F081E130
:100AE0008D83CE010E94EC0309C068E572E0CE015F
:100AF0000E940104811107C085E18D83CE010E940F
:100B0000EC0380E014C020E030E0A9016DE0CE01EC
:100B10000E944F04811109C00E94FE03811105C08B
:100B2000CE010E94EC0381E002C084E1E6CFDF91B8
:100B3000CF911F910F91FF90EF9008952F923F92C8
:100B40004F925F926F927F928F929F92AF92BF92DD
:100B5000CF92DF92EF92FF920F931F93CF93DF9389
:100B600000D000D0CDB7DEB78C015B011A01DC01EB
:100B700015968C9115978130C9F414968C9181FF4C
:100B800015C082FF1DC0F8014389548965897689A3
:100B900082859385A485B58584179507A607B70731
:100BA00079F0C8010E94430181110AC081E090E000
:100BB000D80113969C938E93129780E090E036C1F3
:100BC000610183C05B968D919C915C97FC01748060
:100BD0002FEF270D2A013B0139E076946794579453
:100BE00047943A95D1F7722E74207A01F1E0FF22F2
:100BF000772009F476C080E092E08E199F094601C3
:100C00008C159D0508F44C01D8015B962D913C9103
:100C10005C9716968D919D910D90BC91A02D029799
:100C2000A109B109F901058404C0880F991FAA1F01
:100C3000BB1F0A94D2F74685578560897189840F56
:100C4000951FA61FB71F9C01AD01270D311D411D2A
:100C5000511D29013A01811432E0930609F088C040
:100C60008091020190910301A0910401B0910501CE
:100C7000481659066A067B0659F48FEF9FEFDC0190
:100C80008093020190930301A0930401B0930501A6
:100C90009501B301A2018091A8039091A9030E943C
:100CA0003205882309F482CF9EEFB91AC818D908F3
:100CB000F80182859385A485B585880D991DA11DB0
:100CC000B11D82879387A487B587D8011A964D9165
:100CD0005D916D917C911D97C114D10409F072CF83
:100CE00087C0E114F10409F086CF16964D915D910D
:100CF0006D917C911997411551056105710559F464
:100D000057968D919D910D90BC91A02D0097A105B6
:100D1000B10541F521C09E012F5F3F4F0E9407188A
:100D2000882309F44BCF89819A81AB81BC81F8017A
:100D3000238D348DF9012789203129F048EF5FEFA9
:100D40006FEF7FE004C048EF5FEF60E070E0841772
:100D50009507A607B70730F0C8010E94E30281118A
:100D60004ACF24CFF80186839783A087B18743CFEA
:100D7000E114F10429F5D8011A964D915D916D9118
:100D80007C911D9753968D919D910D90BC91A02DB6
:100D9000481759076A077B0798F00E94E2168823D4
:100DA00009F404CF409202015092030160920401C1
:100DB0007092050180913B05816080933B0508C0DE
:100DC00041E0C301B2010E941D17882309F4EECE51
:100DD000D501F701E855FE4F9F01280D391D2E174B
:100DE0003F0719F08D918193FACFA80CB91C5ECF03
:100DF000F80183899489A589B68984179507A60780
:100E0000B70738F4438B548B658B768B848180686D
:100E10008483F801848183FD02C0C10107C0C80139
:100E20000E940201882309F4C1CEF7CF0F900F90E2
:100E30000F900F90DF91CF911F910F91FF90EF9046
:100E4000DF90CF90BF90AF909F908F907F906F90EA
:100E50005F904F903F902F900895CF93DF93EC01D8
:100E6000898D9A8D009739F481E090E09B838A8385
:100E700080E090E00BC0FC01138212820E949E056C
:100E8000E98DFA8D22813381232B71F7DF91CF9188
:100E90000895FC01DB0112968D919C911397938329
:100EA000828382E291E09183808314968C911497DF
:100EB000848315968C911597858316964D915D9137
:100EC0006D917C91199746835783608771871A9635
:100ED0004D915D916D917C911D97428753876487F9
:100EE00075871E964D915D916D917C9151974687C6
:100EF0005787608B718B52968C915297828B539649
:100F00004D915D916D917C915697438B548B658B80
:100F1000768B57964D915D916D917C915A97478B49
:100F2000508F618F728F5B968D919C915C97948F9F
:100F3000838F08954F925F926F927F92AF92BF928C
:100F4000CF92DF92EF92FF920F931F93CF93DF9395
:100F50001F92CDB7DEB7FC012581222309F4C1C061
:100F6000848180FFBEC083899489A589B689428423
:100F700053846484758484159505A605B70509F422
:100F8000B0C06F015201F1E0BF22D6015B968D9196
:100F90009C915C97B301A20139E0769567955795CE
:100FA00047953A95D1F7223071F4FC01828D938DEB
:100FB000A48DB58D8A019B01080F191F2A1F3B1FA5
:100FC000C901B8014AC0DC0114961C9111501423C8
:100FD000A114B104F9F411111DC045284628472871
:100FE00051F4F6018789908DA18DB28D8683978308
:100FF000A087B1870FC0D60116964D915D916D9176
:101000007C91199796012A5F3F4F0E940718882309
:1010100009F467C0F601238D348D86819781A08500
:10102000B1850297A109B109AC01BD01F90105849F
:1010300004C0440F551F661F771F0A94D2F7868598
:101040009785A089B189840F951FA61FB71FBC0182
:10105000CD01610F711D811D911DD60114962C913A
:1010600026FF0DC0409002015090030160900401E2
:1010700070900501461657066806790699F440E017
:101080000E941D17882369F1F501E855FE4FDE0126
:1010900011969F012F5F3F4F2E173F0799F08191C7
:1010A0008D93FACFFE0131967F0101E010E09501AA
:1010B000AB01BC018091A8039091A9030E949E04FA
:1010C000882379F0F60182859385A485B5850196FC
:1010D000A11DB11D82879387A487B587898190E080
:1010E00002C08FEF9FEF0F90DF91CF911F910F9173
:1010F000FF90EF90DF90CF90BF90AF907F906F9078
:101100005F904F900895FC01818D928D009711F0B2
:101110000C949A078FEF9FEF08950F931F93CF932F
:10112000DF93FC01818D928D0097B9F0EF010E9451
:101130009A078C010F3F8FEF180791F0898D9A8DD8
:10114000FC014285538564857585415051096109CB
:1011500071090E944301C80105C080E090E002C00F
:101160008FEF9FEFDF91CF911F910F9108958F9295
:101170009F92AF92BF92CF92DF92EF92FF924B017C
:101180005C016B017C0182E0F694E794D794C794EC
:101190008A95D1F7D501C40124E0B695A795979516
:1011A00087952A95D1F7C80ED91EEA1EFB1ED701D6
:1011B000C60134E0B695A795979587953A95D1F7EE
:1011C000C80ED91EEA1EFB1EBB27AF2D9E2D8D2DEE
:1011D000C80ED91EEA1EFB1EC701AA27BB27C80ED0
:1011E000D91EEA1EFB1EA3E0B0E0A70196010E94F3
:1011F0005122A5019401261B370B480B590BABE07C
:10120000B0E00E945122DC01CB0165E0B695A795C4
:10121000979587956A95D1F7BC01CD016C0D7D1D21
:101220008E1D9F1DFF90EF90DF90CF90BF90AF90ED
:101230009F908F900895CF93C82F60E00E94A91AC5
:1012400064E670E080E090E00E94321B61E08C2F49
:101250000E94A91A64E670E080E090E00E94321BD0
:1012600060E08C2F0E94A91A64E670E080E090E0B4
:10127000CF910C94321BEF92FF920F931F93CF9359
:10128000DF937C0100E010E0C0E0D0E00E151F0508
:101290007CF460E47FE180E090E00E94321BCC337C
:1012A000D10524F00F5F1F4FC0E0D0E02896EECFAD
:1012B000DF91CF911F910F91FF90EF900895FC0166
:1012C00010820895FC011482158216821782108202
:1012D0001182128213821186108613861286158659
:1012E000148617861686118A108A138A128A148A1F
:1012F000168A178A158A81E0818F828F138E87E084
:10130000808F148E158ECF014E960C945F09EF924C
:10131000FF920F931F93CF93DF93EC017B018A0120
:101320001B821A8288EE93E0A0E0B0E08C839D835C
:10133000AE83BF838EE291E0998388838DE190E054
:101340000E94E8239A8F898F009779F02DE1F701A9
:10135000DC0101900D922A95E1F74CE050E0B801D4
:10136000CE010C960E94F125188EDF91CF911F912E
:101370000F91FF90EF9008958F929F92AF92BF923E
:10138000CF92DF92EF92FF92CF93DF93C82F80E549
:1013900094E09093A9038093A803CC2369F1C5300E
:1013A00010F080E00CC140E060E070E0CB010E94F2
:1013B0001D178823B1F320E1C29FC0011124885674
:1013C0009E4FFC01E254FE4F20812F7751F73C964F
:1013D00040815181628173814436510561057105F7
:1013E00000F33497C080D180E280F380C114D1042F
:1013F000E104F10421F4D5CFC12CD12C760140E0D9
:10140000C701B6010E941D17882359F28091B301CC
:101410009091B4018115924021F6A091B801AA23C0
:1014200009F4BFCF6091B6017091B70161157105E4
:1014300009F4B7CF2091B501222309F4B2CFA093CC
:101440006E042093600480E030E041E050E0C82F5B
:10145000FA01082E02C0EE0FFF1F0A94E2F72E17C2
:101460003F0739F08F5FC83091F789E080936904B6
:1014700098CF809369042091BE013091BF0121155E
:10148000310519F040E050E008C02091CC013091C6
:10149000CD014091CE015091CF0120936104309352
:1014A0006204409363045093640446015701860E1E
:1014B000971EA11CB11C80926F0490927004A092A0
:1014C0007104B0927204E091B901F091BA01F09305
:1014D0007504E0937404B0E00E945122860E971EBA
:1014E000A81EB91E8092760490927704A092780488
:1014F000B092790485E0EE0FFF1F8A95E1F7E15085
:10150000FE4FEF2FFF27E6958E0E9F1EA11CB11CEC
:1015100080926A0490926B04A0926C04B0926D0465
:101520002091BB013091BC012115310521F0A901A9
:1015300060E070E008C04091C8015091C90160911D
:10154000CA017091CB01D701C60188199909AA096E
:10155000BB09840F951FA61FB71F04C0B695A7959A
:1015600097958795CA95D2F7809365049093660402
:10157000A0936704B0936804853F2FE09207A1050C
:10158000B10510F48CE018C0853F9F4FA105B1054F
:1015900010F480E111C08091D4019091D501A09107
:1015A000D601B091D7018093760490937704A093ED
:1015B0007804B093790480E28093730481E0DF9132
:1015C000CF91FF90EF90DF90CF90BF90AF909F9022
:1015D0008F9008952F923F924F925F926F927F92D9
:1015E0008F929F92AF92BF92CF92DF92EF92FF9233
:1015F0000F931F93CF93DF93CDB7DEB7A4970FB6AA
:10160000F894DEBF0FBECDBF4B015C01F42E9B01F1
:10161000AC010E94B523882319F08CE691E027C025
:1016200024013501E89477F82FEF3FEF4FE75FE7AC
:10163000C301B2010E94B52381110DC02FEF3FEF0E
:101640004FE75FE7C301B2010E94FB2018161CF4AC
:1016500080E791E00CC02FEF3FEF4FE75FE4C5015B
:10166000B4010E94B02318162CF484E791E00E9484
:101670009714B8C02FEF3FEF4FE75FECC501B401FF
:101680000E94FB2087FDF1CF20E030E0A901C501D9
:10169000B4010E94FB2087FF0BC06DE289E994E052
:1016A0000E94E8003C01B7FAB094B7F8B09402C0C9
:1016B000612C712C10E060E070E080E09FE3F11697
:1016C00041F020E030E040E251E40E940F231F5F30
:1016D000F6CFA50194010E94A3224B015C010E9458
:1016E00081236AA3C72ED82EE92E19A2262F372FC1
:1016F000482F592F8E010F5D1F4F0BA31CA39AE09B
:10170000292E312C412C512CCA01B901A201910181
:101710000E942F22605DF80162938F01211531052F
:101720004105510589F7CF010E9497148301080FE5
:10173000191FFF2009F455C06AA17C2D8D2D9E2D07
:101740000E9400219B01AC01C501B4010E94A222AC
:101750004B015C016EE289E994E00E94E800080F09
:10176000191F8AE0282E312C412C512C20E030E02A
:1017700040E251E4C501B4010E9461214B015C01CA
:101780000E9481239B0140E050E019A2CBA0DCA085
:10179000762E3AA3642EE52ECA01B901A201910169
:1017A0000E942F22605DF60162936F0121153105C1
:1017B0004105510589F7CF010E949714080F191FA1
:1017C000672D7AA1862D9E2D0E9400219B01AC01E0
:1017D000C501B4010E94A2224B015C01FA94F110F0
:1017E000C5CFC801A4960FB6F894DEBF0FBECDBF1B
:1017F000DF91CF911F910F91FF90EF90DF90CF90ED
:10180000BF90AF909F908F907F906F905F904F9020
:101810003F902F90089588E791E00C949714FC0175
:10182000808191810C948024FC01448155816081E8
:10183000718189E994E00C942D07CF92DF92EF92A9
:10184000FF920F931F93CF93DF93CDB7DEB7299706
:101850000FB6F894DEBF0FBECDBF8C01862FF80106
:101860001182108213821282158214824AE09E0134
:101870002F5F3F4F6901B90190E00E94D120F6012E
:1018800001900020E9F731977F01EC18FD08B701BE
:10189000C8010E946310811104C0C8010E948A100F
:1018A00008C0F801F582E482B601808191810E942E
:1018B000EA2529960FB6F894DEBF0FBECDBFDF91A3
:1018C000CF911F910F91FF90EF90DF90CF900895EF
:1018D0004F925F926F927F92AF92BF92CF92DF92C0
:1018E000EF92FF920F931F93CF93DF9300D000D01E
:1018F000CDB7DEB78C0149835A836B837C83590152
:10190000C12CD12C7601412C82E0582E612C712CF7
:1019100049815A816B817C819E012F5F3F4FC801B5
:101920000E940718882351F1D301C201F8010584F0
:1019300004C0880F991FAA1FBB1F0A94D2F7C80EB4
:10194000D91EEA1EFB1E49815A816B817C818789E1
:10195000803129F088EF9FEFAFEFBFE004C088EF40
:101960009FEFA0E0B0E0481759076A077B0780F2B5
:10197000F501C082D182E282F38281E00F900F9064
:101980000F900F90DF91CF911F910F91FF90EF90EB
:10199000DF90CF90BF90AF907F906F905F904F900F
:1019A0000895CF93DF93FC012581222311F080E07D
:1019B00049C0EC01809173048031C1F482E08583D9
:1019C000178A108E118E128E809174049091750476
:1019D000A0E0B0E025E0880F991FAA1FBB1F2A9541
:1019E000D1F7838B948BA58BB68B19C08032F9F617
:1019F00083E0858340917604509177046091780468
:101A000070917904478B508F618F728F9F012D5E8B
:101A10003F4F8CE594E00E94680C882341F28CE5EE
:101A200094E09C8F8B8F81E08C831E821F821886AE
:101A300019861A861B861C861D861E861F86188A96
:101A4000198A1A8ADF91CF910895EF92FF920F932E
:101A50001F93CF93DF93CDB7DEB7C755D1090FB62C
:101A6000F894DEBF0FBECDBF8C011C821B8282E2C8
:101A7000E82E81E0F82EFA82E9821E82CE010196DC
:101A80000E94D10CBE016F5F7F4FCE01CB960E94AA
:101A9000490719A218A2FF8EEE8E1BA221968FADC8
:101AA0002197811113C0F8011382128288EE93E00E
:101AB000A0E0B0E084839583A683B7838EE291E0B3
:101AC00091838083128E118E148627C027E14AE706
:101AD00051E0BE01655C7F4FCE014E960E948A1890
:101AE000882309F3CE01CB960E94D70249A95AA9AF
:101AF0006BA97CA9CE014E960E944301BE01625E95
:101B00007F4FCE0101960E9449074AE751E0BE018E
:101B10006F5F7F4FC8010E948709C801C95ADF4F14
:101B20000FB6F894DEBF0FBECDBFDF91CF911F91EE
:101B30000F91FF90EF9008958F929F92AF92BF9276
:101B4000CF92DF92EF92FF92CF9380917F04882310
:101B500021F08AE794E00E94D70210925B04109271
:101B60005904109256041092550488E0809354044E
:101B70000E946C1B6B017C0161E0809154040E9407
:101B8000F61A61E0809154040E94A91ACFB7F89424
:101B90008091AA03811127C0EAEDF0E08491E6EC80
:101BA000F0E09491E82FF0E0EE0FFF1FEE54FF4FAE
:101BB000A591B491EC91E92321F461E08AE00E94BF
:101BC000A91A61E08AE00E94F61A8CB580618CBD8A
:101BD0008CB580648CBD61E08DE00E94F61A61E0F6
:101BE0008BE00E94F61A8091AA038F5F8093AA036C
:101BF000CFBF82E580934E0481E080934F048091B3
:101C00004E0490914F040E943604CAE08FEF0E9468
:101C1000F703C150D9F780E594E00E94390420E031
:101C200030E0A90160E080E594E00E944F04C82FF5
:101C300080935A04813049F00E946C1B6C197D0915
:101C4000613D774060F381E054C02AEA31E040E032
:101C500050E068E080E594E00E944F0482FF03C0FA
:101C6000C0935B040EC0C4E00E94FE0380935A043C
:101C7000C150D1F78A3A11F082E03BC082E08093F4
:101C80005B0480915B04823021F0812C912C540103
:101C900005C0812C912CA12C80E4B82E20E030E0EE
:101CA000A90167E380E594E00E944F04A501940137
:101CB00069E280E594E00E944F0480935A048823EF
:101CC00049F00E946C1B6C197D09613D774030F32F
:101CD00088E00FC080915B04823001F520E030E0A5
:101CE000A9016AE380E594E00E944F04882341F053
:101CF00086E08093550480E594E00E94EC0329C0BF
:101D00000E94FE03807C803C19F483E080935B0496
:101D10000E94FE030E94FE030E94FE0380E594E001
:101D20000E94EC0380E580934E0481E080934F0491
:101D30000E94BC09882341F08AE794E00E94D10CFC
:101D400091E0811107C005C080E00E94BC098111AB
:101D5000F3CF90E0892FCF91FF90EF90DF90CF905D
:101D6000BF90AF909F908F900895CF93DF93A091F5
:101D7000A601B091A701109709F457C01C968C9149
:101D80001C97883038F08E3040F0863148F0E0E023
:101D9000F0E008C0EDE6F0E005C0EBE6F0E002C0E0
:101DA000ECE6F0E05FB7F8941092A7011092A6015C
:101DB0003097D1F11C969C911C97963118F4C8E687
:101DC000D0E002C0C0E0D0E03881983060F021E07F
:101DD0009E3008F420E081E090E001C0880F2A9551
:101DE000EAF7809501C08BEF8323888360811C967E
:101DF0004C91483038F481E090E001C0880F4A955A
:101E0000EAF70FC0242F30E04E3018F42850310983
:101E100002C02E50310981E090E001C0880F2A9560
:101E2000EAF78095862380835FBF60E08091C004DD
:101E30000E94F61A8091C00490E0FC01E454FF4F28
:101E4000E491E093A501FC01E053FF4FE491F0E041
:101E5000EE0FFF1FE855FF4F859194919093C304B7
:101E60008093C2048091C10490E0FC01E454FF4FD0
:101E700024912093A401FC01E053FF4FE491F0E092
:101E8000EE0FFF1FE256FF4FA591B491B093A3014F
:101E9000A093A201109719F0EC91E22BEC9361E072
:101EA0008091C1040E94F61A1092B00083E08093E2
:101EB000B1008091C004883040F08E3048F0863107
:101EC00008F07BC0ECE6F0E005C0EDE6F0E002C013
:101ED000EBE6F0E08FEF8093A1011092A001109249
:101EE0009F018091C4049091C50481152BE4920751
:101EF00009F049C08DE080939E018EE480939D019E
:101F000086E080939C015FB7F89460814091C004A3
:101F1000483030F491E001C0990F4A95EAF70EC0BD
:101F2000242F30E04E3018F42850310902C02E50D2
:101F3000310991E001C0990F2A95EAF7892F862B84
:101F400080839091C004963118F0E0E0F0E002C088
:101F5000E8E6F0E03081983058F021E09E3008F457
:101F600020E091E0892F01C0880F2A95EAF701C08F
:101F700084E0832B808384EB94E09093A70180938B
:101F8000A6015FBF1AC081302BE4920760F480384D
:101F9000954209F0B8CF8AE180939E0187E2809351
:101FA0009D018AE0AECF82312AE7920709F4A2CFE1
:101FB0008115964909F0A7CF9DCFDF91CF91089564
:101FC000CF92DF92EF92FF920F931F93CF93DF9305
:101FD0006C017A018B01C0E0D0E0CE15DF0581F005
:101FE000D8016D918D01D601ED91FC910190F081A8
:101FF000E02DC6010995892B11F02196EECF7E01C7
:10200000C701DF91CF911F910F91FF90EF90DF906B
:10201000CF9008950E94CF2581EB93E00E94DA14BF
:1020200021E0892B09F420E0822F0895EF92FF929E
:102030000F931F93CF93DF93EC0181E0888F9B8DEB
:102040008C8D981305C0E889F989808185FD26C0AB
:10205000F62E0B8D10E00F5F1F4F0F731127E02E30
:102060008C8DE8120CC00FB607FCFACFE889F9890D
:10207000808185FFF5CFCE010E942E15F1CF8B8D8B
:10208000FE01E80FF11DE35AFF4FF0829FB7F8946D
:102090000B8FEA89FB89808180620AC09FB7F89420
:1020A000EE89FF896083E889F98980818370806483
:1020B00080839FBF81E090E0DF91CF911F910F91CE
:1020C000FF90EF9008950F931F93CF93DF93EC0150
:1020D00088819981009729F02A813B81261737074B
:1020E00088F48B016F5F7F4F0E940925009761F094
:1020F000998388831B830A832C813D81232B11F4D0
:10210000FC01108281E001C080E0DF91CF911F913E
:102110000F910895CF93DF93EC0188819981009707
:1021200011F00E948024198218821D821C821B8259
:102130001A82DF91CF9108951F920F920FB60F92DE
:1021400011242F933F934F935F936F937F938F93BC
:102150009F93AF93BF93EF93FF9381EB93E00E9424
:102160002E15FF91EF91BF91AF919F918F917F912C
:102170006F915F914F913F912F910F900FBE0F90F4
:102180001F9018951F920F920FB60F9211242F9344
:102190008F939F93EF93FF93E091C103F091C2035C
:1021A0008081E091C703F091C80382FD12C0908145
:1021B0008091CA038F5F8F732091CB03821751F0F8
:1021C000E091CA03F0E0EF54FC4F958F8093CA036F
:1021D00001C08081FF91EF919F918F912F910F907E
:1021E0000FBE0F901F901895FC018091150581116D
:1021F00019C01182108213821282809117058260A9
:10220000809317051092160591E06D3209F090E069
:102210008091170590FB80F9809317056D3209F0C6
:102220006BC066C06C3289F580911605811103C0C0
:1022300081E08093160582819381892B99F05AE081
:102240008091160591E0980F90931605481750F06D
:1022500022813381529FC001539F900D112493839B
:102260008283EECF8091170580FF44C082819381E5
:102270009195819591099383828380819181919534
:10228000819591099183808335C06E3221F481E07C
:10229000809316052DC080911605811112C02081F2
:1022A00031814AE0429FC001439F900D1124062EC8
:1022B000000C770B60537109680F791F718360837D
:1022C00017C091E0980F90931605481788F0228167
:1022D00033814AE0429FC001439F900D1124062E96
:1022E000000C770B60537109680F791F7383628349
:1022F00080E0089581E008956C3209F499CF6E3240
:1023000071F6C5CF813311F0813411F483E020C020
:10231000803321F08E3411F0863519F410921105B6
:1023200019C0823311F0843411F484E011C0833376
:1023300011F487E00DC0843311F486E009C08533C1
:1023400011F485E005C0863311F0853441F481E055
:10235000809311058091120581608093120580E0C1
:102360000895E09115054E2F50E04930510508F0D1
:1023700051C0FA01EC5CFF4F0C94CE231092100573
:102380008C3209F447C0909117059260909317051D
:10239000880F8056982F990F990F03C090910B05C5
:1023A0009053890F80930B0535C0880F8056982F66
:1023B000990F990F03C090910A059053890F80934C
:1023C0000A0528C0880F8056982F990F990F03C0CF
:1023D000909109059053890F809309051BC08C3299
:1023E000C9F413C08C3289F0880F8056982F990F4A
:1023F000990F890F809310050DC08C3231F09091A8
:1024000010059053890F8093100580911205846008
:102410008093120581E00895CF92DF92EF92FF92B0
:102420000F931F93CF93DF93EC01162F8091150527
:1024300081110BC0188219821A821B821092160514
:10244000809117058260809317051E3291F01C322F
:1024500009F082C080911605882359F080911605F5
:102460008430A1F5288139814A815B81A4E6B0E0FE
:1024700047C081E0809316058981982F92959F70BF
:102480008F702AE0929F800D11249A8191118C59AE
:102490009881292F22952F709F703AE0239F900DED
:1024A0001124292F3CE3839FC0011124820F911D29
:1024B000092E000CAA0BBB0B88839983AA83BB83CC
:1024C0001E3209F4AEC01C3249F246C0853039F4E0
:1024D000288139814A815B81AAE0B0E011C0863051
:1024E000F1F008F0A0C0288139814A815B818330F6
:1024F00019F4A8EEB3E004C0823029F4A0E1B7E2F9
:102500000E94512208C0813051F460EA76E881E0EF
:1025100090E00E941F22688379838A839B83C8800E
:10252000D980EA80FB80D701C601880F991FAA1FB6
:10253000BB1FBC01CD016F5F7F4F8F4F9F4F0E942C
:10254000B708DC01CB018C0D9D1DAE1DBF1D88831E
:102550009983AA83BB8367C08091160581111BC034
:1025600088819981AA81BB816C017D0134E0CC0C0A
:10257000DD1CEE1CFF1C3A95D1F7612F110F770B74
:10258000CB01C097092E000CAA0BBB0B8C299D29EF
:10259000AE29BF2942C08F5F809316058730C0F4F3
:1025A000288139814A815B81AAE0B0E00E945122F2
:1025B000212F110F330B205331098901330F220BC7
:1025C000330BDC01CB01800F911FA21FB31F25C06D
:1025D000873039F5C880D980EA80FB80D701C601F1
:1025E000880F991FAA1FBB1FBC01CD016F5F7F4FD2
:1025F0008F4F9F4F0E94B708DC01CB018C0D9D1DB2
:10260000AE1DBF1D193324F00296A11DB11D05C0DA
:1026100014331CF00196A11DB11D88839983AA83F0
:10262000BB8380E001C081E0DF91CF911F910F91CA
:10263000FF90EF90DF90CF900895682F8091E7048E
:10264000813021F0863009F47EC039C1E091140553
:102650008E2F90E0FC013197E930F10508F02FC191
:10266000E35CFF4F0C94CE238091170582FF27C1B6
:1026700080911505811123C1633509F020C1809136
:10268000F4049091F504A091F604B091F704B0958C
:10269000A095909581959F4FAF4FBF4F8093F404C5
:1026A0009093F504A093F604B093F70408C16C323C
:1026B00049F480911505811105C0809117058B7F24
:1026C000809317058091170582FFF9C088EF94E089
:1026D0000E940C12F4C0809115058111F0C0862F64
:1026E0000E948211ECC0809117058E7F80931705A0
:1026F00080911505811105C06C3209F4E0C060536A
:102700000CC06C3209F4D6C080910805880F982F50
:10271000990F990F890F8053680F60930805CAC0FD
:1027200042E08CEF94E00E94F410882309F4C7C0C3
:1027300021E090911505911101C020E090911205C2
:1027400020FB94F977C0E09114058E2F90E0FC01F6
:102750003197E930F10508F0B2C0EA5BFF4F0C9405
:10276000CE23862F0C94B11180911505882339F062
:102770008091170582FFA3C084EF94E0A9CF91E078
:102780006C3209F490E08091170590FB82F98093F8
:102790001705EECF9091170592FB882780F992FFDD
:1027A0008EC09091150591118AC090911205986084
:1027B00090931205673509F082C04091F80450915A
:1027C000F9046091FA047091FB047095609550953E
:1027D00041955F4F6F4F7F4F4093F8045093F9043A
:1027E0006093FA047093FB04089543E080E095E061
:1027F0000E94F410882309F462C021E0909115052D
:10280000911101C020E09091120520FB95F912C0B2
:1028100042E084E095E00E94F410882309F44FC060
:1028200021E090911505911101C020E090911205D1
:1028300020FB96F99093120508958091150582303A
:1028400019F140F48823A9F08130C9F580910D0574
:10285000805316C0843029F1E8F0853081F58091ED
:102860000F058053680F60930F05809112058260F9
:1028700024C06C3221F1660F6056862F880F880FB6
:10288000680F60930D051BC0660F6056862F880F7A
:10289000880F03C080910E058053680F60930E056A
:1028A0000EC0660F6056862F880F880F680F6093E2
:1028B0000F0505C08091120580688093120581E0A4
:1028C0000895CF93DF93FC018281938190939C04C0
:1028D00080939B0484819581A681B78180939D0418
:1028E00090939E04A0939F04B093A004808591854B
:1028F000A285B3858093A1049093A204A093A3041E
:10290000B093A404EF012C96A5EAB4E089918D93CD
:1029100084E0A23BB807D1F7818D928D9093B304E8
:102920008093B20489E994E0DF91CF9108950097F4
:1029300069F0FC0101900020E9F73197AF01481BD5
:10294000590BBC0189E994E00C942D0780E090E0DC
:102950000895FC01538D448D252F30E0842F90E0A5
:10296000821B930B541710F0CF960895019708958A
:10297000FC01918D828D981761F0828DDF01A80F87
:10298000B11D5D968C91928D9F5F9F73928F90E0A9
:1029900008958FEF9FEF0895FC01918D828D981718
:1029A00031F0828DE80FF11D858D90E008958FEF55
:1029B0009FEF0895FC01918D228D892F90E0805C1E
:1029C0009F4F821B91098F739927089580E090E0B3
:1029D000892B29F00E940C1081110C94000008959D
:1029E0002091A00180919F01821769F030E0F901E8
:1029F000E05CFA4F80812F5F3F4F2F733327209386
:102A0000A00190E008958FEF9FEF08959C018091C1
:102A10009F0190E04091A001841B9109805C9F4F31
:102A200060E470E00E94BA23811105C0C901F894E6
:102A30000E94681A789490E00895CF93DF931F92D4
:102A4000CDB7DEB7698341E050E0BE016F5F7F4FD5
:102A50000E949E050F90DF91CF910895FC01848D17
:102A6000DF01A80FB11DA35ABF4F2C91848D90E0B8
:102A700001968F739927848FA689B7892C93A08993
:102A8000B1898C91837080648C93938D848D98131D
:102A900006C00288F389E02D80818F7D80830895B0
:102AA000CF93DF93EC01888D8823C9F0EA89FB89F5
:102AB000808185FD05C0A889B9898C9186FD0FC0EC
:102AC0000FB607FCF5CF808185FFF2CFA889B989C1
:102AD0008C9185FFEDCFCE010E942E15E7CFDF91BF
:102AE000CF910895E091A601F091A7013097C1F030
:102AF0000288F389E02D309709F0099420919F0115
:102B000030E0A9014F5F5F4F4F7355279091A001AF
:102B1000941731F0F901E05CFA4F808340939F01F4
:102B20000895EF92FF920F931F93CF93DF93F0904E
:102B3000B200E090A501E8225091A1015F3F51F45D
:102B4000E11056C01092A10181E08093800510929F
:102B5000810548C080919D01C0919C01CF0D90914D
:102B60008205C91BC89FE0011124CD2FDD27C69522
:102B7000C69549E0451B042F10E00C171D0708F00F
:102B80004C2F540F5093A1018091810590918005A5
:102B9000292FE1100FC04150922F990F4F3F19F08C
:102BA000822B292FF8CF8093810590938005583090
:102BB000C8F01BC0415001C0220F4A95EAF720938C
:102BC0008005822B80938105583060F00E94721539
:102BD00081E0E81621F00C171D0708F4B3CF8FEF42
:102BE0008093A101F092820503C00E947215F3CF79
:102BF000DF91CF911F910F91FF90EF900895CF92A9
:102C0000DF92EF92FF920F931F93CF93DF938C018C
:102C1000E62E8091A2019091A301892B09F455C061
:102C2000D8011C969C91983050F081E09E3008F4B9
:102C300080E0C1E001C0CC0F8A95EAF701C0C4E092
:102C4000CFB6F894D091B2008AE0D82E90E0DA9412
:102C5000E091A201F091A3018091A401DD2041F156
:102C6000992319F09081892B03C090818095892345
:102C70008083F0909E018091B2008D1B8F1598F497
:102C80008BB38C2361F08BB38C2B8BBBD8011E963E
:102C9000ED91FC911F9780810E949115ECCFC801A6
:102CA0000E94681AE8CFDF0D9E2D9170E694CFCF79
:102CB0009081892B8083CFBE8091B2008D1B8F15B0
:102CC00038F4C8010E94681AF7CF80E090E002C093
:102CD00081E090E0DF91CF911F910F91FF90EF90F5
:102CE000DF90CF9008951F920F920FB60F9211248C
:102CF0002F933F934F935F936F937F938F939F9304
:102D0000AF93BF93EF93FF9389B10E949115FF9109
:102D1000EF91BF91AF919F918F917F916F915F9153
:102D20004F913F912F910F900FBE0F901F901895CC
:102D30001F920F920FB60F9211242F933F934F9330
:102D40005F936F937F938F939F93AF93BF93EF9313
:102D5000FF9386B10E949115FF91EF91BF91AF91C2
:102D60009F918F917F916F915F914F913F912F91A3
:102D70000F900FBE0F901F9018951F920F920FB6D5
:102D80000F9211242F933F934F935F936F937F93F1
:102D90008F939F93AF93BF93EF93FF9383B10E9461
:102DA0009115FF91EF91BF91AF919F918F917F917D
:102DB0006F915F914F913F912F910F900FBE0F90A8
:102DC0001F90189580913B058823A9F1409102013D
:102DD00050910301609104017091050128EA31E0EE
:102DE0008091A8039091A9030E943205811102C02D
:102DF00080E0089540913C0550913D0560913E056D
:102E000070913F05411551056105710591F028EA62
:102E100031E08091A8039091A9030E943205882394
:102E200039F310923C0510923D0510923E05109228
:102E30003F0510923B0581E008958F929F92AF92DB
:102E4000BF92EF92FF920F931F93CF934B015C01C0
:102E5000C42F8091020190910301A0910401B091CF
:102E6000050188159905AA05BB0501F10E94E21626
:102E7000811102C080E020C088EAE82E81E0F82EAF
:102E800000E012E020E030E0B501A4018091A80349
:102E90009091A9030E949E04882361F3809202010D
:102EA00090920301A0920401B092050180913B052C
:102EB000C82BC0933B0581E0CF911F910F91FF90EC
:102EC000EF90BF90AF909F908F9008954F925F9238
:102ED0006F927F928F929F92AF92BF92CF92DF922A
:102EE000EF92FF920F931F93CF93DF93EC01423049
:102EF00051056105710510F480E078C089859A85D7
:102F0000AB85BC850196A11DB11D84179507A60749
:102F1000B70790F3CB88DC88ED88FE888F898031F5
:102F200029F4BB27A72F962F852F09C0DB01CA01E3
:102F3000E7E0B695A79597958795EA95D1F748016B
:102F400059012A013B01C80ED91EEA1EFB1E8091C1
:102F5000020190910301A0910401B0910501C816EE
:102F6000D906EA06FB0681F48F898031A9F4B30102
:102F7000A201552766277727440F551FFA01E85508
:102F8000FE4F9182808219C040E0C701B6010E94C5
:102F90001D178111E9CFB0CFB301A2014F7755279B
:102FA00066277727440F551F440F551FFA01E85530
:102FB000FE4F80829182A282B38280913B05816024
:102FC00080933B058A89823080F08D819E81AF811C
:102FD000B885C80ED91EEA1EFB1EC0923C05D092D1
:102FE0003D05E0923E05F0923F0581E0DF91CF91F3
:102FF0001F910F91FF90EF90DF90CF90BF90AF9017
:103000009F908F907F906F905F904F9008958F92D8
:103010009F92AF92BF92CF92DF92EF92FF920F9367
:103020001F93CF93DF93FC0181859285A385B4859F
:103030000196A11DB11D84179507A607B70710F4C7
:1030400080E05BC083889488A588B68887898031B2
:1030500029F4BB27A72F962F852F09C0DB01CA01B2
:10306000C7E0B695A79597958795CA95D1F7E901D9
:103070006A017B018F01BC01CD01680D791D8A1D9C
:103080009B1D8090020190900301A0900401B090DC
:103090000501681579058A059B0591F4F801878972
:1030A0008031A1F4DD24EE24FF24C601880F991F8E
:1030B000FC01E855FE4F80819181A0E0B0E018C08E
:1030C00040E00E941D178111E9CFBACFE894C7F8FC
:1030D000DD24EE24FF24C601880F991F880F991F55
:1030E000FC01E855FE4F80819181A281B381BF70C0
:1030F00088839983AA83BB8381E0DF91CF911F915D
:103100000F91FF90EF90DF90CF90BF90AF909F9086
:103110008F9008952F923F924F925F926F927F927D
:103120008F929F92AF92BF92CF92DF92EF92FF92D7
:103130000F931F93CF93DF93CDB7DEB72B970FB6C7
:10314000F894DEBF0FBECDBF7C01FE013196CE01EB
:103150000C966F0130E23193E817F907E1F7DA01D5
:1031600030E087E09D91992331F19E3231F48A302D
:1031700009F46BC138E08AE0F5CFE4E1F1E0449175
:10318000442321F031969413FACF5FC1831708F4DA
:103190005CC14FED490F4E3508F057C141E0430F78
:1031A000F601E30FF11D3FE9390F3A3108F490526F
:1031B0009083342FD7CF8981803209F446C1322ED3
:1031C0008B01DB015B968D919C915C97F701948F4D
:1031D000838F16961D921D921D921C921997FB01CA
:1031E0001286138614861586B12CF8018285938584
:1031F000A485B5854389548965897689841795079F
:10320000A607B70708F05BC025E0B695A795979588
:1032100087952A95D1F7F82FFF70AF2ED801159614
:103220008C91823008F411C1C8010E949A0797FD61
:103230000CC1F80182859385A485B5854F96A11DA3
:10324000B11D82879387A487B587F0E2AF9EB00156
:10325000112468557E4F6115710509F4F6C0DB0134
:103260008C91882319F0853EC1F4F1C0B1100EC0D5
:10327000F701A28A8091020190910301A0910401BB
:10328000B091050186879787A08BB18BDB018C916C
:10329000882399F0BB24B394A8CF4BE050E0C6013B
:1032A0000E94D425892B09F0A0CF832D8073803311
:1032B00009F4CBC0432D6A2DC4C0BB24B394832D25
:1032C0008271823109F0C1C0BB20C1F0F70166856F
:1032D00077858089918941E00E941D17882309F430
:1032E000B4C0D70152968C91B0E28B9FC0011124DB
:1032F00088559E4F009709F078C0A7C0F8018581D6
:10330000823009F4A2C0C8010E94E302882309F4B4
:103310009CC0D8015B96ED91FC915C9716968D90C0
:103320009D90AD90BC901997B2E08B1A9108A108BE
:10333000B108058404C0880C991CAA1CBB1C0A9403
:10334000D2F786859785A089B189880E991EAA1E15
:10335000BB1E2480E1E08E1A9108A108B10822204A
:1033600009F124013501420C511C611C711C0E94A1
:10337000E216882309F469C0E8EAF1E0119223E03B
:10338000E83AF207D9F740920201509203016092A5
:1033900004017092050180913B05816080933B059B
:1033A0002A94DDCFD8015B96ED91FC915C9780E08B
:1033B00092E0A0E0B0E0058404C0880F991FAA1F26
:1033C000BB1F0A94D2F7F80143895489658976892D
:1033D000840F951FA61FB71F838B948BA58BB68B6D
:1033E000D70152961C9288EA91E020E2FC011192EA
:1033F0002A95E9F72BE0F601DC0101900D922A9560
:10340000E1F721E238E2DC0151963C932E9350978C
:1034100040E058E01F965C934E931E9753963C9362
:103420002E93529759963C932E93589757965C93A8
:103430004E9356970E94E216882339F0432DF701E8
:103440006289C7010E94DA0105C080E003C0B110A3
:1034500021CF0ECF2B960FB6F894DEBF0FBECDBF97
:10346000DF91CF911F910F91FF90EF90DF90CF9060
:10347000BF90AF909F908F907F906F905F904F9094
:103480003F902F9008953FB7F894809188059091D0
:103490008905A0918A05B0918B0526B5A89B05C02A
:1034A0002F3F19F00196A11DB11D3FBFBA2FA92FC3
:1034B000982F8827820F911DA11DB11DBC01CD0140
:1034C00043E0660F771F881F991F4A95D1F708952B
:1034D000CF93DF93FC013091A1013F3FB1F1A6856D
:1034E000B7859C918091A501892379F12091B20043
:1034F00080919D0190919C01290F90918205291B3B
:1035000099E0931B492F50E0289F90011124232F0D
:1035100033272695269542175307B8F480918105E5
:1035200020918005915018F0822B220FFBCFEF01E4
:1035300080938105209380059093A1010E947215CC
:1035400081E02A893B89232B09F080E0DF91CF912C
:10355000089590E0FC01EC5DFE4F2491FC01E454E1
:10356000FF4F3491FC01E053FF4FE491EE2309F447
:103570003CC0222339F1233091F038F42130A9F0F6
:10358000223001F584B58F7D12C0273091F02830AC
:10359000A1F02430B9F4809180008F7D03C0809128
:1035A00080008F77809380000DC084B58F7784BDB5
:1035B00009C08091B0008F7703C08091B0008F7DEB
:1035C0008093B000F0E0EE0FFF1FE256FF4FA59191
:1035D000B4919FB7F894611104C08C913095382351
:1035E00002C0EC913E2B3C939FBF0895CF93DF9395
:1035F00090E0FC01E454FF4F2491FC01E053FF4FA5
:103600008491882361F190E0880F991FFC01EE54AA
:10361000FF4FC591D491FC01E256FF4FA591B491A3
:10362000611109C09FB7F89488812095822388830F
:10363000EC912E230BC0623061F49FB7F89488811F
:10364000322F309583238883EC912E2B2C939FBFB0
:1036500006C08FB7F894E8812E2B28838FBFDF91A7
:10366000CF9108958F929F92AF92BF92CF92DF92A7
:10367000EF92FF926B017C010E94431A4B015C01A7
:10368000C114D104E104F104F1F00E94431ADC01F9
:10369000CB0188199909AA09BB09883E9340A10565
:1036A000B10570F321E0C21AD108E108F10888EEF3
:1036B000880E83E0981EA11CB11CC114D104E10442
:1036C000F10419F7DDCFFF90EF90DF90CF90BF901E
:1036D000AF909F908F9008952FB7F89460918405D4
:1036E0007091850580918605909187052FBF08957B
:1036F0001F920F920FB60F9211242F933F938F9327
:103700009F93AF93BF938091840590918505A0917D
:103710008605B09187053091830526E0230F2D376C
:1037200020F40296A11DB11D05C029E8230F0396C0
:10373000A11DB11D20938305809384059093850579
:10374000A0938605B093870580918805909189059F
:10375000A0918A05B0918B050196A11DB11D8093A2
:10376000880590938905A0938A05B0938B05BF9136
:10377000AF919F918F913F912F910F900FBE0F901E
:103780001F901895CF93DF93CDB7DEB7C054D10902
:103790000FB6F894DEBF0FBECDBF789484B58260BB
:1037A00084BD84B5816084BD85B5826085BD85B5E5
:1037B000816085BD80916E00816080936E00109263
:1037C00081008091810082608093810080918100DE
:1037D000816080938100809180008160809380006F
:1037E0008091B10084608093B1008091B0008160CD
:1037F0008093B00080917A00846080937A008091F9
:103800007A00826080937A0080917A008E7F809324
:103810007A0080917A00806880937A001092C100CB
:1038200061E082E00E94F61A61E086E00E94F61AEA
:1038300061E085E00E94F61A0E949C0D811111C082
:1038400060E085E00E94A91A61E086E00E94A91A62
:103850008AE794E00E94D70286E090E00E941B096C
:10386000FBCF61E082E00E94A91A8091C40490918C
:10387000C5048038954279F080E895E29093C504BC
:103880008093C4048091A6019091A701845B944029
:1038900011F40E94B50E0E94B50E86E090E00E94E1
:1038A0001B0985E090E00E941B0961E085E00E9411
:1038B000A91A61E086E00E94A91A62E370E080E044
:1038C00090E00E94321B86E090E00E941B0985E098
:1038D00090E00E941B09EE24E394FF24F394A2E0FD
:1038E000DA2EF3E08F2E84EB94E00E940615892BEC
:1038F00009F4CFC184EB94E00E94F014182F80915A
:10390000F0049091F104A091F204B091F3040196B7
:10391000A11DB11D8093F0049093F104A093F204D3
:10392000B093F3041432A9F48091170584FF03C007
:103930008F7E80931705109213051092E704F09282
:10394000180510921505809117058D7F8093170536
:10395000CACF00911805023051F51A3219F480923D
:1039600018051CC080EE810F8F3508F0FBC08091D8
:103970001305812780931305812F0E941D1388232F
:1039800009F4F0C01C3269F4809117058D7F809393
:103990001705809114058F5F80931405109215050B
:1039A000A2CF809115058F5F809315059CCF0130C4
:1039B00009F05BC0809113058127809313051C32A9
:1039C00081F48091E704882309F444C382E195E0FF
:1039D0000E945F090093140510921505D0921805F6
:1039E00082CF90911505923008F41DC3EEEFCE2ED4
:1039F000C90E8091E704882311F0815001C080E056
:103A0000E82FF0E0EE0FFF1FEC5FFE4F25913491A1
:103A10004C2D50E0F901E40FF51FE4911E1709F455
:103A2000FFC21E170CF416C38F5F883009F412C34F
:103A3000E82FF0E0EE0FFF1FEC5FFE4FA591B49171
:103A4000B9015D01A21AB30AE62FE21BEC1510F0D2
:103A50009D01E0CFFB019490F501E60FF71FE49183
:103A60006F5F7F4F9E1681F3F3CF033009F07FC065
:103A700010628FE9810F863010F4175501C0105382
:103A80004091150520911305812F90E041110DC043
:103A9000F092150530E044E0359527954A95E1F719
:103AA0002817390709F04BC01ECF2F7030E051E0C6
:103AB0002817390709F450E028173907E9F58091EC
:103AC000170581FF09C08D7F809317054F5F4093D5
:103AD00015058CE20E941D138091E8049091E90481
:103AE000A091EA04B091EB040196A11DB11D809351
:103AF000E8049093E904A093EA04B093EB0491E006
:103B00008091E704863009F090E08091170590FBE2
:103B100084F9809317051092180590913805992320
:103B200059F1886080931705109239058091380506
:103B300081508093380520C0552309F4D4CE80915C
:103B4000EC049091ED04A091EE04B091EF04019685
:103B5000A11DB11D8093EC049093ED04A093EE049D
:103B6000B093EF0482E195E00E945F0973C20111F6
:103B7000BACE1092E704B7CE8091120580FF0CC038
:103B8000209137059091110520FF04C02091360542
:103B9000291710F49093360581FF0CC090910D0504
:103BA0009093320590910E059093330590910F05F7
:103BB0009093340582FF10C090910B0590933005CF
:103BC00090910A0590932F059091090590932E05E9
:103BD000909110059093350583FF09C088E0E4EFCC
:103BE000F4E0A9E1B5E001900D928A95E1F78091AA
:103BF000120584FF10C04091FC045091FD046091B7
:103C0000FE047091FF0440932105509322056093B8
:103C100023057093240586FF10C040910405509140
:103C2000050560910605709107054093290550939D
:103C30002A0560932B0570932C0585FF10C04091D9
:103C400000055091010560910205709103054093B4
:103C5000250550932605609327057093280587FF57
:103C600004C08091080580932D05909112058091E4
:103C70003705892B809337058091170584FF33CE54
:103C800010923A058091380581112DCEE0923805C9
:103C90002ACE80913805882309F433C1CE010196DC
:103CA0000E946209809138058823C1F08150809379
:103CB0003805809139052FE1289FC0011124FC01AE
:103CC000E75EFA4FDE01119601900D922A95E1F719
:103CD000875E9A4F0E946209109239058FE1FE01BA
:103CE0003196A8ECB4E001900D928A95E1F785E059
:103CF00090E00E941B098091000190910101892BA5
:103D000009F454C18091E60483FFF7C081FFF5C038
:103D100082FFF3C08E01005E1F4FC8010E94250D77
:103D2000C8010E946114E091B204F091B30430978D
:103D300019F0858181110DC08AE794E00E94D702B5
:103D400068EC70E080E090E00E94321B0E949C0DC5
:103D5000E4CF85E090E00E941B096091E304C80174
:103D60000E941D0CC8010E94140CC8010E940F0C77
:103D70000E940B0C6091E204C8010E941D0CC80156
:103D80000E94140CC8010E940F0C0E940B0C609141
:103D9000E104C8010E941D0CC8010E94140CC80156
:103DA0000E940F0C0E940B0C6091DF04C8010E945E
:103DB0001D0CC8010E94140CC8010E940F0C0E9427
:103DC0000B0C6091DE04C8010E941D0CC8010E940A
:103DD000140CC8010E940F0C0E940B0C6091DD04B2
:103DE000C8010E941D0CC8010E94140CC8010E9449
:103DF0000F0C0E940B0C8091E60487FB882780F94A
:103E00001CAE1BAE1EAE1DAE21961FAE1EAE219780
:103E10004AE0B80190E00E94C620F801019000201D
:103E2000E9F731975F01A01AB10AB501CE01CB962F
:103E30000E946310811105C0CE01CB960E948A10AA
:103E400009C02196BFAEAEAE2197B8018BAD9CAD37
:103E50000E94EA25CE01CB960E94140CCE01CB968F
:103E60000E940F0C0E940B0C6091C8047091C90451
:103E70008091CA049091CB040E94022125E93FEB76
:103E800046ED53E30E9461214AE00E94EA0A0E9443
:103E90000B0C6091CC047091CD048091CE04909174
:103EA000CF040E94022125E93FEB46ED53E30E9437
:103EB00061214AE00E94EA0A85E891E00E94971495
:103EC0008091B2049091B304009761F00E94D702F0
:103ED0008091B2049091B3040E9480241092B304A4
:103EE0001092B204109201011092000181E090E062
:103EF0009093B0038093AF0304C086E090E00E94EB
:103F00001B098091000190910101892B09F44EC099
:103F10000E946C1B0091AB031091AC032091AD0388
:103F20003091AE03DC01CB01801B910BA20BB30BD4
:103F3000813C944DA140B10508F079C037C08AE7B3
:103F400094E00E94D70268EC70E080E090E00E946C
:103F5000321B0E949C0DCE0180960E94250DCE0141
:103F600080960E946114E091B204F091B3043097FE
:103F700031F38581882319F388E891E00E94971432
:103F800085E891E00E9497148091B2049091B30467
:103F9000009761F00E94D7028091B2049091B3041F
:103FA0000E9480241092B3041092B2048091AF0357
:103FB0009091B003892B59F160E082E00E94A91A28
:103FC0008091DF04893119F480EE91E002C08AE02B
:103FD00090E00E943B0961E082E00E94A91A85E01E
:103FE00090E00E941B0981E090E090930101809392
:103FF00000011092B0031092AF030E946C1B6093FB
:10400000AB037093AC038093AD039093AE0364E66F
:1040100070E080E090E00E94321B0E94E61461CCC8
:104020008F5F8093E7049F5F909315055CCC10929F
:1040300001011092000181E090E09093B003809321
:10404000AF0386E090E00E941B0986E090E00E94AA
:104050001B0981CF1092E7041092180544CCCF922F
:10406000DF92EF92FF92CF93DF93E1EBF3E01382C5
:10407000128288EEC82E83E0D82EE12CF12CC48267
:10408000D582E682F78280E191E09183808385EC9E
:1040900090E09587848784EC90E09787868780EC12
:1040A00090E0918B808B81EC90E0938B828B82EC03
:1040B00090E0958B848B86EC90E0978B868B118EAD
:1040C000128E138E148EEEE4F4E080E5808381E09E
:1040D0008183E0E5F4E0158216821186138682E082
:1040E00090E0A0E0B0E084879587A687B78713A209
:1040F00015A614A682E291E093A782A717A684EFE3
:1041000094E00E94620989E195E00E946209C7EE8D
:10411000D4E019821A821B821C821D821E821F8299
:10412000188619861A861B861C8684EF94E00E94E6
:10413000620919AA88EC94E00E946209E4EBF4E0B9
:1041400013821282C482D582E682F7828EE591E0E4
:104150009183808384E0848783E08587138A128A31
:10416000E9E9F4E013821282C482D582E682F78202
:104170008EE291E091838083128E118E1486DF91FE
:10418000CF91FF90EF90DF90CF900895BB274A30FA
:1041900031F4992322F4BDE2909581959F4F0C94C0
:1041A000D220BB27FB015527AA27880F991FAA1FDA
:1041B000A41710F0A41B83955051B9F7A05DAA3342
:1041C00008F0A95DA193009779F7B111B19311920D
:1041D000CB010C94EB20DC01FC01672F719177235C
:1041E000E1F7329704C07C916D9370836291AE17B2
:1041F000BF07C8F308950E943D2108F481E00895A7
:10420000E89409C097FB3EF4909580957095619570
:104210007F4F8F4F9F4F9923A9F0F92F96E9BB2726
:104220009395F695879577956795B795F111F8CFA2
:10423000FAF4BB0F11F460FF1BC06F5F7F4F8F4F0D
:104240009F4F16C0882311F096E911C0772321F003
:104250009EE8872F762F05C0662371F096E8862F9B
:1042600070E060E02AF09A95660F771F881FDAF7F2
:10427000880F9695879597F90895990F0008550F1F
:10428000AA0BE0E8FEEF16161706E807F907C0F0DC
:1042900012161306E407F50798F0621B730B840BE4
:1042A000950B39F40A2661F0232B242B252B21F4BE
:1042B00008950A2609F4A140A6958FEF811D811D5E
:1042C00008950E9474210C94E5210E94D72138F0B2
:1042D0000E94DE2120F0952311F00C94CE210C9445
:1042E000D42111240C9419220E94F62170F3959F79
:1042F000C1F3950F50E0551F629FF001729FBB27DD
:10430000F00DB11D639FAA27F00DB11DAA1F649F78
:104310006627B00DA11D661F829F2227B00DA11D2B
:10432000621F739FB00DA11D621F839FA00D611DB1
:10433000221F749F3327A00D611D231F849F600DD2
:10434000211D822F762F6A2F11249F5750409AF0FB
:10435000F1F088234AF0EE0FFF1FBB1F661F771F87
:10436000881F91505040A9F79E3F510580F00C9452
:10437000CE210C9419225F3FE4F3983ED4F3869546
:1043800077956795B795F795E7959F5FC1F7FE2BF2
:10439000880F911D9695879597F9089597F99F67CE
:1043A00080E870E060E008959FEF80EC08950024BD
:1043B0000A941616170618060906089500240A948A
:1043C00012161306140605060895092E0394000C10
:1043D00011F4882352F0BB0F40F4BF2B11F460FF9F
:1043E00004C06F5F7F4F8F4F9F4F089557FD9058C8
:1043F000440F551F59F05F3F71F04795880F97FBA9
:10440000991F61F09F3F79F0879508951216130662
:104410001406551FF2CF4695F1DF08C01616170691
:104420001806991FF1CF86957105610508940895C6
:10443000E894BB2766277727CB0197F90895DB011E
:104440008F939F930E945122BF91AF91A29F800DA5
:10445000911DA39F900DB29F900D11240895A1E28C
:104460001A2EAA1BBB1BFD010DC0AA1FBB1FEE1FEE
:10447000FF1FA217B307E407F50720F0A21BB30B39
:10448000E40BF50B661F771F881F991F1A9469F7B5
:1044900060957095809590959B01AC01BD01CF0111
:1044A00008950E949322A59F900DB49F900DA49F04
:1044B000800D911D112408952F923F924F925F928B
:1044C0006F927F928F929F92AF92BF92CF92DF9224
:1044D000EF92FF920F931F93CF93DF93CDB7DEB789
:1044E000CA1BDB0B0FB6F894DEBF0FBECDBF09941D
:1044F0002A88398848885F846E847D848C849B8474
:10450000AA84B984C884DF80EE80FD800C811B8181
:10451000AA81B981CE0FD11D0FB6F894DEBF0FBEB0
:10452000CDBFED010895A29FB001B39FC001A39F2D
:10453000700D811D1124911DB29F700D811D1124DC
:10454000911D08955058BB27AA270E94BA220C94A7
:10455000E5210E94D72138F00E94DE2120F039F4B5
:104560009F3F19F426F40C94D4210EF4E095E7FB58
:104570000C94CE21E92F0E94F62158F3BA17620756
:1045800073078407950720F079F4A6F50C94182298
:104590000EF4E0950B2EBA2FA02D0B01B90190015E
:1045A0000C01CA01A0011124FF27591B99F0593FA2
:1045B00050F4503E68F11A16F040A22F232F342FEA
:1045C0004427585FF3CF469537952795A795F04038
:1045D0005395C9F77EF41F16BA0B620B730B840B4D
:1045E000BAF09150A1F0FF0FBB1F661F771F881F05
:1045F000C2F70EC0BA0F621F731F841F48F487955D
:1046000077956795B795F7959E3F08F0B0CF93954E
:10461000880F08F09927EE0F9795879508950E94C7
:1046200023230C94E5210E94DE2158F00E94D7211B
:1046300040F029F45F3F29F00C94CE2151110C94E5
:1046400019220C94D4210E94F62168F39923B1F326
:10465000552391F3951B550BBB27AA2762177307A8
:10466000840738F09F5F5F4F220F331F441FAA1F3C
:10467000A9F335D00E2E3AF0E0E832D091505040F8
:10468000E695001CCAF72BD0FE2F29D0660F771FA6
:10469000881FBB1F261737074807AB07B0E809F08C
:1046A000BB0B802DBF01FF2793585F4F3AF09E3F11
:1046B000510578F00C94CE210C9419225F3FE4F35D
:1046C000983ED4F3869577956795B795F7959F5F54
:1046D000C9F7880F911D9695879597F90895E1E0A0
:1046E000660F771F881FBB1F621773078407BA07FF
:1046F00020F0621B730B840BBA0BEE1F88F7E0955A
:1047000008950E94FE2188F09F5798F0B92F9927AD
:10471000B751B0F0E1F0660F771F881F991F1AF0AC
:10472000BA95C9F714C0B13091F00E941822B1E0D7
:1047300008950C941822672F782F8827B85F39F0D6
:10474000B93FCCF3869577956795B395D9F73EF445
:1047500090958095709561957F4F8F4F9F4F0895ED
:104760000E943D2108F48FEF08950E943D21880B9F
:10477000990B089597FB072E16F4009407D077FD48
:1047800009D00E94D42307FC05D03EF49095819572
:104790009F4F0895709561957F4F0895EE0FFF1F0D
:1047A0000590F491E02D0994AA1BBB1B51E107C0B1
:1047B000AA1FBB1FA617B70710F0A61BB70B881FB1
:1047C000991F5A95A9F780959095BC01CD01089540
:1047D0000F931F93CF93DF938230910510F482E003
:1047E00090E0E0918E05F0918F0520E030E0A0E0B0
:1047F000B0E0309719F1408151810281138148174F
:104800005907C8F08417950769F4109731F012968C
:104810000C93129713961C9327C000938E05109348
:104820008F0522C02115310519F04217530718F4DE
:104830009A01BD01EF01DF01F801DBCF2115310540
:10484000F9F0281B390B2430310580F48A819B81D3
:104850006115710521F0FB019383828304C090935D
:104860008F0580938E05FE01329644C0FE01E20F53
:10487000F31F8193919322503109398328833AC0E1
:1048800020918C0530918D05232B41F42091080156
:104890003091090130938D0520938C0520910601FC
:1048A000309107012115310541F42DB73EB74091F4
:1048B0000A0150910B01241B350BE0918C05F091FE
:1048C0008D05E217F307A0F42E1B3F0B28173907BD
:1048D00078F0AC014E5F5F4F2417350748F04E0F5C
:1048E0005F1F50938D0540938C058193919302C077
:1048F000E0E0F0E0CF01DF91CF911F910F9108959B
:10490000CF93DF93009709F481C0FC0132971382A3
:104910001282A0918E05B0918F05109781F42081AD
:104920003181820F931F20918C0530918D052817BE
:10493000390751F5F0938D05E0938C0567C0ED01C3
:1049400020E030E0CE17DF0740F44A815B819E0112
:1049500041155105F1F0EA01F5CFD383C2834081BF
:104960005181840F951FC817D90759F488819981FF
:10497000840F951F0296918380838A819B81938304
:1049800082832115310529F4F0938F05E0938E057C
:104990003DC0E901FB83EA8349915991C40FD51FBA
:1049A000EC17FD0761F480819181840F951F0296B9
:1049B000E90199838883828193819B838A83E0E0E4
:1049C000F0E012968D919C911397009719F0FD01DC
:1049D000DC01F7CF8D919C9111979D012E5F3F4F88
:1049E000820F931F20918C0530918D052817390770
:1049F00069F4309729F410928F0510928E0502C049
:104A000013821282B0938D05A0938C05DF91CF9114
:104A10000895A0E0B0E0EFE0F5E20C946022EC0134
:104A2000009721F4CB010E94E823B4C0FC01E60FFB
:104A3000F71F9C0122503109E217F30708F4A8C0C0
:104A4000D9010D911C91119706171707B0F0053089
:104A5000110508F49BC0C80104978617970708F44E
:104A600095C002501109061B170B019311936D930A
:104A70007C93CF010E94802489C05B01A01AB10AF7
:104A80004C01800E911EA0918E05B0918F05612C76
:104A9000712CE12CF12C109709F446C08D919C915A
:104AA0001197A815B905B1F56C0142E0C40ED11CEF
:104AB000CA14DB0478F14C018A189B08640142E0B7
:104AC000C40ED11C1296BC9012971396AC91B5E00F
:104AD000CB16D10440F0B282A38391828082D901A7
:104AE0006D937C9309C00E5F1F4F800F911FF901DA
:104AF00091838083EB2DFA2FE114F10431F0D7017B
:104B00001396FC93EE93129741C0F0938F05E093B8
:104B10008E053CC06816790608F43C017D011296AA
:104B20000D90BC91A02DB7CF80918C0590918D05F3
:104B300088169906E1F466167706C8F48091060196
:104B400090910701009741F48DB79EB740910A01FB
:104B500050910B01841B950BE817F907C8F4F093EB
:104B60008D05E0938C05F901718360830FC0CB0143
:104B70000E94E8237C01009759F0A801BE010E9421
:104B8000E125CE010E948024C70104C0CE0102C0ED
:104B900080E090E0CDB7DEB7EEE00C947C2281E0BF
:104BA00090E0F8940C940026FB01DC0104C08D9188
:104BB0000190801921F441505040C8F7881B990B8F
:104BC0000895FB01DC0102C001900D92415050405C
:104BD000D8F70895FB01DC0101900D920020E1F768
:104BE0000895FB01DC014150504048F001900D92C6
:104BF0000020C9F701C01D9241505040E0F70895D0
:044C0000F894FFCF56
:104C04000100FFFFFFFF000090058000000000008E
:104C14001610E00FA9145015DA14B814CC140000BF
:104C240000001D15E00FFF00FE0000000000E8007A
:104C34002D07FF003B01C70083088D08000000001A
:104C44000A10E00FFF00FE000A100A100A1000000C
:104C540000000A10E00FFF00FE0000000000FF1536
:104C6400E00FFF00FE000615F014FF006E616E00F9
:104C7400696E66006F7666002C006770736C6F67F0
:104C84002E637376000D0A00302C302C302C302C1F
:0A4C9400302C302C302C302C300076
:00000001FF
