:100000000C9494000C94BC000C94BC000C94E80577
:100010000C94E8050C94E8050C94DA090C94BC00E7
:100020000C94BC000C94BC000C94BC000C94BC0060
:100030000C94BC000C94BC000C94BC000C94BC0050
:100040000C94CD110C94BC000C9487120C9461128A
:100050000C94BC000C94BC000C94BC000C94BC0030
:100060000C94BC000C94BC00831C951C981C9F1C19
:10007000A61CD41CDB1CE81CF51C011D011D011D68
:10008000011D011D011D011D011D011D011D011D80
:10009000011D011D011D011D011D011D011D011D70
:1000A000011D011D011D011D831C901C951C981C28
:1000B0009F1CA61CAD1CBA1CC71C7C3C3E5E2B3D85
:1000C0003F2F5B5D3B2C2A225C00000000002300D8
:1000D0002600290000000000250028002B00040451
:1000E00004040404040402020202020203030303E0
:1000F00003030102040810204080010204081020BC
:1001000001020408102000000008000201000003A2
:1001100004070000000000000000000000002400B0
:1001200027002A00DB1D2A1A11241FBECFEFD8E0BA
:10013000DEBFCDBF25E0ACE8B1E001C01D92AC3B15
:10014000B207E1F711E0A0E0B1E0E0E5FAE402C0B7
:1001500005900D92AC38B107D9F710E0C3E9D0E0B3
:1001600004C02197FE010E94D822C239D107C9F7E5
:100170000E94341A0C941B250C940000DC01599643
:10018000ED91FC915A973097B9F083899489A589AC
:10019000B6894285538564857585841B950BA60BAE
:1001A000B70B811520E89207A105B10538F08FEF54
:1001B0009FE7A0E0B0E0089580E090E00895CF933D
:1001C000DF931F92CDB7DEB76983DC01ED91FC911F
:1001D0000280F381E02D41E050E0BE016F5F7F4F70
:1001E00009950F90DF91CF9108952091B505309139
:1001F000B6052817390771F49091B3058091B405BD
:10020000981741F0E091B305F0E0E457FE4F80818C
:1002100090E008958FEF9FEF089508951F93CF9377
:10022000DF93DC015C968D919C915D97009739F48A
:1002300021E030E013963C932E9312973BC05196E9
:10024000ED91FC91529750962C915097322F30950A
:100250001FB75E964C915E97742F727041FD60954A
:10026000F8944081772311F0422B01C0432340834F
:10027000EC012197F1F748E0508160FF02C0522B5A
:1002800001C053235083EC012197F1F7669541504B
:1002900099F78081772319F08323808302C0282B6C
:1002A00020831FBF5C968D919C915D970197F1F71C
:1002B00081E090E0DF91CF911F9108952091B505E5
:1002C0003091B6052817390771F48091B405209153
:1002D000B30590E0805C9F4F821B910960E470E061
:1002E0000E94A222089580E090E008952091B50533
:1002F0003091B60528173907B9F49091B30580916C
:10030000B405981789F0E091B305F0E0E457FE4F8B
:1003100080812091B30530E02F5F3F4F2F7333274B
:100320002093B30590E008958FEF9FEF089508950F
:1003300080E090E00895FC01818D928D009711F08E
:100340000C94C50B0895CF93DF93EC01898D9A8DA2
:10035000009739F481E090E09B838A8380E090E00D
:100360000BC0FC01138212820E94950CE98DFA8D5C
:1003700022813381232B71F7DF91CF9108953F9232
:100380004F925F926F927F928F929F92AF92BF92A5
:10039000CF92DF92EF92FF920F931F93CF93DF9351
:1003A000CDB7DEB72C970FB6F894DEBF0FBECDBF2A
:1003B0005C01DC015B968D909C905C971696CD90CD
:1003C000DD90ED90FC901997C114D104E104F10483
:1003D00039F0BFEFCB1ADB0AEB0AFB0A312C07C05E
:1003E000F401C080D180E280F38033243394F4019F
:1003F00081859285A385B4859C01AD012F5F3F4F18
:100400004F4F5F4F29873A874B875C87260137011B
:100410001D821E821F821886F40181859285A38524
:10042000B4852D813E814F815885281739074A07A9
:100430005B0708F063C089859A85AB85BC858C1500
:100440009D05AE05BF0550F482E0C82ED12CE12CED
:10045000F12C92E0492E512C612C712C9E012F5FC2
:100460003F4FB701A601C4010E94420B882309F443
:1004700045C089819A81AB81BC81892B8A2B8B2BCA
:1004800041F0260137019FEF491A590A690A790A92
:1004900005C0C414D504E604F70491F02D813E8113
:1004A0004F8158852F5F3F4F4F4F5F4F2D833E83C6
:1004B0004F8358873FEFC31AD30AE30AF30AACCF3E
:1004C0000FEF1FEF2FEF3FE0B301A201C4010E9425
:1004D000A10A882399F0D50116964D915D916D91F1
:1004E0007C911997411551056105710549F09301FA
:1004F0008201C4010E94A10A811102C080E02AC0C9
:10050000D50116964D925D926D927C92199733208B
:1005100051F0D301C2010196A11DB11DF4018083E8
:100520009183A283B383F5018789908DA18DB28DCC
:10053000892B8A2B8B2B69F4D50157964D925D92AE
:100540006D927C925A9714968C91149780681496A9
:100550008C9381E02C960FB6F894DEBF0FBECDBF12
:10056000DF91CF911F910F91FF90EF90DF90CF908F
:10057000BF90AF909F908F907F906F905F904F90C3
:100580003F9008958FB7F8948091CD018FBF089563
:1005900061E0FC0184810E94E3178091CC0181110C
:1005A0001092CC0108958EBD00000DB407FEFDCF62
:1005B0008EB508958FEF0C94D3020F931F93CF93B2
:1005C000DF93EB010E9405198B010E94DA028F3F35
:1005D00049F00E940519601B710B6C177D07A8F389
:1005E00080E001C081E0DF91CF911F910F910895CC
:1005F000CF93DF93EC018E81882389F08F819885DA
:100600009C012F5F3F4F38872F838230924018F430
:100610000E94DA02F3CFCE010E94C8021E82DF914F
:10062000CF9108958CBD9DBD0895CF93DF93EC01CC
:100630008091CC01811109C081E08093CC0180912F
:10064000790490917A040E94120360E08C81DF911A
:10065000CF910C94E3178F929F92AF92BF92FF922B
:100660000F931F93CF93DF93EC01F62E49015A01AC
:100670000E94F802CE010E9415036CE271E0CE01E7
:100680000E94DD028F2D80640E94D30208E110E0F9
:10069000D501C401002E04C0B695A79597958795FE
:1006A0000A94D2F70E94D30208501109083F8FEF35
:1006B000180771F7FF2029F088E0F81204C087E8D6
:1006C00003C085E901C08FEF0E94D30210E00E94B1
:1006D000DA028A8787FF04C01F3F11F01F5FF7CF40
:1006E000DF91CF911F910F91FF90BF90AF909F909E
:1006F0008F900895AF92BF92CF92DF92EF92FF92C8
:100700000F931F93CF93DF93EC016901C801820F10
:10071000931F8130924008F070C08E81882371F061
:1007200088819981AA81BB8184179507A607B7079D
:1007300029F48F819885C816D906B0F54883598366
:100740006A837B838B85833039F089E0440F551FA2
:10075000661F771F8A95D1F79A01AB0161E1CE013F
:100760000E942B03882319F083E08D8346C00E94EA
:1007700005195B010E94DA028A878F3F49F40E94C3
:1007800005196A197B096D327140A0F38FE003C02F
:100790008E3F31F08DE08D83CE010E94C8022DC0C6
:1007A00018861F8281E08E838F8198858C159D0528
:1007B00040F40E94DA028F819885019698878F8392
:1007C000F3CF6701E00EF11EEC14FD0431F00E943E
:1007D000DA02F60181936F01F7CF8F819885080FB8
:1007E000191F18870F838985882319F00115124076
:1007F00048F0CE010E94F80205C0CE010E94C80256
:1008000080E001C081E0DF91CF911F910F91FF90B7
:10081000EF90DF90CF90BF90AF900895EF92FF924E
:100820000F931F93CF93DF93EC017901411551058D
:100830006105710511F482E13CC08B85833039F08C
:1008400089E0440F551F661F771F8A95D1F79A01DB
:10085000AB0168E1CE010E942B03882311F084E0F4
:1008600028C08EEF0E94D30287018EEFF81AF8019C
:1008700081918F010E94D302E016F106C1F78FEF3C
:100880000E94D3028FEF0E94D3020E94DA028A876D
:100890008F71853031F081E18D83CE010E94C802D5
:1008A00009C068E572E0CE010E94DD02811107C037
:1008B00085E18D83CE010E94C80280E014C020E053
:1008C00030E0A9016DE0CE010E942B03811109C027
:1008D0000E94DA02811105C0CE010E94C80281E0A7
:1008E00002C084E1E6CFDF91CF911F910F91FF907D
:1008F000EF900895FC01DB0112968D919C91139766
:100900009383828380E291E09183808314968C911B
:100910001497848315968C911597858316964D911F
:100920005D916D917C91199746835783608771879C
:100930001A964D915D916D917C911D9742875387D9
:10094000648775871E964D915D916D917C9151974D
:1009500046875787608B718B52968C915297828B0A
:1009600053964D915D916D917C915697438B548B2D
:10097000658B768B57964D915D916D917C915A97D1
:10098000478B508F618F728F5B968D919C915C9796
:10099000948F838F08954F925F926F927F92AF9260
:1009A000BF92CF92DF92EF92FF920F931F93CF935C
:1009B000DF931F92CDB7DEB7FC012581222309F416
:1009C000C1C0848180FFBEC083899489A589B6890E
:1009D000428453846484758484159505A605B705FF
:1009E00009F4B0C06F015201F1E0BF22D6015B965D
:1009F0008D919C915C97B301A20139E07695679542
:100A0000579547953A95D1F7223071F4FC01828DC4
:100A1000938DA48DB58D8A019B01080F191F2A1F84
:100A20003B1FC901B8014AC0DC0114961C9111504A
:100A30001423A114B104F9F411111DC0452846284E
:100A4000472851F4F6018789908DA18DB28D868358
:100A50009783A087B1870FC0D60116964D915D91FF
:100A60006D917C91199796012A5F3F4F0E94420B2E
:100A7000882309F467C0F601238D348D8681978120
:100A8000A085B1850297A109B109AC01BD01F901A9
:100A9000058404C0440F551F661F771F0A94D2F7C0
:100AA00086859785A089B189840F951FA61FB71FDA
:100AB000BC01CD01610F711D811D911DD6011496E0
:100AC0002C9126FF0DC040900001509001016090D4
:100AD000020170900301461657066806790699F4DC
:100AE00040E00E94580A882369F1F501E652FE4F62
:100AF000DE0111969F012F5F3F4F2E173F0799F0A0
:100B000081918D93FACFFE0131967F0101E010E0D3
:100B10009501AB01BC018091DA039091DB030E9447
:100B20007A03882379F0F60182859385A485B585BB
:100B30000196A11DB11D82879387A487B5878981FE
:100B400090E002C08FEF9FEF0F90DF91CF911F9148
:100B50000F91FF90EF90DF90CF90BF90AF907F907C
:100B60006F905F904F900895FC01818D928D00975A
:100B700011F00C94CB048FEF9FEF08950F931F9308
:100B8000CF93DF93FC01818D928D0097B9F0EF0137
:100B90000E94CB048C010F3F8FEF180791F0898DD5
:100BA0009A8DFC01428553856485758541505109B4
:100BB000610971090E94FE0BC80105C080E090E048
:100BC00002C08FEF9FEFDF91CF911F910F9108959A
:100BD0001F920F920FB60F9211242F933F934F93B2
:100BE0005F936F937F938F939F93AF93BF93EF9395
:100BF000FF93E091B505F091B605309709F451C027
:100C0000968DA685B785858591FF04C09C91892323
:100C100029F447C09C91892309F043C0A389B48972
:100C20009C918589809589238C93868997890197E2
:100C3000F1F7608D718DA685B785558538E020E088
:100C4000CB010197F1F7822F90E095958795282F9A
:100C50004C91452309F02068315091F7868D81FD34
:100C600020958091B40590E001968F73992730917B
:100C7000B305381749F0A091B405B0E0A457BE4FB2
:100C80002C938093B40503C0868D8160868F828DFE
:100C9000938D0197F1F7A389B4899C918589892B5C
:100CA0008C93FF91EF91BF91AF919F918F917F9125
:100CB0006F915F914F913F912F910F900FBE0F90C9
:100CC0001F901895E091B505F091B605E817F90762
:100CD00069F4A389B4899C918589809589238C9333
:100CE0001092B6051092B50581E0089580E0089550
:100CF000CF93DF93EC018A859B85AC85BD858E8380
:100D00009F83A887B9870E9405196A837B838C8398
:100D10009D8381E089838883DF91CF910895CF936C
:100D2000DF93EC018E819F81A885B9858A839B839F
:100D3000AC83BD830E9405196A877B878C879D875A
:100D400081E089838883DF91CF9108952F923F922C
:100D50004F925F926F927F928F929F92AF92BF92CB
:100D6000CF92DF92EF92FF920F931F93CF93DF9377
:100D7000D82FC92F8B010E94941F24E630E040E059
:100D800050E00E94B62249015A019B01AC0160E883
:100D900076E988E990E00E9492226B017C01F801DB
:100DA00091828082ED2FFC2F2191822F022E000C48
:100DB000990BC0970A97C0F32E3239F51F0180E8CE
:100DC000882E86E9982E88E9A82EB12C9AE0492E23
:100DD000512C612C712CF101C1911F010C2E000CC2
:100DE000DD0BE097CA30D10580F4C501B401A30141
:100DF00092010E94B62249015A01DE010E94DE22C0
:100E0000C60ED71EE81EF91EE6CFA5E0B0E0A7018A
:100E100096010E9429216F5F7F4F8F4F9F4F23E0E4
:100E200030E040E050E00E94B622F8012283338394
:100E3000448355831682DF91CF911F910F91FF90CC
:100E4000EF90DF90CF90BF90AF909F908F907F906A
:100E50006F905F904F903F902F900895FF920F9367
:100E60001F93CF93DF93EC01F8802DE2F21201C0C3
:100E70002196CE010E94941F9B01AC01A4E6B0E034
:100E80000E942921FE014991242F042E000C330BCE
:100E9000205331092A303105A8F34E3241F5218122
:100EA000022E000C330B205331092A303105F8F49F
:100EB0004AE0429F8001439F100D1124012E000C37
:100EC000220B330B600F711F821F931F0281002EB4
:100ED000000C110B005311090A30110540F4012ECA
:100EE000000C220B330B600F711F821F931F2DE22A
:100EF000F21207C090958095709561957F4F8F4F46
:100F00009F4FDF91CF911F910F91FF900895CF9345
:100F1000C82F60E00E94E31764E670E080E090E094
:100F20000E94CB1861E08C2F0E94E31764E670E00A
:100F300080E090E00E94CB1860E08C2F0E94E317C5
:100F400064E670E080E090E0CF910C94CB18EF92D3
:100F5000FF920F931F93CF93DF937C0100E010E08B
:100F6000C0E0D0E00E151F057CF460E47FE180E076
:100F700090E00E94CB18CC33D10524F00F5F1F4FB7
:100F8000C0E0D0E02896EECFDF91CF911F910F9176
:100F9000FF90EF9008958F929F92AF92BF92CF9261
:100FA000DF92EF92FF920F931F93CF93DF93CDB712
:100FB000DEB7A1970FB6F894DEBF0FBECDBF7C01A0
:100FC000CE0101960E947F15CE0101960E94EE127D
:100FD0000BE010E0E091DD04F091DE04309719F0B1
:100FE000858181111BC001501109A9F085EA94E0A7
:100FF0000E94EB1068EC70E080E090E00E94CB185B
:101000000E941119CE0101960E947F15CE01019612
:101010000E94EE12DFCF309709F490C185818823BA
:1010200009F48CC185E090E00E948707B701CE01EA
:1010300001960E949614CE0101960E946014CE0182
:1010400001960E945B140E9457146091FE0470E0A8
:10105000CE0101960E949614CE0101960E94601462
:10106000CE0101960E945B140E94571460912005E6
:1010700070E0CE0101960E949614CE0101960E9466
:101080006014CE0101960E945B140E945714609177
:101090002E0570E0CE0101960E949614CE010196B5
:1010A0000E946014CE0101960E945B140E945714A6
:1010B00010922105609122057091230580912405ED
:1010C0009091250524E6C22ED12CE12CF12CA7010C
:1010D00096010E94B622CB018053984F1D8E1C8E24
:1010E0001F8E1E8E19A218A24AE0BE016F5F7F4FAD
:1010F0000E94DB1FBE016F5F7F4FCE014C960E94A6
:101100001712CE014C960E946014CE014C960E949C
:101110005B140E9457141092210560912205709172
:1011200023058091240590912505A70196010E9431
:10113000B622CA01B901A70196010E94B622CE01CA
:1011400001960E946914CE0101960E946014CE019E
:1011500001960E945B140E94571410922105609121
:10116000220570912305809124059091250530E199
:10117000832E37E2932EA12CB12CA50194010E945D
:10118000B622622FCE0101960E946914CE0101960B
:101190000E946014CE0101960E945B140E945714B5
:1011A00010922F05609130057091310580913205C4
:1011B0009091330520E432E44FE050E00E94B622E3
:1011C000622FCE0101960E946914CE0101960E9401
:1011D0006014CE0101960E945B140E945714109275
:1011E0002F05609130057091310580913205909105
:1011F0003305A50194010E94B622CA01B901A701D5
:1012000096010E94B622CE0101960E946914CE0179
:1012100001960E946014CE0101960E945B140E9408
:10122000571410922F05609130057091310580910F
:10123000320590913305A70196010E94B622CA019A
:10124000B901A70196010E94B622CE0101960E9423
:101250006914CE0101960E946014CE0101960E948D
:101260005B140E9457141092FF0460910205709164
:10127000030580910405909105050E940A2028E24B
:101280003BE64EE65EE40E94E7216B017C01609143
:1012900000057091010580E090E00E940A209B010A
:1012A000AC01C701B6010E947B21209106052111E6
:1012B00090584AE00E9436130E9457141092FF047F
:1012C0006091090570910A0580910B0590910C05BC
:1012D0000E940A2028E23BE64EE65EE40E94E721F7
:1012E0006B017C01609107057091080580E090E03A
:1012F0000E940A209B01AC01C701B6010E947B211C
:1013000020910D05211190584AE00E94361388E57E
:1013100091E00E9424138091DD049091DE040097F7
:10132000A1F10E94EB108091DD049091DE040E94F7
:1013300092231092DE041092DD0427C000E010E03A
:10134000B80186E00E946C18B80185E00E946C1814
:1013500065E070E080E090E00E94CB180F5F1F4FC7
:101360000F3F110569F70FEF10E0B80185E00E940B
:101370006C1865E070E080E090E00E94CB180150AE
:10138000110999F780E090E002C081E090E0A19619
:101390000FB6F894DEBF0FBECDBFDF91CF911F9186
:1013A0000F91FF90EF90DF90CF90BF90AF909F9004
:1013B0008F9008951F920F920FB60F921124A89547
:1013C0000F900FBE0F901F901895FC01918D228DEC
:1013D000892F90E0805C9F4F821B91098F73992722
:1013E000089580E090E0892B29F00E94541181112A
:1013F0000C94000008958091CE018823A9F14091BA
:1014000000015091010160910201709103012AEDE8
:1014100031E08091DA039091DB030E940E04811188
:1014200002C080E008954091CF015091D0016091B9
:10143000D1017091D201411551056105710591F0FD
:101440002AED31E08091DA039091DB030E940E04D3
:10145000882339F31092CF011092D0011092D1015C
:101460001092D2011092CE0181E00895FC01848D8A
:10147000DF01A80FB11DA35ABF4F2C91848D90E0BE
:1014800001968F739927848FA689B7892C93A08999
:10149000B1898C91837080648C93938D848D981323
:1014A00006C00288F389E02D80818F7D80830895B6
:1014B0008F929F92AF92BF92EF92FF920F931F93E2
:1014C000CF934B015C01C42F8091000190910101E9
:1014D000A0910201B091030188159905AA05BB05E9
:1014E00001F10E94FB09811102C080E020C08AED59
:1014F000E82E81E0F82E00E012E020E030E0B501B7
:10150000A4018091DA039091DB030E947A0388237F
:1015100061F38092000190920101A0920201B092C9
:1015200003018091CE01C82BC093CE0181E0CF9101
:101530001F910F91FF90EF90BF90AF909F908F9071
:1015400008954F925F926F927F928F929F92AF9287
:10155000BF92CF92DF92EF92FF920F931F93CF93A0
:10156000DF93EC01423051056105710510F480E014
:1015700078C089859A85AB85BC850196A11DB11D72
:1015800084179507A607B70790F3CB88DC88ED880A
:10159000FE888F89803129F4BB27A72F962F852FAE
:1015A00009C0DB01CA01E7E0B695A7959795879535
:1015B000EA95D1F7480159012A013B01C80ED91E0D
:1015C000EA1EFB1E8091000190910101A091020191
:1015D000B0910301C816D906EA06FB0681F48F898B
:1015E0008031A9F4B301A201552766277727440F5C
:1015F000551FFA01E652FE4F9182808219C040E0E9
:10160000C701B6010E94580A8111E9CFB0CFB301DA
:10161000A2014F77552766277727440F551F440FA0
:10162000551FFA01E652FE4F80829182A282B38258
:101630008091CE0181608093CE018A89823080F0D2
:101640008D819E81AF81B885C80ED91EEA1EFB1E12
:10165000C092CF01D092D001E092D101F092D2019C
:1016600081E0DF91CF911F910F91FF90EF90DF907C
:10167000CF90BF90AF909F908F907F906F905F9032
:101680004F9008958F929F92AF92BF92CF92DF9228
:10169000EF92FF920F931F93CF93DF93FC0181850D
:1016A0009285A385B4850196A11DB11D8417950768
:1016B000A607B70710F480E05BC083889488A588EC
:1016C000B6888789803129F4BB27A72F962F852FCD
:1016D00009C0DB01CA01C7E0B695A7959795879524
:1016E000CA95D1F7E9016A017B018F01BC01CD01E7
:1016F000680D791D8A1D9B1D80900001909001014D
:10170000A0900201B0900301681579058A059B0538
:1017100091F4F80187898031A1F4DD24EE24FF24BF
:10172000C601880F991FFC01E652FE4F808191810E
:10173000A0E0B0E018C040E00E94580A8111E9CF53
:10174000BACFE894C7F8DD24EE24FF24C601880F41
:10175000991F880F991FFC01E652FE4F80819181ED
:10176000A281B381BF7088839983AA83BB8381E000
:10177000DF91CF911F910F91FF90EF90DF90CF906D
:10178000BF90AF909F908F900895CF93DF93EC011F
:101790008D81882379F18C8187FF28C06E857F85B4
:1017A0008889998941E00E94580A882319F1EA89B9
:1017B00080E2E89FF0011124E652FE4F3097D1F00D
:1017C0008D81823040F48B899C89AD89BE89848F5C
:1017D000958FA68FB78F8F89988DA98DBA8D938F8E
:1017E000828FB58BA48B8C818F778C83DF91CF9187
:1017F0000C94FB0980E0DF91CF9108958F929F9226
:10180000AF92BF92CF92DF92EF92FF920F931F930E
:10181000CF93DF93EC018D81811102C080E078C00D
:101820000B891C892D893E89041715072607370760
:10183000A8F36A017B01823029F4CA86DB86EC8634
:10184000FD860DC0C114D104E104F10451F41E82DF
:101850001F82188619861A861B861C861D8681E0C3
:1018600057C08A849B84AC84BD84EB8DFC8D258518
:1018700030E0275F3F4FB501A40141505109610994
:101880007109022E04C076956795579547950A947D
:10189000D2F7D701C6010197A109B10904C0B695D5
:1018A000A795979587952A95D2F784179507A60748
:1018B000B70720F089288A288B2871F44F89588D22
:1018C000698D7A8D4E835F83688779874C015D01CE
:1018D0008E010A5F1F4F16C0841B950BA60BB70B1A
:1018E000F5CF4E815F816885798598018B8D9C8DC0
:1018F0000E94420B91E0891A9108A108B10888233F
:1019000009F48CCF81149104A104B10451F795CF4F
:10191000DF91CF911F910F91FF90EF90DF90CF90CB
:10192000BF90AF909F908F9008952F923F924F92CB
:101930005F926F927F928F929F92AF92BF92CF925F
:10194000DF92EF92FF920F931F93CF93DF9300D01C
:1019500000D0CDB7DEB78C015B011A01DC01159612
:101960008C9115978130C9F414968C9181FF15C024
:1019700082FF1DC0F8014389548965897689828573
:101980009385A485B58584179507A607B70779F0D1
:10199000C8010E94FE0B81110AC081E090E0D801CD
:1019A00013969C938E93129780E090E036C161016C
:1019B00083C05B968D919C915C97FC0174802FEFA6
:1019C000270D2A013B0139E0769467945794479498
:1019D0003A95D1F7722E74207A01F1E0FF22772038
:1019E00009F476C080E092E08E199F0946018C15BB
:1019F0009D0508F44C01D8015B962D913C915C97B4
:101A000016968D919D910D90BC91A02D0297A109E4
:101A1000B109F901058404C0880F991FAA1FBB1FD3
:101A20000A94D2F74685578560897189840F951F7E
:101A3000A61FB71F9C01AD01270D311D411D511D72
:101A400029013A01811432E0930609F088C080919F
:101A5000000190910101A0910201B091030148168B
:101A600059066A067B0659F48FEF9FEFDC018093DD
:101A7000000190930101A0930201B093030195012D
:101A8000B301A2018091DA039091DB030E940E045E
:101A9000882309F482CF9EEFB91AC818D908F80133
:101AA00082859385A485B585880D991DA11DB11DDD
:101AB00082879387A487B587D8011A964D915D9147
:101AC0006D917C911D97C114D10409F072CF87C02C
:101AD000E114F10409F086CF16964D915D916D9158
:101AE0007C911997411551056105710559F4579677
:101AF0008D919D910D90BC91A02D0097A105B105F0
:101B000041F521C09E012F5F3F4F0E94420B882369
:101B100009F44BCF89819A81AB81BC81F801238D77
:101B2000348DF9012789203129F048EF5FEF6FEFFD
:101B30007FE004C048EF5FEF60E070E08417950736
:101B4000A607B70730F0C8010E94BF0181114ACF34
:101B500024CFF80186839783A087B18743CFE11410
:101B6000F10429F5D8011A964D915D916D917C9102
:101B70001D9753968D919D910D90BC91A02D481766
:101B800059076A077B0798F00E94FB09882309F42C
:101B900004CF4092000150920101609202017092C4
:101BA00003018091CE0181608093CE0108C041E0A5
:101BB000C301B2010E94580A882309F4EECED50170
:101BC000F701E652FE4F9F01280D391D2E173F07E2
:101BD00019F08D918193FACFA80CB91C5ECFF80152
:101BE00083899489A589B68984179507A607B707BD
:101BF00038F4438B548B658B768B84818068848327
:101C0000F801848183FD02C0C10107C0C8010E94A0
:101C1000C50B882309F4C1CEF7CF0F900F900F901A
:101C20000F90DF91CF911F910F91FF90EF90DF9078
:101C3000CF90BF90AF909F908F907F906F905F906C
:101C40004F903F902F900895CF93DF931F92CDB781
:101C5000DEB7698341E050E0BE016F5F7F4F0E94B5
:101C6000950C0F90DF91CF9108958F929F92AF9234
:101C7000BF92CF92DF92EF92FF920F931F93CF9379
:101C8000DF9300D000D0CDB7DEB77C0180E2689F43
:101C9000F0011124E652FE4F9385917121F0842FBB
:101CA000827409F08FC0142FD70152966C9352970B
:101CB0004091000150910101609102017091030176
:101CC0001E964D935D936D937C93519744895589EE
:101CD00060E070E0BA0155274427828D938DA0E023
:101CE000B0E0482B592B6A2B7B2BD70157964D938D
:101CF0005D936D937C935A978385887159F4848D95
:101D0000958DA68DB78DF701838B948BA58BB68BA4
:101D100081E012C0803109F055C097012D5E3F4F20
:101D2000D7015B968D919C915C970E94C214882389
:101D300009F448C084E0F7018583812F8F70D701B3
:101D400014968C931497F7011682178210861186C9
:101D50001A961D921D921D921C921D9716FF34C05B
:101D600015968C91813071F511FF2CC0F7014389D4
:101D7000548965897689452B462B472B09F461C028
:101D800040E050E0BA01C7010E94FE0B8823D1F069
:101D9000F7018788908CA18CB28CC38CD48C82E0A4
:101DA00090E0A0E0B0E0F60180839183A283B3834A
:101DB0009E012F5F3F4FB501A401C6010E94420B57
:101DC000811104C080E03DC081E03BC000E010E034
:101DD0009801B501A401C6010E94A10A882391F3CC
:101DE00089809A80AB80BC80D60157968C918031D7
:101DF00029F088EF9FEFAFEFBFE004C088EF9FEFBF
:101E0000A0E0B0E088169906AA06BB0688F2D701C2
:101E100057961D921D921D921C925A97F701138A94
:101E2000148A158A168A848180688483C7010E9477
:101E3000C50B882339F240E050E0BA01C7010E9487
:101E4000FE0B0F900F900F900F90DF91CF911F918D
:101E50000F91FF90EF90DF90CF90BF90AF909F9049
:101E60008F9008952F923F924F925F926F927F9240
:101E70008F929F92AF92BF92CF92DF92EF92FF929A
:101E80000F931F93CF93DF93CDB7DEB72B970FB68A
:101E9000F894DEBF0FBECDBF7C01FE013196CE01AE
:101EA0000C966F0130E23193E817F907E1F7DA0198
:101EB00030E087E09D91992331F19E3231F48A30F0
:101EC00009F46BC138E08AE0F5CFEAEBF0E0449129
:101ED000442321F031969413FACF5FC1831708F49D
:101EE0005CC14FED490F4E3508F057C141E0430F3B
:101EF000F601E30FF11D3FE9390F3A3108F4905232
:101F00009083342FD7CF8981803209F446C1322E95
:101F10008B01DB015B968D919C915C97F701948F0F
:101F2000838F16961D921D921D921C921997FB018C
:101F30001286138614861586B12CF8018285938546
:101F4000A485B58543895489658976898417950761
:101F5000A607B70708F05BC025E0B695A79597954B
:101F600087952A95D1F7F82FFF70AF2ED8011596D7
:101F70008C91823008F411C1C8010E94CB0497FDF6
:101F80000CC1F80182859385A485B5854F96A11D66
:101F9000B11D82879387A487B587F0E2AF9EB00119
:101FA000112466527E4F6115710509F4F6C0DB01FC
:101FB0008C91882319F0853EC1F4F1C0B1100EC098
:101FC000F701A28A8091000190910101A091020184
:101FD000B091030186879787A08BB18BDB018C9131
:101FE000882399F0BB24B394A8CF4BE050E0C601FE
:101FF0000E94E624892B09F0A0CF832D80738033C3
:1020000009F4CBC0432D6A2DC4C0BB24B394832DE7
:102010008271823109F0C1C0BB20C1F0F701668531
:1020200077858089918941E00E94580A882309F4C4
:10203000B4C0D70152968C91B0E28B9FC00111249D
:1020400086529E4F009709F078C0A7C0F80185819D
:10205000823009F4A2C0C8010E94BF01882309F49C
:102060009CC0D8015B96ED91FC915C9716968D9083
:102070009D90AD90BC901997B2E08B1A9108A10881
:10208000B108058404C0880C991CAA1CBB1C0A94C6
:10209000D2F786859785A089B189880E991EAA1ED8
:1020A000BB1E2480E1E08E1A9108A108B10822200D
:1020B00009F124013501420C511C611C711C0E9464
:1020C000FB09882309F469C0EAEDF1E0119223E0ED
:1020D000EA3DF207D9F74092000150920101609267
:1020E0000201709203018091CE0181608093CE0144
:1020F0002A94DDCFD8015B96ED91FC915C9780E04E
:1021000092E0A0E0B0E0058404C0880F991FAA1FE8
:10211000BB1F0A94D2F7F8014389548965897689EF
:10212000840F951FA61FB71F838B948BA58BB68B2F
:10213000D70152961C928AED91E020E2FC011192A7
:102140002A95E9F72BE0F601DC0101900D922A9522
:10215000E1F721E238E2DC0151963C932E9350974F
:1021600040E058E01F965C934E931E9753963C9325
:102170002E93529759963C932E93589757965C936B
:102180004E9356970E94FB09882339F0432DF7019F
:102190006289C7010E94350E05C080E003C0B110FE
:1021A00021CF0ECF2B960FB6F894DEBF0FBECDBF5A
:1021B000DF91CF911F910F91FF90EF90DF90CF9023
:1021C000BF90AF909F908F907F906F905F904F9057
:1021D0003F902F900895CF93DF93EC010E94C50BA1
:1021E000882311F01D8281E0DF91CF910895CF9275
:1021F000DF92EF92FF920F931F93CF93DF936C01C7
:102200007A018B01C0E0D0E0CE15DF0581F0D80166
:102210006D918D01D601ED91FC910190F081E02D41
:10222000C6010995892B11F02196EECF7E01C701D9
:10223000DF91CF911F910F91FF90EF90DF90CF90A2
:102240000895FC01538D448D252F30E0842F90E0BC
:10225000821B930B541710F0CF96089501970895A1
:10226000FC01918D828D981761F0828DDF01A80F9E
:10227000B11D5D968C91928D9F5F9F73928F90E0C0
:1022800008958FEF9FEF0895FC01918D828D98172F
:1022900031F0828DE80FF11D858D90E008958FEF6C
:1022A0009FEF08950E94E1248CED93E00E94E509E0
:1022B00021E0892B09F420E0822F0895EF92FF920C
:1022C0000F931F93CF93DF93EC0181E0888F9B8D59
:1022D0008C8D981305C0E889F989808185FD26C019
:1022E000F62E0B8D10E00F5F1F4F0F731127E02E9E
:1022F0008C8DE8120CC00FB607FCFACFE889F9897B
:10230000808185FFF5CFCE010E94360AF1CF8B8DFB
:10231000FE01E80FF11DE35AFF4FF0829FB7F894DA
:102320000B8FEA89FB89808180620AC09FB7F8948D
:10233000EE89FF896083E889F989808183708064F0
:1023400080839FBF81E090E0DF91CF911F910F913B
:10235000FF90EF900895CF93DF93EC01888D882351
:10236000C9F0EA89FB89808185FD05C0A889B98902
:102370008C9186FD0FC00FB607FCF5CF808185FFDD
:10238000F2CFA889B9898C9185FFEDCFCE010E944B
:10239000360AE7CFDF91CF9108951F920F920FB6C3
:1023A0000F9211242F933F938F939F93AF93BF93DB
:1023B0008091AB059091AC05A091AD05B091AE05B3
:1023C0003091D90126E0230F2D3720F40296A11D6C
:1023D000B11D05C029E8230F0396A11DB11D20934F
:1023E000D9018093AB059093AC05A093AD05B09354
:1023F000AE058091AF059091B005A091B105B09167
:10240000B2050196A11DB11D8093AF059093B00553
:10241000A093B105B093B205BF91AF919F918F91F9
:102420003F912F910F900FBE0F901F901895EF9234
:10243000FF920F931F93CF93DF93EC017B01888171
:1024400099816115710519F1FB0101900020E9F7EF
:1024500031978F01061B170B009729F02A813B81CA
:1024600020173107F8F4B8016F5F7F4F0E941B24DB
:10247000009759F0998388831B830A832C813D81BF
:10248000232B81F4FC0110820DC088819981009773
:1024900011F00E949223198218821D821C821B82D5
:1024A0001A8207C01D830C83B701888199810E941D
:1024B0000525CE01DF91CF911F910F91FF90EF90F5
:1024C00008951F920F920FB60F9211242F933F93EE
:1024D0004F935F936F937F938F939F93AF93BF932C
:1024E000EF93FF938CED93E00E94360AFF91EF91FA
:1024F000BF91AF919F918F917F916F915F914F911C
:102500003F912F910F900FBE0F901F9018951F9223
:102510000F920FB60F9211242F938F939F93EF93E7
:10252000FF93E091EC03F091ED038081E091F203E1
:10253000F091F30382FD12C090818091F5038F5FCB
:102540008F732091F603821751F0E091F503F0E0CC
:10255000E452FC4F958F8093F50301C08081FF9179
:10256000EF919F918F912F910F900FBE0F901F9021
:102570001895EF92FF920F931F93CF93DF93EC0187
:102580007B018A011B821A8288EE93E0A0E0B0E012
:102590008C839D83AE83BF838CE291E09983888393
:1025A0008DE190E00E94FA229A8F898F009779F04E
:1025B0002DE1F701DC0101900D922A95E1F74CE045
:1025C00050E0B801CE010C960E940C25188EDF91C8
:1025D000CF911F910F91FF90EF900895CF93DF93CC
:1025E000FC01828193819093C7048093C604848107
:1025F0009581A681B7818093C8049093C904A09364
:10260000CA04B093CB0480859185A285B38580935D
:10261000CC049093CD04A093CE04B093CF04EF01EB
:102620002C96A0EDB4E089918D9384E0AD3DB80780
:10263000D1F7818D928D9093DE048093DD0484EC3C
:1026400094E0DF91CF910895009769F0FC0101902B
:102650000020E9F73197AF01481B590BBC0184EC0E
:1026600094E00C94A30180E090E008952F923F92B3
:102670004F925F926F927F928F929F92AF92BF9292
:10268000CF92DF92EF92FF920F931F93CF93DF933E
:10269000CDB7DEB7A4970FB6F894DEBF0FBECDBF9F
:1026A0004B015C01F42E9B01AC010E948D2288231A
:1026B00019F083E791E027C024013501E89477F809
:1026C0002FEF3FEF4FE75FE7C301B2010E948D227A
:1026D00081110DC02FEF3FEF4FE75FE7C301B2015C
:1026E0000E94052018161CF487E791E00CC02FEF1C
:1026F0003FEF4FE75FE4C501B4010E94882218163E
:102700002CF48BE791E00E942413B8C02FEF3FEF29
:102710004FE75FECC501B4010E94052087FDF1CFB2
:1027200020E030E0A901C501B4010E94052087FF27
:102730000BC06DE284EC94E00E94DF003C01B7FA2C
:10274000B094B7F8B09402C0612C712C10E060E036
:1027500070E080E09FE3F11641F020E030E040E2DD
:1027600051E40E94E7211F5FF6CFA50194010E946A
:102770007B214B015C010E9459226AA3C72ED82EEF
:10278000E92E19A2262F372F482F592F8E010F5DC2
:102790001F4F0BA31CA39AE0292E312C412C512C46
:1027A000CA01B901A20191010E94B622605DF8013F
:1027B00062938F01211531054105510589F7CF013C
:1027C0000E9424138301080F191FFF2009F455C02C
:1027D0006AA17C2D8D2D9E2D0E940A209B01AC01AB
:1027E000C501B4010E947A214B015C016EE284ECC8
:1027F00094E00E94DF00080F191F8AE0282E312C78
:10280000412C512C20E030E040E251E4C501B401FC
:102810000E946B204B015C010E9459229B0140E009
:1028200050E019A2CBA0DCA0762E3AA3642EE52EB0
:10283000CA01B901A20191010E94B622605DF601B0
:1028400062936F01211531054105510589F7CF01CB
:102850000E942413080F191F672D7AA1862D9E2D23
:102860000E940A209B01AC01C501B4010E947A219B
:102870004B015C01FA94F110C5CFC801A4960FB6C4
:10288000F894DEBF0FBECDBFDF91CF911F910F91A6
:10289000FF90EF90DF90CF90BF90AF909F908F9080
:1028A0007F906F905F904F903F902F9008958FE7AB
:1028B00091E00C942413FC01808191810C9492236B
:1028C000FC01448155816081718184EC94E00C9419
:1028D000A3010F931F93CF93DF93CDB7DEB7299753
:1028E0000FB6F894DEBF0FBECDBF8C01862FF80166
:1028F0001182108213821282158214824AE0BE0174
:102900006F5F7F4F90E00E94DB1FBE016F5F7F4FC4
:10291000C8010E94171229960FB6F894DEBF0FBEA9
:10292000CDBFDF91CF911F910F9108950F931F930A
:10293000CF93DF93CDB7DEB762970FB6F894DEBFC3
:102940000FBECDBF8C01CB01F80111821082138222
:102950001282158214824AE0BE016F5F7F4F0E948F
:10296000BB1FBE016F5F7F4FC8010E9417126296A6
:102970000FB6F894DEBF0FBECDBFDF91CF911F9190
:102980000F9108954F925F926F927F92AF92BF9294
:10299000CF92DF92EF92FF920F931F93CF93DF932B
:1029A00000D000D0CDB7DEB78C0149835A836B834A
:1029B0007C835901C12CD12C7601412C82E0582E08
:1029C000612C712C49815A816B817C819E012F5F22
:1029D0003F4FC8010E94420B882351F1D301C2012D
:1029E000F801058404C0880F991FAA1FBB1F0A9411
:1029F000D2F7C80ED91EEA1EFB1E49815A816B818F
:102A00007C818789803129F088EF9FEFAFEFBFE0AD
:102A100004C088EF9FEFA0E0B0E0481759076A07AD
:102A20007B0780F2F501C082D182E282F38281E0ED
:102A30000F900F900F900F90DF91CF911F910F91FA
:102A4000FF90EF90DF90CF90BF90AF907F906F900E
:102A50005F904F900895CF93DF93FC01258122234F
:102A600011F080E049C0EC0180919E048031C1F4F6
:102A700082E08583178A108E118E128E80919F04BA
:102A80009091A004A0E0B0E025E0880F991FAA1F54
:102A9000BB1F2A95D1F7838B948BA58BB68B19C05E
:102AA0008032F9F683E085834091A1045091A2041D
:102AB0006091A3047091A404478B508F618F728F33
:102AC0009F012D5E3F4F87E894E00E94C214882347
:102AD00041F287E894E09C8F8B8F81E08C831E828B
:102AE0001F82188619861A861B861C861D861E86DE
:102AF0001F86188A198A1A8ADF91CF910895EF925A
:102B0000FF920F931F93CF93DF93CDB7DEB7C755D7
:102B1000D1090FB6F894DEBF0FBECDBF8C011C8269
:102B20001B8280E2E82E81E0F82EFA82E9821E8282
:102B3000CE0101960E942B15BE016F5F7F4FCE0123
:102B4000CB960E947A0419A218A2FF8EEE8E1BA2C9
:102B500021968FAD2197811113C0F8011382128243
:102B600088EE93E0A0E0B0E084839583A683B783EA
:102B70008CE291E091838083128E118E148627C09F
:102B800027E141E851E0BE01655C7F4FCE014E96E2
:102B90000E94320F882309F3CE01CB960E94EB10DE
:102BA00049A95AA96BA97CA9CE014E960E94FE0B99
:102BB000BE01625E7F4FCE0101960E947A0441E819
:102BC00051E0BE016F5F7F4FC8010E94B912C8017A
:102BD000C95ADF4F0FB6F894DEBF0FBECDBFDF91ED
:102BE000CF911F910F91FF90EF9008958F929F9238
:102BF000AF92BF92CF92DF92EF92FF92CF93DF938B
:102C0000C82F8BE794E09093DB038093DA03CC2307
:102C100069F1C53010F080E00CC140E060E070E088
:102C2000CB010E94580A8823B1F320E1C29FC00162
:102C3000112486539E4FFC01E254FE4F20812F77D2
:102C400051F73C9640815181628173814436510530
:102C50006105710500F33497C080D180E280F38074
:102C6000C114D104E104F10421F4D5CFC12CD12C3D
:102C7000760140E0C701B6010E94580A882359F244
:102C80008091E5019091E6018115924021F6A09195
:102C9000EA01AA2309F4BFCF6091E8017091E9012C
:102CA0006115710509F4B7CF2091E701222309F4DA
:102CB000B2CFA093990420938B0480E030E041E0F0
:102CC00050E0C82FFA01082E02C0EE0FFF1F0A9431
:102CD000E2F72E173F0739F08F5FC83091F789E090
:102CE0008093940498CF809394042091F0013091C4
:102CF000F1012115310519F040E050E008C02091A4
:102D0000FE013091FF014091000250910102209399
:102D10008C0430938D0440938E0450938F044601AD
:102D20005701860E971EA11CB11C80929A049092A6
:102D30009B04A0929C04B0929D04E091EB01F09161
:102D4000EC01F093A004E0939F04B0E00E942921DD
:102D5000860E971EA81EB91E8092A1049092A2040E
:102D6000A092A304B092A40485E0EE0FFF1F8A9501
:102D7000E1F7E150FE4FEF2FFF27E6958E0E9F1EE5
:102D8000A11CB11C8092950490929604A092970485
:102D9000B09298042091ED013091EE01211531059A
:102DA00021F0A90160E070E008C04091FA01509163
:102DB000FB016091FC017091FD01D701C6018819EA
:102DC0009909AA09BB09840F951FA61FB71F04C044
:102DD000B695A79597958795CA95D2F78093900455
:102DE00090939104A0939204B0939304853F2FE0B5
:102DF0009207A105B10510F48CE018C0853F9F4FE4
:102E0000A105B10510F480E111C0809106029091F6
:102E10000702A0910802B09109028093A104909347
:102E2000A204A093A304B093A40480E280939E0420
:102E300081E0DF91CF91FF90EF90DF90CF90BF9036
:102E4000AF909F908F9008953FB7F8948091AF0511
:102E50009091B005A091B105B091B20526B5A89B9F
:102E600005C02F3F19F00196A11DB11D3FBFBA2F1C
:102E7000A92F982F8827820F911DA11DB11DBC017C
:102E8000CD0143E0660F771F881F991F4A95D1F740
:102E900008951092FA041092F9041092F804109216
:102EA000F7041092F6041092F5048DEC90E09093E4
:102EB000FC048093FB049091EB04963108F058C019
:102EC00025E530E03093F6042093F5042BEC30E058
:102ED0003093F8042093F70420E930E03093FA04AB
:102EE0002093F90440916800983058F031E09E300A
:102EF00008F430E021E0822F01C0880F3A95EAF70C
:102F000001C084E0842B80936800983038F09E30B4
:102F100040F0963148F020E030E008C02DE630E087
:102F200005C02BE630E002C02CE630E03093F3041D
:102F30002093F204983030F481E001C0880F9A9514
:102F4000EAF70EC0292F30E09E3018F428503109DE
:102F500002C02E50310981E001C0880F2A95EAF79E
:102F60008093F4048091FB049091FC040197F1F7A5
:102F70008091F9049091FA04892B21F18091B50593
:102F80009091B60524E08F3D9207E1F0009711F093
:102F90000E9462068091FD048E7F8093FD04109252
:102FA000B4051092B3058FED94E09093B60580932D
:102FB000B505E091F204F091F30490818091F4045E
:102FC000892B8083089590E0FC01EA5FFE4F2491F5
:102FD000FC01EE50FF4F3491FC01E252FF4FE491AF
:102FE000EE2309F43CC0222339F1233091F038F468
:102FF0002130A9F0223001F584B58F7D12C0273031
:1030000091F02830A1F02430B9F4809180008F7DB8
:1030100003C0809180008F77809380000DC084B5BD
:103020008F7784BD09C08091B0008F7703C08091F5
:10303000B0008F7D8093B000F0E0EE0FFF1FEC52E8
:10304000FF4FA591B4919FB7F894611104C08C9182
:103050003095382302C0EC913E2B3C939FBF0895DE
:10306000CF93DF9390E0FC01EE50FF4F2491FC01E1
:10307000E252FF4F8491882361F190E0880F991FFD
:10308000FC01E65EFE4FC591D491FC01EC52FF4F6E
:10309000A591B491611109C09FB7F89488812095DA
:1030A00082238883EC912E230BC0623061F49FB79A
:1030B000F8948881322F309583238883EC912E2BCE
:1030C0002C939FBF06C08FB7F894E8812E2B2883DE
:1030D0008FBFDF91CF9108951F93CF93DF93182F68
:1030E000EB0161E00E943018209711F460E004C009
:1030F000CF3FD10539F461E0812FDF91CF911F914E
:103100000C94E317E12FF0E0EA5FFE4FE491E33027
:10311000F9F048F4E130B9F0E230A1F584B580620D
:1031200084BDC8BD34C0E730E9F0E83019F1E430BF
:1031300049F580918000806280938000D0938B005D
:10314000C0938A0024C084B5806884BDC7BD1FC0F9
:1031500080918000806880938000D0938900C09324
:10316000880015C08091B00080688093B000C09343
:10317000B3000DC08091B00080628093B000C09316
:10318000B40005C0C038D1050CF0B5CFAFCFDF918A
:10319000CF911F9108958F929F92AF92BF92CF923D
:1031A000DF92EF92FF926B017C010E9424174B018A
:1031B0005C01C114D104E104F104F1F00E94241770
:1031C000DC01CB0188199909AA09BB09883E934003
:1031D000A105B10570F321E0C21AD108E108F10898
:1031E00088EE880E83E0981EA11CB11CC114D10486
:1031F000E104F10419F7DDCFFF90EF90DF90CF905D
:10320000BF90AF909F908F9008952FB7F8946091E2
:10321000AB057091AC058091AD059091AE052FBFC7
:1032200008958F929F92AF92BF92CF92DF92EF92CA
:10323000FF92CF938091AA04882321F085EA94E03D
:103240000E94EB1010928604109284041092810464
:103250001092800488E080937F040E9405196B011E
:103260007C0161E080917F040E94301861E08091D0
:103270007F040E94E317CFB7F8948091B7058111BE
:1032800027C0E8EEF0E08491ECEFF0E09491E82FB5
:10329000F0E0EE0FFF1FE65EFE4FA591B491EC91BA
:1032A000E92321F461E08AE00E94E31761E08AE00B
:1032B0000E9430188CB580618CBD8CB580648CBD4B
:1032C00061E08DE00E94301861E08BE00E943018D0
:1032D0008091B7058F5F8093B705CFBF82E580935C
:1032E000790481E080937A048091790490917A0442
:1032F0000E941203CAE08FEF0E94D302C150D9F797
:103300008BE794E00E94150320E030E0A90160E023
:103310008BE794E00E942B03C82F809385048130B3
:1033200049F00E9405196C197D09613D774060F3F1
:1033300081E054C02AEA31E040E050E068E08BE7E9
:1033400094E00E942B0382FF03C0C09386040EC04A
:10335000C4E00E94DA0280938504C150D1F78A3A12
:1033600011F082E03BC082E0809386048091860465
:10337000823021F0812C912C540105C0812C912C9C
:10338000A12C80E4B82E20E030E0A90167E38BE7B0
:1033900094E00E942B03A501940169E28BE794E07D
:1033A0000E942B0380938504882349F00E9405190D
:1033B0006C197D09613D774030F388E00FC0809142
:1033C0008604823001F520E030E0A9016AE38BE752
:1033D00094E00E942B03882341F086E080938004D0
:1033E0008BE794E00E94C80229C00E94DA02807C28
:1033F000803C19F483E0809386040E94DA020E94E4
:10340000DA020E94DA028BE794E00E94C80280E5AB
:103410008093790481E080937A040E94F6158823D2
:1034200041F085EA94E00E942B1591E0811107C0DC
:1034300005C080E00E94F6158111F3CF90E0892F3E
:10344000CF91FF90EF90DF90CF90BF90AF909F9083
:103450008F9008958AE491E09093E0048093DF04D4
:103460008FED94E00C946206789484B5826084BDFC
:1034700084B5816084BD85B5826085BD85B5816078
:1034800085BD80916E00816080936E0010928100F6
:1034900080918100826080938100809181008160B1
:1034A0008093810080918000816080938000809172
:1034B000B10084608093B1008091B00081608093FE
:1034C000B00080917A00846080937A0080917A00C5
:1034D000826080937A0080917A008E7F80937A0058
:1034E00080917A00806880937A001092C10061E038
:1034F00082E00E94301861E086E00E94301861E0AE
:1035000085E00E9430180E941119811111C060E0FD
:1035100085E00E94E31761E086E00E94E31785EAF8
:1035200094E00E94EB1086E090E00E948707FBCFBA
:1035300085E090E00E94870786E090E00E94870780
:1035400085E090E00E94870761E082E00E94E31737
:103550000E9449170E9405196093D3017093D4010A
:103560008093D5019093D601DD24D39482E0C82EB8
:10357000D1E0EE24E394F12C20E4822E22E4922E7A
:103580002FE0A22EB12C8FED94E00E945E01181660
:1035900019060CF096C28FED94E00E947601C82FB8
:1035A00080919B0590919C05A0919D05B0919E05F1
:1035B0000196A11DB11D80939B0590939C05A0933E
:1035C0009D05B0939E05C43209F45AC2E091950559
:1035D000C53234F4CA3071F0CD3009F05EC20AC091
:1035E000CA3241F0CC3209F058C2809182058C2752
:1035F00080938205EF3008F035C2F0E0EC57FA4FC7
:10360000108280918305882309F41CC120918405D0
:103610003FEB320F822F022E000C990B363010F444
:10362000C79707C02156263018F48755910901C065
:10363000C097282F2295207F309185054FEB430FAF
:10364000832F032E000C990B463010F4C79707C048
:103650003156363018F48755910901C0C097820F52
:10366000909182058913DAC08091A7059091A805F1
:10367000A091A905B091AA050196A11DB11D809345
:10368000A7059093A805A093A905B093AA058091DA
:103690009605882399F080919F059091A005A091AF
:1036A000A105B091A2050196A11DB11D80939F05B2
:1036B0009093A005A093A105B093A2051091930546
:1036C0001123B9F1113009F082C080E295E00E9427
:1036D0008F068EE295E00E948F06809196058823E2
:1036E00009F475C087E0EEE0F5E0A0E0B5E00190F8
:1036F0000D928A95E1F787E0E5E1F5E0A7E0B5E016
:1037000001900D928A95E1F70E94051960931C05BE
:1037100070931D0580931E0590931F051093FF0461
:103720001093FE048CE395E00E9478068AE495E00D
:103730004CC08EE295E00E948F068091960588230A
:1037400021F187E0EEE0F5E0A0E0B5E001900D9218
:103750008A95E1F787E0E5E1F5E0A7E0B5E00190C3
:103760000D928A95E1F70E94051960931C057093EC
:103770001D0580931E0590931F05D093FF04D093E1
:10378000FE0488E595E00E9478068091700590918E
:103790007105A0917205B091730580936C059093AB
:1037A0006D05A0936E05B0936F050E940519609397
:1037B00068057093690580936A0590936B05D093B3
:1037C0006705D093660584E795E00E94780600912E
:1037D000990510919A050115110509F443C1E0916D
:1037E0009905F0919A0566A177A1F80186A197A1A4
:1037F0000E94FC24892B09F035C1B801C80140960C
:103800000E9405250E940519F80160A371A382A3F7
:1038100093A3D5A2D4A202A513A5DDCF8091A305C1
:103820009091A405A091A505B091A6050196A11DB2
:10383000B11D8093A3059093A405A093A505B09313
:10384000A60510C190919405911145C06BE571E0FA
:1038500084E895E00E94FC24892B41F061E671E048
:1038600084E895E00E94FC24892B19F4D0939305F9
:1038700015C067E671E084E895E00E94FC24892B7E
:1038800041F06DE671E084E895E00E94FC24892B0C
:1038900019F41092930502C0C09293058091970588
:1038A0009091980590939A058093990500919905B8
:1038B00010919A050115110509F4D4C064E875E06A
:1038C000F80186A197A10E94FC2497FFC5C0F801CA
:1038D00082A593A5E7CFE0919305E23009F491C06A
:1038E00080918405882309F48CC020E2E29FF001D6
:1038F0001124E92B3197E932F10508F082C0EC5C24
:10390000FF4F0C94D82284E895E00E942E07609324
:10391000340570933505809336059093370571C053
:1039200091E0813409F043C043C06EE075E009C006
:1039300091E0833509F090E09093140562C065E151
:1039400075E084E895E00E94A6065BC091E08735AB
:1039500009F090E090931B0554C084E895E00E9424
:103960002E07609346057093470580934805909312
:10397000490547C084E895E00E942E0760935405EE
:103980007093550580935605909357053AC084E887
:1039900095E00E94941F60932605709327058093FD
:1039A0002805909329052DC091E081330CF490E017
:1039B0009093960526C084E895E00E94941F60933A
:1039C000700570937105809372059093730519C00B
:1039D00084E895E00E942E0760937E0570937F0532
:1039E00080938005909381050CC084E895E00E9447
:1039F0002E0760936205709363058093640590932E
:103A000065050091990510919A050115110551F16F
:103A1000E0919905F0919A0566A177A1F80186A138
:103A200097A10E94FC24892BE9F4F80120A531A577
:103A30008091940590E082179307A4F02817390726
:103A400039F440E150E064E875E0C8010E940C25BB
:103A5000F80102A513A5D9CF892B21F010929A0560
:103A600010929905809194058F5F80939405109230
:103A7000950581E0CA3209F080E08093830583CD0B
:103A8000109295051092940510928205C0929305AC
:103A9000109283051092960576CDEE3040F481E0C9
:103AA0008E0F80939505F0E0EC57FA4FC08380911C
:103AB0008305811168CD80918205C827C093820556
:103AC00062CD80912E05882309F452C08091FE04B6
:103AD000882309F44DC080912005882309F448C04B
:103AE00085E090E00E94870781E090E00E94CB078C
:103AF000F092D801E092D7018091D7019091D8013E
:103B0000892B99F18FED94E00E94620660E082E0DB
:103B10000E94E31710922F056091300570913105D6
:103B20008091320590913305A50194010E94B6223F
:103B3000293119F488E090E002C081E090E00E9411
:103B4000A70761E082E00E94E3170E9449171092E4
:103B5000D8011092D7010E9405196093D301709388
:103B6000D4018093D5019093D6010E94F1090BCD29
:103B70000E9405190091D3011091D4012091D50123
:103B80003091D601DC01CB01801B910BA20BB30B52
:103B900081369A4EA105B10508F4AECFF092D80156
:103BA000E092D70186E090E00E9487078FEF9FEFB9
:103BB0000E94CB07A1CF0F931F931092DF031092A7
:103BC000DE0388EE93E0A0E0B0E08093E003909302
:103BD000E103A093E203B093E3032EE031E03093DE
:103BE000DD032093DC0325EC30E03093E9032093E0
:103BF000E80324EC30E03093EB032093EA0320EC5D
:103C000030E03093ED032093EC0321EC30E030936F
:103C1000EF032093EE0322EC30E03093F103209386
:103C2000F00326EC30E03093F3032093F20310927C
:103C3000F5031092F6031092F7031092F80320E5B3
:103C40002093790461E060937A04109280041092CA
:103C50008104109284041092860402E010E020E0B7
:103C600030E00093870410938804209389043093F4
:103C70008A0410929E041092A8041092A70420E2D5
:103C800031E03093A6042093A5041092AA04109268
:103C9000FE041092FF04109201051092000510928C
:103CA000020510920305109204051092050510926A
:103CB000060510920805109207051092090510924A
:103CC0000A0510920B0510920C0510920D0510922A
:103CD0000F0510920E05109210051092110510920A
:103CE00012051092130510921405109216051092E9
:103CF00015051092170510921805109219051092CB
:103D00001A0510921B0510922005109221051092A1
:103D10002205109223051092240510922505109279
:103D20002E0510922F051092300510923105109239
:103D300032051092330510923C0510923D05109209
:103D400042051092430510924405109245051092C9
:103D50004A0510924B051092500510925105109291
:103D60005205109253051092580510925905109261
:103D70005E0510925F051092600510926105109229
:103D800066051092670510926C0510926D051092F1
:103D90006E0510926F0510927405109275051092C1
:103DA0007A0510927B0510927C0510927D05109289
:103DB00082051092830522E02093930510929405CA
:103DC00010929505109296051092980510929705FD
:103DD00010929A051092990510929B0510929C05DD
:103DE00010929D0510929E0510929F051092A005BD
:103DF0001092A1051092A2051092A3051092A4059D
:103E00001092A5051092A6051092A7051092A8057C
:103E10001092A9051092AA05109284051092E2044E
:103E20001092E1048093E3049093E404A093E504EA
:103E3000B093E6048AE491E09093E0048093DF0479
:103E40001092F6041092F5041092F8041092F70400
:103E50001092FA041092F9041092FC041092FB04E0
:103E60008091FD048E7F8D7F8093FD048695817007
:103E7000682783E00E94E31761E083E00E94301826
:103E8000E5EFF0E0E491E093EF04E1EEF0E0E4919F
:103E9000F0E0EE0FFF1FEC52FF4F8591949190934D
:103EA000F1048093F00460E084E00E943018809177
:103EB000FD0481FD04C061E084E00E94E31784E01A
:103EC0008093EB04E6EFF0E0E491E093EC04E2EEA3
:103ED000F0E0E491F0E0EE0FFF1FE653FF4F859115
:103EE00094919093EE048093ED041092C704109285
:103EF000C60488EE93E0A0E0B0E08093C8049093FD
:103F0000C904A093CA04B093CB048CE291E09093CF
:103F1000C5048093C4041092DE041092DD04109254
:103F2000D0041F910F9108951F93FC0199278827B2
:103F3000BC01E89411911032E9F3193010F01E30F1
:103F4000C8F31B3251F01D3249F4689406C00E9438
:103F5000C61F610F711D811D911D119110531A30E3
:103F6000B0F33EF490958095709561957F4F8F4F9B
:103F70009F4F1F910895BB274A3031F4992322F4B3
:103F8000BDE2909581959F4F0C94DC1F592F482FCF
:103F9000372F262F660F771F881F991F660F771FF1
:103FA000881F991F620F731F841F951F660F771F4D
:103FB000881F991F0895BB27FB015527AA27880F43
:103FC000991FAA1FA41710F0A41B83955051B9F78D
:103FD000A05DAA3308F0A95DA193009779F7B1110C
:103FE000B1931192CB010C94F51FDC01FC01672FFA
:103FF00071917723E1F7329704C07C916D937083C0
:104000006291AE17BF07C8F308950E94472008F4D5
:1040100081E00895E89409C097FB3EF4909580955F
:10402000709561957F4F8F4F9F4F9923A9F0F92F7E
:1040300096E9BB279395F695879577956795B795FC
:10404000F111F8CFFAF4BB0F11F460FF1BC06F5FE2
:104050007F4F8F4F9F4F16C0882311F096E911C0F4
:10406000772321F09EE8872F762F05C0662371F015
:1040700096E8862F70E060E02AF09A95660F771F29
:10408000881FDAF7880F9695879597F90895990F05
:104090000008550FAA0BE0E8FEEF16161706E80712
:1040A000F907C0F012161306E407F50798F0621B33
:1040B000730B840B950B39F40A2661F0232B242B08
:1040C000252B21F408950A2609F4A140A6958FEF27
:1040D000811D811D08950E947E200C94EF200E9476
:1040E000E12038F00E94E82020F0952311F00C9494
:1040F000D8200C94DE2011240C9423210E9400214E
:1041000070F3959FC1F3950F50E0551F629FF0012A
:10411000729FBB27F00DB11D639FAA27F00DB11D43
:10412000AA1F649F6627B00DA11D661F829F2227CC
:10413000B00DA11D621F739FB00DA11D621F839F53
:10414000A00D611D221F749F3327A00D611D231F29
:10415000849F600D211D822F762F6A2F11249F5777
:1041600050409AF0F1F088234AF0EE0FFF1FBB1F7A
:10417000661F771F881F91505040A9F79E3F510539
:1041800080F00C94D8200C9423215F3FE4F3983EF8
:10419000D4F3869577956795B795F795E7959F5FE3
:1041A000C1F7FE2B880F911D9695879597F9089575
:1041B00097F99F6780E870E060E008959FEF80ECDA
:1041C000089500240A94161617061806090608957D
:1041D00000240A9412161306140605060895092EE3
:1041E0000394000C11F4882352F0BB0F40F4BF2B52
:1041F00011F460FF04C06F5F7F4F8F4F9F4F089592
:1042000057FD9058440F551F59F05F3F71F0479587
:10421000880F97FB991F61F09F3F79F0879508956C
:10422000121613061406551FF2CF4695F1DF08C08B
:10423000161617061806991FF1CF869571056105A8
:1042400008940895E894BB2766277727CB0197F950
:1042500008950E946B21A59F900DB49F900DA49F7F
:10426000800D911D112408952F923F924F925F92DD
:104270006F927F928F929F92AF92BF92CF92DF9276
:10428000EF92FF920F931F93CF93DF93CDB7DEB7DB
:10429000CA1BDB0B0FB6F894DEBF0FBECDBF09946F
:1042A0002A88398848885F846E847D848C849B84C6
:1042B000AA84B984C884DF80EE80FD800C811B81D4
:1042C000AA81B981CE0FD11D0FB6F894DEBF0FBE03
:1042D000CDBFED010895A29FB001B39FC001A39F80
:1042E000700D811D1124911DB29F700D811D11242F
:1042F000911D08955058BB27AA270E9492210C9423
:10430000EF200E94E12038F00E94E82020F039F4EC
:104310009F3F19F426F40C94DE200EF4E095E7FBA1
:104320000C94D820E92F0E94002158F3BA17620795
:1043300073078407950720F079F4A6F50C942221E1
:104340000EF4E0950B2EBA2FA02D0B01B9019001B0
:104350000C01CA01A0011124FF27591B99F0593FF4
:1043600050F4503E68F11A16F040A22F232F342F3C
:104370004427585FF3CF469537952795A795F0408A
:104380005395C9F77EF41F16BA0B620B730B840B9F
:10439000BAF09150A1F0FF0FBB1F661F771F881F57
:1043A000C2F70EC0BA0F621F731F841F48F48795AF
:1043B00077956795B795F7959E3F08F0B0CF9395A1
:1043C000880F08F09927EE0F9795879508950E941A
:1043D000FB210C94EF200E94E82058F00E94E1207D
:1043E00040F029F45F3F29F00C94D82051110C942F
:1043F00023210C94DE200E94002168F39923B1F35D
:10440000552391F3951B550BBB27AA2762177307FA
:10441000840738F09F5F5F4F220F331F441FAA1F8E
:10442000A9F335D00E2E3AF0E0E832D0915050404A
:10443000E695001CCAF72BD0FE2F29D0660F771FF8
:10444000881FBB1F261737074807AB07B0E809F0DE
:10445000BB0B802DBF01FF2793585F4F3AF09E3F63
:10446000510578F00C94D8200C9423215F3FE4F39D
:10447000983ED4F3869577956795B795F7959F5FA6
:10448000C9F7880F911D9695879597F90895E1E0F2
:10449000660F771F881FBB1F621773078407BA0751
:1044A00020F0621B730B840BBA0BEE1F88F7E095AC
:1044B00008950E94082188F09F5798F0B92F9927F6
:1044C000B751B0F0E1F0660F771F881F991F1AF0FF
:1044D000BA95C9F714C0B13091F00E942221B1E021
:1044E00008950C942221672F782F8827B85F39F020
:1044F000B93FCCF3869577956795B395D9F73EF498
:1045000090958095709561957F4F8F4F9F4F08953F
:104510000E94472008F48FEF08950E944720880BDF
:10452000990B0895DB018F939F930E942921BF91DE
:10453000AF91A29F800D911DA39F900DB29F900DF2
:104540001124089597FB072E16F4009407D077FDE9
:1045500009D00E94E62207FC05D03EF49095819593
:104560009F4F0895709561957F4F0895A1E21A2E8F
:10457000AA1BBB1BFD010DC0AA1FBB1FEE1FFF1F07
:10458000A217B307E407F50720F0A21BB30BE40B57
:10459000F50B661F771F881F991F1A9469F760959E
:1045A0007095809590959B01AC01BD01CF01089558
:1045B000EE0FFF1F0590F491E02D0994B7FF0C94C6
:1045C00029210E942921821B930B0895AA1BBB1B42
:1045D00051E107C0AA1FBB1FA617B70710F0A61B03
:1045E000B70B881F991F5A95A9F780959095BC0124
:1045F000CD0108950F931F93CF93DF9382309105E0
:1046000010F482E090E0E091BA05F091BB0520E063
:1046100030E0A0E0B0E0309719F140815181028193
:10462000138148175907C8F08417950769F4109744
:1046300031F012960C93129713961C9327C0009397
:10464000BA051093BB0522C02115310519F0421798
:10465000530718F49A01BD01EF01DF01F801DBCF28
:1046600021153105F9F0281B390B2430310580F470
:104670008A819B816115710521F0FB0193838283FF
:1046800004C09093BB058093BA05FE01329644C0E6
:10469000FE01E20FF31F8193919322503109398378
:1046A00028833AC02091B8053091B905232B41F4F5
:1046B00020910601309107013093B9052093B80588
:1046C00020910401309105012115310541F42DB7E8
:1046D0003EB74091080150910901241B350BE09130
:1046E000B805F091B905E217F307A0F42E1B3F0BB4
:1046F0002817390778F0AC014E5F5F4F2417350754
:1047000048F04E0F5F1F5093B9054093B805819351
:10471000919302C0E0E0F0E0CF01DF91CF911F91D3
:104720000F910895CF93DF93009709F481C0FC01A6
:10473000329713821282A091BA05B091BB051097EF
:1047400081F420813181820F931F2091B80530912F
:10475000B9052817390751F5F093B905E093B80565
:1047600067C0ED0120E030E0CE17DF0740F44A815A
:104770005B819E0141155105F1F0EA01F5CFD3832C
:10478000C28340815181840F951FC817D90759F4FE
:1047900088819981840F951F0296918380838A81F5
:1047A0009B81938382832115310529F4F093BB0506
:1047B000E093BA053DC0E901FB83EA834991599131
:1047C000C40FD51FEC17FD0761F480819181840F20
:1047D000951F0296E90199838883828193819B8347
:1047E0008A83E0E0F0E012968D919C9113970097F8
:1047F00019F0FD01DC01F7CF8D919C9111979D017E
:104800002E5F3F4F820F931F2091B8053091B9055D
:104810002817390769F4309729F41092BB051092D4
:10482000BA0502C013821282B093B905A093B805ED
:10483000DF91CF910895A0E0B0E0E1E2F4E20C94C2
:104840003821EC01009721F4CB010E94FA22B4C078
:10485000FC01E60FF71F9C0122503109E217F30714
:1048600008F4A8C0D9010D911C91119706171707DC
:10487000B0F00530110508F49BC0C80104978617F5
:10488000970708F495C002501109061B170B0193F6
:1048900011936D937C93CF010E94922389C05B0199
:1048A000A01AB10A4C01800E911EA091BA05B091D8
:1048B000BB05612C712CE12CF12C109709F446C03A
:1048C0008D919C911197A815B905B1F56C0142E045
:1048D000C40ED11CCA14DB0478F14C018A189B0861
:1048E000640142E0C40ED11C1296BC90129713963C
:1048F000AC91B5E0CB16D10440F0B282A383918293
:104900008082D9016D937C9309C00E5F1F4F800F89
:10491000911FF90191838083EB2DFA2FE114F104AB
:1049200031F0D7011396FC93EE93129741C0F093A8
:10493000BB05E093BA053CC06816790608F43C0153
:104940007D0112960D90BC91A02DB7CF8091B80536
:104950009091B90588169906E1F466167706C8F4B1
:104960008091040190910501009741F48DB79EB7A5
:104970004091080150910901841B950BE817F90734
:10498000C8F4F093B905E093B805F9017183608329
:104990000FC0CB010E94FA227C01009759F0A801B8
:1049A000BE010E94F324CE010E949223C70104C0DD
:1049B000CE0102C080E090E0CDB7DEB7EEE00C940F
:1049C000542181E090E0F8940C941B25FB01DC015C
:1049D00004C08D910190801921F441505040C8F7D6
:1049E000881B990B0895FB01DC0102C001900D9218
:1049F00041505040D8F70895FB01DC018D910190A2
:104A000080190110D9F3990B0895FB01DC01019085
:104A10000D920020E1F70895FB01DC014150504068
:104A200048F001900D920020C9F701C01D9241503D
:104A30005040E0F7089510E0C3E9D0E004C0FE0163
:104A40000E94D8222196C439D107C9F7F894FFCF24
:104A5000FFFFFFFF0000BC058000000000005E11AA
:104A6000F7102111AB11E5093011441100000000CD
:104A7000240EF7109801970100000000DF00A30149
:104A800098019B01BE00B405BE0500000000521154
:104A9000F71098019701000000000E01F71098012F
:104AA0000D015E017601F5000D0A004750524D439D
:104AB00000474E524D4300475047474100474E473D
:104AC0004741006E616E00696E66006F7666002C6D
:0C4AD000006770736C6F672E63737600D4
:00000001FF
