:100000000C949D000C94C5000C94C5000C94B20295
:100010000C948D020C9468020C94C5000C94C500DD
:100020000C94C5000C94C5000C94C5000C94C5003C
:100030000C94C5000C94C5000C94C5000C94C5002C
:100040000C943A180C94C5000C94E3180C94BD1849
:100050000C94C5000C94C5000C94C5000C94C5000C
:100060000C94C5000C94C5003F0A420AC209E50978
:10007000580AF909010AED0A1E0A3F0AF909420A5B
:10008000C209E509580A830A960AAB0A971EA71EF9
:10009000AE1EB41EBB1EC11EC81ECB1ED61E7C3C8F
:1000A0003E5E2B3D3F2F5B5D3B2C2A225C005A4479
:1000B000410056544700524D4300475356004753A2
:1000C000540047534100474C4C0047474100CA0089
:1000D000C600C200BE00BA00B600B200AE0000000A
:1000E00000080002010000030407000000000000F7
:1000F000000000000000250028002B000000000088
:1001000023002600290000000000240027002A0008
:10011000010204081020408001020408102001029E
:10012000040810200404040404040404020202026B
:100130000202030303030303C02211241FBECFEFF7
:10014000D8E0DEBFCDBF25E0AEEAB1E001C01D9230
:10015000A33AB207E1F711E0A0E0B1E0ECE3F1E58A
:1001600002C005900D92AE3AB107D9F710E0CDE983
:10017000D0E004C02197FE010E945F26CC39D10750
:10018000C9F70E94E51E0C949C280C940000FC0109
:10019000918D228D892F90E0805C9F4F821B910969
:1001A0008F739927089580E090E0892B29F00E94B1
:1001B000901781110C940000089520910C048091F7
:1001C0000B04821769F030E0F901ED54FE4F808195
:1001D0002F5F3F4F2F73332720930C0490E0089537
:1001E0008FEF9FEF08959C0180910B0490E0409168
:1001F0000C04841B9109805C9F4F60E470E00E94B6
:100200004B26811105C0C901F8940E9415197894F4
:1002100090E008958091AE018823A9F140910001FA
:1002200050910101609102017091030123EF31E0CF
:100230008091F3039091F4030E949A12811102C0FD
:1002400080E008954091AF015091B0016091B101FB
:100250007091B201411551056105710591F023EFCF
:1002600031E08091F3039091F4030E949A12882365
:1002700039F31092AF011092B0011092B1011092B7
:10028000B2011092AE0181E00895FC01848DDF017E
:10029000A80FB11DA35ABF4F2C91848D90E00196F9
:1002A0008F739927848FA689B7892C93A089B189E8
:1002B0008C91837080648C93938D848D981306C089
:1002C0000288F389E02D80818F7D80830895E091FD
:1002D0001204F09113043097C1F00288F389E02DE5
:1002E000309709F0099420910B0430E0A9014F5F89
:1002F0005F4F4F73552790910C04941731F0F9011B
:10030000ED54FE4F808340930B040895EF92FF92CB
:100310000F931F93CF93DF93F090B200E0901104FE
:10032000E82250910D045F3F51F4E11056C0109245
:100330000D0481E0809305041092060448C080916A
:100340000904C0910804CF0D90910704C91BC89FF0
:10035000E0011124CD2FDD27C695C69549E0451B48
:10036000042F10E00C171D0708F04C2F540F50936A
:100370000D048091060490910504292FE1100FC00F
:100380004150922F990F4F3F19F0822B292FF8CF10
:1003900080930604909305045830C8F01BC0415068
:1003A00001C0220F4A95EAF720930504822B80931F
:1003B0000604583060F00E94670181E0E81621F0E1
:1003C0000C171D0708F4B3CF8FEF80930D04F09244
:1003D000070403C00E946701F3CFDF91CF911F9103
:1003E0000F91FF90EF900895CF92DF92EF92FF92DE
:1003F0000F931F93CF93DF938C01E62E80910E0411
:1004000090910F04892B09F455C0D8011C969C913A
:10041000983050F081E09E3008F480E0C1E001C0E7
:10042000CC0F8A95EAF701C0C4E0CFB6F894D0911A
:10043000B2008AE0D82E90E0DA94E0910E04F091B8
:100440000F0480911004DD2041F1992319F090816F
:10045000892B03C09081809589238083F0900A04C2
:100460008091B2008D1B8F1598F48BB38C2361F0B3
:100470008BB38C2B8BBBD8011E96ED91FC911F97F3
:1004800080810E948601ECCFC8010E941519E8CF37
:10049000DF0D9E2D9170E694CFCF9081892B8083C4
:1004A000CFBE8091B2008D1B8F1538F4C8010E9419
:1004B0001519F7CF80E090E002C081E090E0DF9175
:1004C000CF911F910F91FF90EF90DF90CF90089503
:1004D0001F920F920FB60F9211242F933F934F93B9
:1004E0005F936F937F938F939F93AF93BF93EF939C
:1004F000FF9389B10E948601FF91EF91BF91AF9167
:100500009F918F917F916F915F914F913F912F912B
:100510000F900FBE0F901F9018951F920F920FB65D
:100520000F9211242F933F934F935F936F937F9379
:100530008F939F93AF93BF93EF93FF9386B10E94E6
:100540008601FF91EF91BF91AF919F918F917F9124
:100550006F915F914F913F912F910F900FBE0F9030
:100560001F9018951F920F920FB60F9211242F9380
:100570003F934F935F936F937F938F939F93AF932B
:10058000BF93EF93FF9383B10E948601FF91EF9198
:10059000BF91AF919F918F917F916F915F914F919B
:1005A0003F912F910F900FBE0F901F9018958F9233
:1005B0009F92AF92BF92EF92FF920F931F93CF93B0
:1005C0004B015C01C42F8091000190910101A09129
:1005D0000201B091030188159905AA05BB0501F137
:1005E0000E940A01811102C080E020C083EFE82E42
:1005F00081E0F82E00E012E020E030E0B501A40137
:100600008091F3039091F4030E940612882361F312
:100610008092000190920101A0920201B092030128
:100620008091AE01C82BC093AE0181E0CF911F91A4
:100630000F91FF90EF90BF90AF909F908F90089593
:100640004F925F926F927F928F929F92AF92BF92E2
:10065000CF92DF92EF92FF920F931F93CF93DF938E
:10066000EC01423051056105710510F480E078C05D
:1006700089859A85AB85BC850196A11DB11D84171E
:100680009507A607B70790F3CB88DC88ED88FE882E
:100690008F89803129F4BB27A72F962F852F09C07A
:1006A000DB01CA01E7E0B695A79597958795EA958E
:1006B000D1F7480159012A013B01C80ED91EEA1E93
:1006C000FB1E8091000190910101A0910201B09167
:1006D0000301C816D906EA06FB0681F48F8980312A
:1006E000A9F4B301A201552766277727440F551FA8
:1006F000FA01ED50FE4F9182808219C040E0C7019F
:10070000B6010E94D7028111E9CFB0CFB301A20197
:100710004F77552766277727440F551F440F551FDE
:10072000FA01ED50FE4F80829182A282B3828091C5
:10073000AE0181608093AE018A89823080F08D8124
:100740009E81AF81B885C80ED91EEA1EFB1EC092DD
:10075000AF01D092B001E092B101F092B20181E01C
:10076000DF91CF911F910F91FF90EF90DF90CF908D
:10077000BF90AF909F908F907F906F905F904F90C1
:1007800008958F929F92AF92BF92CF92DF92EF9295
:10079000FF920F931F93CF93DF93FC018185928586
:1007A000A385B4850196A11DB11D84179507A607E1
:1007B000B70710F480E05BC083889488A588B6886A
:1007C0008789803129F4BB27A72F962F852F09C051
:1007D000DB01CA01C7E0B695A79597958795CA959D
:1007E000D1F7E9016A017B018F01BC01CD01680DE0
:1007F000791D8A1D9B1D8090000190900101A090A1
:100800000201B0900301681579058A059B0591F4F2
:10081000F80187898031A1F4DD24EE24FF24C6018C
:10082000880F991FFC01ED50FE4F80819181A0E05F
:10083000B0E018C040E00E94D7028111E9CFBACFE2
:10084000E894C7F8DD24EE24FF24C601880F991F21
:10085000880F991FFC01ED50FE4F80819181A2818C
:10086000B381BF7088839983AA83BB8381E0DF91C2
:10087000CF911F910F91FF90EF90DF90CF90BF909D
:10088000AF909F908F900895CF93DF93EC018D816F
:10089000882379F18C8187FF28C06E857F858889C0
:1008A000998941E00E94D702882319F1EA8980E200
:1008B000E89FF0011124ED50FE4F3097D1F08D816B
:1008C000823040F48B899C89AD89BE89848F958F55
:1008D000A68FB78F8F89988DA98DBA8D938F828FB0
:1008E000B58BA48B8C818F778C83DF91CF910C9407
:1008F0000A0180E0DF91CF9108958F929F92AF928D
:10090000BF92CF92DF92EF92FF920F931F93CF93FC
:10091000DF93EC018D81811102C080E078C00B89EA
:100920001C892D893E890417150726073707A8F368
:100930006A017B01823029F4CA86DB86EC86FD865B
:100940000DC0C114D104E104F10451F41E821F82D0
:10095000188619861A861B861C861D8681E057C05C
:100960008A849B84AC84BD84EB8DFC8D258530E02E
:10097000275F3F4FB501A401415051096109710939
:10098000022E04C076956795579547950A94D2F73D
:10099000D701C6010197A109B10904C0B695A79571
:1009A000979587952A95D2F784179507A607B707D5
:1009B00020F089288A288B2871F44F89588D698DF9
:1009C0007A8D4E835F83688779874C015D018E0144
:1009D0000A5F1F4F16C0841B950BA60BB70BF5CFF4
:1009E0004E815F816885798598018B8D9C8D0E94F1
:1009F000C10391E0891A9108A108B108882309F47C
:100A00008CCF81149104A104B10451F795CFDF91EB
:100A1000CF911F910F91FF90EF90DF90CF90BF90FB
:100A2000AF909F908F9008952F923F924F925F9238
:100A30006F927F928F929F92AF92BF92CF92DF92EE
:100A4000EF92FF920F931F93CF93DF9300D000D0CC
:100A5000CDB7DEB78C015B011A01DC0115968C91D4
:100A600015978130C9F414968C9181FF15C082FFCF
:100A70001DC0F801438954896589768982859385EB
:100A8000A485B58584179507A607B70779F0C8012F
:100A90000E947D0481110AC081E090E0D801139684
:100AA0009C938E93129780E090E036C1610183C0E1
:100AB0005B968D919C915C97FC0174802FEF270DC4
:100AC0002A013B0139E076946794579447943A950C
:100AD000D1F7722E74207A01F1E0FF22772009F419
:100AE00076C080E092E08E199F0946018C159D0525
:100AF00008F44C01D8015B962D913C915C971696B9
:100B00008D919D910D90BC91A02D0297A109B109E5
:100B1000F901058404C0880F991FAA1FBB1F0A94FE
:100B2000D2F74685578560897189840F951FA61F66
:100B3000B71F9C01AD01270D311D411D511D29011C
:100B40003A01811432E0930609F088C080910001D7
:100B500090910101A0910201B0910301481659063C
:100B60006A067B0659F48FEF9FEFDC01809300014A
:100B700090930101A0930201B09303019501B30189
:100B8000A2018091F3039091F4030E949A128823AA
:100B900009F482CF9EEFB91AC818D908F8018285E6
:100BA0009385A485B585880D991DA11DB11D8287EA
:100BB0009387A487B587D8011A964D915D916D9161
:100BC0007C911D97C114D10409F072CF87C0E11444
:100BD000F10409F086CF16964D915D916D917C914F
:100BE0001997411551056105710559F457968D9175
:100BF0009D910D90BC91A02D0097A105B10541F5E7
:100C000021C09E012F5F3F4F0E94C103882309F43A
:100C10004BCF89819A81AB81BC81F801238D348DC2
:100C2000F9012789203129F048EF5FEF6FEF7FE06E
:100C300004C048EF5FEF60E070E084179507A607F7
:100C4000B70730F0C8010E944B1081114ACF24CF62
:100C5000F80186839783A087B18743CFE114F1041D
:100C600029F5D8011A964D915D916D917C911D9752
:100C700053968D919D910D90BC91A02D48175907C9
:100C80006A077B0798F00E940A01882309F404CFC1
:100C900040920001509201016092020170920301A2
:100CA0008091AE0181608093AE0108C041E0C30134
:100CB000B2010E94D702882309F4EECED501F701D4
:100CC000ED50FE4F9F01280D391D2E173F0719F0DB
:100CD0008D918193FACFA80CB91C5ECFF80183895E
:100CE0009489A589B68984179507A607B70738F4AC
:100CF000438B548B658B768B848180688483F80169
:100D0000848183FD02C0C10107C0C8010E94440460
:100D1000882309F4C1CEF7CF0F900F900F900F905A
:100D2000DF91CF911F910F91FF90EF90DF90CF90C7
:100D3000BF90AF909F908F907F906F905F904F90FB
:100D40003F902F900895CF93DF931F92CDB7DEB7DA
:100D5000698341E050E0BE016F5F7F4F0E94140540
:100D60000F90DF91CF9108958F929F92AF92BF9293
:100D7000CF92DF92EF92FF920F931F93CF93DF9367
:100D800000D000D0CDB7DEB77C0180E2689FF001D3
:100D90001124ED50FE4F9385917121F0842F8274C0
:100DA00009F08FC0142FD70152966C93529740913F
:100DB00000015091010160910201709103011E96A2
:100DC0004D935D936D937C9351974489558960E071
:100DD00070E0BA0155274427828D938DA0E0B0E0E2
:100DE000482B592B6A2B7B2BD70157964D935D933C
:100DF0006D937C935A978385887159F4848D958D72
:100E0000A68DB78DF701838B948BA58BB68B81E074
:100E100012C0803109F055C097012D5E3F4FD701B8
:100E20005B968D919C915C970E94FF0C882309F43E
:100E300048C084E0F7018583812F8F70D701149615
:100E40008C931497F70116821782108611861A96D2
:100E50001D921D921D921C921D9716FF34C015966F
:100E60008C91813071F511FF2CC0F70143895489B1
:100E700065897689452B462B472B09F461C040E0F4
:100E800050E0BA01C7010E947D048823D1F0F70128
:100E90008788908CA18CB28CC38CD48C82E090E03B
:100EA000A0E0B0E0F60180839183A283B3839E012A
:100EB0002F5F3F4FB501A401C6010E94C1038111FC
:100EC00004C080E03DC081E03BC000E010E098013C
:100ED000B501A401C6010E942003882391F38980F3
:100EE0009A80AB80BC80D60157968C91803129F0D6
:100EF00088EF9FEFAFEFBFE004C088EF9FEFA0E067
:100F0000B0E088169906AA06BB0688F2D701579664
:100F10001D921D921D921C925A97F701138A148AF2
:100F2000158A168A848180688483C7010E944404DC
:100F3000882339F240E050E0BA01C7010E947D04E5
:100F40000F900F900F900F90DF91CF911F910F9105
:100F5000FF90EF90DF90CF90BF90AF909F908F90D9
:100F600008952F923F924F925F926F927F928F924D
:100F70009F92AF92BF92CF92DF92EF92FF920F9328
:100F80001F93CF93DF93CDB7DEB72B970FB6F894AF
:100F9000DEBF0FBECDBF7C01FE013196CE010C96A7
:100FA0006F0130E23193E817F907E1F7DA0130E039
:100FB00087E09D91992331F19E3231F48A3009F412
:100FC0006BC138E08AE0F5CFEEE9F0E044914423CC
:100FD00021F031969413FACF5FC1831708F45CC1F6
:100FE0004FED490F4E3508F057C141E0430FF60170
:100FF000E30FF11D3FE9390F3A3108F49052908325
:10100000342FD7CF8981803209F446C1322E8B012B
:10101000DB015B968D919C915C97F701948F838F98
:1010200016961D921D921D921C921997FB01128615
:10103000138614861586B12CF80182859385A485C4
:10104000B585438954896589768984179507A607EC
:10105000B70708F05BC025E0B695A79597958795EB
:101060002A95D1F7F82FFF70AF2ED80115968C91E5
:10107000823008F411C1C8010E94571397FD0CC1BA
:10108000F80182859385A485B5854F96A11DB11D74
:1010900082879387A487B587F0E2AF9EB0011124C1
:1010A0006D507E4F6115710509F4F6C0DB018C911E
:1010B000882319F0853EC1F4F1C0B1100EC0F701CC
:1010C000A28A8091000190910101A0910201B0914A
:1010D000030186879787A08BB18BDB018C918823D6
:1010E00099F0BB24B394A8CF4BE050E0C6010E9416
:1010F0006528892B09F0A0CF832D8073803309F4F4
:10110000CBC0432D6A2DC4C0BB24B394832D827100
:10111000823109F0C1C0BB20C1F0F7016685778537
:101120008089918941E00E94D702882309F4B4C0E4
:10113000D70152968C91B0E28B9FC00111248D5043
:101140009E4F009709F078C0A7C0F80185818230D2
:1011500009F4A2C0C8010E944B10882309F49CC066
:10116000D8015B96ED91FC915C9716968D909D90C1
:10117000AD90BC901997B2E08B1A9108A108B10804
:10118000058404C0880C991CAA1CBB1C0A94D2F7C5
:1011900086859785A089B189880E991EAA1EBB1ED7
:1011A0002480E1E08E1A9108A108B108222009F1FB
:1011B00024013501420C511C611C711C0E940A0162
:1011C000882309F469C0E3EFF1E0119223E0E33FE3
:1011D000F207D9F74092000150920101609202019A
:1011E000709203018091AE0181608093AE012A94D8
:1011F000DDCFD8015B96ED91FC915C9780E092E0A9
:10120000A0E0B0E0058404C0880F991FAA1FBB1F8F
:101210000A94D2F7F8014389548965897689840F45
:10122000951FA61FB71F838B948BA58BB68BD701F9
:1012300052961C9283EF91E020E2FC0111922A95D4
:10124000E9F72BE0F601DC0101900D922A95E1F718
:1012500021E238E2DC0151963C932E93509740E016
:1012600058E01F965C934E931E9753963C932E9393
:10127000529759963C932E93589757965C934E935A
:1012800056970E940A01882339F0432DF70162899D
:10129000C7010E94B40605C080E003C0B11021CF91
:1012A0000ECF2B960FB6F894DEBF0FBECDBFDF91E9
:1012B000CF911F910F91FF90EF90DF90CF90BF9053
:1012C000AF909F908F907F906F905F904F903F90E6
:1012D0002F900895CF93DF93EC010E94440488235C
:1012E00011F01D8281E0DF91CF910895EF92FF927E
:1012F0000F931F93CF93DF93EC017B018A011B8235
:101300001A8288EE93E0A0E0B0E08C839D83AE83E8
:10131000BF8386E391E0998388838DE190E00E940A
:1013200079269A8F898F009779F02DE1F701DC01FA
:1013300001900D922A95E1F74CE050E0B801CE0102
:101340000C960E948D28188EDF91CF911F910F91DE
:10135000FF90EF900895682F80914B05813021F028
:10136000863009F47EC039C1E09178058E2F90E077
:10137000FC013197E930F10508F02FC1EC5CFF4F1B
:101380000C945F2680917B0582FF27C180917905AF
:10139000811123C1633509F020C1809158059091D6
:1013A0005905A0915A05B0915B05B095A09590950F
:1013B00081959F4FAF4FBF4F80935805909359052C
:1013C000A0935A05B0935B0508C16C3249F4809133
:1013D0007905811105C080917B058B7F80937B050A
:1013E00080917B0582FFF9C08CE595E00E944A1D43
:1013F000F4C0809179058111F0C0862F0E945B1E98
:10140000ECC080917B058E7F80937B058091790570
:10141000811105C06C3209F4E0C060530CC06C321D
:1014200009F4D6C080916C05880F982F990F990FF9
:10143000890F8053680F60936C05CAC042E080E654
:1014400095E00E94BC1C882309F4C7C021E090915C
:101450007905911101C020E09091760520FB94F967
:1014600077C0E09178058E2F90E0FC013197E9304C
:10147000F10508F0B2C0E35CFF4F0C945F26862FA5
:101480000C948A1E80917905882339F080917B0520
:1014900082FFA3C088E595E0A9CF91E06C3209F402
:1014A00090E080917B0590FB82F980937B05EECFE5
:1014B00090917B0592FB882780F992FF8EC09091D6
:1014C000790591118AC09091760598609093760580
:1014D000673509F082C040915C0550915D056091CF
:1014E0005E0570915F0570956095509541955F4FD1
:1014F0006F4F7F4F40935C0550935D0560935E0591
:1015000070935F05089543E084E695E00E94BC1C5B
:10151000882309F462C021E090917905911101C0FE
:1015200020E09091760520FB95F912C042E088E614
:1015300095E00E94BC1C882309F44FC021E09091E3
:101540007905911101C020E09091760520FB96F974
:1015500090937605089580917905823019F140F4D1
:101560008823A9F08130C9F580917105805316C098
:10157000843029F1E8F0853081F58091730580533E
:10158000680F6093730580917605826024C06C3289
:1015900021F1660F6056862F880F880F680F6093C1
:1015A00071051BC0660F6056862F880F880F03C019
:1015B000809172058053680F609372050EC0660FAC
:1015C0006056862F880F880F680F6093730505C0DB
:1015D0008091760580688093760581E00895CF93A9
:1015E000DF93FC0182819381909300058093FF0437
:1015F00084819581A681B78180930105909302052E
:10160000A0930305B093040580859185A285B385D9
:101610008093050590930605A0930705B0930805F0
:10162000EF012C96A9E0B5E089918D9385E0A63174
:10163000B807D1F7818D928D909317058093160589
:101640008DEF94E0DF91CF910895009769F0FC0150
:1016500001900020E9F73197AF01481B590BBC01FD
:101660008DEF94E00C942F1080E090E008952F927D
:101670003F924F925F926F927F928F929F92AF9222
:10168000BF92CF92DF92EF92FF920F931F93CF936F
:10169000DF93CDB7DEB7A4970FB6F894DEBF0FBEC9
:1016A000CDBF4B015C01F42E9B01AC010E9446268C
:1016B000882319F084E791E027C024013501E894DC
:1016C00077F82FEF3FEF4FE75FE7C301B2010E94CA
:1016D000462681110DC02FEF3FEF4FE75FE7C301B3
:1016E000B2010E948C2318161CF488E791E00CC00C
:1016F0002FEF3FEF4FE75FE4C501B4010E944126A1
:1017000018162CF48CE791E00E94250BB8C02FEF3F
:101710003FEF4FE75FECC501B4010E948C2387FDCA
:10172000F1CF20E030E0A901C501B4010E948C2373
:1017300087FF0BC06DE28DEF94E00E940D103C011D
:10174000B7FAB094B7F8B09402C0612C712C10E0D5
:1017500060E070E080E09FE3F11641F020E030E0CF
:1017600040E251E40E94A0251F5FF6CFA50194013D
:101770000E9434254B015C010E9412266AA3C72EE9
:10178000D82EE92E19A2262F372F482F592F8E0138
:101790000F5D1F4F0BA31CA39AE0292E312C412C67
:1017A000512CCA01B901A20191010E94C024605DBF
:1017B000F80162938F01211531054105510589F723
:1017C000CF010E94250B8301080F191FFF2009F488
:1017D00055C06AA17C2D8D2D9E2D0E9491239B01C9
:1017E000AC01C501B4010E9433254B015C016EE2DE
:1017F0008DEF94E00E940D10080F191F8AE0282E2B
:10180000312C412C512C20E030E040E251E4C50164
:10181000B4010E94F2234B015C010E9412269B013D
:1018200040E050E019A2CBA0DCA0762E3AA3642EB3
:10183000E52ECA01B901A20191010E94C024605D98
:10184000F60162936F01211531054105510589F7B4
:10185000CF010E94250B080F191F672D7AA1862D35
:101860009E2D0E9491239B01AC01C501B4010E94F1
:1018700033254B015C01FA94F110C5CFC801A49641
:101880000FB6F894DEBF0FBECDBFDF91CF911F9191
:101890000F91FF90EF90DF90CF90BF90AF909F900F
:1018A0008F907F906F905F904F903F902F90089512
:1018B00080E891E00C94250BFC01808191810C94CF
:1018C0001127FC0144815581608171818DEF94E085
:1018D0000C942F10CF92DF92EF92FF920F931F93F1
:1018E000CF93DF93CDB7DEB762970FB6F894DEBF24
:1018F0000FBECDBF8C01CB01F80111821082138283
:101900001282158214824AE09E012F5F3F4F6901C7
:10191000B9010E945723F60101900020E9F73197A1
:101920007F01EC18FD08B701C8010E9484188111DD
:1019300004C0C8010E94AB1808C0F801F582E48217
:10194000B601808191810E94862862960FB6F89434
:10195000DEBF0FBECDBFDF91CF911F910F91FF90E2
:10196000EF90DF90CF900895CF92DF92EF92FF92A9
:101970000F931F93CF93DF93CDB7DEB729970FB6A1
:10198000F894DEBF0FBECDBF8C01862FF801118207
:10199000108213821282158214824AE09E012F5F08
:1019A0003F4F6901B90190E00E946223F601019066
:1019B0000020E9F731977F01EC18FD08B701C80155
:1019C0000E948418811104C0C8010E94AB1808C08D
:1019D000F801F582E482B601808191810E94862817
:1019E00029960FB6F894DEBF0FBECDBFDF91CF9121
:1019F0001F910F91FF90EF90DF90CF9008954F923D
:101A00005F926F927F92AF92BF92CF92DF92EF92EE
:101A1000FF920F931F93CF93DF9300D000D0CDB7E9
:101A2000DEB78C0149835A836B837C835901C12CB7
:101A3000D12C7601412C82E0582E612C712C4981E9
:101A40005A816B817C819E012F5F3F4FC8010E94AC
:101A5000C103882351F1D301C201F801058404C0F8
:101A6000880F991FAA1FBB1F0A94D2F7C80ED91E50
:101A7000EA1EFB1E49815A816B817C8187898031F6
:101A800029F088EF9FEFAFEFBFE004C088EF9FEF32
:101A9000A0E0B0E0481759076A077B0780F2F5011C
:101AA000C082D182E282F38281E00F900F900F908A
:101AB0000F90DF91CF911F910F91FF90EF90DF90EA
:101AC000CF90BF90AF907F906F905F904F900895B0
:101AD000CF93DF93FC012581222311F080E049C0E0
:101AE000EC018091D7048031C1F482E08583178AAC
:101AF000108E118E128E8091D8049091D904A0E09E
:101B0000B0E025E0880F991FAA1FBB1F2A95D1F7C7
:101B1000838B948BA58BB68B19C08032F9F683E04A
:101B200085834091DA045091DB046091DC0470916C
:101B3000DD04478B508F618F728F9F012D5E3F4F69
:101B400080EC94E00E94FF0C882341F280EC94E04A
:101B50009C8F8B8F81E08C831E821F821886198652
:101B60001A861B861C861D861E861F86188A198A61
:101B70001A8ADF91CF9108952F923F924F925F92F0
:101B80006F927F928F929F92AF92BF92CF92DF928D
:101B9000EF92FF920F931F93CF93DF93CDB7DEB7F2
:101BA000C756D1090FB6F894DEBF0FBECDBF6C018A
:101BB0005B01A6964FAFA69719A218A28AE291E000
:101BC0009F8F8E8F1BA21C821B829A8389831E8209
:101BD0004E018EE1880E911CC4010E94680D7501B2
:101BE0008E010F5F1F4F240118016FE270E0C701E3
:101BF0000E947B28009709F442C0F70120812F3210
:101C000021F4FFEFEF1AFF0AF0CF8E198D3008F0A4
:101C10008CE0682E712CA301B701CE01885A9F4F2A
:101C20000E948D28E8E5F0E0EC0FFD1FE60DF71DA2
:101C30001082C8010E946A09F8018581882351F049
:101C40001EAE1DAE8AE291E09CAF8BAF21961FAE17
:101C5000219721C021E0AE01485A5F4FB201C8016F
:101C60000E94B107882361F3E60CF71CC2010E94B1
:101C70006A09942D852D2801092F182FB6CFC70189
:101C80008A199B09A8969FAF8EAFA897B201CE0183
:101C9000CB960E940613A896EEADFFADA897AE0EA8
:101CA000BF1EF5018081811109C0BE01655C7F4FB7
:101CB000C1010E94061342E851E041C019A218A2D6
:101CC0008AE291E09F8F8E8F1BA221968FAD219784
:101CD000811113C0F6011382128288EE93E0A0E016
:101CE000B0E084839583A683B78386E391E09183F4
:101CF0008083128E118E148626C0A6962FADA697CD
:101D0000A501BE01655C7F4FC4010E94B107882315
:101D100009F3CE01CB960E946A09A6968FADA697CD
:101D20008670863039F449A95AA96BA97CA9C401E7
:101D30000E947D04B401C1010E940613A501B101F6
:101D4000C6010E947609C601C959DF4F0FB6F89443
:101D5000DEBF0FBECDBFDF91CF911F910F91FF90DE
:101D6000EF90DF90CF90BF90AF909F908F907F903B
:101D70006F905F904F903F902F9008958F929F9219
:101D8000AF92BF92CF92DF92EF92FF92CF93DF9309
:101D9000C82F84EB94E09093F4038093F303CC2357
:101DA00069F1C53010F080E00CC140E060E070E007
:101DB000CB010E94D7028823B1F320E1C29FC0016A
:101DC00011248D519E4FFC01E254FE4F20812F774C
:101DD00051F73C96408151816281738144365105AF
:101DE0006105710500F33497C080D180E280F380F3
:101DF000C114D104E104F10421F4D5CFC12CD12CBC
:101E0000760140E0C701B6010E94D702882359F24B
:101E10008091FE019091FF018115924021F6A091E1
:101E20000302AA2309F4BFCF60910102709102025C
:101E30006115710509F4B7CF20910002222309F43E
:101E4000B2CFA093D2042093C40480E030E041E0FC
:101E500050E0C82FFA01082E02C0EE0FFF1F0A94AF
:101E6000E2F72E173F0739F08F5FC83091F789E00E
:101E70008093CD0498CF8093CD04209109023091B6
:101E80000A022115310519F040E050E008C0209108
:101E90001702309118024091190250911A022093B2
:101EA000C5043093C6044093C7045093C804460148
:101EB0005701860E971EA11CB11C8092D3049092EC
:101EC000D404A092D504B092D604E0910402F0911B
:101ED0000502F093D904E093D804B0E00E94E22414
:101EE000860E971EA81EB91E8092DA049092DB041B
:101EF000A092DC04B092DD0485E0EE0FFF1F8A950E
:101F0000E1F7E150FE4FEF2FFF27E6958E0E9F1E63
:101F1000A11CB11C8092CE049092CF04A092D00458
:101F2000B092D104209106023091070221153105AB
:101F300021F0A90160E070E008C0409113025091C7
:101F400014026091150270911602D701C60188191A
:101F50009909AA09BB09840F951FA61FB71F04C0C2
:101F6000B695A79597958795CA95D2F78093C9049A
:101F70009093CA04A093CB04B093CC04853F2FE088
:101F80009207A105B10510F48CE018C0853F9F4F62
:101F9000A105B10510F480E111C080911F0290915C
:101FA0002002A0912102B09122028093DA04909342
:101FB000DB04A093DC04B093DD0480E28093D704BB
:101FC00081E0DF91CF91FF90EF90DF90CF90BF90B5
:101FD000AF909F908F900895DC015996ED91FC9100
:101FE0005A973097B9F083899489A589B689428533
:101FF000538564857585841B950BA60BB70B8115DE
:1020000020E89207A105B10538F08FEF9FE7A0E027
:10201000B0E0089580E090E00895CF93DF931F92A1
:10202000CDB7DEB76983DC01ED91FC910280F381CD
:10203000E02D41E050E0BE016F5F7F4F09950F90AA
:10204000DF91CF910895089580E090E00895FC011C
:10205000818D928D009711F00C9444040895CF93D4
:10206000DF93EC01898D9A8D009739F481E090E03F
:102070009B838A8380E090E00BC0FC011382128274
:102080000E941405E98DFA8D22813381232B71F78B
:10209000DF91CF9108953F924F925F926F927F921E
:1020A0008F929F92AF92BF92CF92DF92EF92FF9268
:1020B0000F931F93CF93DF93CDB7DEB72C970FB657
:1020C000F894DEBF0FBECDBF5C01DC015B968D9046
:1020D0009C905C971696CD90DD90ED90FC901997B2
:1020E000C114D104E104F10439F0BFEFCB1ADB0ACB
:1020F000EB0AFB0A312C07C0F401C080D180E280DA
:10210000F38033243394F40181859285A385B485CB
:102110009C01AD012F5F3F4F4F4F5F4F29873A879B
:102120004B875C87260137011D821E821F8218861D
:10213000F40181859285A385B4852D813E814F81EF
:102140005885281739074A075B0708F063C0898557
:102150009A85AB85BC858C159D05AE05BF0550F4F1
:1021600082E0C82ED12CE12CF12C92E0492E512C8A
:10217000612C712C9E012F5F3F4FB701A601C40156
:102180000E94C103882309F445C089819A81AB81EB
:10219000BC81892B8A2B8B2B41F0260137019FEFC5
:1021A000491A590A690A790A05C0C414D504E60413
:1021B000F70491F02D813E814F8158852F5F3F4F6D
:1021C0004F4F5F4F2D833E834F8358873FEFC31A96
:1021D000D30AE30AF30AACCF0FEF1FEF2FEF3FE074
:1021E000B301A201C4010E942003882399F0D50104
:1021F00016964D915D916D917C9119974115510500
:102200006105710549F093018201C4010E94200318
:10221000811102C080E02AC0D50116964D925D92D0
:102220006D927C921997332051F0D301C20101962F
:10223000A11DB11DF40180839183A283B383F501B5
:102240008789908DA18DB28D892B8A2B8B2B69F478
:10225000D50157964D925D926D927C925A97149645
:102260008C911497806814968C9381E02C960FB60D
:10227000F894DEBF0FBECDBFDF91CF911F910F91BC
:10228000FF90EF90DF90CF90BF90AF909F908F9096
:102290007F906F905F904F903F9008958FB7F89424
:1022A0008091F6038FBF089561E0FC0184810E9454
:1022B00056198091F50381111092F50308958EBD92
:1022C00000000DB407FEFDCF8EB508958FEF0C947E
:1022D0005F110F931F93CF93DF93EB010E942E1892
:1022E0008B010E9466118F3F49F00E942E18601BDF
:1022F000710B6C177D07A8F380E001C081E0DF91CE
:10230000CF911F910F910895CF93DF93EC018E81B0
:10231000882389F08F8198859C012F5F3F4F3887F4
:102320002F838230924018F40E946611F3CFCE01C1
:102330000E9454111E82DF91CF9108958CBD9DBDE6
:102340000895CF93DF93EC018091F503811109C0CB
:1023500081E08093F5038091B2049091B3040E94D0
:102360009E1160E08C81DF91CF910C9456198F9271
:102370009F92AF92BF92FF920F931F93CF93DF93E1
:10238000EC01F62E49015A010E948411CE010E94EF
:10239000A1116CE271E0CE010E9469118F2D806461
:1023A0000E945F1108E110E0D501C401002E04C0B5
:1023B000B695A795979587950A94D2F70E945F11D5
:1023C00008501109083F8FEF180771F7FF2029F017
:1023D00088E0F81204C087E803C085E901C08FEFE8
:1023E0000E945F1110E00E9466118A8787FF04C077
:1023F0001F3F11F01F5FF7CFDF91CF911F910F911A
:10240000FF90BF90AF909F908F900895AF92BF9232
:10241000CF92DF92EF92FF920F931F93CF93DF93B0
:10242000EC016901C801820F931F8130924008F0CE
:1024300070C08E81882371F088819981AA81BB81C7
:1024400084179507A607B70729F48F819885C816C2
:10245000D906B0F5488359836A837B838B858330A3
:1024600039F089E0440F551F661F771F8A95D1F711
:102470009A01AB0161E1CE010E94B711882319F0E6
:1024800083E08D8346C00E942E185B010E94661176
:102490008A878F3F49F40E942E186A197B096D3292
:1024A0007140A0F38FE003C08E3F31F08DE08D834B
:1024B000CE010E9454112DC018861F8281E08E83A8
:1024C0008F8198858C159D0540F40E9466118F813F
:1024D0009885019698878F83F3CF6701E00EF11EF0
:1024E000EC14FD0431F00E946611F60181936F0136
:1024F000F7CF8F819885080F191F18870F8389855B
:10250000882319F00115124048F0CE010E94841171
:1025100005C0CE010E94541180E001C081E0DF912E
:10252000CF911F910F91FF90EF90DF90CF90BF90D0
:10253000AF900895EF92FF920F931F93CF93DF9385
:10254000EC017901411551056105710511F482E134
:102550003CC08B85833039F089E0440F551F661FDE
:10256000771F8A95D1F79A01AB0168E1CE010E94ED
:10257000B711882311F084E028C08EEF0E945F110C
:1025800087018EEFF81AF80181918F010E945F1187
:10259000E016F106C1F78FEF0E945F118FEF0E94E6
:1025A0005F110E9466118A878F71853031F081E159
:1025B0008D83CE010E94541109C068E572E0CE01FE
:1025C0000E946911811107C085E18D83CE010E94AF
:1025D000541180E014C020E030E0A9016DE0CE018C
:1025E0000E94B711811109C00E946611811105C0B6
:1025F000CE010E94541181E002C084E1E6CFDF9158
:10260000CF911F910F91FF90EF900895FC01DB0196
:1026100012968D919C911397938382838AE291E025
:102620009183808314968C911497848315968C9152
:102630001597858316964D915D916D917C911997B3
:1026400046835783608771871A964D915D916D918E
:102650007C911D9742875387648775871E964D919D
:102660005D916D917C91519746875787608B718BF7
:1026700052968C915297828B53964D915D916D91AC
:102680007C915697438B548B658B768B57964D91E7
:102690005D916D917C915A97478B508F618F728FAE
:1026A0005B968D919C915C97948F838F08954F9248
:1026B0005F926F927F92AF92BF92CF92DF92EF9232
:1026C000FF920F931F93CF93DF931F92CDB7DEB787
:1026D000FC012581222309F4C1C0848180FFBEC092
:1026E00083899489A589B6894284538464847584D6
:1026F00084159505A605B70509F4B0C06F01520110
:10270000F1E0BF22D6015B968D919C915C97B3015D
:10271000A20139E076956795579547953A95D1F797
:10272000223071F4FC01828D938DA48DB58D8A01C8
:102730009B01080F191F2A1F3B1FC901B8014AC07E
:10274000DC0114961C9111501423A114B104F9F466
:1027500011111DC045284628472851F4F6018789E4
:10276000908DA18DB28D86839783A087B1870FC08E
:10277000D60116964D915D916D917C9119979601B8
:102780002A5F3F4F0E94C103882309F467C0F60106
:10279000238D348D86819781A085B1850297A1090B
:1027A000B109AC01BD01F901058404C0440F551FF6
:1027B000661F771F0A94D2F786859785A089B1890D
:1027C000840F951FA61FB71FBC01CD01610F711D9E
:1027D000811D911DD60114962C9126FF0DC04090AD
:1027E00000015090010160900201709003014616B3
:1027F00057066806790699F440E00E94D7028823BC
:1028000069F1F501ED50FE4FDE0111969F012F5F3A
:102810003F4F2E173F0799F081918D93FACFFE011C
:1028200031967F0101E010E09501AB01BC01809180
:10283000F3039091F4030E940612882379F0F601C5
:1028400082859385A485B5850196A11DB11D8287DA
:102850009387A487B587898190E002C08FEF9FEFAF
:102860000F90DF91CF911F910F91FF90EF90DF902C
:10287000CF90BF90AF907F906F905F904F900895F2
:10288000FC01818D928D009711F00C9457138FEFFE
:102890009FEF08950F931F93CF93DF93FC01818DDA
:1028A000928D0097B9F0EF010E9457138C010F3FF2
:1028B0008FEF180791F0898D9A8DFC014285538521
:1028C0006485758541505109610971090E947D0433
:1028D000C80105C080E090E002C08FEF9FEFDF915C
:1028E000CF911F910F9108958F929F92AF92BF92B7
:1028F000CF92DF92EF92FF924B015C016B017C0162
:1029000082E0F694E794D794C7948A95D1F7D501DD
:10291000C40124E0B695A795979587952A95D1F798
:10292000C80ED91EEA1EFB1ED701C60134E0B695BB
:10293000A795979587953A95D1F7C80ED91EEA1EA7
:10294000FB1EBB27AF2D9E2D8D2DC80ED91EEA1E56
:10295000FB1EC701AA27BB27C80ED91EEA1EFB1EF5
:10296000A3E0B0E0A70196010E94E224A501940132
:10297000261B370B480B590BABE0B0E00E94E2245A
:10298000DC01CB0165E0B695A795979587956A958B
:10299000D1F7BC01CD016C0D7D1D8E1D9F1DFF90DB
:1029A000EF90DF90CF90BF90AF909F908F90089561
:1029B000DF92EF92FF920F931F93CF93DF93CDB7E8
:1029C000DEB72A970FB6F894DEBF0FBECDBF8DEFEE
:1029D00094E00E9440148C97D1F7E12CF12C00E098
:1029E00010E02AE0D22E8DEF94E00E9440149C016A
:1029F000205331092A303105F8F4F801EE0FFF1F9A
:102A000081E090E08C0F9D1FE80FF91F3183208338
:102A1000FC0180E090E00817190759F040815181CE
:102A2000D49E9001D59E300D1124219331930196AF
:102A3000F2CF0F5F1F4FD7CF8D329105C1F00A97AC
:102A400091F6FE01319620E030E080E090E0021740
:102A5000130739F041915191840F951F2F5F3F4F1C
:102A6000F6CFEF2841F091958195910904C0EE24AD
:102A7000E394F12CB8CF2A960FB6F894DEBF0FBEC0
:102A8000CDBFDF91CF911F910F91FF90EF90DF901D
:102A90000895CF93C82F60E00E94561964E670E055
:102AA00080E090E00E94821C61E08C2F0E94561909
:102AB00064E670E080E090E00E94821C60E08C2F71
:102AC0000E94561964E670E080E090E0CF910C948B
:102AD000821CEF92FF920F931F93CF93DF937C01A1
:102AE00000E010E0C0E0D0E00E151F057CF460E4CB
:102AF0007FE180E090E00E94821CCC33D10524F07D
:102B00000F5F1F4FC0E0D0E02896EECFDF91CF914E
:102B10001F910F91FF90EF900895EF92FF920F9306
:102B20001F93CF93DF93CDB7DEB76B970FB6F894B3
:102B3000DEBF0FBECDBF7C0147E164E871E0CE018E
:102B400001960E94BC0DCE0101960E94EF0A0BE097
:102B500010E0E0911605F0911705309719F0858186
:102B600081111EC001501109C1F08EED94E00E9448
:102B70006A0968EC70E080E090E00E94821C0E948C
:102B8000DF1947E164E871E0CE0101960E94BC0DB7
:102B9000CE0101960E94EF0ADCCF309709F405C1FF
:102BA0008581882309F401C185E090E00E944915E0
:102BB000B701CE0101960E946A0CCE0101960E94D7
:102BC000610CCE0101960E945C0C0E94580C609131
:102BD0004A0563FB662760F970E0CE0101960E940A
:102BE0006A0CCE0101960E94610CCE0101960E94F2
:102BF0005C0C0E94580C60914A056695617070E00B
:102C0000CE0101960E946A0CCE0101960E94610CD1
:102C1000CE0101960E945C0C0E94580C60914A05FE
:102C200062FB662760F970E0CE0101960E946A0C93
:102C3000CE0101960E94610CCE0101960E945C0CAF
:102C40000E94580C60914705CE0101960E94B40C79
:102C5000CE0101960E94610CCE0101960E945C0C8F
:102C60000E94580C60914605CE0101960E94B40C5A
:102C7000CE0101960E94610CCE0101960E945C0C6F
:102C80000E94580C60914505CE0101960E94B40C3B
:102C9000CE0101960E94610CCE0101960E945C0C4F
:102CA0000E94580C60914305CE0101960E94B40C1D
:102CB000CE0101960E94610CCE0101960E945C0C2F
:102CC0000E94580C60914205CE0101960E94B40CFE
:102CD000CE0101960E94610CCE0101960E945C0C0F
:102CE0000E94580C60914105CE0101960E94B40CDF
:102CF000CE0101960E94610CCE0101960E945C0CEF
:102D00000E94580C60914A0567FB662760F970E0E5
:102D1000CE0101960E946A0CCE0101960E94610CC0
:102D2000CE0101960E945C0C0E94580C60912C050B
:102D300070912D0580912E0590912F050E9493236F
:102D400025E93FEB46ED53E30E94F2234AE00E945F
:102D5000370B0E94580C60913005709131058091BD
:102D60003205909133050E94932325E93FEB46ED10
:102D700053E30E94F2234AE00E94370B8FE891E070
:102D80000E94250B80911605909117050097A1F1DF
:102D90000E946A0980911605909117050E941127DB
:102DA000109217051092160527C000E010E0B80138
:102DB00086E00E94231CB80185E00E94231C65E088
:102DC00070E080E090E00E94821C0F5F1F4F0F3F79
:102DD000110569F70FEF10E0B80185E00E94231C90
:102DE00065E070E080E090E00E94821C01501109D3
:102DF00099F780E090E002C081E090E06B960FB61A
:102E0000F894DEBF0FBECDBFDF91CF911F910F9120
:102E1000FF90EF900895FC0110820895FC01148248
:102E200015821682178210821182128213821186F5
:102E30001086138612861586148617861686118AC2
:102E4000108A138A128A148A168A178A158A81E0D0
:102E5000818F828F138E87E0808F148E158ECF0125
:102E60004E960C940B17CF92DF92EF92FF920F9336
:102E70001F93CF93DF936C017A018B01C0E0D0E008
:102E8000CE15DF0581F0D8016D918D01D601ED9150
:102E9000FC910190F081E02DC6010995892B11F07C
:102EA0002196EECF7E01C701DF91CF911F910F9147
:102EB000FF90EF90DF90CF900895FC01538D448DEB
:102EC000252F30E0842F90E0821B930B541710F0D5
:102ED000CF96089501970895FC01918D828D9817E2
:102EE00061F0828DDF01A80FB11D5D968C91928DEE
:102EF0009F5F9F73928F90E008958FEF9FEF0895EB
:102F0000FC01918D828D981731F0828DE80FF11DB3
:102F1000858D90E008958FEF9FEF08950E946028BF
:102F200085E194E00E94C70021E0892B09F420E0AC
:102F3000822F0895EF92FF920F931F93CF93DF9309
:102F4000EC0181E0888F9B8D8C8D981305C0E889FA
:102F5000F989808185FD26C0F62E0B8D10E00F5F6C
:102F60001F4F0F731127E02E8C8DE8120CC00FB687
:102F700007FCFACFE889F989808185FFF5CFCE017A
:102F80000E944501F1CF8B8DFE01E80FF11DE35A40
:102F9000FF4FF0829FB7F8940B8FEA89FB898081FD
:102FA00080620AC09FB7F894EE89FF896083E88940
:102FB000F98980818370806480839FBF81E090E085
:102FC000DF91CF911F910F91FF90EF900895CF93D4
:102FD000DF93EC01888D8823C9F0EA89FB89808121
:102FE00085FD05C0A889B9898C9186FD0FC00FB6F3
:102FF00007FCF5CF808185FFF2CFA889B9898C9134
:1030000085FFEDCFCE010E944501E7CFDF91CF9143
:1030100008953FB7F8948091010490910204A09123
:103020000304B091040426B5A89B05C02F3F19F0F6
:103030000196A11DB11D3FBFBA2FA92F982F882738
:10304000820F911DA11DB11DBC01CD0143E0660F92
:10305000771F881F991F4A95D1F708952FB7F894C5
:103060006091FD037091FE038091FF039091000435
:103070002FBF08951F920F920FB60F9211242F9316
:103080003F938F939F93AF93BF938091FD03909154
:10309000FE03A091FF03B09100043091FC0326E0F1
:1030A000230F2D3720F40296A11DB11D05C029E87C
:1030B000230F0396A11DB11D2093FC038093FD03F4
:1030C0009093FE03A093FF03B0930004809101044A
:1030D00090910204A0910304B09104040196A11DF3
:1030E000B11D8093010490930204A0930304B09354
:1030F0000404BF91AF919F918F913F912F910F90B9
:103100000FBE0F901F9018950F931F93CF93DF93CF
:10311000EC0188819981009729F02A813B8126174B
:10312000370788F48B016F5F7F4F0E949A270097C3
:1031300061F0998388831B830A832C813D81232B33
:1031400011F4FC01108281E001C080E0DF91CF9199
:103150001F910F910895CF93DF93EC01888199819E
:10316000009711F00E941127198218821D821C827B
:103170001B821A82DF91CF9108951F920F920FB692
:103180000F9211242F933F934F935F936F937F93ED
:103190008F939F93AF93BF93EF93FF9385E194E059
:1031A0000E944501FF91EF91BF91AF919F918F9147
:1031B0007F916F915F914F913F912F910F900FBE33
:1031C0000F901F9018951F920F920FB60F92112417
:1031D0002F938F939F93EF93FF93E0912504F091AA
:1031E00026048081E0912B04F0912C0482FD12C012
:1031F000908180912E048F5F8F7320912F0482170E
:1032000051F0E0912E04F0E0EB5EFB4F958F809340
:103210002E0401C08081FF91EF919F918F912F919A
:103220000F900FBE0F901F901895CF93DF93FC0166
:1032300030910D043F3FB1F1A685B7859C918091F7
:103240001104892379F12091B200809109049091B1
:103250000804290F90910704291B99E0931B492F1B
:1032600050E0289F90011124232F3327269526957F
:1032700042175307B8F48091060420910504915039
:1032800018F0822B220FFBCFEF01809306042093CE
:10329000050490930D040E94670181E02A893B890F
:1032A000232B09F080E0DF91CF91089590E0FC019D
:1032B000E252FF4F2491FC01E05FFE4F3491FC018C
:1032C000EC5DFE4FE491EE2309F43CC0222339F17A
:1032D000233091F038F42130A9F0223001F584B583
:1032E0008F7D12C0273091F02830A1F02430B9F43E
:1032F000809180008F7D03C0809180008F778093C4
:1033000080000DC084B58F7784BD09C08091B00066
:103310008F7703C08091B0008F7D8093B000F0E084
:10332000EE0FFF1FEE50FF4FA591B4919FB7F89499
:10333000611104C08C913095382302C0EC913E2B72
:103340003C939FBF0895CF93DF9390E0FC01E05F33
:10335000FE4F2491FC01EC5DFE4F8491882361F1C6
:1033600090E0880F991FFC01EA5FFE4FC591D49150
:10337000FC01EE50FF4FA591B491611109C09FB7B8
:10338000F8948881209582238883EC912E230BC0AA
:10339000623061F49FB7F8948881322F309583238F
:1033A0008883EC912E2B2C939FBF06C08FB7F89487
:1033B000E8812E2B28838FBFDF91CF9108958F92C4
:1033C0009F92AF92BF92CF92DF92EF92FF92CF93F4
:1033D0008091E304882321F08EED94E00E946A0935
:1033E0001092BF041092BD041092BA041092B90456
:1033F00088E08093B8040E942E186B017C0161E084
:103400008091B8040E94A31961E08091B8040E94E1
:103410005619CFB7F89480911404811127C0EEE2B9
:10342000F1E08491EAE1F1E09491E82FF0E0EE0F11
:10343000FF1FEA5FFE4FA591B491EC91E92321F4BF
:1034400061E08AE00E94561961E08AE00E94A319B7
:103450008CB580618CBD8CB580648CBD61E08DE0E5
:103460000E94A31961E08BE00E94A31980911404CB
:103470008F5F80931404CFBF82E58093B20481E014
:103480008093B3048091B2049091B3040E949E1182
:10349000CAE08FEF0E945F11C150D9F784EB94E02E
:1034A0000E94A11120E030E0A90160E084EB94E0EB
:1034B0000E94B711C82F8093BE04813049F00E944A
:1034C0002E186C197D09613D774060F381E054C08E
:1034D0002AEA31E040E050E068E084EB94E00E94AA
:1034E000B71182FF03C0C093BF040EC0C4E00E94A6
:1034F00066118093BE04C150D1F78A3A11F082E080
:103500003BC082E08093BF048091BF04823021F0F1
:10351000812C912C540105C0812C912CA12C80E48C
:10352000B82E20E030E0A90167E384EB94E00E942C
:10353000B711A501940169E284EB94E00E94B711F0
:103540008093BE04882349F00E942E186C197D09CF
:10355000613D774030F388E00FC08091BF04823036
:1035600001F520E030E0A9016AE384EB94E00E94D9
:10357000B711882341F086E08093B90484EB94E08E
:103580000E94541129C00E946611807C803C19F46D
:1035900083E08093BF040E9466110E9466110E941E
:1035A000661184EB94E00E94541180E58093B2048C
:1035B00081E08093B3040E94BE0E882341F08EED1B
:1035C00094E00E94680D91E0811107C005C080E081
:1035D0000E94BE0E8111F3CF90E0892FCF91FF9012
:1035E000EF90DF90CF90BF90AF909F908F90089515
:1035F000CF93DF93A0911204B0911304109709F4B4
:1036000057C01C968C911C97883038F08E3040F053
:10361000863148F0E0E0F0E008C0EDE6F0E005C0FB
:10362000EBE6F0E002C0ECE6F0E05FB7F894109251
:103630001304109212043097D1F11C969C911C97A0
:10364000963118F4C8E6D0E002C0C0E0D0E038817E
:10365000983060F021E09E3008F420E081E090E0B6
:1036600001C0880F2A95EAF7809501C08BEF83236C
:10367000888360811C964C91483038F481E090E05A
:1036800001C0880F4A95EAF70FC0242F30E04E3072
:1036900018F42850310902C02E50310981E090E021
:1036A00001C0880F2A95EAF78095862380835FBF43
:1036B00060E0809124050E94A3198091240590E088
:1036C000FC01E05FFE4FE491E0931104FC01EC5D2E
:1036D000FE4FE491F0E0EE0FFF1FE450FF4F8591A5
:1036E000949190932705809326058091250590E07D
:1036F000FC01E05FFE4F249120931004FC01EC5D7F
:10370000FE4FE491F0E0EE0FFF1FEE50FF4FA5914A
:10371000B491B0930F04A0930E04109719F0EC919C
:10372000E22BEC9361E0809125050E94A319109291
:10373000B00083E08093B10080912405883040F090
:103740008E3048F0863108F07BC0ECE6F0E005C032
:10375000EDE6F0E002C0EBE6F0E08FEF80930D04C1
:1037600010920C0410920B04809128059091290569
:1037700081152BE4920709F049C08DE080930A047B
:103780008EE48093090486E0809308045FB7F89480
:10379000608140912405483030F491E001C0990FD8
:1037A0004A95EAF70EC0242F30E04E3018F4285026
:1037B000310902C02E50310991E001C0990F2A95BC
:1037C000EAF7892F862B808390912405963118F093
:1037D000E0E0F0E002C0E8E6F0E03081983058F038
:1037E00021E09E3008F420E091E0892F01C0880F8D
:1037F0002A95EAF701C084E0832B808388E195E075
:1038000090931304809312045FBF1AC081302BE49D
:10381000920760F48038954209F0B8CF8AE180932E
:103820000A0487E2809309048AE0AECF82312AE756
:10383000920709F4A2CF8115964909F0A7CF9DCF31
:10384000DF91CF9108951F93CF93DF93182FEB0152
:1038500061E00E94A319209711F460E004C0CF3FFB
:10386000D10539F461E0812FDF91CF911F910C9444
:103870005619E12FF0E0E252FF4FE491E330F9F006
:1038800048F4E130B9F0E230A1F584B5806284BD3E
:10389000C8BD34C0E730E9F0E83019F1E43049F54B
:1038A00080918000806280938000D0938B00C093D1
:1038B0008A0024C084B5806884BDC7BD1FC08091C4
:1038C0008000806880938000D0938900C093880036
:1038D00015C08091B00080688093B000C093B300A1
:1038E0000DC08091B00080628093B000C093B4009E
:1038F00005C0C038D1050CF0B5CFAFCFDF91CF9167
:103900001F9108958F929F92AF92BF92CF92DF92B4
:10391000EF92FF926B017C010E9409184B015C0140
:10392000C114D104E104F104F1F00E940918DC0192
:10393000CB0188199909AA09BB09883E9340A105C2
:10394000B10570F321E0C21AD108E108F10888EE50
:10395000880E83E0981EA11CB11CC114D104E1049F
:10396000F10419F7DDCFFF90EF90DF90CF90BF907B
:10397000AF909F908F900895FC01809179058111FF
:1039800019C0118210821382128280917B0582609D
:1039900080937B0510927A0591E06D3209F090E0FA
:1039A00080917B0590FB80F980937B056D3209F057
:1039B0006BC066C06C3289F580917A05811103C0B5
:1039C00081E080937A0582819381892B99F05AE076
:1039D00080917A0591E0980F90937A05481750F0FE
:1039E00022813381529FC001539F900D11249383F4
:1039F0008283EECF80917B0580FF44C082819381DA
:103A0000919581959109938382838081918191958C
:103A1000819591099183808335C06E3221F481E0D4
:103A200080937A052DC080917A05811112C0208182
:103A300031814AE0429FC001439F900D1124062E20
:103A4000000C770B60537109680F791F71836083D5
:103A500017C091E0980F90937A05481788F022815B
:103A600033814AE0429FC001439F900D1124062EEE
:103A7000000C770B60537109680F791F73836283A1
:103A800080E0089581E008956C3209F499CF6E3298
:103A900071F6C5CFCF92DF92EF92FF920F931F93F3
:103AA000CF93DF93EC01162F8091790581110BC024
:103AB000188219821A821B8210927A0580917B05E6
:103AC000826080937B051E3291F01C3209F082C027
:103AD00080917A05882359F080917A058430A1F588
:103AE000288139814A815B81A4E6B0E047C081E04A
:103AF00080937A058981982F92959F708F702AE024
:103B0000929F800D11249A8191118C599881292FAF
:103B100022952F709F703AE0239F900D1124292F3A
:103B20003CE3839FC0011124820F911D092E000CDC
:103B3000AA0BBB0B88839983AA83BB831E3209F42B
:103B4000AEC01C3249F246C0853039F42881398133
:103B50004A815B81AAE0B0E011C08630F1F008F044
:103B6000A0C0288139814A815B81833019F4A8EE95
:103B7000B3E004C0823029F4A0E1B7E20E94E2245D
:103B800008C0813051F460EA76E881E090E00E945C
:103B9000B024688379838A839B83C880D980EA8034
:103BA000FB80D701C601880F991FAA1FBB1FBC014C
:103BB000CD016F5F7F4F8F4F9F4F0E947414DC01C8
:103BC000CB018C0D9D1DAE1DBF1D88839983AA83DB
:103BD000BB8367C080917A0581111BC08881998160
:103BE000AA81BB816C017D0134E0CC0CDD1CEE1C94
:103BF000FF1C3A95D1F7612F110F770BCB01C097BE
:103C0000092E000CAA0BBB0B8C299D29AE29BF29BC
:103C100042C08F5F80937A058730C0F42881398154
:103C20004A815B81AAE0B0E00E94E224212F110FBB
:103C3000330B205331098901330F220B330BDC0185
:103C4000CB01800F911FA21FB31F25C0873039F50C
:103C5000C880D980EA80FB80D701C601880F991FF0
:103C6000AA1FBB1FBC01CD016F5F7F4F8F4F9F4FBE
:103C70000E947414DC01CB018C0D9D1DAE1DBF1D77
:103C8000193324F00296A11DB11D05C014331CF098
:103C90000196A11DB11D88839983AA83BB8380E00F
:103CA00001C081E0DF91CF911F910F91FF90EF90C4
:103CB000DF90CF900895813311F0813411F483E0C7
:103CC00020C0803321F08E3411F0863519F4109223
:103CD000750519C0823311F0843411F484E011C0E9
:103CE000833311F487E00DC0843311F486E009C0FA
:103CF000853311F485E005C0863311F0853441F435
:103D000081E08093750580917605816080937605CA
:103D100080E00895E09179054E2F50E0493051053B
:103D200008F051C0FA01EA5BFF4F0C945F26109235
:103D300074058C3209F447C090917B059260909392
:103D40007B05880F8056982F990F990F03C090918B
:103D50006F059053890F80936F0535C0880F80568B
:103D6000982F990F990F03C090916E059053890F6A
:103D700080936E0528C0880F8056982F990F990F51
:103D800003C090916D059053890F80936D051BC002
:103D90008C32C9F413C08C3289F0880F8056982F6A
:103DA000990F990F890F809374050DC08C3231F0F3
:103DB000909174059053890F8093740580917605D6
:103DC00084608093760581E00895CF93DF93CDB72B
:103DD000DEB76F970FB6F894DEBF0FBECDBF7894F5
:103DE00084B5826084BD84B5816084BD85B5826000
:103DF00085BD85B5816085BD80916E0081608093B1
:103E00006E00109281008091810082608093810019
:103E10008091810081608093810080918000816029
:103E2000809380008091B10084608093B100809184
:103E3000B00081608093B00080917A0084608093AC
:103E40007A0080917A00826080937A0080917A0073
:103E50008E7F80937A0080917A00806880937A00C8
:103E60001092C10061E082E00E94A31961E086E047
:103E70000E94A31961E085E00E94A3190E94DF1946
:103E8000811111C060E085E00E94561961E086E072
:103E90000E9456198EED94E00E946A0986E090E037
:103EA0000E944915FBCF85E090E00E94491541E052
:103EB00062E971E0CE0101960E94BC0DCE0101962F
:103EC0000E94EF0A06E010E0E0911605F091170558
:103ED000309719F0858181111EC001501109C1F080
:103EE0008EED94E00E946A0968EC70E080E090E05A
:103EF0000E94821C0E94DF1941E060EA71E0CE015D
:103F000001960E94BC0DCE0101960E94EF0ADCCF03
:103F1000309709F44DC08581882309F449C085E0B4
:103F200090E00E9449150E94D8148093060185E014
:103F300090E00E9449150E94D8148093070185E003
:103F400090E00E9449150E94D8148093080185E0F2
:103F500090E00E9449150E94D81485E090E00E94EC
:103F600049150E94D814909305018093040185E0BF
:103F700090E00E9449150E94D81485E090E00E94CC
:103F800049150E94D81485E090E00E9449150E94CE
:103F9000D814092E000CAA0BBB0B80930901909337
:103FA0000A01A0930B01B0930C0185E090E002C0E0
:103FB00086E090E00E9449158091160590911705C2
:103FC000009761F00E946A0980911605909117058B
:103FD0000E941127109217051092160561E085E0E6
:103FE0000E94561968EE73E080E090E00E94821C07
:103FF00060E085E00E94561961E082E00E94561957
:104000008091040190910501803825E2920721F00A
:104010008115EBE49E07A1F4209128053091290534
:104020008217930769F09093290580932805809162
:104030001204909113048851954011F40E94F81ACB
:104040000E94F81A01E0DD24D394FF24F394F2E0F7
:10405000CF2EE3E0EE2E88E195E00E94F300892B5D
:1040600009F4D2C188E195E00E94DD00182F80910B
:10407000540590915505A0915605B09157050196AC
:10408000A11DB11D8093540590935505A09356052D
:10409000B09357051432A9F480917B0584FF03C0C7
:1040A0008F7E80937B051092770510924B05F092DE
:1040B0007C051092790580917B058D7F80937B052F
:1040C000CACFB0907C0522E0B2122AC01A3219F48D
:1040D000E0927C051CC080EE810F8F3508F0FDC09A
:1040E00080917705812780937705812F0E94AB0906
:1040F000882309F4F2C01C3269F480917B058D7F1E
:1041000080937B05809178058F5F8093780510926E
:104110007905A1CF809179058F5F809379059BCF39
:1041200081E0B8125DC08091770581278093770583
:104130001C3281F480914B05882309F41CC286E768
:1041400095E00E940B17B092780510927905C09205
:104150007C0581CFA0907905E1E0EA1508F0F6C171
:104160007EEF972E9A0CB0904B05BB2011F0BA94BD
:1041700001C0B12CEB2DF0E0EE0FFF1FE253FF4F1B
:1041800085919491692D70E0FC01E60FF71FE49191
:104190001E1709F4D8C11E170CF4EDC1B394F8E052
:1041A000BF1609F4E8C1EB2DF0E0EE0FFF1FE2535C
:1041B000FF4F459154919C01DA01A81BB90BE22FE6
:1041C000E81BE91510F0CA01DFCFF9018490FD0169
:1041D000E20FF31FE4912F5F3F4F8E1681F3F3CF71
:1041E000F3E0BF127FC010628FE9810F863010F4B8
:1041F000175501C010534091790520917705812F03
:1042000090E041110DC0F092790530E044E0359521
:1042100027954A95E1F72817390709F04BC01BCFBE
:104220002F7030E051E02817390709F450E02817C3
:104230003907E9F580917B0581FF09C08D7F809367
:104240007B054F5F409379058CE20E94AB0980911A
:104250004C0590914D05A0914E05B0914F050196EA
:10426000A11DB11D80934C0590934D05A0934E0563
:10427000B0934F0591E080914B05863009F090E0B6
:1042800080917B0590FB84F980937B0510927C05DF
:1042900090919C05992359F1886080937B05109239
:1042A0009D0580919C05815080939C0520C05523DD
:1042B00009F4D1CE8091500590915105A0915205FD
:1042C000B09153050196A11DB11D809350059093A7
:1042D0005105A0935205B093530586E795E00E94DF
:1042E0000B1749C1B110B7CE10924B05B4CE8091D7
:1042F000760580FF0CC020919B059091750520FFED
:1043000004C020919A05291710F490939A0581FF13
:104310000CC09091710590939605909172059093C1
:104320009705909173059093980582FF10C0909126
:104330006F059093940590916E05909393059091DD
:104340006D0590939205909174059093990583FF64
:1043500009C088E0E8E5F5E0ADE7B5E001900D9231
:104360008A95E1F78091760584FF10C04091600541
:1043700050916105609162057091630540938505D8
:1043800050938605609387057093880586FF10C05B
:10439000409168055091690560916A0570916B05BF
:1043A00040938D0550938E0560938F057093900513
:1043B00085FF10C0409164055091650560916605C8
:1043C000709167054093890550938A0560938B052A
:1043D00070938C0587FF04C080916C0580939105D4
:1043E0009091760580919B05892B80939B05809108
:1043F0007B0584FF30CE10929E0580919C05811133
:104400002ACED0929C0527CE80919C05882309F462
:1044100046C0CE0101960E940E1780919C0588230C
:10442000C1F0815080939C0580919D052FE1289FCC
:10443000C0011124FC01E358FA4FDE0111960190EE
:104440000D922A95E1F783589A4F0E940E17109209
:104450009D058FE1FE013196ACE2B5E001900D9231
:104460008A95E1F785E090E00E94491580910D0161
:104470008823B1F180914A0583FF0DC081FF0BC0F5
:1044800082FF09C081E090E00E948D1510920D011D
:104490000093FB0304C086E090E00E9449158091E0
:1044A0000D018823E9F00E942E188090F703909068
:1044B000F803A090F903B090FA03DC01CB0188194E
:1044C0009909AA09BB098090090190900A01A0905E
:1044D0000B01B0900C0188169906AA06BB06D0F114
:1044E0008091FB03882361F160E082E00E9456190D
:1044F0009091430580910801981307C080910701AE
:104500002CE3829FC001112403C08091060190E03A
:104510000E94691561E082E00E94561985E090E0F2
:104520000E94491500930D011092FB030E942E1862
:104530006093F7037093F8038093F9039093FA0361
:104540000E94D30086CDB394B0924B05A394A09261
:10455000790581CD10920D010093FB0386E090E078
:104560000E94491586E090E00E9449158FEF9FEF69
:104570000E948D15B5CF10924B0510927C056BCD26
:10458000CF92DF92EF92FF92CF93DF93E5E1F4E0D9
:104590001382128288EEC82E83E0D82EE12CF12CF3
:1045A000C482D582E682F78288E191E0918380839C
:1045B00085EC90E09587848784EC90E097878687E8
:1045C00080EC90E0918B808B81EC90E0938B828BE0
:1045D00082EC90E0958B848B86EC90E0978B868BB9
:1045E000118E128E138E148EE2EBF4E080E5808340
:1045F00081E08183E4EBF4E0158216821186138654
:1046000082E090E0A0E0B0E084879587A687B78736
:1046100013A215A614A68AE291E093A782A717A673
:1046200088E595E00E940E178DE795E00E940E1731
:10463000CBE4D5E019821A821B821C821D821E8265
:104640001F82188619861A861B861C8688E595E0C7
:104650000E940E1719AA8CE295E00E940E17E8E15D
:10466000F5E013821282C482D582E682F78286E662
:1046700091E09183808384E0848783E08587138A37
:10468000128AEDEFF4E013821282C482D582E682B0
:10469000F78286E391E091838083128E118E1486D7
:1046A000DF91CF91FF90EF90DF90CF900895BB27DF
:1046B0004A3031F4992322F4BDE2909581959F4FC1
:1046C0000C946323BB27FB015527AA27880F991F4A
:1046D000AA1FA41710F0A41B83955051B9F7A05D31
:1046E000AA3308F0A95DA193009779F7B111B193AE
:1046F0001192CB010C947C23DC01FC01672F71919A
:104700007723E1F7329704C07C916D9370836291B7
:10471000AE17BF07C8F308950E94CE2308F481E0C6
:104720000895E89409C097FB3EF4909580957095A4
:1047300061957F4F8F4F9F4F9923A9F0F92F96E9ED
:10474000BB279395F695879577956795B795F11162
:10475000F8CFFAF4BB0F11F460FF1BC06F5F7F4FFF
:104760008F4F9F4F16C0882311F096E911C0772311
:1047700021F09EE8872F762F05C0662371F096E81A
:10478000862F70E060E02AF09A95660F771F881FE9
:10479000DAF7880F9695879597F90895990F00088D
:1047A000550FAA0BE0E8FEEF16161706E807F90703
:1047B000C0F012161306E407F50798F0621B730B9E
:1047C000840B950B39F40A2661F0232B242B252B1F
:1047D00021F408950A2609F4A140A6958FEF811DC2
:1047E000811D08950E9405240C9476240E9468245B
:1047F00038F00E946F2420F0952311F00C945F2470
:104800000C94652411240C94AA240E94872470F32C
:10481000959FC1F3950F50E0551F629FF001729F65
:10482000BB27F00DB11D639FAA27F00DB11DAA1F74
:10483000649F6627B00DA11D661F829F2227B00DC1
:10484000A11D621F739FB00DA11D621F839FA00D4C
:10485000611D221F749F3327A00D611D231F849F9C
:10486000600D211D822F762F6A2F11249F575040F3
:104870009AF0F1F088234AF0EE0FFF1FBB1F661F6E
:10488000771F881F91505040A9F79E3F510580F037
:104890000C945F240C94AA245F3FE4F3983ED4F375
:1048A000869577956795B795F795E7959F5FC1F7DB
:1048B000FE2B880F911D9695879597F9089597F986
:1048C0009F6780E870E060E008959FEF80EC0895B6
:1048D00000240A94161617061806090608950024DF
:1048E0000A9412161306140605060895092E039459
:1048F000000C11F4882352F0BB0F40F4BF2B11F4CD
:1049000060FF04C06F5F7F4F8F4F9F4F089557FD2B
:104910009058440F551F59F05F3F71F04795880F2D
:1049200097FB991F61F09F3F79F0879508951216C4
:1049300013061406551FF2CF4695F1DF08C0161670
:1049400017061806991FF1CF869571056105089421
:104950000895E894BB2766277727CB0197F9089538
:10496000DB018F939F930E94E224BF91AF91A29F9E
:10497000800D911DA39F900DB29F900D112408955D
:10498000A1E21A2EAA1BBB1BFD010DC0AA1FBB1F53
:10499000EE1FFF1FA217B307E407F50720F0A21BC5
:1049A000B30BE40BF50B661F771F881F991F1A9432
:1049B00069F760957095809590959B01AC01BD015C
:1049C000CF0108950E942425A59F900DB49F900DBE
:1049D000A49F800D911D112408952F923F924F9214
:1049E0005F926F927F928F929F92AF92BF92CF927F
:1049F000DF92EF92FF920F931F93CF93DF93CDB788
:104A0000DEB7CA1BDB0B0FB6F894DEBF0FBECDBFFF
:104A100009942A88398848885F846E847D848C84D0
:104A20009B84AA84B984C884DF80EE80FD800C81D9
:104A30001B81AA81B981CE0FD11D0FB6F894DEBFBC
:104A40000FBECDBFED010895A29FB001B39FC0017D
:104A5000A39F700D811D1124911DB29F700D811DAA
:104A60001124911D08955058BB27AA270E944B2559
:104A70000C9476240E94682438F00E946F2420F061
:104A800039F49F3F19F426F40C9465240EF4E09554
:104A9000E7FB0C945F24E92F0E94872458F3BA1790
:104AA000620773078407950720F079F4A6F50C9444
:104AB000A9240EF4E0950B2EBA2FA02D0B01B901FD
:104AC00090010C01CA01A0011124FF27591B99F084
:104AD000593F50F4503E68F11A16F040A22F232F90
:104AE000342F4427585FF3CF469537952795A795E0
:104AF000F0405395C9F77EF41F16BA0B620B730B87
:104B0000840BBAF09150A1F0FF0FBB1F661F771FF7
:104B1000881FC2F70EC0BA0F621F731F841F48F4AC
:104B2000879577956795B795F7959E3F08F0B0CF35
:104B30009395880F08F09927EE0F9795879508951C
:104B40000E94B4250C9476240E946F2458F00E9491
:104B5000682440F029F45F3F29F00C945F24511140
:104B60000C94AA240C9465240E94872468F399234A
:104B7000B1F3552391F3951B550BBB27AA27621759
:104B80007307840738F09F5F5F4F220F331F441F66
:104B9000AA1FA9F335D00E2E3AF0E0E832D091509A
:104BA0005040E695001CCAF72BD0FE2F29D0660F87
:104BB000771F881FBB1F261737074807AB07B0E8CA
:104BC00009F0BB0B802DBF01FF2793585F4F3AF0D0
:104BD0009E3F510578F00C945F240C94AA245F3F0B
:104BE000E4F3983ED4F3869577956795B795F79556
:104BF0009F5FC9F7880F911D9695879597F908953E
:104C0000E1E0660F771F881FBB1F621773078407D9
:104C1000BA0720F0621B730B840BBA0BEE1F88F7E8
:104C2000E09508950E948F2488F09F5798F0B92F3F
:104C30009927B751B0F0E1F0660F771F881F991FD1
:104C40001AF0BA95C9F714C0B13091F00E94A924A6
:104C5000B1E008950C94A924672F782F8827B85FB6
:104C600039F0B93FCCF3869577956795B395D9F729
:104C70003EF490958095709561957F4F8F4F9F4F33
:104C800008950E94CE2308F48FEF08950E94CE234A
:104C9000880B990B089597FB072E16F4009407D004
:104CA00077FD09D00E94652607FC05D03EF490955B
:104CB00081959F4F0895709561957F4F0895EE0FF0
:104CC000FF1F0590F491E02D0994AA1BBB1B51E135
:104CD00007C0AA1FBB1FA617B70710F0A61BB70B6C
:104CE000881F991F5A95A9F780959095BC01CD0111
:104CF00008950F931F93CF93DF938230910510F4A3
:104D000082E090E0E091A105F091A20520E030E082
:104D1000A0E0B0E0309719F1408151810281138108
:104D200048175907C8F08417950769F4109731F0B0
:104D300012960C93129713961C9327C00093A1050B
:104D40001093A20522C02115310519F0421753070F
:104D500018F49A01BD01EF01DF01F801DBCF211545
:104D60003105F9F0281B390B2430310580F48A8194
:104D70009B816115710521F0FB019383828304C03F
:104D80009093A2058093A105FE01329644C0FE01D6
:104D9000E20FF31F819391932250310939832883C5
:104DA0003AC020919F053091A005232B41F420911A
:104DB0001001309111013093A00520939F0520919F
:104DC0000E0130910F012115310541F42DB73EB789
:104DD0004091120150911301241B350BE0919F0566
:104DE000F091A005E217F307A0F42E1B3F0B281744
:104DF000390778F0AC014E5F5F4F2417350748F054
:104E00004E0F5F1F5093A00540939F058193919390
:104E100002C0E0E0F0E0CF01DF91CF911F910F9150
:104E20000895CF93DF93009709F481C0FC01329776
:104E300013821282A091A105B091A205109781F46E
:104E400020813181820F931F20919F053091A00511
:104E50002817390751F5F093A005E0939F0567C027
:104E6000ED0120E030E0CE17DF0740F44A815B819E
:104E70009E0141155105F1F0EA01F5CFD383C283BC
:104E800040815181840F951FC817D90759F4888133
:104E90009981840F951F0296918380838A819B81DB
:104EA000938382832115310529F4F093A205E093C1
:104EB000A1053DC0E901FB83EA8349915991C40FE3
:104EC000D51FEC17FD0761F480819181840F951F38
:104ED0000296E90199838883828193819B838A83E7
:104EE000E0E0F0E012968D919C911397009719F0F5
:104EF000FD01DC01F7CF8D919C9111979D012E5FF3
:104F00003F4F820F931F20919F053091A0052817D6
:104F1000390769F4309729F41092A2051092A1057F
:104F200002C013821282B093A005A0939F05DF9167
:104F3000CF910895A0E0B0E0E0EAF7E20C94F1240C
:104F4000EC01009721F4CB010E947926B4C0FC014A
:104F5000E60FF71F9C0122503109E217F30708F40E
:104F6000A8C0D9010D911C91119706171707B0F031
:104F70000530110508F49BC0C801049786179707F0
:104F800008F495C002501109061B170B01931193E9
:104F90006D937C93CF010E94112789C05B01A01AF9
:104FA000B10A4C01800E911EA091A105B091A205FD
:104FB000612C712CE12CF12C109709F446C08D91D5
:104FC0009C911197A815B905B1F56C0142E0C40E8A
:104FD000D11CCA14DB0478F14C018A189B086401C7
:104FE00042E0C40ED11C1296BC9012971396AC915D
:104FF000B5E0CB16D10440F0B282A38391828082C7
:10500000D9016D937C9309C00E5F1F4F800F911FD4
:10501000F90191838083EB2DFA2FE114F10431F033
:10502000D7011396FC93EE93129741C0F093A2051B
:10503000E093A1053CC06816790608F43C017D01A7
:1050400012960D90BC91A02DB7CF80919F059091A5
:10505000A00588169906E1F466167706C8F48091D3
:105060000E0190910F01009741F48DB79EB74091CA
:10507000120150911301841B950BE817F907C8F42E
:10508000F093A005E0939F05F901718360830FC041
:10509000CB010E9479267C01009759F0A801BE013E
:1050A0000E947228CE010E941127C70104C0CE01C0
:1050B00002C080E090E0CDB7DEB7EEE00C940D25A5
:1050C00081E090E0F8940C949C28FB01DC0104C082
:1050D0008D910190801921F441505040C8F7881BF0
:1050E000990B0895FB01DC0102C001900D92415023
:1050F0005040D8F70895FC018191861721F088234C
:10510000D9F7992708953197CF010895FB01DC0164
:1051100001900D920020E1F70895FB01DC01415060
:10512000504048F001900D920020C9F701C01D9237
:0C51300041505040E0F70895F894FFCF84
:10513C00FFFFFFFF8025140819320000000100005A
:10514C00A3058000000000009A1733175D17E717BE
:10515C00C7006C17801700000000A306331724103B
:10516C002310000000000D102F1024102710EC0F3E
:10517C0040144A14000000008E173317241023101B
:10518C008E178E178E17000000008E173317241001
:10519C00231000000000F401331724102310F30037
:1051AC00DD0024106E616E00696E66006F7666001D
:1051BC002C002F006770736C6F672E637376000D75
:1051CC000A007365747430696E67732E63737600AE
:0E51DC0073657474696E67732E6373760000DA
:00000001FF
