:100000000C9482000C94AA000C94AA000C94891DF4
:100010000C94641D0C943F1D0C94AE1D0C94AA000E
:100020000C94AA000C94AA000C94AA000C94AA00A8
:100030000C94AA000C94AA000C94AA000C94AA0098
:100040000C94F51C0C94AA000C94C31C0C949D1CDD
:100050000C94AA000C94AA000C94AA000C94AA0078
:100060000C94AA000C94AA005A444100565447002C
:10007000524D4300475356004753540047534100E5
:10008000474C4C00474741007C3C3E5E2B3D3F2F98
:100090005B5D3B2C2A225C0000000008000201008E
:1000A000000304070000000000000000840080003E
:1000B0007C007800740070006C0068000000000094
:1000C000250028002B000000000023002600290046
:1000D00000000000240027002A000102040810206C
:1000E00040800102040810200102040810200404CA
:1000F00004040404040402020202020203030303D0
:100100000303B91D11241FBECFEFD8E0DEBFCDBF62
:1001100025E0A0E8B1E001C01D92A537B207E1F7E4
:1001200011E0A0E0B1E0E2E8FCE402C005900D922D
:10013000A038B107D9F710E0C2E8D0E004C0219799
:10014000FE010E94D924C138D107C9F70E94501E70
:100150000C943F260C940000FC0180914B0581110A
:100160001AC0118210821382128280914D05826022
:1001700080934D0510924C0591E06D3209F090E0AE
:1001800080914D0590FB80F980934D056D3209F00B
:100190006EC080E008956C3299F580914C05811114
:1001A00003C081E080934C0582819381892B99F073
:1001B0005AE080914C0591E0980F90934C054817B8
:1001C00050F022813381529FC001539F900D112422
:1001D00093838283EECF90914D05892F817090FF9C
:1001E00044C02281338131952195310933832283A3
:1001F0002081318131952195310931832083089502
:100200006E3221F481E080934C05C3CF80914C0580
:10021000811112C0208131814AE0429FC001439F79
:10022000900D1124062E000C770B60537109680F96
:10023000791F71836083ADCF91E0980F90934C0547
:10024000481708F4A6CF228133814AE0429FC001BB
:10025000439F900D1124062E000C770B60537109FB
:10026000680F791F7383628394CF81E008956C32A5
:1002700009F497CF6E3271F6C5CF813311F0813416
:1002800021F483E08093470508C0803321F08E3449
:1002900011F0863541F41092470580914805816040
:1002A000809348050895823311F0843411F484E07A
:1002B000E9CF833311F487E0E5CF843311F486E08E
:1002C000E1CF853311F485E0DDCF863311F085343D
:1002D00049F781E0D7CFE0914B05E930F0F4F0E049
:1002E000EC58FE4F0C94D9247D018F0194019C01A0
:1002F000A101A901AE01B601C001109246058C32E0
:1003000061F090914D05926090934D0580539AE075
:10031000899F802D11248093410581E0089590915B
:1003200041059053890FF7CF80539AE0899F802D24
:10033000112480934005F1CF909140059053890F8F
:10034000F8CF80539AE0899F802D112480933F0538
:10035000E4CF90913F059053890FF8CF8C32E9F6A6
:1003600080914805846080934805D7CF8C32C1F3D3
:1003700080539AE0899F802D112480934605CDCF2C
:100380008C3271F3909146059053890F8093460506
:10039000E7CFCF93DF93FC01828193819093D204C6
:1003A0008093D10484819581A681B7818093D30401
:1003B0009093D404A093D504B093D60480859185FE
:1003C000A285B3858093D7049093D804A093D904D1
:1003D000B093DA04DF011C96CF014996CBEDD4E04F
:1003E0002D912993A817B907D9F7818D928D9093F4
:1003F000E9048093E8048FEC94E0DF91CF910895B5
:100400000895AF92BF92CF92DF92EF92FF920F9337
:100410001F93CF93DF936C017B018B01040F151F9A
:10042000EB015E01AE18BF08C017D10759F0699102
:10043000D601ED91FC910190F081E02DC601099566
:10044000892B79F7C501DF91CF911F910F91FF9013
:10045000EF90DF90CF90BF90AF900895FC01538D47
:10046000448D252F30E0842F90E0821B930B54178E
:1004700010F0CF96089501970895FC01918D828D1B
:10048000981761F0A28DAE0FBF2FB11D5D968C91B4
:10049000928D9F5F9F73928F90E008958FEF9FEFF3
:1004A0000895FC01918D828D981731F0828DE80FAF
:1004B000F11D858D90E008958FEF9FEF0895FC0169
:1004C000918D228D892F90E0805C9F4F821B910936
:1004D0008F739927089587EE93E00E945F0221E0D1
:1004E000892B09F420E0822F089580E090E0892B89
:1004F00029F00E946B0281110C9400000895FC0108
:10050000A48DA80FB92FB11DA35ABF4F2C91848D74
:1005100090E001968F739927848FA689B7892C93D1
:10052000A089B1898C91837080648C93938D848D24
:10053000981306C00288F389E02D80818F7D808327
:100540000895EF92FF920F931F93CF93DF93EC01E7
:1005500081E0888F9B8D8C8D98131AC0E889F9896A
:10056000808185FF15C09FB7F894EE89FF8960836D
:10057000E889F98980818370806480839FBF81E0EE
:1005800090E0DF91CF911F910F91FF90EF90089530
:10059000F62E0B8D10E00F5F1F4F0F731127E02E0B
:1005A0008C8D8E110CC00FB607FCFACFE889F98943
:1005B000808185FFF5CFCE010E947F02F1CFEB8DC8
:1005C000EC0FFD2FF11DE35AFF4FF0829FB7F89417
:1005D0000B8FEA89FB8980818062CFCFCF93DF9335
:1005E000EC01888D8823B9F0AA89BB89E889F9894B
:1005F0008C9185FD03C0808186FD0DC00FB607FC80
:10060000F7CF8C9185FFF2CF808185FFEDCFCE01B2
:100610000E947F02E9CFDF91CF91089590E0FC0125
:10062000E856FF4F2491FC01E652FF4F3491FC0144
:10063000E251FF4FE491EE23C9F0222339F0233039
:1006400001F1A8F4213019F1223029F1F0E0EE0F88
:10065000FF1FE454FF4FA591B4918FB7F894EC912C
:10066000611126C030953E233C938FBF08952730FB
:10067000A9F02830C9F0243049F7809180008F7D9F
:1006800003C0809180008F7780938000DFCF84B596
:100690008F7784BDDBCF84B58F7DFBCF8091B00099
:1006A0008F778093B000D2CF8091B0008F7DF9CF4B
:1006B0003E2BDACFCF93DF9390E0FC01E652FF4F61
:1006C000249182519F4FFC0184918823D1F090E0C6
:1006D000880F991FFC01E053FF4FA591B491FC01D5
:1006E000E454FF4FC591D49161110EC09FB7F894A7
:1006F0008C91E22FE0958E238C932881E223E8836E
:100700009FBFDF91CF9108958FB7F894EC91E22BC2
:10071000EC938FBFF6CFCF93DF93A091E201B0911E
:10072000E301109709F443C01C968C911C97EDE6E9
:10073000F0E0883050F0EBE6F0E08E3030F0ECE6A0
:10074000F0E0863110F0F0E0E0E05FB7F89410924E
:10075000E3011092E201309749F11C968C911C97AD
:10076000C8E6D0E0863110F0D0E0C0E028818830C3
:1007700008F46FC031E08E3008F430E081E090E0A2
:1007800001C0880F3A95EAF78095822388836081BB
:100790001C964C91483008F05EC081E090E001C0AA
:1007A000880F4A95EAF78095862380835FBF60E0D3
:1007B0008091F6040E945A038091F60490E0FC01B7
:1007C000E652FF4FE491E093E101FC01E251FF4F5B
:1007D000E491F0E0EE0FFF1FEA53FF4F85919491F3
:1007E0009093F9048093F8048091F70490E0FC0161
:1007F000E652FF4F24912093E001FC01E251FF4FAC
:10080000E491F0E0EE0FFF1FE454FF4FA591B49187
:10081000B093DF01A093DE01109719F0EC91E22B69
:10082000EC9361E08091F7040E945A031092B000AB
:1008300083E08093B1008091F6048830E0F08E3040
:1008400008F45CC0ECE6F0E08631B8F0DF91CF91BF
:1008500008958BEF9ACF242F30E04E3048F4285083
:10086000310981E090E001C0880F2A95EAF79BCF1B
:100870002E503109F6CFEDE6F0E08FEF8093DD01E9
:100880001092DC011092DB018091FA049091FB043C
:1008900081152BE49207E1F1A0F58038954209F427
:1008A0003FC05FB7F89440819091F604983008F00B
:1008B00041C081E001C0880F9A95EAF7842B8083BC
:1008C0008091F604E8E6F0E0863110F0F0E0E0E038
:1008D00090818830F0F121E08E3008F420E081E052
:1008E00001C0880F2A95EAF7892B80838AEE94E06D
:1008F0009093E3018093E2015FBFA8CFEBE6F0E0C5
:10090000BCCF82312AE7920719F08115964949F642
:100910008DE08093DA018EE48093D90186E007C0F0
:100920008AE18093DA0187E28093D9018AE080939B
:10093000D801B7CF292F30E09E3040F4285031093C
:1009400081E001C0880F2A95EAF7B8CF2E5031090F
:10095000F7CF84E0C9CF1F93CF93DF93182FEB011C
:1009600061E00E945A03209739F460E0812FDF9103
:10097000CF911F910C940E03CF3FD10511F461E08C
:10098000F5CFE12FF0E0E856FF4FE491E33031F18D
:1009900040F4E130B1F0E230E1F0C038D1057CF74D
:1009A000E4CFE73029F1E83059F1E430B1F7809134
:1009B0008000806280938000D0938B00C0938A0077
:1009C00004C084B5806884BDC7BDDF91CF911F91FD
:1009D000089584B5806284BDC8BDF7CF8091800042
:1009E000806880938000D0938900C0938800EDCF09
:1009F0008091B00080688093B000C093B300E5CFD1
:100A00008091B00080628093B000C093B400DDCFCD
:100A10003FB7F8948091CF019091D001A091D1017E
:100A2000B091D20126B5A89B05C02F3F19F00196C1
:100A3000A11DB11D3FBFBA2FA92F982F8827BC0138
:100A4000CD01620F711D811D911D43E0660F771F5F
:100A5000881F991F4A95D1F708958F929F92AF9260
:100A6000BF92CF92DF92EF92FF924B015C010E9406
:100A700008056B017C010E9408056C197D098E092F
:100A80009F09683E734081059105A8F321E0821A11
:100A90009108A108B10888EEC80E83E0D81EE11CB9
:100AA000F11C81149104A104B10429F7FF90EF9087
:100AB000DF90CF90BF90AF909F908F9008952FB709
:100AC000F8946091CB017091CC018091CD0190910F
:100AD000CE012FBF0895E091E201F091E30130973C
:100AE000C1F00288F389E02D309709F00994209134
:100AF000DB0130E0A9014F5F5F4F4F7355279091A5
:100B0000DC01941731F026573E4FF9018083409362
:100B1000DB010895CF93DF93EC013091DD013F3F7E
:100B200099F1AE85BF858C919091E101892361F1A6
:100B30002091B20099E0931B8091D801280F8091F9
:100B40008901281B8091D901289F90011124232F0E
:100B500033272695269592171306B0F480918801C5
:100B600020918701915018F0822B220FFBCF8093A8
:100B70008801209387019093DD010E946B0581E03D
:100B80002A893B89232B09F080E0DF91CF910895DA
:100B9000EF92FF920F931F93CF93DF93E090B200F9
:100BA000F090E101F8229091DD019F3F91F4F11066
:100BB00009C01092DD0181E08093870110928801C5
:100BC000E0928901DF91CF911F910F91FF90EF90FB
:100BD0000895C091D801CE0D80918901C81B8091E4
:100BE000D901C89FE0011124CD2FDD27C695C695F8
:100BF00029E0291B022F10E00C171D0708F02C2FED
:100C0000920F9093DD014091870180918801F1104E
:100C100011C02150342F330F2F3F19F0842B432F55
:100C2000F8CF8093880130938701983048F20E9472
:100C30006B0513C02150330B01C0440F2A95EAF70E
:100C400040938701842B80938801983008F4B8CFB3
:100C50000E946B0581E0F81621F00C171D0708F4BF
:100C6000A8CF8FEF8093DD01ABCFCF92DF92EF92D1
:100C7000FF920F931F93CF93DF938C01E62E809109
:100C8000DE019091DF01892B09F453C0D8011C9635
:100C90009C91C4E0983048F081E09E3008F480E0F8
:100CA000C1E001C0CC0F8A95EAF7CFB6F894D09195
:100CB000B2008AE0D82E90E0E091DE01F091DF01F1
:100CC0008091E001DA94DD2039F19923C1F090811F
:100CD000892B8083F090DA018091B2008D1B8F15F3
:100CE000B0F48BB38C2379F08BB38C2B8BBBD801F6
:100CF0001E96ED91FC9180810E94C805EDCF9081F8
:100D000080958923E6CFC8010E948A05E5CFDF0DD3
:100D10009E2D9170E694D0CF9081892B8083CFBE99
:100D20008091B2008D1B8F1578F4C8010E948A054E
:100D3000F7CF90E080E0DF91CF911F910F91FF906E
:100D4000EF90DF90CF90089581E090E0F4CF209174
:100D5000DC018091DB01821769F030E0F901E65790
:100D6000FE4F80812F5F3F4F2F7333272093DC018D
:100D700090E008958FEF9FEF08959C018091DB0133
:100D80009091DC01891B990B805C9F4F60E470E0BF
:100D90000E94C524811105C0C901F8940E948A05EA
:100DA000789490E008958FB7F894809181018FBF77
:100DB000089561E0FC0184810E940E03809180010E
:100DC00081111092800108958EBD00000DB407FEC0
:100DD000FDCF8EB508958FEF0C94E4060F931F930B
:100DE000CF93DF93EC010E945F058B010E94EB061D
:100DF0008F3F69F00E945F05601B710B6C177D07C8
:100E0000A8F380E0DF91CF911F910F91089581E0C9
:100E1000F9CF8CBD9DBD0895CF93DF93EC018091F8
:100E20008001811109C081E0809380018091840458
:100E3000909185040E94090760E08C81DF91CF9139
:100E40000C940E038F929F92AF92BF92FF920F93DA
:100E50001F93CF93DF93EC01F62E49015A018E8147
:100E6000882389F08F8198859C012F5F3F4F3887B9
:100E70002F838230924018F40E94EB06F3CFCE010C
:100E80000E94D9061E82CE010E940C078CE291E0DE
:100E90000E94EE068F2D80640E94E40608E110E0B7
:100EA000D501C401002E04C0B695A79597958795E6
:100EB0000A94D2F70E94E40608501109083F8FEF08
:100EC000180771F785E9FF2021F028E087E8F21282
:100ED0008FEF0E94E40610E00E94EB068A8787FFEE
:100EE00004C01F3F11F01F5FF7CFDF91CF911F911B
:100EF0000F91FF90BF90AF909F908F900895AF9209
:100F0000BF92CF92DF92EF92FF920F931F93CF93F6
:100F1000DF93EC016901C801820F931F8130924079
:100F200050F58E81882379F088819981AA81BB81CF
:100F300084179507A607B70731F48F819885C816DF
:100F4000D90608F042C0488359836A837B838B8526
:100F5000833039F089E0440F551F661F771F8A954B
:100F6000D1F79A01AB0161E1CE010E9422078823EB
:100F700089F083E08D83CE010E94D90680E0DF9165
:100F8000CF911F910F91FF90EF90DF90CF90BF9086
:100F9000AF9008950E945F055B010E94EB068A876F
:100FA0008F3F69F40E945F056A197B096D327140B9
:100FB000A0F38FE08D83CE010E94D906DCCF8E3F57
:100FC00089F418861F8281E08E838F8198858C1525
:100FD0009D0550F40E94EB068F81988501969887B5
:100FE0008F83F3CF8DE0E6CF6701E00EF11E0E9404
:100FF000EB06F60181936F01EE15FF05C1F78F81B6
:101000009885080F191F18870F838985882319F081
:1010100001151240A0F08E81882389F08F81988578
:101020009C012F5F3F4F38872F838230924018F406
:101030000E94EB06F3CFCE010E94D9061E8281E00A
:101040009ECFCF92DF92EF92FF920F93CF93DF93D9
:10105000EC01690182E1411551056105710599F0C5
:101060008B85833039F089E0440F551F661F771F49
:101070008A95D1F79A01AB0168E1CE010E9422075F
:10108000882319F084E08D832DC08EEF0E94E40642
:1010900076018EEFD81AF70181917F010E94E40654
:1010A000EC14FD04C1F78FEF0E94E4068FEF0E945D
:1010B000E4060E94EB068A878F71853071F4011176
:1010C00016C0CE010E94D90681E0DF91CF910F9129
:1010D000FF90EF90DF90CF90089581E18D83CE0156
:1010E0000E94D906CE010E94D90680E0EECF88E5A5
:1010F00092E00E94EE06811102C085E1C4CF20E09B
:1011000030E0A9016DE0CE010E942207882311F092
:1011100084E1B9CF0E94EB068111FACFD2CF0F93B1
:101120004091830150918401609185017091860105
:10113000411551056105710599F0082F25EE31E043
:101140008091E5039091E6030E942108882349F0ED
:1011500010928301109284011092850110928601F1
:1011600081E00F9108950F93CF93C82F8091820152
:10117000811105C0C1E08C2FCF910F91089540914E
:1011800000015091010160910201709103010C2F47
:1011900025EE31E08091E5039091E6030E9421085D
:1011A000811102C0C0E0E7CFCC2321F381E00E948F
:1011B0008F088823B9F310928201DDCF8F929F921E
:1011C000AF92BF92EF92FF920F931F93CF934B0179
:1011D0005C01C42F8091000190910101A091020156
:1011E000B091030188159905AA05BB0551F181E06D
:1011F0000E94B30881110BC080E0CF911F910F9125
:10120000FF90EF90BF90AF909F908F90089585EEE4
:10121000E82E81E0F82E00E012E030E020E0B50199
:10122000A4018091E5039091E6030E947F07882343
:1012300019F38092000190920101A0920201B092F4
:101240000301409182014C2B4093820181E0D5CF74
:101250008F929F92AF92BF92CF92DF92EF92FF92C6
:10126000CF9326E834E03093E6032093E503882308
:1012700009F46DC040E060E070E0CB010E94DE0840
:1012800081110BC080E0CF91FF90EF90DF90CF9065
:10129000BF90AF909F908F9008958091A3038F7718
:1012A00089F78091AF039091B003A091B103B09101
:1012B000B20384369105A105B10520F3C090AB03BC
:1012C000D090AC03E090AD03F090AE03C114D10414
:1012D000E104F104B9F240E0C701B6010E94DE0862
:1012E000882381F28091F0019091F1018115924063
:1012F00049F6A091F501AA2329F26091F3017091BA
:10130000F4016115710509F4BDCF2091F20122238A
:1013100009F4B8CFA093A4042093960490E080E051
:1013200030E0E1E0F0E0C82FAF01082E02C0440F2A
:10133000551F0A94E2F72417350769F041E0480F7A
:1013400001968930910579F740939F049BCFC12C7A
:10135000D12C7601C0CF80939F042091FB01309166
:10136000FC0150E040E02115310541F420910902D3
:1013700030910A0240910B0250910C022093970485
:10138000309398044093990450939A04460157016E
:10139000860E971EA11CB11C8092A5049092A604F3
:1013A000A092A704B092A804E091F601F091F70191
:1013B000F093AB04E093AA04B0E00E946F22DC013A
:1013C000CB01880D991DAA1DBB1D8093AC04909381
:1013D000AD04A093AE04B093AF0425E0EE0FFF1F61
:1013E0002A95E1F7E150FE4FEF2FFF27E6958E0F8C
:1013F0009F1FA11DB11D8093A0049093A104A093F1
:10140000A204B093A3048090F8019090F901B12C4C
:10141000A12C8114910441F4809005029090060261
:10142000A0900702B0900802C81AD90AEA0AFB0A7B
:10143000C80CD91CEA1CFB1C04C0F694E794D79492
:10144000C794CA95D2F7C0929B04D0929C04E092B4
:101450009D04F0929E0485EFC8168FE0D806E10443
:10146000F10428F48CE08093A90481E00CCF80E1A2
:1014700025EFC2162FEFD206E104F104A0F380910C
:10148000110290911202A0911302B0911402809364
:10149000AC049093AD04A093AE04B093AF0480E28B
:1014A000E2CF4F925F926F927F928F929F92AF9214
:1014B000BF92CF92DF92EF92FF920F931F93CF9341
:1014C000DF93EC01423051056105710590F480E035
:1014D000DF91CF911F910F91FF90EF90DF90CF9010
:1014E000BF90AF909F908F907F906F905F904F9044
:1014F000089589859A85AB85BC850196A11DB11D8E
:1015000084179507A607B70710F3CB88DC88ED880A
:10151000FE888F89803109F042C0BB27A72F962F04
:10152000852F480159012A013B01C80ED91EEA1E28
:10153000FB1E8091000190910101A0910201B091E8
:101540000301C816D906EA06FB0699F58F89803192
:10155000C1F5B301A201552766277727440F551F10
:101560004B515E4FFA0191828082809182018160AD
:10157000809382018A89823080F08D819E81AF8143
:10158000B8858C0D9D1DAE1DBF1D8093830190936A
:101590008401A0938501B093860181E099CFDB019E
:1015A000CA01E7E0B695A79597958795EA95D1F793
:1015B000B8CF40E0C701B6010E94DE088111C6CF56
:1015C00086CFB301A2014F77552766277727440FAF
:1015D000551F440F551F4B515E4FFA018082918277
:1015E000A282B382C2CF8F929F92AF92BF92CF92CC
:1015F000DF92EF92FF920F931F93CF93DF93FC0143
:1016000081859285A385B4850196A11DB11D84179E
:101610009507A607B70770F480E0DF91CF911F917F
:101620000F91FF90EF90DF90CF90BF90AF909F9081
:101630008F90089583889488A588B688878980319B
:1016400089F5BB27A72F962F852FE9016A017B011A
:101650008F01BC01CD01680D791D8A1D9B1D8090F5
:10166000000190900101A0900201B0900301861644
:101670009706A806B90601F5F8018789803111F5AA
:10168000DD24EE24FF24F601EE0FFF1FEB51FE4F89
:1016900080819181B0E0A0E088839983AA83BB8395
:1016A00081E0BBCFDB01CA01C7E0B695A79597954E
:1016B0008795CA95D1F7C9CF40E00E94DE08811115
:1016C000DBCFAACFE894C7F8DD24EE24FF24F6018F
:1016D000EE0FFF1FEE0FFF1FEB51FE4F8081918138
:1016E000A281B381BF70D8CF4F925F926F927F92E9
:1016F000AF92BF92CF92DF92EF92FF920F931F9320
:10170000CF93DF9300D000D0CDB7DEB78C014983F3
:101710005A836B837C835901C12CD12C7601412CD7
:1017200082E0582E612C712C49815A816B817C8119
:101730009E012F5F3F4FC8010E94F30A882339F1B1
:10174000F8018585A301920104C0220F331F441FB5
:10175000551F8A95D2F7DA01C901C80ED91EEA1EB3
:10176000FB1E49815A816B817C818789803111F10F
:1017700088EF9FEFAFEFBFE0481759076A077B0775
:1017800098F2F501C082D182E282F38281E00F906B
:101790000F900F900F90DF91CF911F910F91FF90BD
:1017A000EF90DF90CF90BF90AF907F906F905F9061
:1017B0004F90089588EF9FEFA0E0B0E0DDCFCF938A
:1017C000DF93FC012581222321F080E0DF91CF917E
:1017D0000895EC018091A904803159F582E0858358
:1017E000178A108E118E128E8091AA049091AB04EC
:1017F000B0E0A0E025E0880F991FAA1FBB1F2A9523
:10180000D1F7838B948BA58BB68B82E994E09C8F68
:101810008B8F81E08C831E821F82188619861A8620
:101820001B861C861D861E861F86188A198A1A8AA0
:10183000CDCF803251F683E085834091AC04509146
:10184000AD046091AE047091AF04478B508F618FEF
:10185000728F9F012D5E3F4F82E994E00E94740BCE
:101860008111D3CFB2CF8F929F92AF92BF92CF927E
:10187000DF92EF92FF920F931F93CF93DF93EC01D0
:101880008D8181110EC080E0DF91CF911F910F916A
:10189000FF90EF90DF90CF90BF90AF909F908F9090
:1018A00008950B891C892D893E8904171507260781
:1018B000370748F34A015B01823031F48A869B8600
:1018C000AC86BD8681E0E0CF81149104A104B1040F
:1018D00049F41E821F82188619861A861B861C866A
:1018E0001D86F0CF0A851B852C853D85EB8DFC8DF3
:1018F000858590E00996B901A80141505109610917
:101900007109082E04C076956795579547950A94F6
:10191000D2F775016401E1E0CE1AD108E108F108BF
:1019200004C0F694E794D794C7948A95D2F7C41666
:10193000D506E606F70620F0012B022B032B11F546
:101940008F89988DA98DBA8D8E839F83A887B9873B
:101950008E010A5F1F4FC114D104E104F10409F4A0
:10196000ADCF4E815F816885798598018B8D9C8D87
:101970000E94F30A91E0C91AD108E108F108811127
:10198000EACF81CFC41AD50AE60AF70AE1CF3F921F
:101990004F925F926F927F928F929F92AF92BF927F
:1019A000CF92DF92EF92FF920F931F93CF93DF932B
:1019B000CDB7DEB72C970FB6F894DEBF0FBECDBF04
:1019C0005C01DC015B968D909C905C9716964D9027
:1019D0005D906D907C9019974114510461047104DD
:1019E00009F468C0BFEF4B1A5B0A6B0A7B0A312C03
:1019F000F40181859285A385B4859C01AD012F5F9B
:101A00003F4F4F4F5F4F29873A874B875C87730162
:101A100062011D821E821F821886F40181859285D3
:101A2000A385B4852D813E814F81588528173907BC
:101A30004A075B0708F056C089859A85AB85BC8547
:101A40008C159D05AE05BF0550F482E0C82ED12C43
:101A5000E12CF12C92E0492E512C612C712C9E012D
:101A60002F5F3F4FB701A601C4010E94F30A8823EC
:101A7000C9F189819A81AB81BC81892B8A2B8B2BFF
:101A800009F1260137019FEF491A590A690A790AB3
:101A90002D813E814F8158852F5F3F4F4F4F5F4FC4
:101AA0002D833E834F8358873FEFC31AD30AE30A3F
:101AB000F30AB3CFF40140805180628073803324F5
:101AC000339496CFC414D504E604F70409F70FEF56
:101AD0001FEF2FEF3FE0B701A601C4010E94510A9A
:101AE000811119C080E02C960FB6F894DEBF0FBEAE
:101AF000CDBFDF91CF911F910F91FF90EF90DF90BD
:101B0000CF90BF90AF909F908F907F906F905F909D
:101B10004F903F900895D50116964D915D916D912E
:101B20007C911997411551056105710539F09701AF
:101B30008601C4010E94510A8823A1F2D50116969C
:101B4000CD92DD92ED92FC921997332051F0D7019E
:101B5000C6010196A11DB11DF40180839183A2836A
:101B6000B383F5018789908DA18DB28D892B8A2B46
:101B70008B2B39F48481C78AD08EE18EF28E8068F7
:101B80008483F50184818062848381E0ACCF1F93DC
:101B9000CF93DF93FC0125812223D1F1162FEC0195
:101BA000848187FF2AC0668577858089918941E095
:101BB0000E94DE08882361F1EA8980E2E89FF00153
:101BC0001124EB51FE4F309719F18D81823040F492
:101BD0008B899C89AD89BE89848F958FA68FB78F9D
:101BE0008F89988D938F828F8F89988DA98DBA8DCB
:101BF000B58BA48B8C818F778C83111103C08C8162
:101C00008F7E8C83812FDF91CF911F910C94B3082D
:101C100080E0DF91CF911F910895FF920F931F9362
:101C2000CF93DF93EC018D81813041F090E080E033
:101C3000DF91CF911F910F91FF9008958C8181FFCB
:101C4000F5CF82FD1BC00091E5031091E603C801AA
:101C50000E940C070E94EB06F82EC8010E94D906CC
:101C60008FEFF812E3CF8C8185FF1BC060E0CE01BF
:101C70000E94C70D8C818F7D8C83D8CF4B895C8966
:101C80006D897E898A859B85AC85BD85841795077E
:101C9000A607B707C1F2CE010E94330C8111D3CF42
:101CA000C5CF40918301509184016091850170916D
:101CB0008601452B462B472B21F080E00E948F08A0
:101CC000B5CF80618C832A853B85317080E092E0BE
:101CD000821B930BADCFCF93DF93EC0161E00E94A9
:101CE000C70D882311F01D8281E0DF91CF91089507
:101CF000CF92DF92EF92FF921F93CF93DF93809169
:101D0000B504882321F080EB94E00E946B0E1092C2
:101D1000910410928F0410928C0410928B0488E02E
:101D200080938A040E945F05EB0161E080918A0440
:101D30000E945A0361E080918A040E940E031FB73B
:101D4000F8948091E401811127C0E8EFF0E08491DC
:101D5000E4EEF0E09491E82FF0E0EE0FFF1FE05387
:101D6000FF4FA591B491EC91E92321F461E08AE061
:101D70000E940E0361E08AE00E945A038CB58061E4
:101D80008CBD8CB580648CBD61E08DE00E945A03EF
:101D900061E08BE00E945A038091E4018F5F8093A1
:101DA000E4011FBF82E58093840481E08093850471
:101DB00080918404909185040E9409071AE08FEFB6
:101DC0000E94E4061150D9F786E894E00E940C07BF
:101DD00020E030E0A90160E086E894E00E9422075C
:101DE000182F80939004813081F00E945F056C1B56
:101DF0007D0B613D774060F381E080938B0486E842
:101E000094E00E94D90690E078C02AEA31E040E0F0
:101E100050E068E086E894E00E94220782FF2AC032
:101E20001093910480919104C12CD12C76018230C1
:101E300029F4C12CD12CE12C80E4F82E20E030E0F4
:101E4000A90167E386E894E00E942207A7019601B2
:101E500069E286E894E00E94220780939004882338
:101E6000C1F00E945F056C1B7D0B613D774030F334
:101E700088E0C3CF14E00E94EB06809390041150D9
:101E8000D1F78A3A11F082E0B8CF82E080939104D2
:101E9000C9CF809191048230D1F420E030E0A901D3
:101EA0006AE386E894E00E942207882311F086E026
:101EB000A4CF0E94EB06807C803C19F483E08093E1
:101EC00091040E94EB060E94EB060E94EB0686E856
:101ED00094E00E94D90680E58093840481E0809399
:101EE00085040E942809882389F080EB94E00E94F1
:101EF000DF0B91E0882309F486CF892FDF91CF9102
:101F00001F91FF90EF90DF90CF90089580E00E94A6
:101F10002809882309F477CFE8CF2F923F924F9278
:101F20005F926F927F928F929F92AF92BF92CF9269
:101F3000DF92EF92FF920F931F93CF93DF9300D026
:101F400000D01F92CDB7DEB77C015B01342E5D83DC
:101F5000DC0115968C911597813009F0CEC014964E
:101F60002C9021FECAC022FCB4C0C32CDD80229478
:101F70007FE027222094B22DB1702B2ED7011A9624
:101F80004D915D916D917C911D97C114D10409F41F
:101F900028C15B968D919C915C97FC0174807A942A
:101FA0008A019B0169E036952795179507956A95F3
:101FB000D1F770228A011170711020C0011511052E
:101FC000E9F416964D915D916D917C9119974115AB
:101FD00051056105710509F099C057968D919D9144
:101FE0000D90BC91A02D0097A105B10509F0B0C0DE
:101FF000C7010E94C70C882309F47FC080E092E0EB
:10200000801B910B46018C159D0508F44C01D701EE
:102010005B964D915C915C9716968D919D910D907C
:10202000BC91A02D0297A109B109FA01258504C030
:10203000880F991FAA1FBB1F2A95D2F7468557857F
:1020400060897189840F951FA61FB71F9C01AD0180
:10205000270D311D411D511D29013A01811432E026
:10206000930609F07BC08091000190910101A0913D
:102070000201B091030184159505A605B70559F431
:102080008FEF9FEFDC018093000190930101A093FB
:102090000201B0930301022D9501B301A2018091C9
:1020A000E5039091E6030E942108882331F19EEF19
:1020B000B91AC818D908F70182859385A485B58512
:1020C000880D991DA11DB11D82879387A487B587AF
:1020D00055CFF7014389548965897689828593852F
:1020E000A485B585481759076A077B0709F43DCFD2
:1020F000C7010E94330C811138CF81E090E0D701F5
:1021000013969C938E93129780E007C09E012F5FD9
:102110003F4F0E94F30A811102C090E079C089818B
:102120009A81AB81BC81F701238D348DF901278918
:1021300048EF5FEF60E070E0203121F048EF5FEFA3
:102140006FEF7FE084179507A607B70708F050CF19
:10215000F70186839783A087B18750CF01151105BA
:1021600099F5D7011A964D915D916D917C911D97CE
:1021700053968D919D910D90BC91A02D48175907B4
:102180006A077B0708F181E00E94B308882309F4FD
:10219000B4CF40920001509201016092020170920E
:1021A000030180918201816080938201C8018B517B
:1021B0009E4FD5019C01280D391DFC012E173F07AC
:1021C00059F04D914193FACF41E0C301B2010E9411
:1021D000DE088111EBCF91CF281B390BA20EB31E65
:1021E00068CFF70183899489A589B68984179507F3
:1021F000A607B70738F48481438B548B658B768BA5
:1022000080688483F701848183FD1AC0832D9D81BA
:102210000F900F900F900F900F90DF91CF911F9123
:102220000F91FF90EF90DF90CF90BF90AF909F9075
:102230008F907F906F905F904F903F902F90089578
:1022400061E0C7010E94C70D882309F456CFDECF95
:10225000CF93DF931F92CDB7DEB7698341E050E0A3
:10226000BE016F5F7F4F0E948D0F0F90DF91CF9166
:102270000895FC01DB0112968D919C911397938335
:10228000828389E291E09183808314968C911497E4
:10229000848315968C911597858316964D915D9143
:1022A0006D917C91199746835783608771871A9641
:1022B0004D915D916D917C911D9742875387648705
:1022C00075871E964D915D916D917C9151974687D2
:1022D0005787608B718B52968C915297828B539655
:1022E0004D915D916D917C915697438B548B658B8D
:1022F000768B57964D915D916D917C915A97478B56
:10230000508F618F728F5B968D919C91948F838F8C
:102310000895FC01818D928D009719F061E00C9475
:10232000C70D0895DC015996ED91FC913097B9F0F5
:1023300083899489A589B689428553856485758585
:10234000841B950BA60BB70B811520E89207A105FE
:10235000B10538F08FEF9FE7A0E0B0E0089590E07E
:1023600080E00895DC0159968D919C91009739F099
:10237000DC01ED91FC910480F581E02D099490E061
:1023800080E00895CF93DF93EC01E98DFA8D3097CB
:1023900049F481E090E09B838A8390E080E0DF91C4
:1023A000CF91089513821282898D9A8D0E948D0F8C
:1023B000E98DFA8D22813381232B59F7F0CFCF930A
:1023C000DF931F92CDB7DEB76983DC01ED91FC91FD
:1023D0000280F381E02D41E050E0BE016F5F7F4F4E
:1023E00009950F90DF91CF9108952F923F924F92D0
:1023F0005F926F927F928F929F92AF92BF92CF9295
:10240000DF92EF92FF920F931F93CF93DF9300D051
:102410001F92CDB7DEB7FC018581811118C08FEF07
:102420009FEF0F900F900F90DF91CF911F910F9121
:10243000FF90EF90DF90CF90BF90AF909F908F90E4
:102440007F906F905F904F903F902F900895848180
:1024500080FFE5CF43895489658976898285938594
:10246000A485B585312C212C481759076A077B07AD
:1024700019F022242394312C6F012101CE01019601
:102480003C01DF011696BB83AA834114510409F471
:10249000C5C0F60142855385648575854A01F1E022
:1024A0009F22D6015B968D919C915C978A019B013E
:1024B000E9E03695279517950795EA95D1F7159692
:1024C000EC91E230E9F5FC01628D738D848D958D80
:1024D000600F711F821F931FA12C22E0B22EA8183B
:1024E000B9084A145B0408F45201F601248126FD60
:1024F00004C0A114F2E0BF0671F400910001109134
:1025000001012091020130910301061717072807E6
:10251000390709F05EC040E00E94DE08882309F414
:102520007ECFC4018B519E4FD3019C012A0D3B1DD0
:10253000FC012E173F0709F46CC041914D93F9CF70
:10254000DC011496BC90BA94B0228114910479F401
:10255000B1100DC0452B462B472B69F5F601878935
:10256000908DA18DB28D86839783A087B187D60188
:102570005B96ED91FC915C9716966D917D918D9196
:102580009C9119976250710981099109258504C0B0
:10259000660F771F881F991F2A95D2F70685178522
:1025A00020893189600F711F821F931F6B0D711D70
:1025B000811D911D91CFD60116964D915D916D9122
:1025C0007C9119972A813B810E94F30A8111CFCF18
:1025D00026CF730185019401AB01BC018091E50315
:1025E0009091E6030E947F07882309F418CF6A0CB4
:1025F0007B1CF60182859385A485B5858A0D9B1D7C
:10260000A11DB11D82879387A487B5874A185B08EF
:102610003CCF281B390B620E731EEBCF2A94232864
:1026200009F0FDCE898190E0FCCEFC01818D928D78
:10263000009711F00C94F5118FEF9FEF08950F9311
:102640001F93CF93DF93EC01898D9A8D10E000E00A
:10265000009799F00E94F5118C010F3F100769F067
:10266000898D9A8DFC01428553856485758541501D
:102670005109610971090E94330CC801DF91CF91A2
:102680001F910F9108958F929F92AF92BF92CF9218
:10269000DF92EF92FF926B017C01BC01A60182E008
:1026A00076956795579547958A95D1F7D701C601D5
:1026B00024E0B695A795979587952A95D1F7840F2D
:1026C000951FA61FB71F4C015D0134E0B694A79477
:1026D000979487943A95D1F7880D991DAA1DBB1D33
:1026E000892E9A2EAB2EBB24880E991EAA1EBB1EC5
:1026F000C501AA27BB27880E991EAA1EBB1EA3E0F0
:10270000B0E0A50194010E946F22A7019601261B4B
:10271000370B480B590BABE0B0E00E946F22E5E0AD
:102720009695879577956795EA95D1F7680D791D08
:102730008A1D9B1DFF90EF90DF90CF90BF90AF90D0
:102740009F908F900895CF92DF92EF92FF921F9308
:10275000CF93DF93EC01162F80914B0581110BC0B5
:10276000188219821A821B8210924C0580914D05A5
:10277000826080934D051E3291F11C3209F064C0D5
:1027800080914C05882359F180914C05843009F0E3
:102790007CC0288139814A815B81A4E6B0E00E9437
:1027A0006F22688379838A839B83C880D980EA807B
:1027B000FB80C701B601660F771F881F991F6F5FE7
:1027C0007F4F8F4F9F4F0E944313C60ED71EE81EA8
:1027D000F91EC882D982EA82FB8281E02AC081E0A8
:1027E00080934C052981822F82958F702F703AE05B
:1027F000839F200D11248A8181112C598881982F63
:1028000092959F708F703AE0939F800D11249CE306
:10281000299F90011124820F932F911D092E000CE6
:10282000AA0BBB0B88839983AA83BB831E3249F40E
:1028300080E0DF91CF911F91FF90EF90DF90CF90DC
:1028400008951C3209F4A0CF80914C05811143C03A
:1028500088819981AA81BB8134E0880F991FAA1FC2
:10286000BB1F3A95D1F7412F110F550B405351091A
:10287000052E000C660B770B842B952BA62BB72B04
:1028800088839983AA83BB83D3CF853039F4288189
:1028900039814A815B81AAE0B0E081CF863009F4BA
:1028A00084CF08F09ACF288139814A815B81A8EED4
:1028B000B3E0833009F473CF823019F4A0E1B7E2BA
:1028C0006ECF813009F071CF60EA76E881E090E068
:1028D0000E943D2266CF8F5F80934C058730C0F405
:1028E000288139814A815B81AAE0B0E00E946F2291
:1028F000212F110F330B205331096901330FEE08DB
:10290000FF08DC01CB018C0D9D1DAE1DBF1DB8CF96
:10291000873009F08DCFC880D980EA80FB80C7015D
:10292000B601660F771F881F991F6F5F7F4F8F4F0C
:102930009F4F0E9443136C0D7D1D8E1D9F1D1933EB
:102940004CF06E5F7F4F8F4F9F4F688379838A83F0
:102950009B836ECF1433CCF36F5F7F4F8F4F9F4FAE
:10296000F4CF682F80911D05813029F0863009F45D
:1029700087C081E00895E0914A05E150E930C8F749
:10298000F0E0EB53FB4E0C94D924CE145415D11423
:10299000F3146B1505150D15B9142B15862F0C9412
:1029A0006B0180914D0582FFE4CF80914B05811131
:1029B000E0CF6335F1F680912A0590912B05A09127
:1029C0002C05B0912D05B095A095909581959F4FC0
:1029D000AF4FBF4F80932A0590932B05A0932C05F2
:1029E000B0932D05C6CF6C3249F480914B0581110F
:1029F00005C080914D058B7F80934D0580914D05DD
:102A000082FFB7CF8EE295E063C080914B058111C4
:102A1000B0CF862F0E943D01ACCF80914D058E7FB7
:102A200080934D0580914B0581110CC06C3209F4E7
:102A3000A0CF605360933E058091480580688093E5
:102A4000480597CF6C32C1F380913E059AE0899F8B
:102A5000600D1124EECF42E082E395E00E94AC00CD
:102A6000882309F486CF21E090914B05911101C094
:102A700020E09091480520FB94F990934805089533
:102A8000E0914A05E150E93008F073CFF0E0E55BF2
:102A9000FA4E0C94D924CE1405155415D114F31400
:102AA0006B159615A915BC1580914B0581110AC0AF
:102AB00091E06C3209F490E080914D0590FB82F931
:102AC00080934D0580914D0582FF53CF8AE295E0BA
:102AD0000E94A3134ECF90914D0592FB882780F959
:102AE00092FF47CF90914B05911143CF90914805AC
:102AF000986090934805673509F03BCF40912E05CB
:102B000050912F0560913005709131057095609559
:102B1000509541955F4F6F4F7F4F40932E055093D7
:102B20002F056093300570933105089543E086E3E7
:102B300095E00E94AC00882309F41BCF21E090911E
:102B40004B05911101C020E09091480520FB95F9BB
:102B500094CF42E08AE395E00E94AC00882309F418
:102B600008CF21E090914B05911101C020E0909198
:102B7000480520FB96F981CF80914B05823031F1D9
:102B800050F48823C1F0813009F0F3CE80914305E1
:102B90008053680F18C0843031F100F1853009F09E
:102BA000E8CE809145058053680F6093450580917C
:102BB0004805826044CF6C3209F4DBCE60538AE072
:102BC000689F602D112460934305D3CE60538AE043
:102BD000689F602D112460934405CBCE80914405FD
:102BE0008053680FF8CF60538AE0689F602D1124EE
:102BF00060934505BECEDF92EF92FF920F931F9335
:102C0000CF93DF93CDB7DEB72A970FB6F894DEBF28
:102C10000FBECDBF8FEC94E00E9415138C97D1F7B7
:102C2000F12CE12C10E000E02AE0D22E8FEC94E0B1
:102C30000E9415139C01205331092A30310528F5D3
:102C4000F801EE0FFF1F81E090E08C0F9D1FE80F51
:102C5000F91F31832083FC0190E080E008171907F9
:102C600089F041915191DF011297D49E9001D59E38
:102C7000300D11242D933C930196F0CFEE24E39474
:102C8000F12CD4CF0F5F1F4FD1CF8D329105B1F30F
:102C90000A9761F6FE01319630E020E090E080E096
:102CA0000217130739F041915191840F951F2F5F3F
:102CB0003F4FF6CFEF2819F09195819591092A960B
:102CC0000FB6F894DEBF0FBECDBFDF91CF911F913D
:102CD0000F91FF90EF90DF900895CF93C82F60E0A1
:102CE0000E940E0364E670E080E090E00E942D05F3
:102CF00061E08C2F0E940E0364E670E080E090E0BB
:102D00000E942D0560E08C2F0E940E0364E670E0A7
:102D100080E090E0CF910C942D05BC01789450E0B8
:102D200040E030E020E046175707CCF493B7917F9E
:102D3000946093BF93B7916093BF889593B79E7F3C
:102D400093BF93B79E7F93BF2C3331052CF04F5F19
:102D50005F4F2C533109F8CF285F3F4FE4CFF894F1
:102D60008091640080718093640080916400816030
:102D700080936400089590E080E00895FC0114823F
:102D80001582168217821082118212821382118696
:102D90001086138612861586148617861686118A63
:102DA000108A138A128A148A168A178A158A81E071
:102DB000818F828F138E87E0808F148E158E168EF2
:102DC0000895FC0101900020E9F73197AF01481BFD
:102DD000590BBC018FEC94E00C94C2118F929F921E
:102DE000AF92BF920F931F93CF93DF93CDB7DEB710
:102DF000A1970FB6F894DEBF0FBECDBF19A2423027
:102E000008F44AE08E010F5D1F4F842E912CB12CE7
:102E1000A12CA50194010E944D22E62FB901CA01FF
:102E2000EA30F4F4E05DD801EE938D01232B242BDE
:102E3000252B79F790E080E0109719F0CD010E94E2
:102E4000E116A1960FB6F894DEBF0FBECDBFDF919D
:102E5000CF911F910F91BF90AF909F908F90089549
:102E6000E95CE1CF85E591E00C94E1164F925F9229
:102E70006F927F928F929F92AF92BF92CF92DF928A
:102E8000EF92FF920F931F93CF936B017C01742EEF
:102E9000AC019B010E94C024882399F087E591E052
:102EA000CF911F910F91FF90EF90DF90CF90BF9047
:102EB000AF909F908F907F906F905F904F900C9409
:102EC000E11646015701E894B7F82FEF3FEF4FE7BF
:102ED0005FE7C501B4010E94C02481110DC02FEF2E
:102EE0003FEF4FE75FE7C501B4010E94F6221816D5
:102EF0001CF48BE591E0D4CF2FEF3FEF4FE75FE479
:102F0000C701B6010E944E2418161CF48FE591E00B
:102F1000C7CF2FEF3FEF4FE75FECC701B6010E942D
:102F2000F62287FDF3CF20E030E0A901C701B6010A
:102F30000E94F62210E000E087FF0AC06DE28FECED
:102F400094E00E94DF118C01F7FAF094F7F8F09406
:102F5000C0E060E070E080E09FE37C1641F020E09C
:102F600030E040E251E40E94FB22CF5FF6CFA701A0
:102F700096010E948A222B013C010E946D234B0185
:102F80005C014AE00E94EE167C01E00EF11ECC23AB
:102F9000C1F1C501B4010E949C239B01AC01C30196
:102FA000B2010E9489224B015C016EE28FEC94E039
:102FB0000E94DF11E80EF91EC15018F120E030E048
:102FC00040E251E4C501B4010E9453242B013C01AD
:102FD0000E946D234B01B12CA12C4AE0C501B40124
:102FE0000E94EE16E80EF91EC501B4010E949C2352
:102FF0009B01AC01C301B2010E9489224B015C011B
:10300000DBCFC701CF911F910F91FF90EF90DF9021
:10301000CF90BF90AF909F908F907F906F905F9078
:103020004F900895682F70E090E080E04AE00C94A3
:10303000EE16CF93DF938F3F980791F46DE28FECFC
:1030400094E00E94DF11EC014AE061E070E080E072
:1030500090E00E94EE168C0F9D1FDF91CF91089596
:10306000BC01990F880B990B4AE0DF91CF910C942A
:10307000EE16CF92DF92EF92FF921F93CF93DF93E2
:10308000EC0180E2689FF0011124EB51FE4F938523
:10309000917161F0842F827449F080E0DF91CF91CB
:1030A0001F91FF90EF90DF90CF900895142F6A8BBF
:1030B0008091000190910101A0910201B091030162
:1030C0008E879F87A88BB98BC488D588F12CE12C7B
:1030D0007601DD24CC24CF8AD88EE98EFA8E828DBB
:1030E000938DB0E0A0E0AC01BD014C295D296E29B3
:1030F0007F294F8B588F698F7A8F83858871B1F4C0
:10310000848D958DA68DB78D8B8B9C8BAD8BBE8B57
:1031100081E08D831F701C831E821F821886198692
:103120001A861B861C861D8681E0B8CF803109F087
:10313000B4CF9E012D5E3F4F8B8D9C8D0E94740BF2
:10314000882309F4AACF84E0E4CF3F924F925F92A4
:103150006F927F928F929F92AF92BF92CF92DF92A7
:10316000EF92FF920F931F93CF93DF93CDB7DEB70C
:103170002B970FB6F894DEBF0FBECDBF7C01FE01CA
:103180003196CE010C966F0130E23193E817F907C2
:10319000E1F7DA0130E087E09D91B92E992309F437
:1031A0003CC09E32F1F48A30C9F480E02B960FB611
:1031B000F894DEBF0FBECDBFDF91CF911F910F916D
:1031C000FF90EF90DF90CF90BF90AF909F908F9047
:1031D0007F906F905F904F903F90089538E08AE025
:1031E000DBCFE8E8F0E04491442321F031969413DA
:1031F000FACFDBCF8317C8F24FED490F4E35A8F653
:103200004FE9490F4A3118F440EEB42EB90EF601D9
:10321000E30FF11DB0823F5FBFCF8981803229F279
:10322000322E8B01DB015B968D919C915C97F701AF
:10323000948F838F16961D921D921D921C92199742
:10324000FB011286138614861586F8018285938504
:10325000A485B5854389548965897689841795073E
:10326000A607B70708F04DC025E0B695A795979536
:1032700087952A95D1F7F82FFF70AF2ED8011596B4
:103280008C91823008F491CFC8010E94F51197FD0E
:103290008CCFF80182859385A485B5854F96A11DB5
:1032A000B11D82879387A487B587F0E2AF9EB001F6
:1032B00011246B517E4F6115710509F476CFDB0146
:1032C0008C91882341F0853E09F062C0BB2029F033
:1032D000BB24B394BACFB1100EC0F701A28A80917B
:1032E000000190910101A0910201B0910301868734
:1032F0009787A08BB18BDB018C918111E9CFBB2427
:10330000B394832D8271823109F04FCFBB2009F431
:103310004DC0F701668577858089918941E00E94DB
:10332000DE08882309F441CFD70152968C91B0E290
:103330008B9FC00111248B519E4F009709F435CF0C
:10334000FC013A9626E1DF011D922A95E9F72BE070
:10335000F601DC0101900D922A95E1F721E238E2B5
:10336000FC01318B208B40E058E057874687338B38
:10337000228B318F208F578B468B81E00E94B308C0
:10338000882309F412CF432DD70152966C910AC0BD
:103390004BE050E0C6010E941826892B09F055CF5A
:1033A000432D6A2DC7010E94391800CFF80185818D
:1033B000823009F4FACEC8010E94C70C882309F4B0
:1033C000F4CED8015B96ED91FC915C9716968D90AA
:1033D0009D90AD90BC901997B2E08B1A9108A1080E
:1033E000B108858504C0880C991CAA1CBB1C8A9551
:1033F000D2F786859785A089B189880E991EAA1E65
:10340000BB1E848124013501480E511C611C711CB6
:1034100084149504A604B70409F1E1E04E1A51089A
:103420006108710881E00E94B308882309F4BDCEC9
:10343000E5EEF1E0119285EE93E08E179F07D1F74C
:1034400040920001509201016092020170920301CA
:1034500080918201816080938201DACFD8015B96EE
:10346000ED91FC91258580E092E0A0E0B0E004C001
:10347000880F991FAA1FBB1F2A95D2F7F80143890D
:10348000548965897689840F951FA61FB71F838B82
:10349000948BA58BB68BD70152961C9285EE91E04A
:1034A0004FCFEF92FF920F931F93CF93DF93EC01D7
:1034B0007B018A011B821A8288EE93E0A0E0B0E0D3
:1034C0008C839D83AE83BF8385E391E0998388835A
:1034D0008DE190E00E94F3249A8F898F009779F014
:1034E0002DE1F701DC0101900D922A95E1F74CE006
:1034F00050E0B801CE010C960E943026188EDF9164
:10350000CF911F910F91FF90EF9008952F923F92CE
:103510004F925F926F927F928F929F92AF92BF92E3
:10352000CF92DF92EF92FF920F931F93CF93DF938F
:10353000CDB7DEB7C756D1090FB6F894DEBF0FBEC0
:10354000CDBF6C015B01A6964FAFA69719A218A23A
:1035500089E291E09F8F8E8F1BA21C821B829A832F
:1035600089831E824E018EE1880E911CC4010E9447
:10357000DF0B75018E010F5F1F4F240118016FE2F1
:1035800070E0C7010E942526009709F45DC0F7018D
:1035900020812F3271F4FFEFEF1AFF0A902F812F55
:1035A0008201492E582E942D852D2801092F182F80
:1035B000E6CF8E198D3008F08CE0682E712CA301B7
:1035C000B701CE01885A9F4F0E943026E8E5F0E00F
:1035D000EC0FFD1FE60DF71D1082C8010E946B0E57
:1035E000F8018581882301F11EAE1DAE89E291E0CC
:1035F0009CAF8BAF21961FAE2197A896EEADFFAD85
:10360000A897AE0EBF1EF501808181112AC0BE01B0
:10361000655C7F4FC1010E94391143E651E0B10161
:10362000C6010E94511A3BC021E0AE01485A5F4FCB
:10363000B201C8010E94A5188823B1F2E60CF71C5C
:10364000C2010E946B0EAFCFC7018A199B09A896D1
:103650009FAF8EAFA897B201CE01CB960E943911D1
:10366000CCCF19A218A289E291E09F8F8E8F1BA266
:1036700021968FAD219781112DC0F6011382128200
:1036800088EE93E0A0E0B0E084839583A683B783BF
:1036900085E391E091838083128E118E1486C6019A
:1036A000C959DF4F0FB6F894DEBF0FBECDBFDF9113
:1036B000CF911F910F91FF90EF90DF90CF90BF902F
:1036C000AF909F908F907F906F905F904F903F90C2
:1036D0002F900895A6962FADA697A501BE01655C13
:1036E0007F4FC4010E94A518882339F2CE01CB96E2
:1036F0000E946B0EA6968FADA6978670863039F421
:1037000049A95AA96BA97CA9C4010E94330CB40130
:10371000C1010E943911A50182CFEF92FF920F9350
:103720001F93CF93DF93CDB7DEB76B970FB6F894A7
:10373000DEBF0FBECDBF7C010E94780E47E165E67B
:1037400071E0CE0101960E94861ACE0101960E9478
:10375000C90100E110E0E091E804F091E90430973C
:1037600019F08581811120C00150110909F4BEC0F2
:103770008FEC94E00E94891180EB94E00E946B0E24
:1037800060ED77E080E090E00E942D050E94780EC9
:1037900047E165E671E0CE0101960E94861ACE01EE
:1037A00001960E94C901D7CF85E090E00E946D1676
:1037B000C7010E9419180E94321780911C0583FBD3
:1037C000882780F990E00E9419180E943217809192
:1037D0001C058695817090E00E9419180E9432178E
:1037E00080911C0582FB882780F990E00E941918BF
:1037F0000E943217809119050E9412180E943217F8
:10380000809118050E9412180E94321780911705A6
:103810000E9412180E943217809115050E941218FA
:103820000E943217809114050E9412180E943217CC
:10383000809113050E9412180E9432178091120580
:103840000E9412180E9432176091FE047091FF04CA
:1038500080910005909101050E949E2325E93FEB90
:1038600046ED53E30E9453244AE00E9436170E941B
:1038700032176091020570910305809104059091C3
:1038800005050E949E2325E93FEB46ED53E30E9488
:1038900053244AE00E94361780E791E00E94E11627
:1038A0008091E8049091E904009761F00E946B0E0A
:1038B0008091E8049091E9040E948F251092E90418
:1038C0001092E80480EB94E00E946B0E01E010E09F
:1038D000C8016B960FB6F894DEBF0FBECDBFDF9167
:1038E000CF911F910F91FF90EF90089510E000E0AD
:1038F000B80186E00E94AB04B80185E00E94AB04E9
:1039000065E070E080E090E00E942D050F5F1F4FA2
:103910000F3F110569F7B80186E00E94AB04B801BA
:1039200085E00E94AB0465E070E080E090E00E94DA
:103930002D050150110979F7CBCF1F920F920FB6C9
:103940000F9211242F933F934F935F936F937F9325
:103950008F939F93AF93BF93EF93FF9387EE93E083
:103960000E947F02FF91EF91BF91AF919F918F9144
:103970007F916F915F914F913F912F910F900FBE6B
:103980000F901F9018951F920F920FB60F9211244F
:103990002F938F939F93EF93FF93E091F703F09111
:1039A000F8038081E091FD03F091FE0382FD1BC0CE
:1039B0009081809100048F5F8F73209101048217A2
:1039C00041F0E0910004F0E0E951FC4F958F8093C5
:1039D0000004FF91EF919F918F912F910F900FBE57
:1039E0000F901F9018958081F4CF1F920F920FB601
:1039F0000F9211242F933F938F939F93AF93BF9375
:103A00008091CB019091CC01A091CD01B091CE01DC
:103A10003091CA0126E0230F2D3758F50296A11DDB
:103A2000B11D2093CA018093CB019093CC01A09348
:103A3000CD01B093CE018091CF019091D001A091A2
:103A4000D101B091D2010196A11DB11D8093CF018A
:103A50009093D001A093D101B093D201BF91AF91C7
:103A60009F918F913F912F910F900FBE0F901F90BC
:103A7000189529E8230F0396A11DB11DD2CF1F92DF
:103A80000F920FB60F9211242F933F934F935F9392
:103A90006F937F938F939F93AF93BF93EF93FF9316
:103AA00089B10E94C805FF91EF91BF91AF919F919D
:103AB0008F917F916F915F914F913F912F910F90D7
:103AC0000FBE0F901F9018951F920F920FB60F9276
:103AD00011242F933F934F935F936F937F938F9313
:103AE0009F93AF93BF93EF93FF9386B10E94C80556
:103AF000FF91EF91BF91AF919F918F917F916F91C6
:103B00005F914F913F912F910F900FBE0F901F909B
:103B100018951F920F920FB60F9211242F933F9377
:103B20004F935F936F937F938F939F93AF93BF93C5
:103B3000EF93FF9383B10E94C805FF91EF91BF916E
:103B4000AF919F918F917F916F915F914F913F9135
:103B50002F910F900FBE0F901F9018951F920F92EC
:103B60000FB60F921124A8950F900FBE0F901F90C3
:103B70001895CF92DF92EF92FF92CF93DF93E7EE0B
:103B8000F3E01382128288EEC82E83E0D82EE12C57
:103B9000F12CC482D582E682F78287E191E091839D
:103BA000808385EC90E09587848784EC90E097870C
:103BB000868780EC90E0918B808B81EC90E0938BFA
:103BC000828B82EC90E0958B848B86EC90E0978BD7
:103BD000868B118E128E138E148EE4E8F4E080E54D
:103BE000808381E08183E6E8F4E015821682118605
:103BF000138682E090E0A0E0B0E084879587A687F6
:103C0000B78713A215A614A689E291E093A782A70D
:103C100017A68AE295E00E94BE168FE495E00E9406
:103C2000BE16CDE1D5E019821A821B821C821D824C
:103C30001E821F82188619861A861B861C868AE2B7
:103C400095E00E94BE1619AA8EEF94E00E94BE165F
:103C5000EAEEF4E013821282C482D582E682F78211
:103C600087E491E09183808384E0848783E0858783
:103C7000138A128AEFECF4E013821282C482D58296
:103C8000E682F78285E391E091838083128E118E24
:103C90001486DF91CF91FF90EF90DF90CF90089541
:103CA000CF93DF93CDB7DEB76F970FB6F894DEBF33
:103CB0000FBECDBF789484B5826084BD84B5816029
:103CC00084BD85B5826085BD85B5816085BD8091E7
:103CD0006E00816080936E0010928100809181005F
:103CE0008260809381008091810081608093810057
:103CF000809180008160809380008091B100846019
:103D00008093B1008091B00081608093B000809179
:103D10007A00846080937A0080917A008260809338
:103D20007A0080917A008E7F80937A0080917A0069
:103D3000806880937A001092C10061E082E00E9466
:103D40005A0361E086E00E945A0361E085E00E9428
:103D50005A030E94780E811111C060E085E00E9434
:103D60000E0361E086E00E940E0380EB94E00E9467
:103D70006B0E86E090E00E946D16FBCF85E090E030
:103D80000E946D1641E063E771E0CE0101960E944A
:103D9000861ACE0101960E94C90106E010E0E0916A
:103DA000E804F091E904309719F0858181111CC075
:103DB0000150110909F402C180EB94E00E946B0EDE
:103DC00068EC70E080E090E00E942D050E94780E83
:103DD00041E063E771E0CE0101960E94861ACE01B0
:103DE00001960E94C901DBCF85E090E00E946D162C
:103DF0000E94FB158093060185E090E00E946D16FD
:103E00000E94FB158093070185E090E00E946D16EB
:103E10000E94FB158093080185E090E00E946D16DA
:103E20000E94FB15909305018093040185E090E0CA
:103E30000E946D160E94FB1585E090E00E946D16B1
:103E40000E94FB1585E090E00E946D160E94FB1514
:103E5000092E000CAA0BBB0B8093090190930A0159
:103E6000A0930B01B0930C0185E090E00E946D16C9
:103E70008091E8049091E904009761F00E946B0E34
:103E80008091E8049091E9040E948F251092E90442
:103E90001092E80461E085E00E940E0368EE73E092
:103EA00080E090E00E942D0560E085E00E940E0316
:103EB00080EB94E00E946B0EF89414BE8091600039
:103EC00088618093600081E680936000789461E06F
:103ED00082E00E940E0380910401909105018038D8
:103EE00025E2920721F081152BE49207A1F420919D
:103EF000FA043091FB048217930769F09093FB0456
:103F00008093FA048091E2019091E3018A5E9440EB
:103F100011F40E948B030E948B030E945F05609343
:103F2000D3017093D4018093D5019093D601CC2412
:103F3000C3946624639420E0E22E20E0F22EDD2478
:103F4000D39432E0832E43E0942E0FE19CE3792E4C
:103F50008AEE94E00E94BD06892B09F4CFC18AEE57
:103F600094E00E94A706182F8091260590912705BE
:103F7000A0912805B09129050196A11DB11D80933E
:103F8000260590932705A0932805B09329051432A0
:103F9000C1F480914D0584FF03C08F7E80934D0551
:103FA0001092490510921D05D0924E0510924B05B6
:103FB00080914D058D7F80934D05CACF86E090E0BE
:103FC00055CF80914E05823079F51A3229F49092BE
:103FD0004E0510924B05BCCF80EE810F8F3550F40B
:103FE00080914905812780934905812F0E94B11452
:103FF000811107C01092480510921D0510924E05C0
:10400000A7CF1C3259F480914D058D7F80934D05CB
:1040100080914A058F5F80934A05DBCF80914B05E5
:104020008F5F80934B0594CF813009F061C09091F0
:1040300049059127909349051C3269F490911D051B
:104040009923D1F21092480580934A0510924B05AE
:1040500080924E057DCF50904B0581E0851508F08C
:1040600005C28EEF482E450C80911D05882309F46A
:104070003DC08150E82FF0E0EE0FFF1FE455FF4FE9
:104080002591349150E040E0A42CB12C61E0680F00
:1040900070E0F901EA0DFB1DE4911E1709F4E3C17C
:1040A0001E170CF4A9CF33243394380E873009F44B
:1040B000A3CFFB01E40FF51FEE0FFF1FE455FF4FE9
:1040C000A591B49190E080E0841558F4F901E80FCF
:1040D000F91F2490FD01E80FF91FE49101962E16B7
:1040E00099F34F5F5F4F832D9D01D3CF80E0C2CF07
:1040F000833009F0F3C010628FE9810F863038F504
:10410000175590914B0580914905911122C0D0928D
:104110004B0590E024E0959587952A95E1F71817CF
:10412000190609F415CF8091220590912305A091DD
:104130002405B09125050196A11DB11D809322058E
:1041400090932305A0932405B093250553CF1053D6
:10415000D8CF8F7021E0811301C020E081138AC184
:1041600080914D0581FF09C08D7F80934D059F5F34
:1041700090934B058CE20E94B11480911E059091A2
:104180001F05A0912005B09121050196A11DB11D2B
:1041900080931E0590931F05A0932005B0932105E1
:1041A00090911D0521E0963009F020E080914D05A9
:1041B00020FB84F980934D0510924E0520916E05E9
:1041C000211191C08091480580FF0CC020914705C6
:1041D00030916D0530FF04C030916C05321710F43A
:1041E00020936C0581FF0CC0209143052093680546
:1041F00020914405209369052091450520936A0587
:1042000082FF10C020914105209366052091400552
:104210002093650520913F05209364052091460574
:1042200020936B0583FF09C088E0EAE2F5E0AFE484
:10423000B5E001900D928A95E1F78091480584FFE1
:1042400010C0409132055091330560913405709152
:104250003505409357055093580560935905709361
:104260005A0586FF10C040913A0550913B05609178
:104270003C0570913D0540935F0550936005609348
:1042800061057093620585FF10C04091360550911D
:104290003705609138057091390540935B0550935F
:1042A0005C0560935D0570935E0587FF04C0809197
:1042B0003E05809363058091480520916D05822B12
:1042C00080936D05963009F043CE10927005809171
:1042D0006E0581113DCE60926E053ACE811138CEC9
:1042E00010921D0535CE886080934D0510926F05A4
:1042F00080916E05815080936E0564CF80916E052C
:10430000882309F43FC0CE0101960E94BE16809119
:104310006E058823C1F0815080936E0580916F05F2
:10432000089FC0011124FC01E15BFA4FDE011196E8
:10433000202F01900D922A95E1F7815B9A4F0E9400
:10434000BE1610926F058FE1FE013196AEEFB4E01C
:1043500001900D928A95E1F785E090E00E946D163C
:1043600080911C0583FF76C081FF74C082FF72C0FC
:1043700060E082E00E940E03C092D70181E090E0ED
:104380000E948D1B0E945F052091D3013091D401C2
:104390004091D5015091D6011B012C01221A330AFC
:1043A000440A550A2091090130910A0140910B01FC
:1043B00050910C01A8EEB3E00E946F2262157305C4
:1043C0008405950590F4C092D70160E082E00E94D8
:1043D0000E0386E090E00E946D1686E090E00E9459
:1043E0006D168FEF9FEF0E948D1B8091D701882360
:1043F00029F160E082E00E940E0390911505809102
:10440000080198132CC080910701879DC0011124D9
:104410000E948D1661E082E00E940E0385E090E02C
:104420000E946D161092D7010E945F056093D30120
:104430007093D4018093D5019093D601E114F104D7
:1044400009F486CD0E946B02882309F47ECD0E9478
:1044500000007BCD86E090E00E946D1693CF8091A6
:10446000060190E0D5CF8F5F80931D055394509245
:104470004B056ECD211157CE6BCDDB018F939F93F2
:104480000E946F22BF91AF91A29F800D911DA39FAB
:10449000900DB29F900D11240895A1E21A2EAA1B2F
:1044A000BB1BFD010DC0AA1FBB1FEE1FFF1FA217E4
:1044B000B307E407F50720F0A21BB30BE40BF50BE1
:1044C000661F771F881F991F1A9469F7609570956A
:1044D000809590959B01AC01BD01CF0108950E948C
:1044E0007A22A59F900DB49F900DA49F800D911DE1
:1044F00011240895A29FB001B39FC001A39F700D26
:10450000811D1124911DB29F700D811D1124911DDB
:1045100008955058BB27AA270E94A1220C94142466
:104520000E94062438F00E940D2420F039F49F3FA9
:1045300019F426F40C9403240EF4E095E7FB0C9494
:10454000FD23E92F0E94252458F3BA176207730749
:104550008407950720F079F4A6F50C9447240EF40F
:10456000E0950B2EBA2FA02D0B01B90190010C0183
:10457000CA01A0011124FF27591B99F0593F50F49B
:10458000503E68F11A16F040A22F232F342F4427F3
:10459000585FF3CF469537952795A795F0405395EB
:1045A000C9F77EF41F16BA0B620B730B840BBAF0BB
:1045B0009150A1F0FF0FBB1F661F771F881FC2F726
:1045C0000EC0BA0F621F731F841F48F4879577953A
:1045D0006795B795F7959E3F08F0B0CF9395880FF4
:1045E00008F09927EE0F9795879508950E94D92393
:1045F00008F481E008950E940F230C9414240E9473
:104600000D2458F00E94062440F029F45F3F29F061
:104610000C94FD2351110C9448240C9403240E9403
:10462000252468F39923B1F3552391F3951B550B7A
:10463000BB27AA2762177307840738F09F5F5F4F75
:10464000220F331F441FAA1FA9F335D00E2E3AF0B4
:10465000E0E832D091505040E695001CCAF72BD0CC
:10466000FE2F29D0660F771F881FBB1F261737071D
:104670004807AB07B0E809F0BB0B802DBF01FF274F
:1046800093585F4F3AF09E3F510578F00C94FD230C
:104690000C9448245F3FE4F3983ED4F386957795D5
:1046A0006795B795F7959F5FC9F7880F911D969508
:1046B000879597F90895E1E0660F771F881FBB1F64
:1046C000621773078407BA0720F0621B730B840B11
:1046D000BA0BEE1F88F7E09508950E942D2488F00C
:1046E0009F5798F0B92F9927B751B0F0E1F0660FB6
:1046F000771F881F991F1AF0BA95C9F714C0B130F7
:1047000091F00E944724B1E008950C944724672F4C
:10471000782F8827B85F39F0B93FCCF38695779525
:104720006795B395D9F73EF490958095709561950E
:104730007F4F8F4F9F4F0895E89409C097FB3EF439
:1047400090958095709561957F4F8F4F9F4F9923DE
:10475000A9F0F92F96E9BB279395F695879577955C
:104760006795B795F111F8CFFAF4BB0F11F460FF1C
:104770001BC06F5F7F4F8F4F9F4F16C0882311F074
:1047800096E911C0772321F09EE8872F762F05C088
:10479000662371F096E8862F70E060E02AF09A9523
:1047A000660F771F881FDAF7880F9695879597F918
:1047B0000895990F0008550FAA0BE0E8FEEF1616B2
:1047C0001706E807F907C0F012161306E407F50705
:1047D00098F0621B730B840B950B39F40A2661F079
:1047E000232B242B252B21F408950A2609F4A1401C
:1047F000A6958FEF811D811D089597F99F6780E829
:1048000070E060E008959FEF80EC089500240A9422
:104810001616170618060906089500240A9412169B
:104820001306140605060895092E0394000C11F4CE
:10483000882352F0BB0F40F4BF2B11F460FF04C07B
:104840006F5F7F4F8F4F9F4F089557FD9058440FD4
:10485000551F59F05F3F71F04795880F97FB991FDF
:1048600061F09F3F79F0879508951216130614069C
:10487000551FF2CF4695F1DF08C016161706180629
:10488000991FF1CF86957105610508940895E89404
:10489000BB2766277727CB0197F908950E94D92374
:1048A00008F48FEF08950E9466240C9414240E944B
:1048B000062438F00E940D2420F0952311F00C946A
:1048C000FD230C94032411240C9448240E942524D5
:1048D00070F3959FC1F3950F50E0551F629FF00153
:1048E000729FBB27F00DB11D639FAA27F00DB11D6C
:1048F000AA1F649F6627B00DA11D661F829F2227F5
:10490000B00DA11D621F739FB00DA11D621F839F7B
:10491000A00D611D221F749F3327A00D611D231F51
:10492000849F600D211D822F762F6A2F11249F579F
:1049300050409AF0F1F088234AF0EE0FFF1FBB1FA2
:10494000661F771F881F91505040A9F79E3F510561
:1049500080F00C94FD230C9448245F3FE4F3983ED0
:10496000D4F3869577956795B795F795E7959F5F0B
:10497000C1F7FE2B880F911D9695879597F908959D
:104980000E94D923880B990B089597FB072E16F4E4
:10499000009407D077FD09D00E94DF2407FC05D0E2
:1049A0003EF4909581959F4F0895709561957F4F46
:1049B0000895EE0FFF1F0590F491E02D0994AA1BB6
:1049C000BB1B51E107C0AA1FBB1FA617B70710F0FA
:1049D000A61BB70B881F991F5A95A9F7809590952C
:1049E000BC01CD0108950F931F93CF93DF938230C5
:1049F000910510F482E090E0E0917305F091740568
:104A000030E020E0B0E0A0E0309799F421153105C6
:104A100009F44AC0281B390B24303105D8F58A81A6
:104A20009B816115710589F1FB0193838283FE01EE
:104A300011C0408151810281138148175907E0F06C
:104A40004817590799F4109761F012960C93129732
:104A500013961C933296CF01DF91CF911F910F9146
:104A600008950093730510937405F4CF2115310553
:104A700051F04217530738F0A901DB019A01BD013B
:104A8000DF01F801C1CFEF01F9CF90937405809356
:104A90007305CDCFFE01E20FF31F81939193225056
:104AA000310939832883D7CF209171053091720560
:104AB000232B41F420910F013091100130937205A6
:104AC0002093710520910D0130910E0121153105C2
:104AD00041F42DB73EB74091110150911201241BB2
:104AE000350BE0917105F0917205E217F307A0F420
:104AF0002E1B3F0B2817390778F0AC014E5F5F4F34
:104B00002417350748F04E0F5F1F509372054093EE
:104B10007105819391939FCFF0E0E0E09CCFCF931C
:104B2000DF930097E9F0FC01329713821282A09183
:104B30007305B0917405ED0130E020E01097A1F409
:104B400020813181820F931F209171053091720570
:104B50002817390709F061C0F0937205E0937105D9
:104B6000DF91CF910895EA01CE17DF07E8F54A817A
:104B70005B819E0141155105B1F7E901FB83EA8391
:104B800049915991C40FD51FEC17FD0761F480813D
:104B900091810296840F951FE90199838883828110
:104BA00093819B838A83F0E0E0E012968D919C9143
:104BB00013970097B9F52D913C911197CD0102966D
:104BC000820F931F209171053091720528173907C4
:104BD00039F6309751F51092740510927305B09321
:104BE0007205A0937105BCCFD383C28340815181EC
:104BF000840F951FC817D90761F44E5F5F4F8881F6
:104C00009981480F591F518340838A819B819383E7
:104C100082832115310509F0B0CFF0937405E0933C
:104C200073059ECFFD01DC01C0CF13821282D7CF66
:104C3000FB01DC0104C08D910190801921F44150E9
:104C40005040C8F7881B990B0895FC018191861785
:104C500021F08823D9F7992708953197CF01089536
:104C6000FB01DC014150504048F001900D920020C2
:104C7000C9F701C01D9241505040E0F70895F894E3
:024C8000FFCF64
:104C8200FFFFFFFF80250308193C000000000075AC
:104C920005800000000000A10201022E02EE025F68
:104CA200023D02510200000000281101020D0E0017
:104CB2000200000000DF11C211B211891192111518
:104CC200131F130000000035060102BB160002BDCF
:104CD20006A706BB162C006E616E00696E66006F39
:104CE2007666002F006770736C6F672E63737600B1
:104CF2000D0A0073657474696E67732E63737600B0
:00000001FF
