:100000000C949D000C94C5000C94C5000C94B20295
:100010000C948D020C9468020C9470100C94C50022
:100020000C94C5000C94C5000C94C5000C94C5003C
:100030000C94C5000C94C5000C94C5000C94C5002C
:100040000C9475170C94C5000C94E5170C94BF170D
:100050000C94C5000C94C5000C94C5000C94C5000C
:100060000C94C5000C94C5006C116F11EF101211A7
:10007000851126112E111A124B116C1126116F11B8
:10008000EF1012118511B011C311D811CA1DDA1D5C
:10009000E11DE71DEE1DF41DFB1DFE1D091E7C3C30
:1000A0003E5E2B3D3F2F5B5D3B2C2A225C005A4479
:1000B000410056544700524D4300475356004753A2
:1000C000540047534100474C4C0047474100CA0089
:1000D000C600C200BE00BA00B600B200AE0000000A
:1000E00000080002010000030407000000000000F7
:1000F000000000000000250028002B000000000088
:1001000023002600290000000000240027002A0008
:10011000010204081020408001020408102001029E
:10012000040810200404040404040404020202026B
:100130000202030303030303FB2111241FBECFEFBD
:10014000D8E0DEBFCDBF25E0AEE9B1E001C01D9231
:10015000A339B207E1F711E0A0E0B1E0EEE2FDE47F
:1001600002C005900D92AE39B107D9F710E0CDE984
:10017000D0E004C02197FE010E942E25CC39D10782
:10018000C9F70E94181E0C9495260C940000FC01DF
:10019000918D228D892F90E0805C9F4F821B910969
:1001A0008F739927089580E090E0892B29F00E94B1
:1001B000FC1681110C94000008952091FC0380919D
:1001C000FB03821769F030E0F901ED55FE4F8081A5
:1001D0002F5F3F4F2F7333272093FC0390E0089548
:1001E0008FEF9FEF08959C018091FB0390E0409179
:1001F000FC03841B9109805C9F4F60E470E00E94C7
:100200001A25811105C0C901F8940E943C18789400
:1002100090E0089580919E018823A9F1409100010A
:1002200050910101609102017091030125EE31E0CE
:100230008091E5039091E6030E94240C811102C095
:1002400080E0089540919F015091A0016091A1012B
:100250007091A201411551056105710591F025EEDE
:1002600031E08091E5039091E6030E94240C8823FD
:1002700039F310929F011092A0011092A1011092E7
:10028000A20110929E0181E00895FC01848DDF019E
:10029000A80FB11DA35ABF4F2C91848D90E00196F9
:1002A0008F739927848FA689B7892C93A089B189E8
:1002B0008C91837080648C93938D848D981306C089
:1002C0000288F389E02D80818F7D80830895E091FD
:1002D0000204F09103043097C1F00288F389E02D05
:1002E000309709F009942091FB0330E0A9014F5F9A
:1002F0005F4F4F7355279091FC03941731F0F9012C
:10030000ED55FE4F80834093FB030895EF92FF92DB
:100310000F931F93CF93DF93F090B200E09001040E
:10032000E8225091FD035F3F51F4E11056C0109256
:10033000FD0381E08093F5031092F60348C080919D
:10034000F903C091F803CF0D9091F703C91BC89F23
:10035000E0011124CD2FDD27C695C69549E0451B48
:10036000042F10E00C171D0708F04C2F540F50936A
:10037000FD038091F6039091F503292FE1100FC042
:100380004150922F990F4F3F19F0822B292FF8CF10
:100390008093F6039093F5035830C8F01BC041508A
:1003A00001C0220F4A95EAF72093F503822B809330
:1003B000F603583060F00E94670181E0E81621F0F2
:1003C0000C171D0708F4B3CF8FEF8093FD03F09255
:1003D000F70303C00E946701F3CFDF91CF911F9114
:1003E0000F91FF90EF900895CF92DF92EF92FF92DE
:1003F0000F931F93CF93DF938C01E62E8091FE0322
:100400009091FF03892B09F455C0D8011C969C914B
:10041000983050F081E09E3008F480E0C1E001C0E7
:10042000CC0F8A95EAF701C0C4E0CFB6F894D0911A
:10043000B2008AE0D82E90E0DA94E091FE03F091C9
:10044000FF0380910004DD2041F1992319F0908190
:10045000892B03C09081809589238083F090FA03D3
:100460008091B2008D1B8F1598F48BB38C2361F0B3
:100470008BB38C2B8BBBD8011E96ED91FC911F97F3
:1004800080810E948601ECCFC8010E943C18E8CF11
:10049000DF0D9E2D9170E694CFCF9081892B8083C4
:1004A000CFBE8091B2008D1B8F1538F4C8010E9419
:1004B0003C18F7CF80E090E002C081E090E0DF914F
:1004C000CF911F910F91FF90EF90DF90CF90089503
:1004D0001F920F920FB60F9211242F933F934F93B9
:1004E0005F936F937F938F939F93AF93BF93EF939C
:1004F000FF9389B10E948601FF91EF91BF91AF9167
:100500009F918F917F916F915F914F913F912F912B
:100510000F900FBE0F901F9018951F920F920FB65D
:100520000F9211242F933F934F935F936F937F9379
:100530008F939F93AF93BF93EF93FF9386B10E94E6
:100540008601FF91EF91BF91AF919F918F917F9124
:100550006F915F914F913F912F910F900FBE0F9030
:100560001F9018951F920F920FB60F9211242F9380
:100570003F934F935F936F937F938F939F93AF932B
:10058000BF93EF93FF9383B10E948601FF91EF9198
:10059000BF91AF919F918F917F916F915F914F919B
:1005A0003F912F910F900FBE0F901F9018958F9233
:1005B0009F92AF92BF92EF92FF920F931F93CF93B0
:1005C0004B015C01C42F8091000190910101A09129
:1005D0000201B091030188159905AA05BB0501F137
:1005E0000E940A01811102C080E020C085EEE82E41
:1005F00081E0F82E00E012E020E030E0B501A40137
:100600008091E5039091E6030E94900B882361F3AB
:100610008092000190920101A0920201B092030128
:1006200080919E01C82BC0939E0181E0CF911F91C4
:100630000F91FF90EF90BF90AF909F908F90089593
:100640004F925F926F927F928F929F92AF92BF92E2
:10065000CF92DF92EF92FF920F931F93CF93DF938E
:10066000EC01423051056105710510F480E078C05D
:1006700089859A85AB85BC850196A11DB11D84171E
:100680009507A607B70790F3CB88DC88ED88FE882E
:100690008F89803129F4BB27A72F962F852F09C07A
:1006A000DB01CA01E7E0B695A79597958795EA958E
:1006B000D1F7480159012A013B01C80ED91EEA1E93
:1006C000FB1E8091000190910101A0910201B09167
:1006D0000301C816D906EA06FB0681F48F8980312A
:1006E000A9F4B301A201552766277727440F551FA8
:1006F000FA01EB51FE4F9182808219C040E0C701A0
:10070000B6010E94D7028111E9CFB0CFB301A20197
:100710004F77552766277727440F551F440F551FDE
:10072000FA01EB51FE4F80829182A282B3828091C6
:100730009E01816080939E018A89823080F08D8144
:100740009E81AF81B885C80ED91EEA1EFB1EC092DD
:100750009F01D092A001E092A101F092A20181E05C
:10076000DF91CF911F910F91FF90EF90DF90CF908D
:10077000BF90AF909F908F907F906F905F904F90C1
:1007800008958F929F92AF92BF92CF92DF92EF9295
:10079000FF920F931F93CF93DF93FC018185928586
:1007A000A385B4850196A11DB11D84179507A607E1
:1007B000B70710F480E05BC083889488A588B6886A
:1007C0008789803129F4BB27A72F962F852F09C051
:1007D000DB01CA01C7E0B695A79597958795CA959D
:1007E000D1F7E9016A017B018F01BC01CD01680DE0
:1007F000791D8A1D9B1D8090000190900101A090A1
:100800000201B0900301681579058A059B0591F4F2
:10081000F80187898031A1F4DD24EE24FF24C6018C
:10082000880F991FFC01EB51FE4F80819181A0E060
:10083000B0E018C040E00E94D7028111E9CFBACFE2
:10084000E894C7F8DD24EE24FF24C601880F991F21
:10085000880F991FFC01EB51FE4F80819181A2818D
:10086000B381BF7088839983AA83BB8381E0DF91C2
:10087000CF911F910F91FF90EF90DF90CF90BF909D
:10088000AF909F908F900895CF93DF93EC018D816F
:10089000882379F18C8187FF28C06E857F858889C0
:1008A000998941E00E94D702882319F1EA8980E200
:1008B000E89FF0011124EB51FE4F3097D1F08D816C
:1008C000823040F48B899C89AD89BE89848F958F55
:1008D000A68FB78F8F89988DA98DBA8D938F828FB0
:1008E000B58BA48B8C818F778C83DF91CF910C9407
:1008F0000A0180E0DF91CF9108958F929F92AF928D
:10090000BF92CF92DF92EF92FF920F931F93CF93FC
:10091000DF93EC018D81811102C080E078C00B89EA
:100920001C892D893E890417150726073707A8F368
:100930006A017B01823029F4CA86DB86EC86FD865B
:100940000DC0C114D104E104F10451F41E821F82D0
:10095000188619861A861B861C861D8681E057C05C
:100960008A849B84AC84BD84EB8DFC8D258530E02E
:10097000275F3F4FB501A401415051096109710939
:10098000022E04C076956795579547950A94D2F73D
:10099000D701C6010197A109B10904C0B695A79571
:1009A000979587952A95D2F784179507A607B707D5
:1009B00020F089288A288B2871F44F89588D698DF9
:1009C0007A8D4E835F83688779874C015D018E0144
:1009D0000A5F1F4F16C0841B950BA60BB70BF5CFF4
:1009E0004E815F816885798598018B8D9C8D0E94F1
:1009F000C10391E0891A9108A108B108882309F47C
:100A00008CCF81149104A104B10451F795CFDF91EB
:100A1000CF911F910F91FF90EF90DF90CF90BF90FB
:100A2000AF909F908F9008952F923F924F925F9238
:100A30006F927F928F929F92AF92BF92CF92DF92EE
:100A4000EF92FF920F931F93CF93DF9300D000D0CC
:100A5000CDB7DEB78C015B011A01DC0115968C91D4
:100A600015978130C9F414968C9181FF15C082FFCF
:100A70001DC0F801438954896589768982859385EB
:100A8000A485B58584179507A607B70779F0C8012F
:100A90000E947D0481110AC081E090E0D801139684
:100AA0009C938E93129780E090E036C1610183C0E1
:100AB0005B968D919C915C97FC0174802FEF270DC4
:100AC0002A013B0139E076946794579447943A950C
:100AD000D1F7722E74207A01F1E0FF22772009F419
:100AE00076C080E092E08E199F0946018C159D0525
:100AF00008F44C01D8015B962D913C915C971696B9
:100B00008D919D910D90BC91A02D0297A109B109E5
:100B1000F901058404C0880F991FAA1FBB1F0A94FE
:100B2000D2F74685578560897189840F951FA61F66
:100B3000B71F9C01AD01270D311D411D511D29011C
:100B40003A01811432E0930609F088C080910001D7
:100B500090910101A0910201B0910301481659063C
:100B60006A067B0659F48FEF9FEFDC01809300014A
:100B700090930101A0930201B09303019501B30189
:100B8000A2018091E5039091E6030E94240C882342
:100B900009F482CF9EEFB91AC818D908F8018285E6
:100BA0009385A485B585880D991DA11DB11D8287EA
:100BB0009387A487B587D8011A964D915D916D9161
:100BC0007C911D97C114D10409F072CF87C0E11444
:100BD000F10409F086CF16964D915D916D917C914F
:100BE0001997411551056105710559F457968D9175
:100BF0009D910D90BC91A02D0097A105B10541F5E7
:100C000021C09E012F5F3F4F0E94C103882309F43A
:100C10004BCF89819A81AB81BC81F801238D348DC2
:100C2000F9012789203129F048EF5FEF6FEF7FE06E
:100C300004C048EF5FEF60E070E084179507A607F7
:100C4000B70730F0C8010E94D50981114ACF24CFDF
:100C5000F80186839783A087B18743CFE114F1041D
:100C600029F5D8011A964D915D916D917C911D9752
:100C700053968D919D910D90BC91A02D48175907C9
:100C80006A077B0798F00E940A01882309F404CFC1
:100C900040920001509201016092020170920301A2
:100CA00080919E01816080939E0108C041E0C30154
:100CB000B2010E94D702882309F4EECED501F701D4
:100CC000EB51FE4F9F01280D391D2E173F0719F0DC
:100CD0008D918193FACFA80CB91C5ECFF80183895E
:100CE0009489A589B68984179507A607B70738F4AC
:100CF000438B548B658B768B848180688483F80169
:100D0000848183FD02C0C10107C0C8010E94440460
:100D1000882309F4C1CEF7CF0F900F900F900F905A
:100D2000DF91CF911F910F91FF90EF90DF90CF90C7
:100D3000BF90AF909F908F907F906F905F904F90FB
:100D40003F902F900895CF93DF931F92CDB7DEB7DA
:100D5000698341E050E0BE016F5F7F4F0E94140540
:100D60000F90DF91CF9108958F929F92AF92BF9293
:100D7000CF92DF92EF92FF920F931F93CF93DF9367
:100D800000D000D0CDB7DEB77C0180E2689FF001D3
:100D90001124EB51FE4F9385917121F0842F8274C1
:100DA00009F08FC0142FD70152966C93529740913F
:100DB00000015091010160910201709103011E96A2
:100DC0004D935D936D937C9351974489558960E071
:100DD00070E0BA0155274427828D938DA0E0B0E0E2
:100DE000482B592B6A2B7B2BD70157964D935D933C
:100DF0006D937C935A978385887159F4848D958D72
:100E0000A68DB78DF701838B948BA58BB68B81E074
:100E100012C0803109F055C097012D5E3F4FD701B8
:100E20005B968D919C915C970E94B213882309F484
:100E300048C084E0F7018583812F8F70D701149615
:100E40008C931497F70116821782108611861A96D2
:100E50001D921D921D921C921D9716FF34C015966F
:100E60008C91813071F511FF2CC0F70143895489B1
:100E700065897689452B462B472B09F461C040E0F4
:100E800050E0BA01C7010E947D048823D1F0F70128
:100E90008788908CA18CB28CC38CD48C82E090E03B
:100EA000A0E0B0E0F60180839183A283B3839E012A
:100EB0002F5F3F4FB501A401C6010E94C1038111FC
:100EC00004C080E03DC081E03BC000E010E098013C
:100ED000B501A401C6010E942003882391F38980F3
:100EE0009A80AB80BC80D60157968C91803129F0D6
:100EF00088EF9FEFAFEFBFE004C088EF9FEFA0E067
:100F0000B0E088169906AA06BB0688F2D701579664
:100F10001D921D921D921C925A97F701138A148AF2
:100F2000158A168A848180688483C7010E944404DC
:100F3000882339F240E050E0BA01C7010E947D04E5
:100F40000F900F900F900F90DF91CF911F910F9105
:100F5000FF90EF90DF90CF90BF90AF909F908F90D9
:100F600008952F923F924F925F926F927F928F924D
:100F70009F92AF92BF92CF92DF92EF92FF920F9328
:100F80001F93CF93DF93CDB7DEB72B970FB6F894AF
:100F9000DEBF0FBECDBF7C01FE013196CE010C96A7
:100FA0006F0130E23193E817F907E1F7DA0130E039
:100FB00087E09D91992331F19E3231F48A3009F412
:100FC0006BC138E08AE0F5CFEEE9F0E044914423CC
:100FD00021F031969413FACF5FC1831708F45CC1F6
:100FE0004FED490F4E3508F057C141E0430FF60170
:100FF000E30FF11D3FE9390F3A3108F49052908325
:10100000342FD7CF8981803209F446C1322E8B012B
:10101000DB015B968D919C915C97F701948F838F98
:1010200016961D921D921D921C921997FB01128615
:10103000138614861586B12CF80182859385A485C4
:10104000B585438954896589768984179507A607EC
:10105000B70708F05BC025E0B695A79597958795EB
:101060002A95D1F7F82FFF70AF2ED80115968C91E5
:10107000823008F411C1C8010E94E10C97FD0CC137
:10108000F80182859385A485B5854F96A11DB11D74
:1010900082879387A487B587F0E2AF9EB0011124C1
:1010A0006B517E4F6115710509F4F6C0DB018C911F
:1010B000882319F0853EC1F4F1C0B1100EC0F701CC
:1010C000A28A8091000190910101A0910201B0914A
:1010D000030186879787A08BB18BDB018C918823D6
:1010E00099F0BB24B394A8CF4BE050E0C6010E9416
:1010F0006E26892B09F0A0CF832D8073803309F4ED
:10110000CBC0432D6A2DC4C0BB24B394832D827100
:10111000823109F0C1C0BB20C1F0F7016685778537
:101120008089918941E00E94D702882309F4B4C0E4
:10113000D70152968C91B0E28B9FC00111248B5144
:101140009E4F009709F078C0A7C0F80185818230D2
:1011500009F4A2C0C8010E94D509882309F49CC0E3
:10116000D8015B96ED91FC915C9716968D909D90C1
:10117000AD90BC901997B2E08B1A9108A108B10804
:10118000058404C0880C991CAA1CBB1C0A94D2F7C5
:1011900086859785A089B189880E991EAA1EBB1ED7
:1011A0002480E1E08E1A9108A108B108222009F1FB
:1011B00024013501420C511C611C711C0E940A0162
:1011C000882309F469C0E5EEF1E0119223E0E53EE1
:1011D000F207D9F74092000150920101609202019A
:1011E0007092030180919E01816080939E012A94F8
:1011F000DDCFD8015B96ED91FC915C9780E092E0A9
:10120000A0E0B0E0058404C0880F991FAA1FBB1F8F
:101210000A94D2F7F8014389548965897689840F45
:10122000951FA61FB71F838B948BA58BB68BD701F9
:1012300052961C9285EE91E020E2FC0111922A95D3
:10124000E9F72BE0F601DC0101900D922A95E1F718
:1012500021E238E2DC0151963C932E93509740E016
:1012600058E01F965C934E931E9753963C932E9393
:10127000529759963C932E93589757965C934E935A
:1012800056970E940A01882339F0432DF70162899D
:10129000C7010E94B40605C080E003C0B11021CF91
:1012A0000ECF2B960FB6F894DEBF0FBECDBFDF91E9
:1012B000CF911F910F91FF90EF90DF90CF90BF9053
:1012C000AF909F908F907F906F905F904F903F90E6
:1012D0002F900895CF93DF93EC010E94440488235C
:1012E00011F01D8281E0DF91CF910895DC015996C4
:1012F000ED91FC915A973097B9F083899489A5892B
:10130000B6894285538564857585841B950BA60B2C
:10131000B70B811520E89207A105B10538F08FEFD2
:101320009FE7A0E0B0E0089580E090E00895CF93BB
:10133000DF931F92CDB7DEB76983DC01ED91FC919D
:101340000280F381E02D41E050E0BE016F5F7F4FEE
:1013500009950F90DF91CF910895089580E090E076
:101360000895FC01818D928D009711F00C94440436
:101370000895CF93DF93EC01898D9A8D009739F40E
:1013800081E090E09B838A8380E090E00BC0FC01C9
:10139000138212820E941405E98DFA8D2281338115
:1013A000232B71F7DF91CF9108953F924F925F9277
:1013B0006F927F928F929F92AF92BF92CF92DF9265
:1013C000EF92FF920F931F93CF93DF93CDB7DEB7CA
:1013D0002C970FB6F894DEBF0FBECDBF5C01DC01C9
:1013E0005B968D909C905C971696CD90DD90ED90DD
:1013F000FC901997C114D104E104F10439F0BFEF56
:10140000CB1ADB0AEB0AFB0A312C07C0F401C080BF
:10141000D180E280F38033243394F4018185928576
:10142000A385B4859C01AD012F5F3F4F4F4F5F4FA8
:1014300029873A874B875C87260137011D821E82E8
:101440001F821886F40181859285A385B4852D813C
:101450003E814F815885281739074A075B0708F0F6
:1014600063C089859A85AB85BC858C159D05AE05C5
:10147000BF0550F482E0C82ED12CE12CF12C92E073
:10148000492E512C612C712C9E012F5F3F4FB701CB
:10149000A601C4010E94C103882309F445C08981C3
:1014A0009A81AB81BC81892B8A2B8B2B41F0260141
:1014B00037019FEF491A590A690A790A05C0C4140D
:1014C000D504E604F70491F02D813E814F815885C3
:1014D0002F5F3F4F4F4F5F4F2D833E834F83588782
:1014E0003FEFC31AD30AE30AF30AACCF0FEF1FEFA3
:1014F0002FEF3FE0B301A201C4010E942003882323
:1015000099F0D50116964D915D916D917C91199749
:10151000411551056105710549F093018201C4012E
:101520000E942003811102C080E02AC0D5011696D6
:101530004D925D926D927C921997332051F0D301B8
:10154000C2010196A11DB11DF40180839183A28384
:10155000B383F5018789908DA18DB28D892B8A2B5C
:101560008B2B69F4D50157964D925D926D927C92CA
:101570005A9714968C911497806814968C9381E0F6
:101580002C960FB6F894DEBF0FBECDBFDF91CF9182
:101590001F910F91FF90EF90DF90CF90BF90AF9091
:1015A0009F908F907F906F905F904F903F900895A5
:1015B0008FB7F8948091E4018FBF089561E0FC013A
:1015C00084810E947D188091E30181111092E301D2
:1015D00008958EBD00000DB407FEFDCF8EB50895B1
:1015E0008FEF0C94E90A0F931F93CF93DF93EB01D6
:1015F0000E94CA1A8B010E94F00A8F3F49F00E9494
:10160000CA1A601B710B6C177D07A8F380E001C03C
:1016100081E0DF91CF911F910F910895CF93DF93D8
:10162000EC018E81882389F08F8198859C012F5F42
:101630003F4F38872F838230924018F40E94F00A7F
:10164000F3CFCE010E94DE0A1E82DF91CF91089572
:101650008CBD9DBD0895CF93DF93EC018091E30194
:10166000811109C081E08093E3018091A2049091EF
:10167000A3040E94280B60E08C81DF91CF910C9431
:101680007D188F929F92AF92BF92FF920F931F93FC
:10169000CF93DF93EC01F62E49015A010E940E0B05
:1016A000CE010E942B0B6CE271E0CE010E94F30A86
:1016B0008F2D80640E94E90A08E110E0D501C40181
:1016C000002E04C0B695A795979587950A94D2F7F2
:1016D0000E94E90A08501109083F8FEF180771F7B7
:1016E000FF2029F088E0F81204C087E803C085E9EC
:1016F00001C08FEF0E94E90A10E00E94F00A8A8779
:1017000087FF04C01F3F11F01F5FF7CFDF91CF911C
:101710001F910F91FF90BF90AF909F908F90089571
:10172000AF92BF92CF92DF92EF92FF920F931F93EF
:10173000CF93DF93EC016901C801820F931F8130C1
:10174000924008F070C08E81882371F08881998161
:10175000AA81BB8184179507A607B70729F48F8153
:101760009885C816D906B0F5488359836A837B8368
:101770008B85833039F089E0440F551F661F771F32
:101780008A95D1F79A01AB0161E1CE010E94410B2C
:10179000882319F083E08D8346C00E94CA1A5B013A
:1017A0000E94F00A8A878F3F49F40E94CA1A6A1978
:1017B0007B096D327140A0F38FE003C08E3F31F0A2
:1017C0008DE08D83CE010E94DE0A2DC018861F8217
:1017D00081E08E838F8198858C159D0540F40E9451
:1017E000F00A8F819885019698878F83F3CF6701E0
:1017F000E00EF11EEC14FD0431F00E94F00AF60137
:1018000081936F01F7CF8F819885080F191F188773
:101810000F838985882319F00115124048F0CE0105
:101820000E940E0B05C0CE010E94DE0A80E001C0BE
:1018300081E0DF91CF911F910F91FF90EF90DF90AA
:10184000CF90BF90AF900895EF92FF920F931F93A8
:10185000CF93DF93EC0179014115510561057105C5
:1018600011F482E13CC08B85833039F089E0440F6C
:10187000551F661F771F8A95D1F79A01AB0168E162
:10188000CE010E94410B882311F084E028C08EEF26
:101890000E94E90A87018EEFF81AF80181918F0101
:1018A0000E94E90AE016F106C1F78FEF0E94E90AEB
:1018B0008FEF0E94E90A0E94F00A8A878F718530B3
:1018C00031F081E18D83CE010E94DE0A09C068E516
:1018D00072E0CE010E94F30A811107C085E18D8379
:1018E000CE010E94DE0A80E014C020E030E0A901B1
:1018F0006DE0CE010E94410B811109C00E94F00AE7
:10190000811105C0CE010E94DE0A81E002C084E19F
:10191000E6CFDF91CF911F910F91FF90EF90089547
:10192000FC01DB0112968D919C9113979383828326
:1019300089E291E09183808314968C91149784833B
:1019400015968C911597858316964D915D916D91A5
:101950007C91199746835783608771871A964D91BA
:101960005D916D917C911D97428753876487758740
:101970001E964D915D916D917C9151974687578749
:10198000608B718B52968C915297828B53964D91AE
:101990005D916D917C915697438B548B658B768BC3
:1019A00057964D915D916D917C915A97478B508FD1
:1019B000618F728F5B968D919C915C97948F838FD2
:1019C00008954F925F926F927F92AF92BF92CF92A3
:1019D000DF92EF92FF920F931F93CF93DF931F92AB
:1019E000CDB7DEB7FC012581222309F4C1C0848173
:1019F00080FFBEC083899489A589B68942845384B7
:101A00006484758484159505A605B70509F4B0C0EE
:101A10006F015201F1E0BF22D6015B968D919C913E
:101A20005C97B301A20139E0769567955795479584
:101A30003A95D1F7223071F4FC01828D938DA48DFB
:101A4000B58D8A019B01080F191F2A1F3B1FC90171
:101A5000B8014AC0DC0114961C9111501423A11442
:101A6000B104F9F411111DC045284628472851F446
:101A7000F6018789908DA18DB28D86839783A0878B
:101A8000B1870FC0D60116964D915D916D917C91F5
:101A9000199796012A5F3F4F0E94C103882309F4DA
:101AA00067C0F601238D348D86819781A085B1852D
:101AB0000297A109B109AC01BD01F901058404C077
:101AC000440F551F661F771F0A94D2F786859785A6
:101AD000A089B189840F951FA61FB71FBC01CD0136
:101AE000610F711D811D911DD60114962C9126FF49
:101AF0000DC0409000015090010160900201709073
:101B00000301461657066806790699F440E00E94DC
:101B1000D702882369F1F501EB51FE4FDE011196E2
:101B20009F012F5F3F4F2E173F0799F081918D93B3
:101B3000FACFFE0131967F0101E010E09501AB0183
:101B4000BC018091E5039091E6030E94900B8823ED
:101B500079F0F60182859385A485B5850196A11D4E
:101B6000B11D82879387A487B587898190E002C0E1
:101B70008FEF9FEF0F90DF91CF911F910F91FF900B
:101B8000EF90DF90CF90BF90AF907F906F905F907D
:101B90004F900895FC01818D928D009711F00C9467
:101BA000E10C8FEF9FEF08950F931F93CF93DF9377
:101BB000FC01818D928D0097B9F0EF010E94E10C3C
:101BC0008C010F3F8FEF180791F0898D9A8DFC01E2
:101BD00042855385648575854150510961097109B4
:101BE0000E947D04C80105C080E090E002C08FEF34
:101BF0009FEFDF91CF911F910F9108958F929F9248
:101C0000AF92BF92CF92DF92EF92FF924B015C01B5
:101C10006B017C0182E0F694E794D794C7948A958F
:101C2000D1F7D501C40124E0B695A795979587957E
:101C30002A95D1F7C80ED91EEA1EFB1ED701C60190
:101C400034E0B695A795979587953A95D1F7C80E44
:101C5000D91EEA1EFB1EBB27AF2D9E2D8D2DC80E53
:101C6000D91EEA1EFB1EC701AA27BB27C80ED91E14
:101C7000EA1EFB1EA3E0B0E0A70196010E94C42269
:101C8000A5019401261B370B480B590BABE0B0E0C4
:101C90000E94C422DC01CB0165E0B695A79597951B
:101CA00087956A95D1F7BC01CD016C0D7D1D8E1D08
:101CB0009F1DFF90EF90DF90CF90BF90AF909F90CF
:101CC0008F900895DF92EF92FF920F931F93CF931F
:101CD000DF93CDB7DEB72A970FB6F894DEBF0FBEFD
:101CE000CDBF8DEE94E00E94CA0D8C97D1F7E12C08
:101CF000F12C00E010E02AE0D22E8DEE94E00E945C
:101D0000CA0D9C01205331092A303105F8F4F8013D
:101D1000EE0FFF1F81E090E08C0F9D1FE80FF91F71
:101D200031832083FC0180E090E00817190759F007
:101D300040815181D49E9001D59E300D1124219374
:101D400031930196F2CF0F5F1F4FD7CF8D329105A0
:101D5000C1F00A9791F6FE01319620E030E080E074
:101D600090E00217130739F041915191840F951FAC
:101D70002F5F3F4FF6CFEF2841F091958195910964
:101D800004C0EE24E394F12CB8CF2A960FB6F89451
:101D9000DEBF0FBECDBFDF91CF911F910F91FF909E
:101DA000EF90DF900895CF93C82F60E00E947D18D8
:101DB00064E670E080E090E00E94901A61E08C2F71
:101DC0000E947D1864E670E080E090E00E94901A26
:101DD00060E08C2F0E947D1864E670E080E090E067
:101DE000CF910C94901A4F925F926F927F928F9244
:101DF0009F92AF92BF92EF92FF920F931F93CF9358
:101E0000DF937C017894C0E0D0E000E010E088EE41
:101E1000482E83E0582E612C712CCE15DF054CF531
:101E20000E94CA1A4B015C0183B7817F846083BF23
:101E300083B7816083BF889583B78E7F83BF83B765
:101E40008E7F83BF0E94CA1A681979098A099B0983
:101E5000A30192010E94A222200F311F2C333105D1
:101E600024F021962C533109F9CF8901085F1F4FC7
:101E7000D4CFF89480916400807180936400809145
:101E80006400816080936400DF91CF911F910F9176
:101E9000FF90EF90BF90AF909F908F907F906F904A
:101EA0005F904F900895EF92FF920F931F93CF93FF
:101EB000DF93CDB7DEB76B970FB6F894DEBF0FBEDA
:101EC000CDBF7C010E94D61A47E163E771E0CE01E5
:101ED00001960E946F14CE0101960E941C1200E12F
:101EE00010E0E0910605F0910705309719F0858123
:101EF000811122C001501109E1F08DEE94E00E94A1
:101F0000B1098EEC94E00E946A0960ED77E080E010
:101F100090E00E94901A0E94D61A47E163E771E0B0
:101F2000CE0101960E946F14CE0101960E941C12F0
:101F3000D8CF309709F49DC08581882309F499C0D2
:101F400085E090E00E94D30EC7010E947B130E949F
:101F5000771380913A0583FB882780F990E00E94EF
:101F60007B130E94771380913A058695817090E0EB
:101F70000E947B130E94771380913A0582FB882789
:101F800080F990E00E947B130E94771380913705BF
:101F90000E94AB130E947713809136050E94AB1309
:101FA0000E947713809135050E94AB130E9477132E
:101FB000809133050E94AB130E9477138091320504
:101FC0000E94AB130E947713809131050E94AB13DE
:101FD0000E94771380913A0587FB882780F990E06B
:101FE0000E947B130E94771360911C0570911D0560
:101FF00080911E0590911F050E94F32325E93FEB78
:1020000046ED53E30E94A8244AE00E94A5120E94D4
:1020100077136091200570912105809122059091A0
:1020200023050E94F32325E93FEB46ED53E30E948D
:10203000A8244AE00E94A5128EE791E00E94521265
:102040008091060590910705009761F00E946A094A
:1020500080910605909107050E94E02510920705E2
:10206000109206058EEC94E00E946A0981E090E0EF
:102070002AC000E010E0B80186E00E94311AB801E1
:1020800085E00E94311A65E070E080E090E00E94F7
:10209000901A0F5F1F4F0F3F110569F70FEF10E008
:1020A000B80186E00E94311AB80185E00E94311A19
:1020B00065E070E080E090E00E94901A0150110904
:1020C00079F780E090E06B960FB6F894DEBF0FBE14
:1020D000CDBFDF91CF911F910F91FF90EF900895A9
:1020E0001F920F920FB60F921124A8950F900FBE5A
:1020F0000F901F901895FC0110820895FC01148226
:102100001582168217821082118212821382118622
:102110001086138612861586148617861686118AEF
:10212000108A138A128A148A168A178A158A81E0FD
:10213000818F828F138E87E0808F148E158ECF0152
:102140004E960C947B10EF92FF920F931F93CF93B8
:10215000DF93EC017B018A011B821A8288EE93E0F7
:10216000A0E0B0E08C839D83AE83BF8385E391E0E4
:10217000998388838DE190E00E9448259A8F898F0A
:10218000009779F02DE1F701DC0101900D922A957D
:10219000E1F74CE050E0B801CE010C960E94862693
:1021A000188EDF91CF911F910F91FF90EF900895BE
:1021B000682F80913B05813021F0863009F47EC084
:1021C00039C1E09168058E2F90E0FC013197E9302C
:1021D000F10508F02FC1EC5CFF4F0C942E25809187
:1021E0006B0582FF27C180916905811123C1633589
:1021F00009F020C18091480590914905A0914A05B8
:10220000B0914B05B095A095909581959F4FAF4F9C
:10221000BF4F8093480590934905A0934A05B0931A
:102220004B0508C16C3249F480916905811105C0E4
:1022300080916B058B7F80936B0580916B0582FF8E
:10224000F9C08CE495E00E947D1CF4C08091690582
:102250008111F0C0862F0E948E1DECC080916B050D
:102260008E7F80936B0580916905811105C06C326A
:1022700009F4E0C060530CC06C3209F4D6C0809100
:102280005C05880F982F990F990F890F8053680F5D
:1022900060935C05CAC042E080E595E00E94EF1BB8
:1022A000882309F4C7C021E090916905911101C00C
:1022B00020E09091660520FB94F977C0E0916805D5
:1022C0008E2F90E0FC013197E930F10508F0B2C0A3
:1022D000E35CFF4F0C942E25862F0C94BD1D80913E
:1022E0006905882339F080916B0582FFA3C088E4DB
:1022F00095E0A9CF91E06C3209F490E080916B05F4
:1023000090FB82F980936B05EECF90916B0592FB69
:10231000882780F992FF8EC09091690591118AC03B
:1023200090916605986090936605673509F082C0C4
:1023300040914C0550914D0560914E0570914F05AF
:1023400070956095509541955F4F6F4F7F4F4093CB
:102350004C0550934D0560934E0570934F050895BD
:1023600043E084E595E00E94EF1B882309F462C0F6
:1023700021E090916905911101C020E090916605DE
:1023800020FB95F912C042E088E595E00E94EF1B22
:10239000882309F44FC021E090916905911101C093
:1023A00020E09091660520FB96F9909366050895CC
:1023B00080916905823019F140F48823A9F08130B9
:1023C000C9F580916105805316C0843029F1E8F089
:1023D000853081F5809163058053680F60936305B4
:1023E00080916605826024C06C3221F1660F6056D0
:1023F000862F880F880F680F609361051BC0660FDA
:102400006056862F880F880F03C080916205805325
:10241000680F609362050EC0660F6056862F880FA6
:10242000880F680F6093630505C08091660580681A
:102430008093660581E00895CF93DF93FC0182814C
:1024400093819093F0048093EF0484819581A68119
:10245000B7818093F1049093F204A093F304B093B6
:10246000F40480859185A285B3858093F5049093CB
:10247000F604A093F704B093F804EF012C96A9EFAB
:10248000B4E089918D9385E0A630B807D1F7818DAE
:10249000928D90930705809306058DEE94E0DF9171
:1024A000CF910895009769F0FC0101900020E9F7B1
:1024B0003197AF01481B590BBC018DEE94E00C9491
:1024C000B90980E090E008958F929F92AF92BF92F9
:1024D0000F931F93CF93DF93CDB7DEB7A1970FB6BE
:1024E000F894DEBF0FBECDBF19A2423008F44AE017
:1024F0008E010F5D1F4F842E912CA12CB12CA501B4
:1025000094010E94A222E62FB901CA0101501109CB
:10251000EA3014F4E05D01C0E95CD801EC93232BB0
:10252000242B252B61F7C8010E945212A1960FB6E9
:10253000F894DEBF0FBECDBFDF91CF911F910F91F9
:10254000BF90AF909F908F9008958F929F92AF927F
:10255000BF92CF92DF92EF92FF920F931F93CF9390
:10256000DF936B017C01142F9B01AC010E941525A8
:10257000882319F081E891E027C046015701E894CB
:10258000B7F82FEF3FEF4FE75FE7C501B4010E94B7
:10259000152581110DC02FEF3FEF4FE75FE7C50114
:1025A000B4010E944B2318161CF485E891E00CC07E
:1025B0002FEF3FEF4FE75FE4C701B6010E94A3246E
:1025C000181684F489E891E0DF91CF911F910F9163
:1025D000FF90EF90DF90CF90BF90AF909F908F9043
:1025E0000C9452122FEF3FEF4FE75FECC701B6019B
:1025F0000E944B2387FDE6CF20E030E0A901C70110
:10260000B6010E944B2387FF0BC06DE28DEE94E074
:102610000E949709EC01F7FAF094F7F8F09402C0E1
:10262000C0E0D0E000E060E070E080E09FE31017E1
:1026300041F020E030E040E251E40E9450230F5F7F
:10264000F6CFA70196010E94DF226B017C010E9458
:10265000C2234B015C014AE00E946412C80FD91FDB
:102660001123B9F1C501B4010E94F1239B01AC0112
:10267000C701B6010E94DE226B017C016EE28DEE85
:1026800094E00E949709C80FD91F20E030E040E293
:1026900051E4C701B6010E94A8244B015C010E94CD
:1026A000C2236B01E12CF12C4AE0C701B6010E9464
:1026B0006412C80FD91FC701B6010E94F1239B0104
:1026C000AC01C501B4010E94DE226B017C011150F6
:1026D000E1F6CE01DF91CF911F910F91FF90EF9026
:1026E000DF90CF90BF90AF909F908F9008958DE82E
:1026F00091E00C945212CF92DF92EF92FF92CF931F
:10270000DF936C01990FEE08FF08F7FE19C06DE228
:102710008DEE94E00E949709EC0166277727CB01A4
:102720006C197D098E099F094AE00E9464128C0F82
:102730009D1FDF91CF91FF90EF90DF90CF90089594
:102740004AE0C701B601DF91CF91FF90EF90DF9093
:10275000CF900C946412682F70E080E090E04AE023
:102760000C9464124F925F926F927F92AF92BF92DD
:10277000CF92DF92EF92FF920F931F93CF93DF934D
:1027800000D000D0CDB7DEB78C0149835A836B836C
:102790007C835901C12CD12C7601412C82E0582E2A
:1027A000612C712C49815A816B817C819E012F5F44
:1027B0003F4FC8010E94C103882351F1D301C201D8
:1027C000F801058404C0880F991FAA1FBB1F0A9433
:1027D000D2F7C80ED91EEA1EFB1E49815A816B81B1
:1027E0007C818789803129F088EF9FEFAFEFBFE0D0
:1027F00004C088EF9FEFA0E0B0E0481759076A07D0
:102800007B0780F2F501C082D182E282F38281E00F
:102810000F900F900F900F90DF91CF911F910F911C
:10282000FF90EF90DF90CF90BF90AF907F906F9030
:102830005F904F900895CF93DF93FC012581222371
:1028400011F080E049C0EC018091C7048031C1F4EF
:1028500082E08583178A108E118E128E8091C804B3
:102860009091C904A0E0B0E025E0880F991FAA1F4D
:10287000BB1F2A95D1F7838B948BA58BB68B19C080
:102880008032F9F683E085834091CA045091CB04ED
:102890006091CC047091CD04478B508F618F728F03
:1028A0009F012D5E3F4F80EB94E00E94B21388237E
:1028B00041F280EB94E09C8F8B8F81E08C831E82B1
:1028C0001F82188619861A861B861C861D861E8600
:1028D0001F86188A198A1A8ADF91CF9108952F923C
:1028E0003F924F925F926F927F928F929F92AF92A0
:1028F000BF92CF92DF92EF92FF920F931F93CF93ED
:10290000DF93CDB7DEB7C756D1090FB6F894DEBF57
:102910000FBECDBF6C015B01A6964FAFA69719A263
:1029200018A289E291E09F8F8E8F1BA21C821B82CE
:102930009A8389831E824E018EE1880E911CC40108
:102940000E941B1475018E010F5F1F4F2401180197
:102950006FE270E0C7010E947B26009709F442C035
:10296000F70120812F3221F4FFEFEF1AFF0AF0CF99
:102970008E198D3008F08CE0682E712CA301B70100
:10298000CE01885A9F4F0E948626E8E5F0E0EC0FC2
:10299000FD1FE60DF71D1082C8010E946A09F801AB
:1029A0008581882351F01EAE1DAE89E291E09CAF77
:1029B0008BAF21961FAE219721C021E0AE01485A6E
:1029C0005F4FB201C8010E94B107882361F3E60C92
:1029D000F71CC2010E946A09942D852D2801092F38
:1029E000182FB6CFC7018A199B09A8969FAF8EAF43
:1029F000A897B201CE01CB960E94900CA896EEAD9E
:102A0000FFADA897AE0EBF1EF5018081811109C0F0
:102A1000BE01655C7F4FC1010E94900C4FE851E000
:102A200041C019A218A289E291E09F8F8E8F1BA24C
:102A300021968FAD2197811113C0F6011382128266
:102A400088EE93E0A0E0B0E084839583A683B7830B
:102A500085E391E091838083128E118E148626C0C7
:102A6000A6962FADA697A501BE01655C7F4FC40158
:102A70000E94B107882309F3CE01CB960E946A0910
:102A8000A6968FADA6978670863039F449A95AA9C3
:102A90006BA97CA9C4010E947D04B401C1010E94FC
:102AA000900CA501B101C6010E94A310C601C9592D
:102AB000DF4F0FB6F894DEBF0FBECDBFDF91CF91D1
:102AC0001F910F91FF90EF90DF90CF90BF90AF904C
:102AD0009F908F907F906F905F904F903F902F903E
:102AE00008958F929F92AF92BF92CF92DF92EF9212
:102AF000FF92CF93DF93C82F84EA94E09093E6038C
:102B00008093E503CC2369F1C53010F080E00CC15F
:102B100040E060E070E0CB010E94D7028823B1F36F
:102B200020E1C29FC00111248B529E4FFC01E25450
:102B3000FE4F20812F7751F73C9640815181628171
:102B40007381443651056105710500F33497C080E7
:102B5000D180E280F380C114D104E104F10421F4B6
:102B6000D5CFC12CD12C760140E0C701B6010E941F
:102B7000D702882359F28091F0019091F1018115DB
:102B8000924021F6A091F501AA2309F4BFCF6091EC
:102B9000F3017091F4016115710509F4B7CF20912B
:102BA000F201222309F4B2CFA093C2042093B4040B
:102BB00080E030E041E050E0C82FFA01082E02C06A
:102BC000EE0FFF1F0A94E2F72E173F0739F08F5FD1
:102BD000C83091F789E08093BD0498CF8093BD04FD
:102BE0002091FB013091FC012115310519F040E0E5
:102BF00050E008C02091090230910A0240910B0276
:102C000050910C022093B5043093B6044093B7045E
:102C10005093B80446015701860E971EA11CB11CA3
:102C20008092C3049092C404A092C504B092C604DA
:102C3000E091F601F091F701F093C904E093C80424
:102C4000B0E00E94C422860E971EA81EB91E809274
:102C5000CA049092CB04A092CC04B092CD0485E03B
:102C6000EE0FFF1F8A95E1F7E150FE4FEF2FFF2790
:102C7000E6958E0E9F1EA11CB11C8092BE04909200
:102C8000BF04A092C004B092C1042091F801309119
:102C9000F9012115310521F0A90160E070E008C0BB
:102CA000409105025091060260910702709108025E
:102CB000D701C60188199909AA09BB09840F951F74
:102CC000A61FB71F04C0B695A79597958795CA9577
:102CD000D2F78093B9049093BA04A093BB04B09345
:102CE000BC04853F2FE09207A105B10510F48CE0EC
:102CF00018C0853F9F4FA105B10510F480E111C0B8
:102D00008091110290911202A0911302B0911402CD
:102D10008093CA049093CB04A093CC04B093CD04C9
:102D200080E28093C70481E0DF91CF91FF90EF9024
:102D3000DF90CF90BF90AF909F908F900895CF92EB
:102D4000DF92EF92FF920F931F93CF93DF936C016B
:102D50007A018B01C0E0D0E0CE15DF0581F0D8010B
:102D60006D918D01D601ED91FC910190F081E02DE6
:102D7000C6010995892B11F02196EECF7E01C7017E
:102D8000DF91CF911F910F91FF90EF90DF90CF9047
:102D90000895FC01538D448D252F30E0842F90E061
:102DA000821B930B541710F0CF9608950197089546
:102DB000FC01918D828D981761F0828DDF01A80F43
:102DC000B11D5D968C91928D9F5F9F73928F90E065
:102DD00008958FEF9FEF0895FC01918D828D9817D4
:102DE00031F0828DE80FF11D858D90E008958FEF11
:102DF0009FEF08950E94692685E094E00E94C70035
:102E000021E0892B09F420E0822F0895EF92FF92B0
:102E10000F931F93CF93DF93EC0181E0888F9B8DFD
:102E20008C8D981305C0E889F989808185FD26C0BD
:102E3000F62E0B8D10E00F5F1F4F0F731127E02E42
:102E40008C8DE8120CC00FB607FCFACFE889F9891F
:102E5000808185FFF5CFCE010E944501F1CF8B8D9A
:102E6000FE01E80FF11DE35AFF4FF0829FB7F8947F
:102E70000B8FEA89FB89808180620AC09FB7F89432
:102E8000EE89FF896083E889F98980818370806495
:102E900080839FBF81E090E0DF91CF911F910F91E0
:102EA000FF90EF900895CF93DF93EC01888D8823F6
:102EB000C9F0EA89FB89808185FD05C0A889B989A7
:102EC0008C9186FD0FC00FB607FCF5CF808185FF82
:102ED000F2CFA889B9898C9185FFEDCFCE010E94F0
:102EE0004501E7CFDF91CF9108951F920F920FB662
:102EF0000F9211242F933F938F939F93AF93BF9380
:102F00008091ED039091EE03A091EF03B091F00357
:102F10003091EC0326E0230F2D3720F40296A11DFB
:102F2000B11D05C029E8230F0396A11DB11D2093F3
:102F3000EC038093ED039093EE03A093EF03B09323
:102F4000F0038091F1039091F203A091F303B0910B
:102F5000F4030196A11DB11D8093F1039093F20338
:102F6000A093F303B093F403BF91AF919F918F911E
:102F70003F912F910F900FBE0F901F9018951F92A9
:102F80000F920FB60F9211242F933F934F935F939D
:102F90006F937F938F939F93AF93BF93EF93FF9321
:102FA00085E094E00E944501FF91EF91BF91AF91C0
:102FB0009F918F917F916F915F914F913F912F9151
:102FC0000F900FBE0F901F9018951F920F920FB683
:102FD0000F9211242F938F939F93EF93FF93E09180
:102FE0001504F09116048081E0911B04F0911C04FB
:102FF00082FD12C0908180911E048F5F8F7320919B
:103000001F04821751F0E0911E04F0E0EB5FFB4FCC
:10301000958F80931E0401C08081FF91EF919F9155
:103020008F912F910F900FBE0F901F9018953FB763
:10303000F8948091F1039091F203A091F303B09181
:10304000F40326B5A89B05C02F3F19F00196A11DDA
:10305000B11D3FBFBA2FA92F982F8827820F911D2E
:10306000A11DB11DBC01CD0143E0660F771F881F74
:10307000991F4A95D1F70895CF93DF93FC013091C2
:10308000FD033F3FB1F1A685B7859C918091010476
:10309000892379F12091B2008091F9039091F8038E
:1030A000290F9091F703291B99E0931B492F50E0BA
:1030B000289F90011124232F332726952695421708
:1030C0005307B8F48091F6032091F503915018F05E
:1030D000822B220FFBCFEF018093F6032093F503A1
:1030E0009093FD030E94670181E02A893B89232B8D
:1030F00009F080E0DF91CF91089590E0FC01E25269
:10310000FF4F2491FC01E05FFE4F3491FC01EC5D28
:10311000FE4FE491EE2309F43CC0222339F1233021
:1031200091F038F42130A9F0223001F584B58F7D7B
:1031300012C0273091F02830A1F02430B9F48091EA
:1031400080008F7D03C0809180008F778093800006
:103150000DC084B58F7784BD09C08091B0008F7792
:1031600003C08091B0008F7D8093B000F0E0EE0F3F
:10317000FF1FEE50FF4FA591B4919FB7F8946111D6
:1031800004C08C913095382302C0EC913E2B3C93C7
:103190009FBF0895CF93DF9390E0FC01E05FFE4F67
:1031A0002491FC01EC5DFE4F8491882361F190E055
:1031B000880F991FFC01EA5FFE4FC591D491FC0175
:1031C000EE50FF4FA591B491611109C09FB7F894DB
:1031D0008881209582238883EC912E230BC0623056
:1031E00061F49FB7F8948881322F309583238883C8
:1031F000EC912E2B2C939FBF06C08FB7F894E881DB
:103200002E2B28838FBFDF91CF910895CF93DF932B
:10321000A0910204B0910304109709F457C01C96C2
:103220008C911C97883038F08E3040F0863148F011
:10323000E0E0F0E008C0EDE6F0E005C0EBE6F0E02D
:1032400002C0ECE6F0E05FB7F8941092030410922D
:1032500002043097D1F11C969C911C97963118F47A
:10326000C8E6D0E002C0C0E0D0E03881983060F01D
:1032700021E09E3008F420E081E090E001C0880F5A
:103280002A95EAF7809501C08BEF832388836081BC
:103290001C964C91483038F481E090E001C0880FD2
:1032A0004A95EAF70FC0242F30E04E3018F428502A
:1032B000310902C02E50310981E090E001C0880F31
:1032C0002A95EAF78095862380835FBF60E080912E
:1032D00014050E94CA188091140590E0FC01E05F7B
:1032E000FE4FE491E0930104FC01EC5DFE4FE4919C
:1032F000F0E0EE0FFF1FE450FF4F85919491909303
:103300001705809316058091150590E0FC01E05F9C
:10331000FE4F249120930004FC01EC5DFE4FE491EC
:10332000F0E0EE0FFF1FEE50FF4FA591B491B09368
:10333000FF03A093FE03109719F0EC91E22BEC939E
:1033400061E0809115050E94CA181092B00083E0D8
:103350008093B10080911405883040F08E3048F0A1
:10336000863108F07BC0ECE6F0E005C0EDE6F0E069
:1033700002C0EBE6F0E08FEF8093FD031092FC03B8
:103380001092FB03809118059091190581152BE48B
:10339000920709F049C08DE08093FA038EE4809390
:1033A000F90386E08093F8035FB7F8946081409159
:1033B0001405483030F491E001C0990F4A95EAF7BE
:1033C0000EC0242F30E04E3018F42850310902C0CE
:1033D0002E50310991E001C0990F2A95EAF7892F03
:1033E000862B808390911405963118F0E0E0F0E090
:1033F00002C0E8E6F0E03081983058F021E09E30DD
:1034000008F420E091E0892F01C0880F2A95EAF79F
:1034100001C084E0832B808388E095E090930304CF
:10342000809302045FBF1AC081302BE4920760F4DE
:103430008038954209F0B8CF8AE18093FA0387E299
:103440008093F9038AE0AECF82312AE7920709F42C
:10345000A2CF8115964909F0A7CF9DCFDF91CF91DB
:1034600008951F93CF93DF93182FEB0161E00E9423
:10347000CA18209711F460E004C0CF3FD10539F499
:1034800061E0812FDF91CF911F910C947D18E12F86
:10349000F0E0E252FF4FE491E330F9F048F4E1301C
:1034A000B9F0E230A1F584B5806284BDC8BD34C0F6
:1034B000E730E9F0E83019F1E43049F58091800017
:1034C000806280938000D0938B00C0938A0024C0D8
:1034D00084B5806884BDC7BD1FC0809180008068AE
:1034E00080938000D0938900C093880015C080919C
:1034F000B00080688093B000C093B3000DC080918D
:10350000B00080628093B000C093B40005C0C038A2
:10351000D1050CF0B5CFAFCFDF91CF911F910895BA
:103520008F929F92AF92BF92CF92DF92EF92FF92D3
:103530006B017C010E9417184B015C01C114D1047E
:10354000E104F104F1F00E941718DC01CB018819A5
:103550009909AA09BB09883E9340A105B10570F3FA
:1035600021E0C21AD108E108F10888EE880E83E054
:10357000981EA11CB11CC114D104E104F10419F777
:10358000DDCFFF90EF90DF90CF90BF90AF909F90F6
:103590008F9008952FB7F8946091ED037091EE032A
:1035A0008091EF039091F0032FBF08958F929F9227
:1035B000AF92BF92CF92DF92EF92FF92CF93809122
:1035C000D304882321F08EEC94E00E946A091092C3
:1035D000AF041092AD041092AA041092A90488E0DE
:1035E0008093A8040E94CA1A6B017C0161E080915B
:1035F000A8040E94CA1861E08091A8040E947D1866
:10360000CFB7F89480910404811127C0EEE2F1E075
:103610008491EAE1F1E09491E82FF0E0EE0FFF1FD2
:10362000EA5FFE4FA591B491EC91E92321F461E0AA
:103630008AE00E947D1861E08AE00E94CA188CB579
:1036400080618CBD8CB580648CBD61E08DE00E9492
:10365000CA1861E08BE00E94CA18809104048F5F51
:1036600080930404CFBF82E58093A20481E080931D
:10367000A3048091A2049091A3040E94280BCAE0A5
:103680008FEF0E94E90AC150D9F784EA94E00E94C2
:103690002B0B20E030E0A90160E084EA94E00E9476
:1036A000410BC82F8093AE04813049F00E94CA1AA2
:1036B0006C197D09613D774060F381E054C02AEACE
:1036C00031E040E050E068E084EA94E00E94410B81
:1036D00082FF03C0C093AF040EC0C4E00E94F00A92
:1036E0008093AE04C150D1F78A3A11F082E03BC01A
:1036F00082E08093AF048091AF04823021F0812C6E
:10370000912C540105C0812C912CA12C80E4B82E61
:1037100020E030E0A90167E384EA94E00E94410BD5
:10372000A501940169E284EA94E00E94410B809330
:10373000AE04882349F00E94CA1A6C197D09613DC4
:10374000774030F388E00FC08091AF04823001F5FC
:1037500020E030E0A9016AE384EA94E00E94410B92
:10376000882341F086E08093A90484EA94E00E94D3
:10377000DE0A29C00E94F00A807C803C19F483E0B4
:103780008093AF040E94F00A0E94F00A0E94F00A9F
:1037900084EA94E00E94DE0A80E58093A20481E03E
:1037A0008093A3040E947115882341F08EEC94E06D
:1037B0000E941B1491E0811107C005C080E00E94A7
:1037C00071158111F3CF90E0892FCF91FF90EF9089
:1037D000DF90CF90BF90AF909F908F900895FC01A5
:1037E00080916905811119C01182108213821282A1
:1037F00080916B05826080936B0510926A0591E061
:103800006D3209F090E080916B0590FB80F9809318
:103810006B056D3209F06BC066C06C3289F5809122
:103820006A05811103C081E080936A0582819381DA
:10383000892B99F05AE080916A0591E0980F909356
:103840006A05481750F022813381529FC001539F6F
:10385000900D112493838283EECF80916B0580FFBE
:1038600044C082819381919581959109938382834C
:10387000808191819195819591099183808335C053
:103880006E3221F481E080936A052DC080916A0533
:10389000811112C0208131814AE0429FC001439FC3
:1038A000900D1124062E000C770B60537109680FE0
:1038B000791F7183608317C091E0980F90936A0518
:1038C000481788F0228133814AE0429FC001439F1C
:1038D000900D1124062E000C770B60537109680FB0
:1038E000791F7383628380E0089581E008956C32CC
:1038F00009F499CF6E3271F6C5CFCF92DF92EF9275
:10390000FF920F931F93CF93DF93EC01162F8091BB
:10391000690581110BC0188219821A821B821092CC
:103920006A0580916B05826080936B051E3291F071
:103930001C3209F082C080916A05882359F0809179
:103940006A058430A1F5288139814A815B81A4E62A
:10395000B0E047C081E080936A058981982F9295F5
:103960009F708F702AE0929F800D11249A8191118F
:103970008C599881292F22952F709F703AE0239FB0
:10398000900D1124292F3CE3839FC0011124820F45
:10399000911D092E000CAA0BBB0B88839983AA8367
:1039A000BB831E3209F4AEC01C3249F246C08530DA
:1039B00039F4288139814A815B81AAE0B0E011C0E5
:1039C0008630F1F008F0A0C0288139814A815B81FE
:1039D000833019F4A8EEB3E004C0823029F4A0E1EA
:1039E000B7E20E94C42208C0813051F460EA76E850
:1039F00081E090E00E949222688379838A839B838E
:103A0000C880D980EA80FB80D701C601880F991F42
:103A1000AA1FBB1FBC01CD016F5F7F4F8F4F9F4F10
:103A20000E94FE0DDC01CB018C0D9D1DAE1DBF1D46
:103A300088839983AA83BB8367C080916A058111BB
:103A40001BC088819981AA81BB816C017D0134E012
:103A5000CC0CDD1CEE1CFF1C3A95D1F7612F110F29
:103A6000770BCB01C097092E000CAA0BBB0B8C293E
:103A70009D29AE29BF2942C08F5F80936A05873098
:103A8000C0F4288139814A815B81AAE0B0E00E94BC
:103A9000C422212F110F330B205331098901330F19
:103AA000220B330BDC01CB01800F911FA21FB31F30
:103AB00025C0873039F5C880D980EA80FB80D701DE
:103AC000C601880F991FAA1FBB1FBC01CD016F5FE4
:103AD0007F4F8F4F9F4F0E94FE0DDC01CB018C0D5D
:103AE0009D1DAE1DBF1D193324F00296A11DB11DF1
:103AF00005C014331CF00196A11DB11D8883998364
:103B0000AA83BB8380E001C081E0DF91CF911F9148
:103B10000F91FF90EF90DF90CF900895813311F0D7
:103B2000813411F483E020C0803321F08E3411F011
:103B3000863519F41092650519C0823311F084346A
:103B400011F484E011C0833311F487E00DC0843395
:103B500011F486E009C0853311F485E005C0863391
:103B600011F0853441F481E080936505809166050C
:103B700081608093660580E00895E09169054E2F8D
:103B800050E04930510508F051C0FA01EA5BFF4F9F
:103B90000C942E25109264058C3209F447C0909144
:103BA0006B05926090936B05880F8056982F990F44
:103BB000990F03C090915F059053890F80935F0523
:103BC00035C0880F8056982F990F990F03C0909198
:103BD0005E059053890F80935E0528C0880F80563C
:103BE000982F990F990F03C090915D059053890FFD
:103BF00080935D051BC08C32C9F413C08C3289F0F0
:103C0000880F8056982F990F990F890F809364051C
:103C10000DC08C3231F0909164059053890F8093E0
:103C200064058091660584608093660581E008954F
:103C3000CF93DF93CDB7DEB76F970FB6F894DEBFA3
:103C40000FBECDBF789484B5826084BD84B5816099
:103C500084BD85B5826085BD85B5816085BD809157
:103C60006E00816080936E001092810080918100CF
:103C700082608093810080918100816080938100C7
:103C8000809180008160809380008091B100846089
:103C90008093B1008091B00081608093B0008091EA
:103CA0007A00846080937A0080917A0082608093A9
:103CB0007A0080917A008E7F80937A0080917A00DA
:103CC000806880937A001092C10061E082E00E94D7
:103CD000CA1861E086E00E94CA1861E085E00E948F
:103CE000CA180E94D61A811111C060E085E00E94B6
:103CF0007D1861E086E00E947D188EEC94E00E94C1
:103D00006A0986E090E00E94D30EFBCF85E090E048
:103D10000E94D30E41E061E971E0CE0101960E945C
:103D20006F14CE0101960E941C1206E010E0E09193
:103D30000605F0910705309719F0858181111EC0A5
:103D400001501109C1F08EEC94E00E946A0968EC00
:103D500070E080E090E00E94901A0E94D61A41E044
:103D600061E971E0CE0101960E946F14CE010196C7
:103D70000E941C12DCCF309709F44DC08581882346
:103D800009F449C085E090E00E94D30E0E94620EC3
:103D90008093060185E090E00E94D30E0E94620E9F
:103DA0008093070185E090E00E94D30E0E94620E8E
:103DB0008093080185E090E00E94D30E0E94620E7D
:103DC00085E090E00E94D30E0E94620E9093050160
:103DD0008093040185E090E00E94D30E0E94620E61
:103DE00085E090E00E94D30E0E94620E85E090E094
:103DF0000E94D30E0E94620E092E000CAA0BBB0B70
:103E00008093090190930A01A0930B01B0930C01D8
:103E100085E090E002C086E090E00E94D30E8091A1
:103E2000060590910705009761F00E946A0980914C
:103E30000605909107050E94E02510920705109253
:103E4000060561E085E00E947D1868EE73E080E081
:103E500090E00E94901A60E085E00E947D188EEC50
:103E600094E00E946A09F89414BE80916000886111
:103E70008093600081E680936000789461E082E046
:103E80000E947D188091040190910501803825E2FF
:103E9000920721F08115EBE49E07A1F4209118050B
:103EA000309119058217930769F090931905809353
:103EB000180580910204909103048850954011F4F4
:103EC0000E9406190E94061901E0DD24D394FF2404
:103ED000F394F2E0CF2EE3E0EE2E88E095E00E942E
:103EE000F300892B09F4D2C188E095E00E94DD003F
:103EF000182F8091440590914505A0914605B091F9
:103F000047050196A11DB11D809344059093450579
:103F1000A0934605B09347051432A9F480916B0530
:103F200084FF03C08F7E80936B051092670510920B
:103F30003B05F0926C051092690580916B058D7FB1
:103F400080936B05CACFB0906C0522E0B2122AC0F4
:103F50001A3219F4E0926C051CC080EE810F8F3587
:103F600008F0FDC080916705812780936705812F48
:103F70000E94D810882309F4F2C01C3269F48091A1
:103F80006B058D7F80936B05809168058F5F8093B3
:103F9000680510926905A1CF809169058F5F8093B4
:103FA00069059BCF81E0B8125DC0809167058127CC
:103FB000809367051C3281F480913B05882309F4C6
:103FC00015C286E695E00E947B10B09268051092BB
:103FD0006905C0926C0581CFA0906905E1E0EA1502
:103FE00008F000C27EEF972E9A0CB0903B05BB20E4
:103FF00011F0BA9401C0B12CEB2DF0E0EE0FFF1FD1
:10400000E253FF4F85919491692D70E0FC01E60F1A
:10401000F71FE4911E1709F4E2C11E170CF4E6C164
:10402000B394F8E0BF1609F4E1C1EB2DF0E0EE0F18
:10403000FF1FE253FF4F459154919C01DA01A81BE9
:10404000B90BE22FE81BE91510F0CA01DFCFF90127
:104050008490FD01E20FF31FE4912F5F3F4F8E1616
:1040600081F3F3CFF3E0BF127FC010628FE9810FBD
:10407000863010F4175501C0105340916905209106
:104080006705812F90E041110DC0F092690530E085
:1040900044E0359527954A95E1F72817390709F047
:1040A0004BC01BCF2F7030E051E02817390709F4BF
:1040B00050E028173907E9F580916B0581FF09C0A9
:1040C0008D7F80936B054F5F409369058CE20E9462
:1040D000D81080913C0590913D05A0913E05B0918E
:1040E0003F050196A11DB11D80933C0590933D05B0
:1040F000A0933E05B0933F0591E080913B0586304B
:1041000009F090E080916B0590FB84F980936B053A
:1041100010926C0590918C05992359F188608093D9
:104120006B0510928D0580918C05815080938C05D4
:1041300020C0552309F4D1CE8091400590914105CE
:10414000A0914205B09143050196A11DB11D809338
:10415000400590934105A0934205B093430586E640
:1041600095E00E947B1042C1B110B7CE10923B0582
:10417000B4CE8091660580FF0CC020918B05909194
:10418000650520FF04C020918A05291710F490933B
:104190008A0581FF0CC090916105909386059091EE
:1041A000620590938705909163059093880582FF3F
:1041B00010C090915F059093840590915E05909357
:1041C000830590915D05909382059091640590938D
:1041D000890583FF09C088E0E8E4F5E0ADE6B5E0D5
:1041E00001900D928A95E1F78091660584FF10C0D9
:1041F00040915005509151056091520570915305C1
:104200004093750550937605609377057093780514
:1042100086FF10C0409158055091590560915A058C
:1042200070915B0540937D0550937E0560937F05FB
:104230007093800585FF10C040915405509155053D
:1042400060915605709157054093790550937A0512
:1042500060937B0570937C0587FF04C080915C05AB
:10426000809381059091660580918B05892B8093C1
:104270008B0580916B0584FF30CE10928E05809166
:104280008C0581112ACED0928C0527CE80918C0589
:10429000882309F444C0CE0101960E947E108091CB
:1042A0008C058823C1F0815080938C0580918D0509
:1042B0002FE1289FC0011124FC01E359FA4FDE01D0
:1042C000119601900D922A95E1F783599A4F0E9419
:1042D0007E1010928D058FE1FE013196ACE1B5E0C4
:1042E00001900D928A95E1F785E090E00E94D30E4F
:1042F00080913A0583FF0FC081FF0DC082FF0BC084
:1043000060E082E00E947D180093EB0381E090E082
:104310000E94530F04C086E090E00E94D30E0E94DA
:10432000CA1A8090E7039090E803A090E903B09048
:10433000EA03DC01CB0188199909AA09BB0980901D
:10434000090190900A01A0900B01B0900C01881611
:104350009906AA06BB0690F40093EB0360E082E0A6
:104360000E947D1886E090E00E94D30E86E090E0E7
:104370000E94D30E8FEF9FEF0E94530F8091EB03AB
:10438000882351F160E082E00E947D18909133050E
:1043900080910801981307C0809107012CE3829F48
:1043A000C001112403C08091060190E00E94F30E29
:1043B00061E082E00E947D1885E090E00E94D30ECB
:1043C0001092EB030E94CA1A6093E7037093E8030C
:1043D0008093E9039093EA030E94D3007CCDB394C9
:1043E000B0923B05A394A092690577CD10923B054E
:1043F00010926C0572CDCF92DF92EF92FF92CF9325
:10440000DF93E5E0F4E01382128288EEC82E83E0A9
:10441000D82EE12CF12CC482D582E682F78287E186
:1044200091E09183808385EC90E09587848784EC8C
:1044300090E09787868780EC90E0918B808B81EC71
:1044400090E0938B828B82EC90E0958B848B86EC52
:1044500090E0978B868B118E128E138E148EE2EA6B
:10446000F4E080E5808381E08183E4EAF4E0158272
:1044700016821186138682E090E0A0E0B0E0848787
:104480009587A687B78713A215A614A689E291E09F
:1044900093A782A717A688E495E00E947E108DE678
:1044A00095E00E947E10CBE3D5E019821A821B8230
:1044B0001C821D821E821F82188619861A861B8600
:1044C0001C8688E495E00E947E1019AA8CE195E094
:1044D0000E947E10E8E0F5E013821282C482D58249
:1044E000E682F78285E691E09183808384E0848789
:1044F00083E08587138A128AEDEEF4E0138212823C
:10450000C482D582E682F78285E391E0918380833D
:10451000128E118E1486DF91CF91FF90EF90DF9075
:10452000CF900895DB018F939F930E94C422BF9187
:10453000AF91A29F800D911DA39F900DB29F900DF2
:1045400011240895A1E21A2EAA1BBB1BFD010DC068
:10455000AA1FBB1FEE1FFF1FA217B307E407F50733
:1045600020F0A21BB30BE40BF50B661F771F881F0F
:10457000991F1A9469F760957095809590959B01A5
:10458000AC01BD01CF0108950E94CF22A59F900DDF
:10459000B49F900DA49F800D911D11240895A29F9A
:1045A000B001B39FC001A39F700D811D1124911D07
:1045B000B29F700D811D1124911D08955058BB2785
:1045C000AA270E94F6220C9469240E945B2438F0EA
:1045D0000E94622420F039F49F3F19F426F40C94D1
:1045E00058240EF4E095E7FB0C945224E92F0E9426
:1045F0007A2458F3BA17620773078407950720F0E7
:1046000079F4A6F50C949C240EF4E0950B2EBA2FA9
:10461000A02D0B01B90190010C01CA01A0011124C8
:10462000FF27591B99F0593F50F4503E68F11A1674
:10463000F040A22F232F342F4427585FF3CF469505
:1046400037952795A795F0405395C9F77EF41F1627
:10465000BA0B620B730B840BBAF09150A1F0FF0FF1
:10466000BB1F661F771F881FC2F70EC0BA0F621FDD
:10467000731F841F48F4879577956795B795F795CD
:104680009E3F08F0B0CF9395880F08F09927EE0F62
:104690009795879508950E942E2408F481E0089547
:1046A0000E9464230C9469240E94622458F00E94A2
:1046B0005B2440F029F45F3F29F00C9452245111FF
:1046C0000C949D240C9458240E947A2468F3992316
:1046D000B1F3552391F3951B550BBB27AA276217FE
:1046E0007307840738F09F5F5F4F220F331F441F0B
:1046F000AA1FA9F335D00E2E3AF0E0E832D091503F
:104700005040E695001CCAF72BD0FE2F29D0660F2B
:10471000771F881FBB1F261737074807AB07B0E86E
:1047200009F0BB0B802DBF01FF2793585F4F3AF074
:104730009E3F510578F00C9452240C949D245F3FC9
:10474000E4F3983ED4F3869577956795B795F795FA
:104750009F5FC9F7880F911D9695879597F90895E2
:10476000E1E0660F771F881FBB1F6217730784077E
:10477000BA0720F0621B730B840BBA0BEE1F88F78D
:10478000E09508950E94822488F09F5798F0B92FF1
:104790009927B751B0F0E1F0660F771F881F991F76
:1047A0001AF0BA95C9F714C0B13091F00E949C2458
:1047B000B1E008950C949C24672F782F8827B85F68
:1047C00039F0B93FCCF3869577956795B395D9F7CE
:1047D0003EF490958095709561957F4F8F4F9F4FD8
:1047E0000895E89409C097FB3EF4909580957095E4
:1047F00061957F4F8F4F9F4F9923A9F0F92F96E92D
:10480000BB279395F695879577956795B795F111A1
:10481000F8CFFAF4BB0F11F460FF1BC06F5F7F4F3E
:104820008F4F9F4F16C0882311F096E911C0772350
:1048300021F09EE8872F762F05C0662371F096E859
:10484000862F70E060E02AF09A95660F771F881F28
:10485000DAF7880F9695879597F90895990F0008CC
:10486000550FAA0BE0E8FEEF16161706E807F90742
:10487000C0F012161306E407F50798F0621B730BDD
:10488000840B950B39F40A2661F0232B242B252B5E
:1048900021F408950A2609F4A140A6958FEF811D01
:1048A000811D089597F99F6780E870E060E00895A2
:1048B0009FEF80EC089500240A9416161706180638
:1048C0000906089500240A94121613061406050614
:1048D0000895092E0394000C11F4882352F0BB0FA5
:1048E00040F4BF2B11F460FF04C06F5F7F4F8F4F08
:1048F0009F4F089557FD9058440F551F59F05F3F43
:1049000071F04795880F97FB991F61F09F3F79F0F1
:1049100087950895121613061406551FF2CF469573
:10492000F1DF08C0161617061806991FF1CF8695F5
:104930007105610508940895E894BB2766277727D9
:10494000CB0197F908950E942E2408F48FEF089563
:104950000E94BB240C9469240E945B2438F00E94BE
:10496000622420F0952311F00C9452240C945824C6
:1049700011240C949D240E947A2470F3959FC1F316
:10498000950F50E0551F629FF001729FBB27F00DFD
:10499000B11D639FAA27F00DB11DAA1F649F662752
:1049A000B00DA11D661F829F2227B00DA11D621FA1
:1049B000739FB00DA11D621F839FA00D611D221F5B
:1049C000749F3327A00D611D231F849F600D211D3F
:1049D000822F762F6A2F11249F5750409AF0F1F0C2
:1049E00088234AF0EE0FFF1FBB1F661F771F881F2B
:1049F00091505040A9F79E3F510580F00C945224ED
:104A00000C949D245F3FE4F3983ED4F3869577950C
:104A10006795B795F795E7959F5FC1F7FE2B880FD0
:104A2000911D9695879597F908950E942E24880BDD
:104A3000990B089597FB072E16F4009407D077FD85
:104A400009D00E94342507FC05D03EF4909581954D
:104A50009F4F0895709561957F4F0895EE0FFF1F4A
:104A60000590F491E02D0994AA1BBB1B51E107C0EE
:104A7000AA1FBB1FA617B70710F0A61BB70B881FEE
:104A8000991F5A95A9F780959095BC01CD0108957D
:104A90000F931F93CF93DF938230910510F482E040
:104AA00090E0E0919105F091920520E030E0A0E0E7
:104AB000B0E0309719F1408151810281138148178C
:104AC0005907C8F08417950769F4109731F01296CA
:104AD0000C93129713961C9327C000939105109383
:104AE000920522C02115310519F04217530718F419
:104AF0009A01BD01EF01DF01F801DBCF211531057E
:104B0000F9F0281B390B2430310580F48A819B8110
:104B10006115710521F0FB019383828304C090939A
:104B2000920580939105FE01329644C0FE01E20F8A
:104B3000F31F8193919322503109398328833AC01E
:104B400020918F0530919005232B41F420910F0186
:104B5000309110013093900520938F0520910D0125
:104B600030910E012115310541F42DB73EB740912A
:104B7000110150911201241B350BE0918F05F0912A
:104B80009005E217F307A0F42E1B3F0B28173907F7
:104B900078F0AC014E5F5F4F2417350748F04E0F99
:104BA0005F1F5093900540938F058193919302C0AE
:104BB000E0E0F0E0CF01DF91CF911F910F910895D8
:104BC000CF93DF93009709F481C0FC0132971382E1
:104BD0001282A0919105B0919205109781F42081E5
:104BE0003181820F931F20918F05309190052817F6
:104BF000390751F5F0939005E0938F0567C0ED01FB
:104C000020E030E0CE17DF0740F44A815B819E014F
:104C100041155105F1F0EA01F5CFD383C2834081FC
:104C20005181840F951FC817D90759F4888199813C
:104C3000840F951F0296918380838A819B81938341
:104C400082832115310529F4F0939205E0939105B3
:104C50003DC0E901FB83EA8349915991C40FD51FF7
:104C6000EC17FD0761F480819181840F951F0296F6
:104C7000E90199838883828193819B838A83E0E021
:104C8000F0E012968D919C911397009719F0FD0119
:104C9000DC01F7CF8D919C9111979D012E5F3F4FC5
:104CA000820F931F20918F053091900528173907A7
:104CB00069F4309729F4109292051092910502C080
:104CC00013821282B0939005A0938F05DF91CF914C
:104CD000089581E090E0F8940C949526FB01DC01A6
:104CE00004C08D910190801921F441505040C8F7C3
:104CF000881B990B0895FC018191861721F0882368
:104D0000D9F7992708953197CF010895FB01DC0168
:104D10004150504048F001900D920020C9F701C069
:0E4D20001D9241505040E0F70895F894FFCFE7
:104D2E00FFFFFFFF80250A081960EA0000000093CC
:104D3E000580000000000006179F16C9165317C7FE
:104D4E0000D816EC1600000000A3069F16AE09ADA3
:104D5E0009000000009709B909AE09B1097609CA20
:104D6E000DD40D00000000FA169F16AE09AD09FA1B
:104D7E0016FA16FA1600000000FA169F16AE09ADC6
:104D8E000900000000F4019F16AE09AD09F300DD25
:104D9E0000AE096770736C6F672E637376000D0A31
:104DAE00006E616E00696E66006F7666002C002FD5
:0E4DBE000073657474696E67732E63737600FC
:00000001FF
