:100000000C948D000C94B5000C94B5000C94132244
:100010000C9438220C945D220C94B7000C94B5001B
:100020000C94B5000C94B5000C94B5000C94B5007C
:100030000C94B5000C94B5000C94B5000C94B5006C
:100040000C9482220C94B5000C9434250C946625F3
:100050000C94B5000C94B5000C94B5000C94B5004C
:100060000C94B5000C94B500010000086E009A00D5
:10007000960092008E008A00860082007E005A441C
:10008000410056544700524D4300475356004753D2
:10009000540047534100474C4C00474741007C3CCB
:1000A0003E5E2B3D3F2F5B5D3B2C2A225C00000017
:1000B0000009000302000004050800000000000021
:1000C000000000000001020408102040800102042A
:1000D0000810200102040810204080400404040499
:1000E00004040404020202020202030303030303E2
:1000F0000202030000000023002600290000000087
:1001000000250028002B0000000000240027002A02
:1001100000000F045C0F8E12962511241FBECFEF36
:10012000D8E0DEBFCDBF11E0A0E0B1E0EAE5FBE53D
:1001300002C005900D92A239B107D9F725E0A2E9D6
:10014000B1E001C01D92AD38B207E1F710E0CDE893
:10015000D0E004C02197FE010E94F02AC938D107DF
:10016000C9F70E944A280C94AB2D0C9400001F92F2
:100170000F920FB60F921124A8950F900FBE0F90FB
:100180001F901895CF93DF93FB0122813381DC010F
:1001900013963C932E931297448155816681778103
:1001A00014964D935D936D937C931797408551857D
:1001B0006285738518964D935D936D937C931B9721
:1001C0001C96EF012C969C01275E3F4F49914D9361
:1001D000A217B307D9F7218D328DFC01328F218F01
:1001E000DF91CF9108954F925F926F927F928F929D
:1001F0009F92AF92BF92EF92FF920F931F93CF9374
:10020000DF937C017894D0E0C0E010E000E088EE5D
:10021000482E83E0582E612C712CCE15DF0544F555
:100220000E94CC224B015C0183B7817F846083BF35
:1002300083B7816083BF889583B78E7F83BF83B781
:100240008E7F83BF0E94CC22681979098A099B0995
:10025000A30192010E94CE2A020F131F0C33110535
:1002600024F021960C531109F9CF085F1F4FD5CF09
:10027000F8948091640080718093640080916400A0
:10028000816080936400DF91CF911F910F91FF9067
:10029000EF90BF90AF909F908F907F906F905F9006
:1002A0004F900895CF93C82F60E00E94332464E6F6
:1002B00070E080E090E00E94FD2261E08C2F0E94BF
:1002C000332464E670E080E090E00E94FD2260E06C
:1002D0008C2F0E94332464E670E080E090E0CF91A0
:1002E0000C94FD22EF92FF920F931F93CF93DF9315
:1002F000CDB7DEB76B970FB6F894DEBF0FBECDBF9C
:100300007C0127E147E151E069E372E0CE0101960B
:100310000E94E50EBE016F5F7F4F87E991E00E946A
:10032000C2000BE010E087E991E00E94A00D81116E
:1003300023C00150110901F189E392E00E94F30DFD
:1003400068EC70E080E090E00E94FD2268E089E3C4
:1003500092E00E94C60D27E147E151E069E372E0B7
:10036000CE0101960E94E50EBE016F5F7F4F87E9C7
:1003700091E00E94C200D7CF87E991E00E94A00DD2
:1003800010E000E0882309F464C185E090E00E9459
:1003900052014AE0B701CE0101960E941D28BE011C
:1003A0006F5F7F4F87E991E00E94FF25CE010196A4
:1003B0000E94772762E271E087E991E00E940D26B2
:1003C0006091E40163FB662760F94AE070E0CE01CA
:1003D00001960E941D28BE016F5F7F4F87E991E063
:1003E0000E94FF25CE0101960E94772762E271E00C
:1003F00087E991E00E940D266091E40166956170A5
:100400004AE070E0CE0101960E941D28BE016F5F98
:100410007F4F87E991E00E94FF25CE0101960E945F
:10042000772762E271E087E991E00E940D266091F2
:10043000E40162FB662760F94AE070E0CE010196B4
:100440000E941D28BE016F5F7F4F87E991E00E94E7
:10045000FF25CE0101960E94772762E271E087E9CD
:1004600091E00E940D264AE06091E101CE010196E3
:100470000E94F027BE016F5F7F4F87E991E00E94E5
:10048000FF25CE0101960E94772762E271E087E99D
:1004900091E00E940D264AE06091E001CE010196B4
:1004A0000E94F027BE016F5F7F4F87E991E00E94B5
:1004B000FF25CE0101960E94772762E271E087E96D
:1004C00091E00E940D264AE06091DF01CE01019685
:1004D0000E94F027BE016F5F7F4F87E991E00E9485
:1004E000FF25CE0101960E94772762E271E087E93D
:1004F00091E00E940D264AE06091DD01CE01019657
:100500000E94F027BE016F5F7F4F87E991E00E9454
:10051000FF25CE0101960E94772762E271E087E90C
:1005200091E00E940D264AE06091DC01CE01019627
:100530000E94F027BE016F5F7F4F87E991E00E9424
:10054000FF25CE0101960E94772762E271E087E9DC
:1005500091E00E940D264AE06091DB01CE010196F8
:100560000E94F027BE016F5F7F4F87E991E00E94F4
:10057000FF25CE0101960E94772762E271E087E9AC
:1005800091E00E940D266091E40167FB662760F907
:1005900070E04AE0CE0101960E941D28BE016F5F07
:1005A0007F4F87E991E00E94FF25CE0101960E94CE
:1005B000772762E271E087E991E00E940D26609161
:1005C000C6017091C7018091C8019091C9010E9434
:1005D0006F2925E93FEB46ED53E30E94242AAB0146
:1005E000BC012AE030E087E991E00E94632762E2E3
:1005F00071E087E991E00E940D266091CA01709137
:10060000CB018091CC019091CD010E946F2925E909
:100610003FEB46ED53E30E94242AAB01BC012AE0E4
:1006200030E087E991E00E94652787E991E00E9428
:100630008E0D01E010E0C8016B960FB6F894DEBF96
:100640000FBECDBFDF91CF911F910F91FF90EF9023
:100650000895B80186E00E947123B80185E00E94E8
:10066000712365E070E080E090E00E94FD220F5F62
:100670001F4F0F3F110569F7B80185E00E947123F4
:1006800065E070E080E090E00E94FD2201501109D9
:1006900099F7D1CF0F931F93CF93DF93CDB7DEB7E9
:1006A0006F970FB6F894DEBF0FBECDBF82EB91E01F
:1006B0000E948A21892B51F082EB91E00E94351F24
:1006C000682F85EE91E00E94160CF0CF80913602E3
:1006D000882349F165EE71E0CE0101960E94290C54
:1006E0008FE1FE013196A6ECB1E001900D928A9562
:1006F000E1F785E090E00E94520180910601882395
:1007000009F441C08091E40183FF75C081FF73C08B
:1007100082FF71C081E090E00E9472011092060198
:1007200081E08093920180910601882361F10E940B
:10073000CC22009193011091940120919501309168
:100740009601601B710B820B930B009107011091B6
:1007500008012091090130910A010617170728079F
:10076000390788F41092060181E08093920186E0B7
:1007700090E00E94520186E090E00E9452018FEFCB
:100780009FEF0E94720180919201882349F160E0FD
:1007900082E00E9433249091DD0180911001981332
:1007A0002FC0809111012CE3829FC00111240E946F
:1007B000F30061E082E00E94332485E090E00E9433
:1007C000520181E080930601109292010E94CC2296
:1007D0006093930170939401809395019093960197
:1007E0006F960FB6F894DEBF0FBECDBFDF91CF91ED
:1007F0001F910F91089586E090E00E94520193CFDF
:100800008091120190E0D3CFF89414BEE0E6F0E0BE
:1008100080818861808381E6808378940895CF9376
:10082000DF9385EE91E00E943A06C6ECD1E01C828F
:100830001D821E821F82188219821A821B821986CB
:1008400018861B861A861D861C861F861E86198A98
:10085000188A1B8A1A8A1C8A8BED91E00E945D0C13
:100860001C8E1D8E1E8EE2EBF1E01382128288EE4A
:1008700093E0A0E0B0E084839583A683B78383E60A
:1008800091E09183808384E0848783E08587138A65
:10089000128A87E991E0DF91CF910C942E0DDF92BF
:1008A000EF92FF920F931F93CF93DF93CDB7DEB7F5
:1008B0002A970FB6F894DEBF0FBECDBF87E991E04F
:1008C0000E94CB0C8C97D1F7F12CE12C10E000E0CA
:1008D0002AE0D22E87E991E00E94CB0C9C012053A4
:1008E00031092A30310528F5F801EE0FFF1F81E0AC
:1008F00090E08C0F9D1FE80FF91F31832083FC01CE
:1009000090E080E00817190789F041915191DF01CB
:100910001297D49E9001D59E300D11242D933C93B7
:100920000196F0CFEE24E394F12CD4CF0F5F1F4F4C
:10093000D1CF8D329105B1F30A9761F6FE01319660
:1009400030E020E090E080E00217130739F0419199
:100950005191840F951F2F5F3F4FF6CFEF2819F06D
:100960009195819591092A960FB6F894DEBF0FBE36
:10097000CDBFDF91CF911F910F91FF90EF90DF904E
:1009800008950F931F93CF93DF93CDB7DEB76B9787
:100990000FB6F894DEBF0FBECDBF21E044E251E0B8
:1009A00069E372E0CE0101960E94E50EBE016F5F21
:1009B0007F4F87E991E00E94C20006E010E087E9DE
:1009C00091E00E94A00D811123C00150110901F195
:1009D00089E392E00E94F30D68EC70E080E090E023
:1009E0000E94FD2268E089E392E00E94C60D21E0AA
:1009F00042E351E069E372E0CE0101960E94E50E08
:100A0000BE016F5F7F4F87E991E00E94C200D7CFA0
:100A100087E991E00E94A00D882309F45FC085E07A
:100A200090E00E9452010E944F048093120185E0E1
:100A300090E00E9452010E944F048093110185E0D2
:100A400090E00E9452010E944F048093100185E0C3
:100A500090E00E9452010E944F0480930F0185E0B4
:100A600090E00E9452010E944F0490930E018093E7
:100A70000D0185E090E00E9452010E944F04809396
:100A80000C0185E090E00E9452010E944F04809387
:100A90000B0185E090E00E9452010E944F04092E54
:100AA000000CAA0BBB0B8093070190930801A09345
:100AB0000901B0930A0185E090E00E94520187E9A4
:100AC00091E00E948E0D6B960FB6F894DEBF0FBEBC
:100AD000CDBFDF91CF911F910F91089586E090E0F7
:100AE000ECCF61E082E00E94F72361E086E00E94A3
:100AF000F72361E085E00E94F72368E089E392E054
:100B00000E94C60D811111C060E085E00E9433246F
:100B100061E086E00E94332489E392E00E94F30DB5
:100B200086E090E00E945201FBCF85E090E00E94B9
:100B300052010E94C10461E085E00E94332468EE06
:100B400073E080E090E00E94FD2260E085E00C947C
:100B500033240E9471050E94040461E082E00E9437
:100B6000332460910D0170910E0182EB91E00C94A1
:100B7000B3208F929F92AF92BF92CF92DF92EF926B
:100B8000FF926B017C01BC01A60182E0769567951E
:100B9000579547958A95D1F7D701C60124E0B695B8
:100BA000A795979587952A95D1F7840F951FA61F2E
:100BB000B71F4C015D0134E0B694A79497948794D5
:100BC0003A95D1F7880D991DAA1DBB1D892E9A2E25
:100BD000AB2EBB24880E991EAA1EBB1EC501AA27D8
:100BE000BB27880E991EAA1EBB1EA3E0B0E0A5017C
:100BF00094010E94052BA7019601261B370B480B79
:100C0000590BABE0B0E00E94052BE5E09695879587
:100C100077956795EA95D1F7680D791D8A1D9B1D1B
:100C2000FF90EF90DF90CF90BF90AF909F908F900C
:100C30000895CF93DF93EC011C821D821E821F82D8
:100C4000188219821A821B82198618861B861A86B8
:100C50001D861C861F861E86198A188A1B8A1A8A78
:100C60001C8A45960E945D0C1C8E1D8E1E8EDF9187
:100C7000CF9108950F931F93CF93DF93EC018C01D5
:100C8000035F1F4FC8010E941906CE01C2960E9441
:100C9000190619821A821B821C821D821E821F82E3
:100CA000188619861A861B861C86C8010E9419069A
:100CB00019AADF91CF911F910F910895FC0180A98E
:100CC00084FF02C08F7E80AB14A6108281E081ABCE
:100CD00016A680A98D7F80AB0895FC0113A6108213
:100CE00011AA0895FC0113A681E085A716A682E04B
:100CF00081AB0895CF92DF92EF92FF921F93CF9333
:100D0000DF93EC01AC014F5A5F4FDA018C918823DD
:100D100051F088A9886088ABFE01EE5AFF4F10821F
:100D20008C9181508C93BE016D5A7F4FFB011081D5
:100D3000812F90E02BA520FF20C0AAA5EFE1E89F1E
:100D40009001E99F300D11242C0F3D1FF901E05B4C
:100D5000FF4FE081E0FF06C0215B3F4FF90120819A
:100D60002A1758F42FE1289FF001299FF00D112434
:100D7000EC0FFD1FE15BFF4FA0832BA521FF15C0EA
:100D8000EFE1E89F9001E99F300D11242C0F3D1FEA
:100D9000F901E55BFF4FAEA1A0833196AFA1A0831F
:100DA000235B3F4FE8A5D901EC932BA522FF18C088
:100DB000EFE1E89F9001E99F300D11242C0F3D1FBA
:100DC000F901E75BFF4FACA1A0833197ABA1A083F2
:100DD0003197AAA1A083225B3F4FE9A5D901EC93EB
:100DE0002BA523FF10C02FE1289FD001299FB00D14
:100DF0001124AC0FBD1FD29628E0FE013D96019054
:100E00000D922A95E1F72BA524FF10C02FE1289F12
:100E1000F001299FF00D1124EC0FFD1FCD88DE8815
:100E2000EF88F88CC2AED3AEE4AEF5AE2BA526FFAC
:100E300012C02FE1289FF001299FF00D1124EC0F23
:100E4000FD1FEE5BFF4FCD8CDE8CEF8CF8A0C082D7
:100E5000D182E282F3822BA525FF11C02FE1289FCA
:100E6000F001299FF00D1124EC0FFD1FFE96C98C97
:100E7000DA8CEB8CFC8CC082D182E282F3822BA5CF
:100E800027FF0CC02FE1289FF001299FF00D1124AE
:100E9000EC0FFD1FEA5BFF4F89A18083FE01BFE1DC
:100EA0001B9FE00DF11D1124E05BFF4F80819BA58E
:100EB000892B808388A984FF08C0FB011082DA0196
:100EC0008C91811102C081E08C93DF91CF911F91B1
:100ED000FF90EF90DF90CF900895CF92DF92EF9246
:100EE000FF920F931F93CF93DF93DC019C91992383
:100EF00009F438C09150E92FF0E0EE0FFF1FE259DE
:100F0000FF4F65917491D0E0C0E0E42EF12C01E038
:100F1000090F10E0FB01EE0DFF1DE491E21779F1DE
:100F20002E1714F131E0390F9730F1F0F801EC0F82
:100F3000FD1FEE0FFF1FE259FF4FC590D49090E0C8
:100F400080E0841758F4FB01E80FF91F5491F60173
:100F5000E80FF91FE49101965E1799F32196932FFC
:100F6000B601D8CF90E0C7CF90E080E0DF91CF917D
:100F70001F910F91FF90EF90DF90CF9008959F5FAA
:100F80009C9381E090E0F2CF262FFC016C3231F48B
:100F90008081882359F082E090E0089546A5423090
:100FA00040F0425068E670E00C946D0790E080E0FD
:100FB000089581E090E00895DC019E96EC919E9763
:100FC000E930B8F4F0E0E951F84F0C94F02AF0075A
:100FD000FB07010809080F081708F9071D0825086D
:100FE0006C3239F060538AE0689F602D112494962A
:100FF0006C9381E00895605394968C919497680F58
:10100000F6CF60538AE0689F602D112493966C930D
:10101000F0CF605393968C919397680FF7CF6053FE
:101020008AE0689F602D112492966C93E2CF605302
:1010300092968C919297680FF7CF60538AE0689FE1
:10104000602D112499966C93D4CF605399968C910E
:101050009997680F99966C9399979B968C919B970B
:1010600084609B968C93C5CFFC0186A5823009F1E4
:1010700030F4882389F08130C1F081E00895843014
:1010800019F1F0F08530C9F7605380A5680F60A7AB
:1010900083A5826083A7F1CF6C3279F360538AE035
:1010A000689F602D112466A3E8CF605386A1680F66
:1010B000FACF60538AE0689F602D112467A3DDCFCB
:1010C000605387A1680FFACF60538AE0689F602D54
:1010D000112460A7D2CFFC0186A5811111C0613314
:1010E00011F0613419F483E082A707C0603321F066
:1010F0006E3411F0663531F412A683A5816083A7A2
:1011000081E00895623311F0643411F484E0ECCF8F
:10111000663311F06534A1F781E0E6CFFC01DB0115
:1011200086A5811118C011961C921E9213961C92CE
:101130001E92129780A9826080AB17A691E04D3273
:1011400009F090E080A990FB80F980AB4D3209F066
:1011500076C080E008954C32C9F587A5811102C0A0
:1011600081E087A712968D919C911397892BA9F006
:101170003AE087A591E0980F97A7281770F012968C
:101180004D915C911397349FC001359F900D1124B0
:1011900013969C938E931297ECCF90A9892F817010
:1011A00090FF4BC012962D913C911397319521954C
:1011B000310913963C932E9312972D913C911197E0
:1011C0003195219531092D933C9308954E3219F4B0
:1011D00081E087A7BECF87A5811113C02D913C91D7
:1011E00011975AE0529FC001539F900D1124042E75
:1011F000000C550B40535109480F591F4D935C93F8
:10120000A8CF91E0980F97A7281708F4A2CF1296BD
:101210002D913C9113975AE0529FC001539F900D1E
:101220001124042E000C550B40535109480F591F2F
:1012300013965C934E9312978CCF81E008954C32B5
:1012400009F48ECF4E3251F6C3CFCF92DF92EF9298
:10125000FF921F93CF93DF93FC01EB01142F86A520
:10126000811108C0188219821A821B8217A680A9D0
:10127000826080AB1E3281F11C3209F061C087A50B
:10128000882351F187A5843009F07AC028813981FB
:101290004A815B81A4E6B0E00E94052B68837983D4
:1012A0008A839B83C880D980EA80FB80C701B6010E
:1012B000660F771F881F991F6F5F7F4F8F4F9F4F5C
:1012C0000E94B905C60ED71EE81EF91EC882D98233
:1012D000EA82FB8281E029C081E087A72981822FF1
:1012E00082958F702F709AE0899F200D11248A813A
:1012F00081112C594881842F82958F704F709AE00C
:10130000899F400D11248CE3289F90011124420FE6
:10131000532F511D052E000C660B770B4883598304
:101320006A837B831E3249F480E0DF91CF911F9165
:10133000FF90EF90DF90CF9008951C3209F4A2CF78
:1013400087A5811143C088819981AA81BB8134E03E
:10135000880F991FAA1FBB1F3A95D1F7412F110F74
:10136000550B40535109052E000C660B770B842B4F
:10137000952BA62BB72B88839983AA83BB83D4CFC5
:10138000853039F4288139814A815B81AAE0B0E057
:1013900083CF863009F486CF08F09CCF288139812D
:1013A0004A815B81A8EEB3E0833009F475CF8230C7
:1013B00019F4A0E1B7E270CF813009F073CF60EA91
:1013C00076E881E090E00E94962A68CF8F5F87A739
:1013D0008730C0F4288139814A815B81AAE0B0E07E
:1013E0000E94052B212F110F330B20533109690166
:1013F000330FEE08FF08DC01CB018C0D9D1DAE1DE7
:10140000BF1DB9CF873009F08FCFC880D980EA805F
:10141000FB80C701B601660F771F881F991F6F5F9A
:101420007F4F8F4F9F4F0E94B9056C0D7D1D8E1D04
:101430009F1D19334CF06E5F7F4F8F4F9F4F688316
:1014400079838A839B8370CF1433CCF36F5F7F4F94
:101450008F4F9F4FF4CFFC0186A5811108C091E00A
:101460006C3209F490E080A990FB82F980AB80A9EE
:1014700082FF07C0462FCF01BF01635F7F4F0E94ED
:10148000250981E00895FC0180A982FF14C086A58A
:10149000811111C0633579F485859685A785B0895A
:1014A000B095A095909581959F4FAF4FBF4F858781
:1014B0009687A787B08B81E00895FC016C3231F4E8
:1014C00086A5811103C080A98B7F80AB80A982FF94
:1014D00007C0462FCF01BF016F5E7F4F0E942509D5
:1014E00081E00895FC0180A982FF17C086A58111C3
:1014F00014C083A5886083A7673579F481899289B0
:10150000A389B489B095A095909581959F4FAF4FD1
:10151000BF4F818B928BA38BB48B81E00895CF93C7
:10152000DF93EC01462FBC01675E7F4F23E00E94F2
:101530008E08882349F091E08EA5811101C090E0CA
:101540008BA590FB85F98BA781E0DF91CF91089562
:10155000CF93DF93EC01462FBC01635E7F4F22E007
:101560000E948E08882349F091E08EA5811101C068
:1015700090E08BA590FB86F98BA781E0DF91CF915E
:101580000895DC019D96EC91E150E93000F5F0E022
:10159000E453F54F0C94F02AD50AD70AD90ADB0A8E
:1015A000DD0ADF0AE10AE30AE50A0C94DC070C9481
:1015B0006B080C942B0A0C94430A0C945D0A0C944F
:1015C000720A0C948F0A0C94A80A0C94340881E0D7
:1015D0000895CF93DF93EC01462FBC016B5E7F4FE4
:1015E00022E00E948E08882349F091E08EA58111A7
:1015F00001C090E08BA590FB84F98BA781E0DF917F
:10160000CF910895FC0180A98E7F80AB86A58111C2
:1016100009C06C3229F0605361A383A5806883A759
:1016200081E008956C32C9F381A160539AE0899FEB
:10163000600D1124F1CFDC019D96EC91E150E93071
:10164000F0F4F0E0EA5DF44F0C94F02A2F0B310B2C
:10165000330B350B370B390B3B0B3F0B3D0B0C940E
:10166000DC070C942B0A0C94430A0C945D0A0C942E
:10167000720A0C946B080C94020B0C94E90A81E03A
:101680000895FC012081213021F0263021F081E0F5
:1016900008950C941B0B0C94C10ACF93DF93EC01BB
:1016A00088A981FF09C08D7F88AB8EA58F5F8EA72B
:1016B0006CE2CE010E94410B89819A81AB81BC8191
:1016C0000196A11DB11D89839A83AB83BC8391E0F0
:1016D0008881863009F090E088A990FB84F988AB76
:1016E00019AADF91CF910895FF920F931F93CF9383
:1016F000DF93EC01162F89859A85AB85BC85019611
:10170000A11DB11D89879A87AB87BC87643231F4EC
:10171000CE010E945E0601E010E07DC089A9823002
:1017200029F56A3221F483E089AB1EA6F4CF80EE5E
:10173000860F8F35A8F48CA586278CA7CE010E9432
:10174000410B811104C0CE010E946D06E4CF1C3212
:10175000C1F488A98D7F88AB8DA58F5F8DA7E5CF5C
:10176000CE010E946D0610E000E055C08130B1F45A
:101770008CA586278CA7CE010E94C40781309105D5
:1017800021F48EA58F5F8EA7C6CF029721F4CE01DC
:101790000E947206C0CF188219AABDCF833009F00B
:1017A00041C010628FE9810F8630B0F417558CA5C7
:1017B0009EA5911113C091E09EA790E024E095951D
:1017C00087952A95E1F7FF24F3941817190609F471
:1017D000F12C01E010E00FC01053E9CF8F70FF240F
:1017E000F394811301C0F12C8113F3CFCE010E9439
:1017F0004D0B02E010E0FF2071F08D819E81AF81E2
:10180000B8850196A11DB11D8D839E83AF83B887D6
:10181000CE010E946D06C801DF91CF911F910F91FB
:10182000FF900895811177CF18829DCF0F931F935A
:10183000CF93DF938C010E94740BEC01029719F493
:10184000C8010E947A06CE01DF91CF911F910F91BE
:101850000895EF92FF920F931F93CF93DF938C0124
:10186000EB010E941906FE01EF5AFF4F8081882389
:10187000E1F0815080837E0182E5E80EF11CF701E2
:1018800080812FE1289FC0011124FE01E80FF91F7C
:10189000F296D80101900D922A95E1F7C2968C0F2D
:1018A0009D1F0E941906F7011082C801DF91CF9198
:1018B0001F910F91FF90EF900895FC011182128209
:1018C000108281E084838583168287E08383089574
:1018D000CF93DF931F92CDB7DEB76983DC01ED9123
:1018E000FC910280F381E02D41E050E0BE016F5F8A
:1018F0007F4F09950F90DF91CF910895DC015996A4
:101900008D919C91009739F0DC01ED91FC91048060
:10191000F581E02D099490E080E00895CF93DF9366
:10192000EC01E98DFA8D309749F481E090E09B83DA
:101930008A8390E080E0DF91CF9108951382128234
:10194000898D9A8D0E947818E98DFA8D22813381D4
:10195000232B59F7F0CFFC01818D928D009719F060
:1019600061E00C94A8150895CF93DF931F92CDB733
:10197000DEB741E050E0BE016F5F7F4F0E94CC13A5
:10198000019731F4898190E00F90DF91CF91089514
:101990008FEF9FEFF9CFFC01818D928D009711F0B1
:1019A0000C94B40C8FEF9FEF08950F931F93CF9378
:1019B000DF93EC01898D9A8D10E000E0009799F09B
:1019C0000E94B40C8C010F3F100769F0898D9A8D2D
:1019D000FC01428553856485758541505109610933
:1019E00071090E941415C801DF91CF911F910F91C9
:1019F0000895EF92FF920F931F93CF93DF93EC0123
:101A00007B018A011B821A8288EE93E0A0E0B0E09D
:101A10008C839D83AE83BF8383E491E09983888325
:101A20008DE190E00E94102B9A8F898F009779F0BA
:101A30002DE1F701DC0101900D922A95E1F74CE0D0
:101A400050E0B801CE010C960E941A2D188EDF913D
:101A5000CF911F910F91FF90EF900895FC01138299
:101A6000128288EE93E0A0E0B0E084839583A683A1
:101A7000B78383E491E091838083128E118E148664
:101A80000895DC015996ED91FC91309729F062851B
:101A900073858485958508956FEF7FEFCB01089559
:101AA000DC015996ED91FC91309729F06389748996
:101AB00085899689089560E070E0CB010895CF9202
:101AC000DF92EF92FF92CF93DF93FC01218D328D55
:101AD000232B09F1EC010E94500D6B017C01CE011A
:101AE0000E94410DA7019601261B370B480B590B8D
:101AF000DA01C901811530E89307A105B10520F08D
:101B00008FEF9FE7A0E0B0E0DF91CF91FF90EF90E3
:101B1000DF90CF90089590E080E0F6CFCF93DF93F1
:101B2000EC01898D9A8D009741F00E94FD15898DF9
:101B30009A8D0E94AC2B1A8E198EDF91CF91089549
:101B4000DC015996ED91FC91309721F081E095816F
:101B5000911101C080E008950F931F93CF93DF93FD
:101B6000EC018B0141E00E94CC1D811109C040E0D5
:101B7000B801CE01DF91CF911F910F910C94CC1D34
:101B800081E0DF91CF911F910F9108950F931F93E3
:101B9000CF93DF93EC01162F8FA5882321F0CE0180
:101BA0008A960E94FD15412F61E0CE010E947310BC
:101BB000811102C090E011C08E01045F1F4FBE0171
:101BC000C8010E94AC0D8823A9F3B801CE018A9602
:101BD0000E947C1391E0882369F3892FDF91CF91D4
:101BE0001F910F9108958A960C94FD15FC01DB015D
:101BF00012968D919C9113979383828387E591E050
:101C00009183808314968C911497848315968C917C
:101C10001597858316964D915D916D917C911997DD
:101C200046835783608771871A964D915D916D91B8
:101C30007C911D9742875387648775871E964D91C7
:101C40005D916D917C91519746875787608B718B21
:101C500052968C915297828B53964D915D916D91D6
:101C60007C915697438B548B658B768B57964D9111
:101C70005D916D917C915A97478B508F618F728FD8
:101C80005B968D919C91948F838F08954F925F9274
:101C90006F927F928F929F92AF92BF92CF92DF927C
:101CA000EF92FF920F931F93CF93DF93CDB7DEB7E1
:101CB000C754D1090FB6F894DEBF0FBECDBF5C018B
:101CC0004A01390119A218A287E591E09F8F8E8FF2
:101CD0001BA21C821B829A8389831E82645F7F4FB2
:101CE0007E018EE1E80EF11CC7010E947C13840185
:101CF000FE0131966F015E2C4F2C6FE270E0C8013F
:101D00000E94082D009709F455C0F80120812F3258
:101D100019F40F5F1F4FF1CF801B8D3008F08CE05E
:101D2000E82EF12CA701B801CE01CB960E941A2D06
:101D3000EBE3F0E0EC0FFD1FEE0DFF1D1082C6017E
:101D40000E94FD1521E0AE01455C5F4F652D742DAD
:101D5000C6010E948A17811121C0F50113821282E7
:101D600087E591E0918380831582C501C95BDF4FD0
:101D70000FB6F894DEBF0FBECDBFDF91CF911F919C
:101D80000F91FF90EF90DF90CF90BF90AF909F901A
:101D90008F907F906F905F904F9008950E0D1F1D54
:101DA000852D942D0E94FD15C2015C2C4D2CC92E51
:101DB000D82EA3CF08191909F30111830083652DCB
:101DC000742DC5010E94F60DD0CFCF92DF92FF9205
:101DD0000F931F93CF93DF93CDB7DEB7C955D109CA
:101DE0000FB6F894DEBF0FBECDBF6C018A01F22E94
:101DF0009E01285A3F4FCE01CB960E94460E6A960E
:101E00008EAD9FAD6A97080F191FF801808181116F
:101E100010C0BE01655C7F4FCE0101960E94F60D99
:101E200041E551E0BE016F5F7F4FC6010E94F90C92
:101E30000FC019A218A287E591E09F8F8E8F1BA279
:101E400021968FAD2197811113C0C6010E942E0DDE
:101E5000C601C75ADF4F0FB6F894DEBF0FBECDBF25
:101E6000DF91CF911F910F91FF90DF90CF90089558
:101E70002F2DA801BE01655C7F4FCE014E960E94BA
:101E80008A17882311F3CE01CB960E94FD158F2D62
:101E90008670863041F449A95AA96BA97CA9CE0164
:101EA0004E960E941415BE01625E7F4FCE010196D0
:101EB0000E94F60DA801B6CFE9E3F2E01582168282
:101EC0001186138682E090E0A0E0B0E084879587D9
:101ED000A687B78713A215A614A687E591E093A756
:101EE00082A717A608959FB7F89420919004809137
:101EF0008E04213019F48DBB9FBF08958FBF0895C4
:101F000020919004222381F03FB7F894209190040F
:101F1000213069F42DB320938E044DB320918F04AA
:101F2000209524232DBB3FBF8CBD9DBD08953093CC
:101F30008E04FACF8EBD00000DB407FEFDCF8EB526
:101F400008958FEF0C949A0F61E0FC0184810E9448
:101F5000332480918202882339F01092820280918A
:101F6000900481110C94730F0895CF93DF93EC01CB
:101F700080918202811109C081E080938202809168
:101F80008302909184020E94800F60E08C81DF9137
:101F9000CF910C943324CF93DF93EC018E8188236F
:101FA00089F08F8198859C012F5F3F4F38872F8361
:101FB0008230924018F40E94A10FF3CFCE010E940C
:101FC000A40F1E82DF91CF910895673028F026E19B
:101FD000FC01258380E00895623079F038F06430A8
:101FE000A9F090F06530A1F082E508C080E580930B
:101FF000830281E080938402089580E580938302C8
:102000001092840281E0089581E5F1CF81E5F6CF59
:1020100082E5EDCF0F931F93CF93DF93EB010E94E7
:10202000CC228B010E94A10F8F3F69F00E94CC222D
:10203000601B710B6C177D07A8F380E0DF91CF91D7
:102040001F910F91089581E0F9CF8F929F92AF92E7
:10205000BF92FF920F931F93CF93DF93EC01F62E65
:1020600049015A010E94CB0FCE010E94B50F6CE2CC
:1020700071E0CE010E940A108F2D80640E949A0F99
:1020800008E110E0D501C401002E04C0B695A79563
:10209000979587950A94D2F70E949A0F08501109D4
:1020A000083F8FEF180771F785E9FF2021F088E0DE
:1020B000F8120DC087E80E949A0F10E00E94A10F4D
:1020C0008A8787FF06C01F3F21F01F5FF7CF8FEF82
:1020D000F2CFDF91CF911F910F91FF90BF90AF9002
:1020E0009F908F9008958F929F92AF92BF92EF92A0
:1020F000FF920F931F93CF93DF93EC01E62E1B8685
:1021000019861E821D824C830E94CC228B0161E0C5
:102110008C810E94F72361E08C810E9433240E940D
:10212000EC1E82E58093830281E08093840280919B
:102130008302909184020E94800F2AE0F22E8FEF9A
:102140000E949A0FFA94F110FACF809190048111B5
:102150000E94730FCE010E94B50F20E030E0A9016C
:1021600060E0CE010E942510F82E8A8781E0F816E3
:10217000C1F00E94CC22601B710B613D774068F377
:1021800081E08D83CE010E94A40F80E0DF91CF918A
:102190001F910F91FF90EF90BF90AF909F908F9005
:1021A00008952AEA31E040E050E068E0CE010E9464
:1021B000251082FF25C0FB868B85812C912C540134
:1021C000823029F4812C912CA12C80E4B82E20E0BF
:1021D00030E0A90167E3CE010E942510A50194011A
:1021E00069E2CE010E9425108A878823C1F00E94EF
:1021F000CC22601B710B613D774048F388E0C1CF72
:1022000094E0F92E0E94A10F8A87FA94F110FACF78
:102210008A3A11F082E0B5CF82E08B87CDCF8B85F3
:102220008230C1F420E030E0A9016AE3CE010E94CF
:102230002510882311F086E0A4CF0E94A10F807C96
:10224000803C11F483E08B870E94A10F0E94A10FB4
:102250000E94A10FCE010E94A40F6E2DCE01DF912E
:10226000CF911F910F91FF90EF90BF90AF909F90F3
:102270008F900C94E50F0F931F93CF93DF93EC0196
:102280000E94CC228B010E94A10F8A878F3F91F47C
:102290000E94CC22601B710B6D327140A0F38FE065
:1022A0008D83CE010E94A40F80E0DF91CF911F911A
:1022B0000F9108958E3F11F08DE0F2CF81E0F5CFC0
:1022C000CF92DF92EF92FF920F931F93CF93DF9302
:1022D000EC016901C801820F931F8130924048F5DB
:1022E0008E81882371F088819981AA81BB818417AE
:1022F0009507A607B70729F48F819885C816D906D0
:1023000070F5488359836A837B838B85833039F0EA
:1023100089E0440F551F661F771F8A95D1F79A01F0
:10232000AB0161E1CE010E942510882379F083E0A2
:102330008D83CE010E94A40F80E0DF91CF911F9189
:102340000F91FF90EF90DF90CF900895CE010E9403
:102350003B11882371F318861F8281E08E838F8161
:1023600098858C159D0560F06701E00EF11EEC1458
:10237000FD0471F00E94A10FF60181936F01F7CF68
:102380000E94A10F8F819885019698878F83E7CF50
:102390008F819885080F191F18870F8389858823D7
:1023A00019F00115124018F0CE010E94CB0F81E008
:1023B000C4CFEF92FF920F931F930115110539F0CF
:1023C0000E9460111F910F91FF90EF90089581E09E
:1023D000F9CFEF92FF920F931F93790100E012E083
:1023E00030E020E00E9460111F910F91FF90EF906C
:1023F0000895EF92FF920F931F93CF93DF938C0179
:10240000862F7A010E949A0FE7018EEFF81A8991C0
:102410000E949A0FCE15DF05D1F78FEF0E949A0F19
:102420008FEF0E949A0F0E94A10FF80182878F718F
:10243000853069F081E18583C8010E94A40F80E0A6
:10244000DF91CF911F910F91FF90EF90089581E060
:10245000F7CFEF92FF920F93CF93DF93EC017901C7
:1024600082E1411551056105710599F08B85833035
:1024700039F089E0440F551F661F771F8A95D1F701
:102480009A01AB0168E1CE010E942510882339F042
:1024900084E08D83CE010E94A40F80E025C0A701B7
:1024A0006EEFCE010E94F9118823A1F30023C1F041
:1024B00068E572E0CE010E940A10811102C085E138
:1024C000E8CF20E030E0A9016DE0CE010E942510A8
:1024D000882311F084E1DDCF0E94A10F8111FACF92
:1024E000CE010E94A40F81E0DF91CF910F91FF9068
:1024F000EF9008951F93CF93DF93EC010E94B50FE7
:102500000E94A10F182FCE010E94A40F81E01F3F4F
:1025100009F480E0DF91CF911F910895E3E8F2E0A4
:1025200080E5808381E0818308950895CF93DF93D0
:10253000EC019C012A5F3F4F41E050E060E070E019
:102540008B8D9C8D0E946B1C8823B9F08F89988D90
:10255000A98DBA8D892B8A2B8B2B59F48C814E81B6
:102560005F81688579854F8B588F698F7A8F8068F6
:102570008C838C8180628C8381E0DF91CF91089580
:102580008F929F92AF92BF92CF92DF92EF92FF9283
:10259000CF93DF93EC010E94961281110CC080E072
:1025A000DF91CF91FF90EF90DF90CF90BF90AF90F1
:1025B0009F908F900895EB8DFC8DCE80DF80E88416
:1025C000F98482E0C81AD108E108F108858504C0C1
:1025D000CC0CDD1CEE1CFF1C8A95D2F786859785F6
:1025E000A089B189C80ED91EEA1EFB1E848146014E
:1025F0005701880E911CA11CB11C8C149D04AE04C3
:10260000BF0461F081E0881A9108A108B108C501F2
:10261000B4010E94B81A8111F0CFC1CFEB8DFC8DAF
:10262000258580E092E0A0E0B0E004C0880F991F0B
:10263000AA1FBB1F2A95D2F74B895C896D897E89B9
:10264000840F951FA61FB71F8B8B9C8BAD8BBE8BEA
:1026500081E0A6CFCF93DF93EC01462F6E857F8577
:10266000888999890E947C1A882351F08A8920E2FE
:10267000829FC001112482579D4FDF91CF91089511
:1026800090E080E0FACFFB019B01255F3F4F40E2E5
:1026900041932E173F07E1F7DC0120E037E09D91E1
:1026A000492F992319F19E3229F43A3059F028E044
:1026B0003AE0F5CFEEE9F0E08491882329F03196F5
:1026C0009813FACF80E017C03217A8F05FED590FCA
:1026D0005E3588F48FE9890F8A3110F440EE490F96
:1026E000FB01E20FF11D40832F5FD9CF81E0FB0199
:1026F0009081903239F308950F931F93CF93DF9316
:10270000FC012581222331F080E0DF91CF911F91E0
:102710000F9108958B01EC01FB018789803139F518
:1027200082E08D831F8A188E198E1A8E808D918D6E
:10273000B0E0A0E025E0880F991FAA1FBB1F2A95D3
:10274000D1F78B8B9C8BAD8BBE8B1C8F0B8F81E05D
:102750008C831E821F82188619861A861B861C8609
:102760001D861E861F86188A198A1A8ACECF803245
:1027700059F683E08D83428D538D648D758D4F8B1B
:10278000588F698F7A8F9E012D5E3F4FC8010E943E
:102790005E1B8111DACFB8CF2F923F924F925F929A
:1027A0006F927F928F929F92AF92BF92CF92DF9261
:1027B000EF92FF920F931F93CF93DF93EC015B0196
:1027C0002A018D81811115C08FEF9FEFDF91CF918D
:1027D0001F910F91FF90EF90DF90CF90BF90AF903F
:1027E0009F908F907F906F905F904F903F902F9031
:1027F00008958C8180FFE8CF0B891C892D893E8943
:102800004A855B856C857D85C201B0E0A0E06801EA
:102810007901C41AD50AE60AF70AC816D906EA06E3
:10282000FB0618F42801441A550A42011E0126E04D
:10283000220E311C8114910409F4B3C04A855B85D2
:102840006C857D856A0181E0D8228B8D9C8D8A0103
:102850009B01E9E03695279517950795EA95D1F7FD
:10286000ED81E230E1F5FC01628D738D848D958DF3
:10287000600F711F821F931F612C22E0722E6C1853
:102880007D088614970408F434012C8126FD04C0C9
:102890006114F2E07F0671F40091130110911401AC
:1028A00020911501309116010617170728073907DF
:1028B00009F053C040E00E947C1A882309F484CFB9
:1028C000C60182579D4FD5019C01260D371DFC0185
:1028D0002E173F0709F460C041914D93F9CFFC01D9
:1028E00074807A947022C114D10471F471100CC0F8
:1028F000452B462B472B39F58F89988DA98DBA8D9D
:102900008E839F83A887B987EB8DFC8D6E817F8135
:10291000888599856250710981099109258504C0CE
:10292000660F771F881F991F2A95D2F7068517858E
:1029300020893189600F711F821F931F670D711DE0
:10294000811D911D99CF4E815F81688579859101A7
:102950000E94DD1A8111D8CF37CF7501830196010E
:10296000AB01BC0180918C0290918D020E94D91123
:10297000882309F429CFA60CB71C8A859B85AC85D2
:10298000BD85860D971DA11DB11D8A879B87AC87CC
:10299000BD87861897084ECF281B390BA20EB31E91
:1029A000ECCFC20113CFFF920F931F93CF93DF930E
:1029B0001F92CDB7DEB7FC0125812230C8F08C0113
:1029C000428553856485758585E07695679557952D
:1029D00047958A95D1F7F42FFF70FF2E41E050E024
:1029E000BE016F5F7F4FC8010E94CC13019719F0A1
:1029F00090E080E012C0F80182859385A485B585BA
:102A00004F96A11DB11D82879387A487B587F0E2F9
:102A1000FF9EC001112482579D4F0F90DF91CF91EF
:102A20001F910F91FF9008958F929F92AF92BF9246
:102A3000CF92DF92EF92FF920F931F93CF93DF938A
:102A4000EC018D8181110EC080E0DF91CF911F914B
:102A50000F91FF90EF90DF90CF90BF90AF909F903D
:102A60008F9008950B891C892D893E8904171507BD
:102A70002607370748F34A015B01823031F48A8622
:102A80009B86AC86BD8681E0E0CF81149104A104D1
:102A9000B10449F41E821F82188619861A861B8685
:102AA0001C861D86F0CF0A851B852C853D85EB8D08
:102AB000FC8D858590E00996B901A8014150510926
:102AC00061097109082E04C0769567955795479559
:102AD0000A94D2F775016401E1E0CE1AD108E10849
:102AE000F10804C0F694E794D794C7948A95D2F776
:102AF000C416D506E606F70620F0012B022B032BA1
:102B000011F58F89988DA98DBA8D8E839F83A887A3
:102B1000B9878E010A5F1F4FC114D104E104F1048B
:102B200009F4ADCF4E815F816885798598018B8DE1
:102B30009C8D0E94DD1A91E0C91AD108E108F108C4
:102B40008111EACF81CFC41AD50AE60AF70AE1CF8C
:102B5000FF920F931F93CF93DF93FC0125812223D4
:102B600009F444C0F62EEC01848187FF32C061E095
:102B7000CF010E942A138C01892BC1F18D818230F3
:102B800048F48B899C89AD89BE89F801848F958F23
:102B9000A68FB78F8F89988DF801938F828F8F8939
:102BA000988DA98DBA8DB58BA48BE0918502F0919B
:102BB0008602309759F0B8016A5E7F4FC801489687
:102BC0000995F801808D918D938B828B8C818F7705
:102BD0008C83F11003C08C818F7E8C838F2DDF91CD
:102BE000CF911F910F91FF900C94521A80E0DF91CA
:102BF000CF911F910F91FF900895CF93DF93EC0138
:102C000061E00E94A815882311F01D8281E0DF9108
:102C1000CF910895CF93DF93EC018D81813029F01E
:102C200090E080E0DF91CF9108958C8181FFF8CF13
:102C300082FD13C080918C0290918D020E947A12C5
:102C40008111EECF8C8185FF1BC060E0CE010E9418
:102C5000A8158C818F7D8C83E3CF4B895C896D892E
:102C60007E898A859B85AC85BD8584179507A607D7
:102C7000B70701F3CE010E9414158111DBCFD0CF2D
:102C800040918702509188026091890270918A0276
:102C9000452B462B472B21F080E00E942E1AC0CFF7
:102CA00080618C832A853B85317080E092E0821BB5
:102CB000930BB8CF4F925F926F927F928F929F92B9
:102CC000AF92BF92EF92FF920F931F93CF93DF9338
:102CD00000D000D0CDB7DEB7FC0185818130A1F0F6
:102CE00080E00F900F900F900F90DF91CF911F9188
:102CF0000F91FF90EF90BF90AF909F908F907F903B
:102D00006F905F904F900895848181FFE9CF838910
:102D10009489A589B68984179507A607B70700F394
:102D2000892B8A2B8B2B09F478C04A015B017F0128
:102D30004284538464847584CF010E9414158823CF
:102D400079F2F701838D948D81149104A104B1046B
:102D500051F54789508D618D728D0E94761D8823B3
:102D600009F4BECFF701178A108E118E128EF7016B
:102D7000838A948AA58AB68A84818068848361E084
:102D8000C7010E94A815882309F4AACFB501A401A0
:102D9000441655066606770610F4B301A201C70172
:102DA0000E9414159ECF46815781608571859E01D2
:102DB0002F5F3F4F0E94DD1A882309F491CFF7015E
:102DC000838D948D49815A816B817C81FC01278997
:102DD0002031F1F408EF1FEF20E030E040175107F9
:102DE0006207730720F60E94761D882309F478CFC6
:102DF000F70146815781608571850FEF1FEF2FEF37
:102E00003FE0838D948D0E94C91B8111B0CF68CFA4
:102E100008EF1FEF2FEF3FE0E1CF81E062CFCF92CD
:102E2000DF92EF92FF921F93CF93DF93EC0180E24A
:102E3000689FF0011124E257FD4F9385917161F075
:102E4000842F827449F080E0DF91CF911F91FF9031
:102E5000EF90DF90CF900895142F6A8B809113012B
:102E600090911401A0911501B09116018E879F8752
:102E7000A88BB98BC488D588F12CE12C7601DD2490
:102E8000CC24CF8AD88EE98EFA8E828D938DB0E0D5
:102E9000A0E0AC01BD014C295D296E297F294F8B33
:102EA000588F698F7A8F8385887129F5848D958DE8
:102EB000A68DB78D8B8B9C8BAD8BBE8B81E08D836C
:102EC000812F8F708C831E821F82188619861A8626
:102ED0001B861C861D8681E016FFB6CF40E050E0C1
:102EE000BA01CE01DF91CF911F91FF90EF90DF905B
:102EF000CF900C945A16803109F0A5CF9E012D5E1B
:102F00003F4F8B8D9C8D0E945E1B882309F49BCFC5
:102F100084E0D5CFBF92CF92DF92EF92FF920F93D2
:102F20001F93CF93DF93CDB7DEB72B970FB6F894EF
:102F3000DEBF0FBECDBFFC01358131110BC0C22EEB
:102F40008B017C01BE016F5F7F4FCA010E9443135A
:102F5000811102C080E0A2C0F801838D948DF70139
:102F6000948F838FF801168217821086118612863D
:102F7000138614861586B12CF80182859385A48565
:102F8000B585438954896589768984179507A6078D
:102F9000B70788F525E0B695A795979587952A9563
:102FA000D1F7F82FFF70DF2EC8010E94D3140097CD
:102FB00089F2FC012081222341F0253E09F05AC00C
:102FC000BB2029F0BB24B394D7CFB1100EC0F701BA
:102FD000D28A4091130150911401609115017091B2
:102FE000160146875787608B718BFC0180818111A8
:102FF000E9CFBB24B3948C2D8271823109F0AACF22
:10300000BB2009F45BC061E0C7010E942A138C0158
:10301000892B09F49FCF80E2F80111928A95E9F794
:103020008BE0FE013196D80101900D928A95E1F76F
:10303000E0918502F0918602309709F44FC0B80103
:10304000625F7F4FC80140960995F8018089918998
:10305000938B828B918F808F86859785978B868BBC
:1030600081E00E94521A882309F474CF4C2DF70195
:10307000628911C04BE050E0BC01CE0101960E9474
:10308000F22C892B09F078CF8C2D80734C2D6D2D6F
:10309000803309F45FCFC7010E940F172B960FB63C
:1030A000F894DEBF0FBECDBFDF91CF911F910F917E
:1030B000FF90EF90DF90CF90BF900895F801858149
:1030C000823009F447CFC8010E94C012882309F456
:1030D00041CFF701128A0EE812E09DCF81E298E21B
:1030E000F801918B808B80E098E097878687ADCF41
:1030F0002F923F924F925F926F927F928F929F9208
:10310000AF92BF92CF92DF92EF92FF920F931F93F5
:10311000CF93DF9300D000D01F92CDB7DEB77C01F4
:103120006B011A01DC0115968C911597813009F01D
:10313000CAC014961C9111FFC6C012FDB0C0410157
:1031400012951F70109511701D83D7011A960D915D
:103150001D912D913C911D978114910409F426C174
:103160005B968D919C915C97FC0174807A94B90177
:10317000A80129E076956795579547952A95D1F747
:1031800074221170711020C001151105E9F4169612
:103190004D915D916D917C91199741155105610596
:1031A000710509F099C057968D919D910D90BC9134
:1031B000A02D0097A105B10509F0B0C0C7010E947C
:1031C0009612882309F47FC080E092E0801B910B67
:1031D00054018815990508F45C01D7015B964D915F
:1031E0005C915C9716968D919D910D90BC91A02D50
:1031F0000297A109B109FA01258504C0880F991F1A
:10320000AA1FBB1F2A95D2F7468557856089718909
:10321000840F951FA61FB71F9C01AD01270D311DFF
:10322000411D511D29013A01A11432E0B30609F0F4
:103230007BC08091130190911401A0911501B09170
:10324000160184159505A605B70559F48FEF9FEF74
:10325000DC018093130190931401A0931501B093A6
:1032600016010D819601B301A20180918C0290910B
:103270008D020E942912882331F19EEFD91A8A18F3
:103280009B08F70182859385A485B5858A0D9B1DD2
:10329000A11DB11D82879387A487B58756CFF701FB
:1032A000438954896589768982859385A485B58506
:1032B000481759076A077B0709F441CFC7010E94E5
:1032C000141581113CCF81E090E0D70113969C93B7
:1032D0008E93129780E007C09E012F5F3F4F0E94A0
:1032E000DD1A811102C090E07BC089819A81AB8197
:1032F000BC81F701238D348DF901278948EF5FEFF9
:1033000060E070E0203121F048EF5FEF6FEF7FE089
:1033100084179507A607B70708F050CFF7018683F3
:103320009783A087B18750CF0115110591F5D7017B
:103330001A964D915D916D917C911D9753968D914B
:103340009D910D90BC91A02D481759076A077B07E6
:1033500000F181E00E94521A882309F4B4CF409210
:103360001301509214016092150170921601809120
:103370008B02816080938B0202571D4FD601C801DA
:103380008A0D9B1DF8018E179F0759F02D912193EF
:10339000FACF41E0C301B2010E947C1A8111ECCF47
:1033A00092CF801B910BC80ED91E69CF14968C91B9
:1033B000149753964D915D916D917C91569740175E
:1033C00051076207730720F5F701038B148B258BD8
:1033D000368B80688483F701848183FD26C0C10118
:1033E0000F900F900F900F900F90DF91CF911F9142
:1033F0000F91FF90EF90DF90CF90BF90AF909F9094
:103400008F907F906F905F904F903F902F90089596
:103410002091850230918602232BE9F22114310498
:10342000D1F2806814968C93D6CF61E0C7010E94D8
:10343000A815882309F447CFD2CFCF93DF931F92EB
:10344000CDB7DEB7698341E050E0BE016F5F7F4FCB
:103450000E9478180F90DF91CF9108950F934091BB
:103460008702509188026091890270918A02411509
:1034700051056105710599F0082F2EE832E0809121
:103480008C0290918D020E942912882349F010929B
:103490008702109288021092890210928A0281E0BB
:1034A0000F9108950F93CF9390918B02911102C0C9
:1034B00081E015C0C82F4091130150911401609113
:1034C000150170911601082F2EE832E080918C02D0
:1034D00090918D020E942912811104C080E0CF9149
:1034E0000F910895CC2321F38C2F0E942E1A88234C
:1034F000A9F310928B02DCCFCF92DF92EF92FF9272
:10350000CF936B017C01C42F809113019091140122
:10351000A0911501B09116018C159D05AE05BF0552
:1035200001F181E00E94521A811107C080E0CF9121
:10353000FF90EF90DF90CF9008952EE832E0B70132
:10354000A60180918C0290918D020E94E91188233E
:1035500069F3C0921301D0921401E0921501F09228
:10356000160140918B024C2B40938B0281E0DFCF00
:10357000CF92DF92EF92FF926B017C0181E00E947B
:10358000521A8823A9F0EEE8F2E0119284E0EE38B6
:10359000F807D9F7C0921301D0921401E0921501F7
:1035A000F092160180918B02816080938B0281E002
:1035B000FF90EF90DF90CF9008958F929F92AF92FF
:1035C000BF92CF92DF92EF92FF920F931F93CF9310
:1035D000DF93FC0181859285A385B4850196A11DA9
:1035E000B11D84179507A607B70770F480E0DF9137
:1035F000CF911F910F91FF90EF90DF90CF90BF90F0
:10360000AF909F908F90089583889488A588B688FE
:103610008789803189F5BB27A72F962F852FE90150
:103620006A017B018F01BC01CD01680D791D8A1DE6
:103630009B1D8090130190901401A0901501B090F3
:10364000160186169706A806B90601F5F8018789BE
:10365000803111F5DD24EE24FF24F601EE0FFF1F6B
:10366000E257FD4F80819181B0E0A0E0888399838B
:10367000AA83BB8381E0BBCFDB01CA01C7E0B6955B
:10368000A79597958795CA95D1F7C9CF40E00E9435
:103690007C1A8111DBCFAACFE894C7F8DD24EE2491
:1036A000FF24F601EE0FFF1FEE0FFF1FE257FD4F45
:1036B00080819181A281B381BF70D8CF4F925F92F8
:1036C0006F927F92AF92BF92CF92DF92EF92FF9272
:1036D0000F931F93CF93DF9300D000D0CDB7DEB709
:1036E0008C0149835A836B837C835901C12CD12C73
:1036F0007601412C82E0582E612C712C49815A812F
:103700006B817C819E012F5F3F4FC8010E94DD1AB3
:10371000882339F1F8018585A301920104C0220FA5
:10372000331F441F551F8A95D2F7DA01C901C80E0D
:10373000D91EEA1EFB1E49815A816B817C818789D3
:10374000803111F188EF9FEFAFEFBFE048175907C5
:103750006A077B0798F2F501C082D182E282F38288
:1037600081E00F900F900F900F90DF91CF911F91FC
:103770000F91FF90EF90DF90CF90BF90AF907F9030
:103780006F905F904F90089588EF9FEFA0E0B0E0BA
:10379000DDCF4F925F926F927F928F929F92AF9206
:1037A000BF92CF92DF92EF92FF920F931F93CF932E
:1037B000DF93EC01423051056105710590F480E022
:1037C000DF91CF911F910F91FF90EF90DF90CF90FD
:1037D000BF90AF909F908F907F906F905F904F9031
:1037E000089589859A85AB85BC850196A11DB11D7B
:1037F00084179507A607B70710F3CB88DC88ED88F8
:10380000FE888F89803109F042C0BB27A72F962FF1
:10381000852F480159012A013B01C80ED91EEA1E15
:10382000FB1E8091130190911401A0911501B0919C
:103830001601C816D906EA06FB0699F58F8980316C
:10384000C1F5B301A201552766277727440F551FFD
:1038500042575D4FFA019182808280918B02816094
:1038600080938B028A89823080F08D819E81AF8126
:10387000B8858C0D9D1DAE1DBF1D80938702909352
:103880008802A0938902B0938A0281E099CFDB017C
:10389000CA01E7E0B695A79597958795EA95D1F780
:1038A000B8CF40E0C701B6010E947C1A8111C6CF93
:1038B00086CFB301A2014F77552766277727440F9C
:1038C000551F440F551F42575D4FFA018082918268
:1038D000A282B382C2CF2F923F924F925F926F9299
:1038E0007F928F929F92AF92BF92CF92DF92EF9290
:1038F000FF920F931F93CF93DF93CDB7DEB72F9730
:103900000FB6F894DEBF0FBECDBF3C014887598784
:103910006A877B873F832E83D901CD90DD90ED9020
:10392000FC90C114D104E104F10439F0BFEFCB1ACB
:10393000DB0AEB0AFB0A1D8210C0FC01C080D180AB
:10394000E280F380F1E0FD83088519852A853B85B7
:10395000013011052105310571F7F301818592854B
:10396000A385B4858C019D010F5F1F4F2F4F3F4FE3
:103970000C871D872E873F8746015701212C312C4C
:103980002101F30181859285A385B4852816390626
:103990004A065B0608F044C00C851D852E853F85D0
:1039A000081519052A053B0550F482E0882E912C54
:1039B000A12CB12C92E0C92ED12CE12CF12C9E012E
:1039C0002F5F3F4FB501A401C3010E94DD1A882378
:1039D00039F1D501C4010196A11DB11D49815A815A
:1039E0006B817C81452B462B472BA9F5AC01BD0192
:1039F0004C195D096E097F09088519852A853B8563
:103A0000401751076207730741F50FEF1FEF2FEFC4
:103A10003FE0B501A401C3010E94C91B811125C06B
:103A20001D828D812F960FB6F894DEBF0FBECDBFDD
:103A3000DF91CF911F910F91FF90EF90DF90CF908A
:103A4000BF90AF909F908F907F906F905F904F90BE
:103A50003F902F9008956C017D011FEF211A310ACC
:103A6000410A510A4C015D018CCFC814D904EA0403
:103A7000FB0488F41401250121E0221A31084108D1
:103A8000510895018401B201A101C3010E94C91B23
:103A900052014101C3CFAE81BF814D915D916D91C6
:103AA0007C91411551056105710561F4EE81FF813D
:103AB000C082D182E282F382FD81F1110BC001E06C
:103AC0000D83AFCF97018601C3010E94C91B8111ED
:103AD000EDCFA6CF1FEFC11AD10AE10AF10AD30137
:103AE000CD92DD92ED92FC9213979BCFAF92BF9255
:103AF000CF92DF92EF92FF920F931F93CF93DF93BA
:103B000000D000D0CDB7DEB75C016A017B0182E056
:103B100090E0A0E0B0E0F50180839183A283B383BD
:103B20009E012F5F3F4FB701A601C5010E94DD1A1C
:103B3000882381F100E010E09801B701A601C501DA
:103B40000E94C91B882331F1C980DA80EB80FC8098
:103B5000F50187898031C9F088EF9FEFAFEFBFE0B3
:103B6000C816D906EA06FB06D8F281E00F900F903E
:103B70000F900F90DF91CF911F910F91FF90EF90D9
:103B8000DF90CF90BF90AF90089588EF9FEFA0E0B7
:103B9000B0E0E6CF80E0EACF8F929F92AF92BF92E3
:103BA000CF92DF92EF92FF920F931F93CF93DF9309
:103BB000EC01142F70938D0260938C02442309F45E
:103BC00078C0453070F080E0DF91CF911F910F9168
:103BD000FF90EF90DF90CF90BF90AF909F908F902D
:103BE000089540E060E070E0CB010E947C1A8823D9
:103BF00051F3812F8150990BAC0164E0440F551FA4
:103C00006A95E1F742575D4FFA01E254FE4F808119
:103C10008F77C9F63C9680819181A281B3818436E9
:103C20009105A105B10578F24A535E4FFA01C080B3
:103C3000D180E280F380C114D104E104F10419F2CF
:103C400040E0C701B6010E947C1A882309F4BBCF6B
:103C50008091990290919A028115924009F0B3CF18
:103C600090919E02992309F4AECF20919C0230914D
:103C70009D02232B09F4A7CF80919B02882309F48E
:103C8000A2CF9A8B8C831D8690E041E050E02D8579
:103C9000E22FBA01022E02C0660F771F0A94E2F7E4
:103CA0008617970751F031E0320F3D87283078F3BF
:103CB0008ACFC12CD12C7601C3CF2091A4023091A0
:103CC000A50250E040E02115310541F42091B202F7
:103CD0003091B3024091B4025091B5022D833E83DE
:103CE0004F83588780919C0290919D024601570115
:103CF000880E991EA11CB11C8B8A9C8AAD8ABE8A33
:103D000000919F021091A002198F088FA0919E022E
:103D1000B0E00E94052BDC01CB01880D991DAA1D86
:103D2000BB1D8A8F9B8FAC8FBD8F25E0000F111FAD
:103D30002A95E1F701501E4F012F11270695800F9C
:103D4000911FA11DB11D8E879F87A88BB98B0091F4
:103D5000A1021091A20230E020E00115110541F40A
:103D60000091AE021091AF022091B0023091B102E9
:103D7000C81AD90AEA0AFB0AC00ED11EE21EF31EB7
:103D800004C0F694E794D794C794EA95D2F7C9860D
:103D9000DA86EB86FC868CE025EFC2162FE0D20691
:103DA000E104F10440F085EFC8168FEFD806E10476
:103DB000F10420F480E18F8B81E006CF8091BA027C
:103DC0009091BB02A091BC02B091BD028A8F9B8FE3
:103DD000AC8FBD8F80E2EFCFCF93CFB7F8948091B7
:103DE0009104811127C0E6EEF0E08491EFECF0E061
:103DF0009491E82FF0E0EE0FFF1FE95FFE4FA591D1
:103E0000B491EC91E92321F461E08AE00E9433242B
:103E100061E08AE00E94F7238CB580618CBD8CB58F
:103E200080648CBD61E08DE00E94F72361E08BE04F
:103E30000E94F723809191048F5F80939104CFBFFC
:103E4000CF91089590E080E008950895E091960460
:103E5000809197048E1731F0F0E0E856FB4F808197
:103E600090E008958FEF9FEF089520919604809140
:103E70009704821769F030E0F901E856FB4F808122
:103E80002F5F3F4F2F7333272093960490E00895C0
:103E90008FEF9FEF0895CF93DF93DC018091DF04D4
:103EA0009091E004892B09F445C01C969C911C97C5
:103EB000EDE6F0E098307CF09E305CF0943134F028
:103EC00096313CF0F0E0E0E0963129F4ECE6F0E0E9
:103ED00002C0EBE6F0E04FB7F8941092E0041092C5
:103EE000DF04309731F11C962C911C97D0E0C0E094
:103EF000273110F4C8E6D0E088819BEF28304CF0E1
:103F00002E3034F09DEF243124F09FEF26310CF455
:103F10009EEF9823988330811C962C912830ACF426
:103F200081E090E001C0880F2A95EAF7809583230D
:103F300080834FBF8091E2048093B0008091E104C0
:103F40008093B100DF91CF9108952E3014F4285062
:103F5000E7CF263114F42E50E3CF8FEB263139F31F
:103F60008FEFE5CF0F931F93CF93DF93EC018091F9
:103F7000DF049091E004009711F00E944B1F60E075
:103F80008C850E94F7238C85082E000C990BFC0170
:103F9000EB53FF4FE491E0939504FC01E452FF4F93
:103FA000E491F0E0EE0FFF1FED50FF4F85919491EB
:103FB0009F878E878D85082E000C990BFC01EB5393
:103FC000FF4F249120939404FC01E452FF4FE491AD
:103FD000F0E0EE0FFF1FE350FF4FA591B491B093B7
:103FE0009304A0939204109719F0EC91E22BEC93B8
:103FF00061E08D850E94F7238091B0008093E204F8
:104000008091B1008093E1041092B00083E080932E
:10401000B1008C85883074F08E300CF458C0843137
:1040200034F086310CF453C0863109F04BC00CE6F5
:1040300010E002C00DE610E08FEF8093DB041092D9
:10404000960410929704E881F9810680F781E02DAB
:10405000CE0109958889998981152BE4920709F485
:1040600040C0C0F58038954209F443C03FB7F8948A
:10407000F80120819C8598300CF045C081E001C09A
:10408000880F9A95EAF7822BF80180839C85F0E0EF
:10409000E0E0973110F4E8E6F0E0208184E0983029
:1040A00054F081E09E303CF082E0943124F081E0D5
:1040B00096310CF080E0822B8083D093E004C09393
:1040C000DF043FBFDF91CF911F910F9108950BE661
:1040D00010E0B2CF82312AE7920719F08115964994
:1040E00029F68DE08093DE048EE48093DC0486E084
:1040F00007C08AE18093DE0487E28093DC048AE0D3
:104100008093DD04B3CF9E3014F49850B7CF96312E
:1041100014F49E50B3CF80E4963109F4B4CF80E01C
:10412000B2CF603825E2720761F06115EBE47E07DB
:1041300041F06231FAE77F0721F0611526E9720745
:1041400089F4FC01208931892617370759F0718BD2
:10415000608B2091DF043091E0048217930711F403
:104160000C94B21F0895CF93DF93EC010E9491202D
:10417000CE01DF91CF910C94B21F1092DB0481E04D
:104180008093D9041092D8040895E091DF04F0914F
:10419000E0043097C1F00288F389E02D309709F0F0
:1041A00009942091970430E0A9014F5F5F4F4F734E
:1041B000552790919604941731F028563B4FF901FA
:1041C0008083409397040895EF92FF920F931F937B
:1041D000CF93DF93E090B200F0909504F822909195
:1041E000DB049F3F69F4F11004C00E94BD20E092FF
:1041F000DA04DF91CF911F910F91FF90EF90089516
:10420000C091DD04CE0D8091DA04C81B8091DC04DE
:10421000C89FE0011124CD2FDD27C695C69529E062
:10422000291B022F10E00C171D0708F02C2F920FEE
:104230009093DB044091D9048091D804F11011C00F
:104240002150342F330F2F3F19F0842B432FF8CFF9
:104250008093D8043093D904983048F20E94C52046
:1042600013C02150330B01C0440F2A95EAF7409345
:10427000D904842B8093D804983008F4B8CF0E94D6
:10428000C52081E0F81621F00C171D0708F4ADCF0A
:104290008FEF8093DB04ABCFCF93DF93EC013091B2
:1042A000DB043F3F99F1AE85BF858C9190919504D9
:1042B000892361F12091B20099E0931B8091DD0484
:1042C000280F8091DA04281B8091DC04289F90013C
:1042D0001124232F33272695269592171306B0F421
:1042E0008091D8042091D904915018F0822B220F8C
:1042F000FBCF8093D8042093D9049093DB040E94D1
:10430000C52081E02A893B89232B09F080E0DF91D9
:10431000CF9108959C018091970490919604891BF8
:10432000990B805C9F4F60E470E00E94BA2A811173
:1043300005C0C901F8940E944C21789490E008953A
:10434000CF92DF92EF92FF920F931F93CF93DF9361
:104350008C01E62E8091920490919304892B09F4AC
:1043600054C0D8011C968C91C4E0883054F0C1E050
:104370008E303CF0C2E0843124F0C1E086310CF094
:10438000C0E0CFB6F894D091B2008AE0D82E90E089
:10439000E0919204F091930480919404DA94DD20EA
:1043A00039F19923C1F09081892B8083F090DE044C
:1043B0008091B2008D1B8F15B0F48BB38C2379F0F4
:1043C0008BB38C2B8BBBD8011E96ED91FC91808119
:1043D0000E94E420EDCF908180958923E6CFC8012B
:1043E0000E944C21E5CFDF0D9E2D9170E694D0CF39
:1043F0009081892B8083CFBE8091B2008D1B8F1559
:1044000078F4C8010E944C21F7CF90E080E0DF9162
:10441000CF911F910F91FF90EF90DF90CF90089573
:1044200081E090E0F4CF1F920F920FB60F9211240B
:104430002F933F934F935F936F937F938F939F93AC
:10444000AF93BF93EF93FF9383B10E94E420FF915A
:10445000EF91BF91AF919F918F917F916F915F91FC
:104460004F913F912F910F900FBE0F901F90189575
:104470001F920F920FB60F9211242F933F934F93D9
:104480005F936F937F938F939F93AF93BF93EF93BC
:10449000FF9386B10E94E420FF91EF91BF91AF910D
:1044A0009F918F917F916F915F914F913F912F914C
:1044B0000F900FBE0F901F9018951F920F920FB67E
:1044C0000F9211242F933F934F935F936F937F939A
:1044D0008F939F93AF93BF93EF93FF9389B10E9404
:1044E000E420FF91EF91BF91AF919F918F917F91C8
:1044F0006F915F914F913F912F910F900FBE0F9051
:104500001F9018951F920F920FB60F9211242F93A0
:104510003F938F939F93AF93BF938091E4049091C7
:10452000E504A091E604B091E7043091E30426E0AD
:10453000230F2D3758F50296A11DB11D2093E304DA
:104540008093E4049093E504A093E604B093E70419
:104550008091E8049091E904A091EA04B091EB0401
:104560000196A11DB11D8093E8049093E904A093E6
:10457000EA04B093EB04BF91AF919F918F913F916B
:104580002F910F900FBE0F901F90189529E8230FC1
:104590000396A11DB11DD2CF2FB7F8946091E4040A
:1045A0007091E5048091E6049091E7042FBF08958F
:1045B0003FB7F8948091E8049091E904A091EA044F
:1045C000B091EB0426B5A89B05C02F3F19F00196CA
:1045D000A11DB11D3FBFBA2FA92F982F8827BC015D
:1045E000CD01620F711D811D911D43E0660F771F84
:1045F000881F991F4A95D1F708958F929F92AF9285
:10460000BF92CF92DF92EF92FF926B017C010E94EA
:10461000D8224B015C01C114D104E104F104E9F09A
:104620000E9459280E94D822681979098A099B0991
:10463000683E73408105910570F321E0C21AD108EC
:10464000E108F10888EE880E83E0981EA11CB11CD9
:10465000C114D104E104F10429F7FF90EF90DF9039
:10466000CF90BF90AF909F908F900895789484B52D
:10467000826084BD84B5816084BD85B5826085BD5E
:1046800085B5816085BDEEE6F0E080818160808344
:10469000E1E8F0E010828081826080838081816027
:1046A0008083E0E8F0E0808181608083E1EBF0E0EE
:1046B000808184608083E0EBF0E080818160808392
:1046C000EAE7F0E08081846080838081826080837B
:1046D00080818E7F80838081806880831092C1007A
:1046E00008951F93CF93DF93182FEB0161E00E9491
:1046F000F723209739F460E0812FDF91CF911F914C
:104700000C943324CF3FD10511F461E0F5CFE12FB4
:10471000F0E0E255FF4FE491E43031F140F4E23053
:10472000B1F0E330E1F0C038D1057CF7E4CFE830F8
:1047300029F1E93059F1E530B1F7809180008062CC
:1047400080938000D0938B00C0938A0004C084B50E
:10475000806884BDC7BDDF91CF911F91089584B556
:10476000806284BDC8BDF7CF80918000806880934F
:104770008000D0938900C0938800EDCF8091B00075
:1047800080688093B000C093B300E5CF8091B00003
:1047900080628093B000C093B400DDCF843081F09C
:1047A00028F4823099F08330A9F008958830A9F078
:1047B0008930C9F08530B1F4809180008F7D03C0CD
:1047C000809180008F7780938000089584B58F77E3
:1047D00084BD089584B58F7DFBCF8091B0008F7725
:1047E0008093B00008958091B0008F7DF9CFCF9372
:1047F000DF9390E0FC01EB53FF4F249184529F4FD5
:10480000FC0184918823C9F090E0880F991FFC0176
:10481000E95FFE4FA591B491FC01E350FF4FC591B4
:10482000D49161110DC09FB7F8948C91209582238B
:104830008C938881282328839FBFDF91CF9108958F
:10484000623051F49FB7F8943C91822F8095832376
:104850008C93E8812E2BEFCF8FB7F894EC912E2B11
:104860002C938FBFEACF1F93CF93DF93282F30E095
:10487000F901E255FF4F8491F901EB53FF4FD491B9
:10488000F901E452FF4FC491CC23A9F0162F8111F6
:104890000E94CE23EC2FF0E0EE0FFF1FE350FF4FFE
:1048A000A591B4918FB7F894EC91111108C0D095EF
:1048B000DE23DC938FBFDF91CF911F910895DE2B14
:1048C000F8CFFC01918D228D892F90E0805C9F4F65
:1048D000821B91098F7399270895FC01918D828D18
:1048E000981731F0828DE80FF11D858D90E00895C5
:1048F0008FEF9FEF0895FC01918D828D981761F0E5
:10490000A28DAE0FBF2FB11D5D968C91928D9F5FD2
:104910009F73928F90E008958FEF9FEF0895FC01B1
:10492000538D448D252F30E0842F90E0821B930B14
:10493000541710F0CF960895019708958CE895E2EA
:10494000892B49F080E090E0892B29F00E948C258A
:1049500081110C9400000895FC01A48DA80FB92FBB
:10496000B11DA35ABF4F2C91848D90E001968F7397
:104970009927848FA689B7892C93A089B1898C91B6
:1049800080648C93938D848D981306C00288F3897C
:10499000E02D80818F7D80830895CF93DF93EC019C
:1049A000888D8823B9F0AA89BB89E889F9898C9117
:1049B00085FD03C0808186FD0DC00FB607FCF7CFD3
:1049C0008C9185FFF2CF808185FFEDCFCE010E94D3
:1049D000AC24E9CFDF91CF910895EF92FF920F932E
:1049E0001F93CF93DF93EC0181E0888F9B8D8C8D9B
:1049F000981316C0E889F989808185FF11C0EE8976
:104A0000FF896083E889F98980818064808381E0FF
:104A100090E0DF91CF911F910F91FF90EF9008955B
:104A2000F62E0B8D10E00F5F1F4F0F731127E02E36
:104A30008C8D8E110CC00FB607FCFACFE889F9896E
:104A4000808185FFF5CFCE010E94AC24F1CFEB8DA4
:104A5000EC0FFD2FF11DE35AFF4FF0820B8FEA8917
:104A6000FB8980818062D2CF1F920F920FB60F9286
:104A700011242F938F939F93EF93FF93E091FC0466
:104A8000F091FD048081E0910205F091030582FD23
:104A90001BC09081809105058F5F8F732091060563
:104AA000821741F0E0910505F0E0E451FB4F958F4E
:104AB00080930505FF91EF919F918F912F910F901A
:104AC0000FBE0F901F9018958081F4CF1F920F9208
:104AD0000FB60F9211242F933F934F935F936F93D1
:104AE0007F938F939F93AF93BF93EF93FF938CEE3E
:104AF00094E00E94AC24FF91EF91BF91AF919F9100
:104B00008F917F916F915F914F913F912F910F9076
:104B10000FBE0F901F9018958CEE94E00E946124B8
:104B200021E0892B09F420E0822F0895ECEEF4E0D7
:104B30001382128288EE93E0A0E0B0E08483958334
:104B4000A683B78385E791E09183808385EC90E02D
:104B50009587848784EC90E09787868780EC90E047
:104B6000918B808B81EC90E0938B828B82EC90E038
:104B7000958B848B86EC90E0978B868B118E128EB2
:104B8000138E148E0895AF92BF92CF92DF92EF9260
:104B9000FF920F931F93CF93DF936C017B018B01E7
:104BA000040F151FEB015E01AE18BF08C017D10737
:104BB00059F06991D601ED91FC910190F081E02DC1
:104BC000C6010995892B79F7C501DF91CF911F9116
:104BD0000F91FF90EF90DF90CF90BF90AF9008952E
:104BE000FB0101900020E9F73197AF01461B570BFD
:104BF000DC01ED91FC910280F381E02D0994DB0151
:104C000014964D915C9115976D917C91DC01ED911D
:104C1000FC910280F381E02D09946115710511F07A
:104C20000C94F02590E080E00895DC01ED91FC917A
:104C30000190F081E02D099463E871E00C94F02577
:104C40008F929F92AF92BF92EF92FF920F931F931A
:104C5000CF93DF93CDB7DEB7A1970FB6F894DEBF41
:104C60000FBECDBF7C01FA01CB0119A2223008F49E
:104C70002AE08E010F5D1F4F822E912CB12CA12CAA
:104C8000BF01A50194010E94CE2AF901CA016A3030
:104C90000CF5605DD8016E938D01232B242B252B01
:104CA00079F790E080E0109721F0BD01C7010E94E4
:104CB000F025A1960FB6F894DEBF0FBECDBFDF91F1
:104CC000CF911F910F91FF90EF90BF90AF909F9069
:104CD0008F900895695CDECF2115310541F4DC0128
:104CE000ED91FC910190F081E02D642F09940C94DA
:104CF00020269A01AB0170E060E00C946C262F92A4
:104D00003F924F925F926F927F928F929F92AF925B
:104D1000BF92CF92DF92EF92FF921F93CF93DF93D8
:104D2000EC016A017B01722EAB019601CB01B60149
:104D30000E94912A66E871E0811126C04601570160
:104D4000E894B7F82FEF3FEF4FE75FE7C501B401F5
:104D50000E94912A81110CC02FEF3FEF4FE75FE7D0
:104D6000C501B4010E94C7286AE871E0181664F012
:104D70002FEF3FEF4FE75FE4C701B6010E941F2A04
:104D80001816B4F46EE871E0CE01DF91CF911F9157
:104D9000FF90EF90DF90CF90BF90AF909F908F905B
:104DA0007F906F905F904F903F902F900C94F025E4
:104DB0002FEF3FEF4FE75FECC701B6010E94C72816
:104DC00087FDE0CF20E030E0A901C701B6010E94D5
:104DD000C728312C212C87FF09C06DE2CE010E942B
:104DE00015261C01F7FAF094F7F8F09410E060E053
:104DF00070E080E09FE3711641F020E030E040E297
:104E000051E40E94CC281F5FF6CFA70196010E94B3
:104E10005B282B013C010E943E294B015C012AE0EA
:104E2000BC01A401CE010E9420267C01E20CF31CEF
:104E30001123B1F1C501B4010E946D299B01AC01A0
:104E4000C301B2010E945A284B015C016EE2CE01FF
:104E50000E941526E80EF91E115010F120E030E0F6
:104E600040E251E4C501B4010E94242A2B013C0117
:104E70000E943E294B014AE050E0CE010E94792673
:104E8000E80EF91EB40190E080E00E946D299B01BC
:104E9000AC01C301B2010E945A284B015C01DCCF76
:104EA000C701DF91CF911F91FF90EF90DF90CF90DE
:104EB000BF90AF909F908F907F906F905F904F903A
:104EC0003F902F9008950C947F260F931F93CF93BC
:104ED000DF93EC010E947F268C01CE010E941C26EC
:104EE000800F911FDF91CF911F910F910895FC01C9
:104EF000808191810C94AC2BCF93DF93EC0188815E
:104F00009981009711F00E94AC2B198218821D82A2
:104F10001C821B821A82DF91CF9108950F931F93F9
:104F2000CF93DF93EC018B016F5F7F4F8881998175
:104F30000E94352C009751F0998388831B830A8344
:104F400081E0DF91CF911F910F91089580E0F9CF1B
:104F5000CF93DF93EC0188819981892B49F08A8175
:104F60009B818617970720F081E0DF91CF9108950C
:104F7000CE010E948E278823C1F38C819D81892BCD
:104F800099F7E881F9811082EFCFEF92FF920F93AA
:104F90001F93CF93DF93EC017B018A01BA010E943A
:104FA000A82781110BC0CE010E947C27CE01DF9182
:104FB000CF911F910F91FF90EF9008951D830C8367
:104FC000B701888199810E94132DF0CFFB010190D8
:104FD0000020E9F73197AF01461B570B0C94C5270A
:104FE0000F931F93CF93DF93CDB7DEB729970FB6FB
:104FF000F894DEBF0FBECDBF8C01862FF801118261
:105000001082138212821582148250E0BE016F5FFB
:105010007F4F90E00E943F2DBE016F5F7F4FC80120
:105020000E94E62729960FB6F894DEBF0FBECDBFCB
:10503000DF91CF911F910F9108950F931F93CF93FD
:10504000DF93CDB7DEB762970FB6F894DEBF0FBE21
:10505000CDBF8C01CB01F801118210821382128224
:105060001582148250E0BE016F5F7F4F0E94292D90
:10507000BE016F5F7F4FC8010E94E62762960FB6A0
:10508000F894DEBF0FBECDBFDF91CF911F910F917E
:10509000089508950E9436230E9449280E94A90578
:1050A000CEE9D4E20E944A032097E1F30E949E24B5
:1050B000F9CF08955058BB27AA270E9472280C9454
:1050C000E5290E94D72938F00E94DE2920F039F422
:1050D0009F3F19F426F40C94D4290EF4E095E7FBD5
:1050E0000C94CE29E92F0E94F62958F3BA176207CB
:1050F00073078407950720F079F4A6F50C94182A15
:105100000EF4E0950B2EBA2FA02D0B01B9019001E2
:105110000C01CA01A0011124FF27591B99F0593F26
:1051200050F4503E68F11A16F040A22F232F342F6E
:105130004427585FF3CF469537952795A795F040BC
:105140005395C9F77EF41F16BA0B620B730B840BD1
:10515000BAF09150A1F0FF0FBB1F661F771F881F89
:10516000C2F70EC0BA0F621F731F841F48F48795E1
:1051700077956795B795F7959E3F08F0B0CF9395D3
:10518000880F08F09927EE0F9795879508950E944C
:10519000AA2908F481E008950E94E0280C94E529EA
:1051A0000E94DE2958F00E94D72940F029F45F3F81
:1051B00029F00C94CE2951110C94192A0C94D4295D
:1051C0000E94F62968F39923B1F3552391F3951BB7
:1051D000550BBB27AA2762177307840738F09F5F18
:1051E0005F4F220F331F441FAA1FA9F335D00E2E85
:1051F0003AF0E0E832D091505040E695001CCAF7F2
:105200002BD0FE2F29D0660F771F881FBB1F2617B4
:1052100037074807AB07B0E809F0BB0B802DBF018B
:10522000FF2793585F4F3AF09E3F510578F00C945A
:10523000CE290C94192A5F3FE4F3983ED4F3869567
:1052400077956795B795F7959F5FC9F7880F911D7B
:105250009695879597F90895E1E0660F771F881F67
:10526000BB1F621773078407BA0720F0621B730B1A
:10527000840BBA0BEE1F88F7E09508950E94FE2973
:1052800088F09F5798F0B92F9927B751B0F0E1F007
:10529000660F771F881F991F1AF0BA95C9F714C0B7
:1052A000B13091F00E94182AB1E008950C94182AA8
:1052B000672F782F8827B85F39F0B93FCCF38695F0
:1052C00077956795B395D9F73EF49095809570954D
:1052D00061957F4F8F4F9F4F0895E89409C097FBCA
:1052E0003EF490958095709561957F4F8F4F9F4FBD
:1052F0009923A9F0F92F96E9BB279395F695879501
:1053000077956795B795F111F8CFFAF4BB0F11F4C3
:1053100060FF1BC06F5F7F4F8F4F9F4F16C088236A
:1053200011F096E911C0772321F09EE8872F762FA0
:1053300005C0662371F096E8862F70E060E02AF0E1
:105340009A95660F771F881FDAF7880F96958795CD
:1053500097F90895990F0008550FAA0BE0E8FEEFA2
:1053600016161706E807F907C0F012161306E40729
:10537000F50798F0621B730B840B950B39F40A2622
:1053800061F0232B242B252B21F408950A2609F400
:10539000A140A6958FEF811D811D089597F99F6704
:1053A00080E870E060E008959FEF80EC08950024AD
:1053B0000A941616170618060906089500240A947A
:1053C00012161306140605060895092E0394000C00
:1053D00011F4882352F0BB0F40F4BF2B11F460FF8F
:1053E00004C06F5F7F4F8F4F9F4F089557FD9058B8
:1053F000440F551F59F05F3F71F04795880F97FB99
:10540000991F61F09F3F79F0879508951216130652
:105410001406551FF2CF4695F1DF08C01616170681
:105420001806991FF1CF86957105610508940895B6
:10543000E894BB2766277727CB0197F908950E9448
:10544000AA2908F48FEF08950E94372A0C94E529C1
:105450000E94D72938F00E94DE2920F0952311F010
:105460000C94CE290C94D42911240C94192A0E944E
:10547000F62970F3959FC1F3950F50E0551F629F79
:10548000F001729FBB27F00DB11D639FAA27F00D9D
:10549000B11DAA1F649F6627B00DA11D661F829FC4
:1054A0002227B00DA11D621F739FB00DA11D621FA9
:1054B000839FA00D611D221F749F3327A00D611DC6
:1054C000231F849F600D211D822F762F6A2F1124A8
:1054D0009F5750409AF0F1F088234AF0EE0FFF1FDB
:1054E000BB1F661F771F881F91505040A9F79E3F32
:1054F000510580F00C94CE290C94192A5F3FE4F3F7
:10550000983ED4F3869577956795B795F795E79587
:105510009F5FC1F7FE2B880F911D9695879597F990
:1055200008950E94AA29880B990B0895DB018F9397
:105530009F930E94052BBF91AF91A29F800D911D5B
:10554000A39F900DB29F900D11240895AA1BBB1B21
:1055500051E107C0AA1FBB1FA617B70710F0A61B73
:10556000B70B881F991F5A95A9F780959095BC0194
:10557000CD01089597FB072E16F4009407D077FD10
:1055800009D00E94A62A07FC05D03EF4909581958B
:105590009F4F0895709561957F4F0895A1E21A2E4F
:1055A000AA1BBB1BFD010DC0AA1FBB1FEE1FFF1FC7
:1055B000A217B307E407F50720F0A21BB30BE40B17
:1055C000F50B661F771F881F991F1A9469F760955E
:1055D0007095809590959B01AC01BD01CF01089518
:1055E000EE0FFF1F0590F491E02D0994A29FB001EA
:1055F000B39FC001A39F700D811D1124911DB29F07
:10560000700D811D1124911D08950E94F62AA59FF9
:10561000900DB49F900DA49F800D911D11240895AD
:105620000F931F93CF93DF938230910510F482E0A4
:1056300090E0E0918B05F0918C0530E020E0B0E047
:10564000A0E0309799F42115310509F44AC0281BD0
:10565000390B24303105D8F58A819B81611571059C
:1056600089F1FB0193838283FE0111C04081518146
:105670000281138148175907E0F04817590799F438
:10568000109761F012960C93129713961C93329612
:10569000CF01DF91CF911F910F91089500938B055A
:1056A00010938C05F4CF2115310551F042175307A3
:1056B00038F0A901DB019A01BD01DF01F801C1CF7A
:1056C000EF01F9CF90938C0580938B05CDCFFE0130
:1056D000E20FF31F8193919322503109398328837C
:1056E000D7CF2091890530918A05232B41F4209151
:1056F00002013091030130938A052093890520919E
:105700000001309101012115310541F42DB73EB75B
:105710004091040150910501241B350BE09189054E
:10572000F0918A05E217F307A0F42E1B3F0B281710
:10573000390778F0AC014E5F5F4F2417350748F00A
:105740004E0F5F1F50938A05409389058193919373
:105750009FCFF0E0E0E09CCFCF93DF930097E9F09C
:10576000FC01329713821282A0918B05B0918C05B7
:10577000ED0130E020E01097A1F420813181820F0B
:10578000931F2091890530918A052817390709F060
:1057900061C0F0938A05E0938905DF91CF91089568
:1057A000EA01CE17DF07E8F54A815B819E014115CA
:1057B0005105B1F7E901FB83EA8349915991C40F7F
:1057C000D51FEC17FD0761F4808191810296840F4B
:1057D000951FE90199838883828193819B838A83C2
:1057E000F0E0E0E012968D919C9113970097B9F547
:1057F0002D913C911197CD010296820F931F20911C
:10580000890530918A052817390739F6309751F5FF
:1058100010928C0510928B05B0938A05A093890590
:10582000BCCFD383C28340815181840F951FC81799
:10583000D90761F44E5F5F4F88819981480F591FE6
:10584000518340838A819B81938382832115310513
:1058500009F0B0CFF0938C05E0938B059ECFFD014E
:10586000DC01C0CF13821282D7CFB0E0A0E0EBE31F
:10587000FCE20C94762D8C01009751F4CB010E9430
:10588000102B8C01C801CDB7DEB7E0E10C94922D4E
:10589000FC01E60FF71F9C0122503109E217F307C4
:1058A00008F49DC0D901CD91DC911197C617D70797
:1058B00098F0C530D10530F3CE01049786179707CD
:1058C00008F3C61BD70B2297C193D1936D937C939A
:1058D000CF010E94AC2BD6CF5B01AC1ABD0A4C01A4
:1058E0008C0E9D1EA0918B05B0918C05512C412CE6
:1058F000F12CE12C109731F58091890590918A0562
:105900008815990509F05CC04616570608F058C07E
:105910008091000190910101009741F48DB79EB7ED
:105920004091040150910501841B950BE817F9077C
:1059300008F055C0F0938A05E0938905F901718359
:105940006083A0CF8D919C91119712966C901297C5
:1059500013967C901397A815B90559F56C0142E090
:10596000C40ED11CCA14DB0420F1AC014A195B0936
:10597000DA011296159780F0628273825183408318
:10598000D9016D937C93E114F10471F0D701139662
:10599000FC93EE93129776CF22968C0F9D1FF90100
:1059A00091838083F301EFCFF0938C05E0938B0517
:1059B00069CF4816590608F42C017D01D3019ACF0E
:1059C000CB010E94102B7C01009749F0AE01B80179
:1059D0000E94FF2CC8010E94AC2B870153CF10E01E
:1059E00000E050CFFB01DC0104C08D9101908019D3
:1059F00021F441505040C8F7881B990B0895FB01D2
:105A0000DC0102C001900D9241505040D8F708953A
:105A1000FC018191861721F08823D9F799270895F1
:105A20003197CF010895FB01DC0101900D92002018
:105A3000E1F70895FB01DC014150504048F001902E
:105A40000D920020C9F701C01D9241505040E0F76F
:105A500008954532510520F4423010F00C94342D55
:105A6000FB011082CB010895BB274A3031F4992302
:105A700022F4BDE2909581959F4F0C944B2D4532B9
:105A8000510520F4423010F00C944A2DFB01108295
:105A9000CB010895BB27FB015527AA27880F991F23
:105AA000AA1FA41710F0A41B83955051B9F7A05D4D
:105AB000AA3308F0A95DA193009779F7B111B193CA
:105AC0001192CB010C94642DDC01FC01672F7191C4
:105AD0007723E1F7329704C07C916D9370836291D4
